:1000000080315028013008007E14803120007F08A4
:10001000FC002100901E13282000901E1328A331FD
:10002000082380314B280B1F4B282100111D22284B
:100030002000111D2228210068088A0067080A0094
:1000400080314B282100911D2F282000911D2F2841
:10005000220069088A0068080A0080314B282100C4
:10006000911C39282000911C3928A3311523803197
:100070004B282100911E43282000911E4328A431C3
:10008000272480314B282100111E4B282000111EEF
:100090004B28A4317C247C082000FF007E1009003E
:1000A0008031522800308400883085005A30860024
:1000B000003087000030FF000430A231FC22803184
:1000C000E0308400A1308500E930860000308700F0
:1000D0000030FF000630A231FC228031DA3084008B
:1000E000A13085006A308600013087000030FF00B3
:1000F0000630A231FC22803116308400A530850004
:1001000020308600023087000030FF002030A2310E
:10011000FC22803190308400273085006030FE0062
:100120000030FF00A231F0228031FD014E3084000A
:10013000003085000C30FE000030FF00A231F022BC
:100140008031DF308400003085000A30FE0000304E
:10015000FF00A231F0228031203084000130850080
:100160004A30FE000030FF00A231F0228031A03082
:100170008400013085004130FE000030FF00A231D4
:10018000F0227E1020009F31202F01302100CC0072
:100190000030CD00CE01CF014F08803A2400C000CE
:1001A00080304002031DD728183021004E0203186A
:1001B0005D29210063082400C00021006408240098
:1001C000C100210065082400C20021006608240047
:1001D000C3000130C4000030C5000030C60000304C
:1001E000C70021004E0A2400F928C435C50DC60DEC
:1001F000C70D890BF5284408C0054508C105460808
:10020000C2054708C30543084204410440040319DA
:100210004B2921004F082400C10021004E08240072
:10022000C000C035C10DC035C10D9030C2002730AF
:10023000C3004008420786004108433D8700403F15
:10024000C400413FC500423FC600433FC7002200F3
:10025000410824004706031D3D29220040082400D0
:100260004606031D3D2922003F0824004506031DC4
:100270003D2922003E0824004406031D4129013087
:1002800042290030C800C90148082100CC052400DB
:1002900049082100CD0501302100CE070030CF3DB7
:1002A0004F08803A2400C00080304002031D5B29C3
:1002B000183021004E02031CD92821004C084D049F
:1002C00003197C291030A000A930A1008E31CE2660
:1002D0002000D5010030D1000030D0000030CF0028
:1002E0000030CE0000302200C9000030C8000030CD
:1002F000C7000030C60008002100D201D301530816
:10030000803A2400C00080304002031D8A29183042
:10031000210052020318C22A210063082400C000F1
:10032000210064082400C100210065082400C200E7
:10033000210066082400C300210053082400C500E2
:10034000210052082400C400C435C50DC435C50DB4
:100350009030C6002730C70044084607860045088D
:10036000473D8700403FC800413FC900423FCA00A7
:10037000433FCB0022004108803A2400CC004B08C8
:10038000803A4C022200031DD52924004A0822008D
:100390004002031DD5292400490822003F02031D05
:1003A000D5292400480822003E020318D92901302B
:1003B000DA2900302400CD00CE012100520A2400A9
:1003C000E329CD35CE0D890BE1294D08CF004E082C
:1003D000D0000030D01BFF30D100D2000130D3005C
:1003E0000030D4000030D5000030D6002100520A81
:1003F0002400FE29D335D40DD50DD60D890BFA294D
:100400005308CF055408D0055508D1055608D20524
:100410004F08C0055008C1055108C2055208C30560
:1004200040082000CE04240041082000CF0424000E
:1004300042082000D004240043082000D1042100F9
:1004400063082400C000210064082400C1002100CA
:1004500065082400C200210066082400C3002100B2
:1004600053082400C500210052082400C400C435EC
:10047000C50DC435C50D9030C6002730C7004408EF
:10048000460786004508473D8700403FC800413F7A
:10049000C900423FCA00433FCB004B08803ACC0022
:1004A00022004108803A24004C02031D672A2200E2
:1004B000400824004A02031D672A22003F08240046
:1004C0004902031D672A22003E082400480203183F
:1004D0006B2A01306C2A0030CD00CE012100520A77
:1004E0002400742ACD35CE0D890B722A4D08CF0019
:1004F0004E08D0000030D01BFF30D100D2000130B8
:10050000D3000030D4000030D5000030D6002100E8
:10051000520A24008F2AD335D40DD50DD60D890B60
:100520008B2A5308CF055408D0055508D105560825
:10053000D2054F08C0055008C1055108C205520830
:10054000C30540082200C604240041082200C70455
:10055000240042082200C804240043082200C904E1
:1005600001302100D2070030D33D5308803A2400E7
:10057000C00080304002031DC02A18302100520202
:10058000031C8C298931882180312100D001D101BF
:100590005108803A2400C00080304002031DD32A55
:1005A0001830210050020318080020004E082400D3
:1005B000C00020004F082400C10020005008240083
:1005C000C200200051082400C3000130C4000030E4
:1005D000C5000030C6000030C7002100500A2400CA
:1005E000F52AC435C50DC60DC70D890BF12A44087F
:1005F000C0054508C1054608C2054708C3054308AC
:100600004204410440040319072B0130082B003039
:10061000C800C901C809C909C80A0319C90A2200C2
:1006200046082400CA00220047082400CB0022000C
:1006300048082400CC00220049082400CD000130E5
:10064000CE000030CF000030D0000030D1002100BB
:10065000500A24002F2BCE35CF0DD00DD10D890B94
:100660002B2B4E08CA054F08CB055008CC05510866
:10067000CD054D084C044B044A040319412B0130AD
:10068000422B00304807D20049080318490AD3001A
:100690005208D4005308D5000030D51BFF30D600D7
:1006A000D700210051082400D9002100500824005F
:1006B000D800D835D90DD835D90D9030DA0027308B
:1006C000DB0058085A07860059085B3D870054082C
:1006D000810741315508813D41315608813D413105
:1006E0005708813D01302100D0070030D13DC82A94
:1006F0002100D50001302200E6000030E7002F2D58
:100700002100550A860001308700403FB500413F77
:10071000B600A4310C24210036082200E700210095
:1007200035082200E60008002100550A8600013045
:100730008700403FB500413FB600A4315F2421004F
:1007400036082200E700210035082200E6000800F4
:100750002100550A860001308700403FB500413F27
:10076000B6009831F720210036082200E70021006A
:1007700035082200E6000800A6317426210036085C
:100780002200E700210035082200E600080095312C
:100790001C25210036082200E70021003508220030
:1007A000E60008002100550A860001308700403F1E
:1007B000B500413FB600A331712321003608220065
:1007C000E700210035082200E60008002100550A54
:1007D000860001308700403FB500413FB6009931A7
:1007E0007921210036082200E70021003508220087
:1007F000E60008002100550A860001308700403FCE
:10080000BD00413FBE009E31072621003E08220068
:10081000E70021003D082200E60008002100550AFB
:10082000860001308700403FBD00413FBE009E3141
:10083000622621003E082200E70021003D08220038
:10084000E60008002100550A860001308700403F7D
:10085000BD00413FBE009C31B12421003E08220072
:10086000E70021003D082200E60008002100550AAB
:10087000860001308700403FB500413FB600550873
:100880000B3E860001308700403FB700413FB80073
:10089000A4319A24210036082200E70021003508FF
:1008A0002200E60008002100550A8600013087007A
:1008B000403FB500413FB60055080B3E8600013071
:1008C0008700403FB700413FB800A431B824210061
:1008D00036082200E700210035082200E600080063
:1008E0002100550A860001308700403FB500413F96
:1008F000B60055080B3E860001308700403FB70028
:10090000413FB8009631FC26210036082200E7005E
:10091000210035082200E60008002100550A860063
:1009200001308700403FB500413FB600423FB7006D
:10093000433FB80055080B3E860001308700403F1A
:10094000B900413FBA008831F0202100360822006A
:10095000E700210035082200E60008002100550AC2
:10096000860001308700403FB500413FB600550882
:100970000B3E860001308700403FB700413FB80082
:1009800095319125210036082200E7002100350825
:100990002200E60008002100550A86000130870089
:1009A000403FB500413FB60055080B3E8600013080
:1009B0008700403FB700413FB80094313424210004
:1009C00036082200E700210035082200E600080072
:1009D0009B312723210036082200E700210035083B
:1009E0002200E60008009B31742321003608220013
:1009F000E700210035082200E6000800A5319A250D
:100A0000210036082200E700210035082200E60018
:100A1000080089318821210040082200E7002100D8
:100A20003F082200E60008008A313A2221005308DC
:100A30002200E700210052082200E6000800C8302A
:100A40002100A000A830A1008E31CE260800B430CD
:100A50002100A000A830A1008E31CE260800210080
:100A600055088600013087000108FF3E031C272D32
:100A70008400173004020318272DA0310435003EEE
:100A8000820008002000C700C801C901EE30BF0085
:100A9000A930C00047089A31902285312000C60055
:100AA0004608CA004A080319080048084904031DFB
:100AB000B52E1C30B300AA30B4004A0898314D203E
:100AC0008531200033083404031D682D0230A72E21
:100AD0002030B300AA30B4004A0898314D20853147
:100AE000200033083404031D7C2D450886000130A6
:100AF00087008101810ADA2E2430B300AA30B400C5
:100B00004A0898314D208531200033083404031DF4
:100B10008B2D0330A72E2230B300AA30B4004A0830
:100B200098314D208531200033083404031D9A2D5F
:100B30000430A72E0330B300AA30B4004A0898311D
:100B40004D208531200033083404031DA92D0630C3
:100B5000A72E0D30B300AA30B4004A0898314D20BA
:100B60008531200033083404031DB82D0730A72E2B
:100B70003E30B300AA30B4004A0898314D20853188
:100B8000200033083404031DC72D0830A72EB830C9
:100B9000B300A930B4004A0898314D2085312000B7
:100BA00033083404031DD62D0930A72EC030B300FE
:100BB000A930B4004A0898314D208531200033080F
:100BC0003404031DE52D0A30A72E8430B300A9306C
:100BD000B4004A0898314D20853120003308340490
:100BE000031DF42D0B30A72E5D30B300A930B400E7
:100BF0004A0898314D208531200033083404031D04
:100C0000032E0C30A72E3F30B300A930B4004A08A1
:100C100098314D208531200033083404031D122EF5
:100C20000D30A72EC830B300A930B4004A0898315F
:100C30004D208531200033083404031D212E0E3051
:100C4000A72EF730B300A930B4004A0898314D20E0
:100C50008531200033083404031D302E0F30A72EB9
:100C60006B30B300A930B4004A0898314D2085316B
:100C7000200033083404031D3F2E1030A72E90307F
:100C8000B300A930B4004A0898314D2085312000C6
:100C900033083404031D4E2E1130A72EFE30B3004E
:100CA000A930B4004A0898314D208531200033081E
:100CB0003404031D5D2E1230A72E0830B300AA3075
:100CC000B4004A0898314D2085312000330834049F
:100CD000031D6C2E1330A72ED030B300A930B40002
:100CE0004A0898314D208531200033083404031D13
:100CF0007B2E1430A72EF030B300A930B4004A0880
:100D000098314D208531200033083404031D8A2E8C
:100D10001530A72E1730B300AA30B4004A08983116
:100D20004D208531200033083404031D992E1630E0
:100D3000A72E1230B300AA30B4004A0898314D20D3
:100D40008531200033083404031DAF2E1730C60050
:100D5000450886000130870046088100DA2E4508E4
:100D60008600013087008101DA2E48034904031D03
:100D7000C72E4A089F318F2785312000450A8600FB
:100D8000013087003708C03F3808C13FDA2E0230F3
:100D900048064904031DDA2E4A089F318F27853102
:100DA000200045080B3E8600013087003708C03F11
:100DB0003808C13F0130C8070030C93DEE30BF00E0
:100DC000A930C00000304B2D210026082000C900AA
:100DD000210027082000CA00210028082000CB009D
:100DE00003104A0D4B0DCC004C082100AE00290821
:100DF0002000C90021002A082000CA0021002B0879
:100E00002000CB0003104A0D4B0DCC004C082100F4
:100E1000AD002E080319192F2D082E020318212FBB
:100E20002E03FF3A2D072000C90019304902031C88
:100E3000212F21002908A6002A08A7002B08A800B6
:100E4000080021002D08031908002E082D020318A0
:100E5000322F2D03FF3A2E072000C9001930490216
:100E60000318080006302000C90049082100AC0022
:100E7000A81BAC17AB1B2C17A717FF30A605FF301C
:100E8000A7050030A805AA17FF30A905FF30AA055D
:100E90000030AB052D082E020318722F0130A93542
:100EA000AA0DAB0D890B4F2F0130AD022D082E0678
:100EB00003196D2F0130AC022C08073903196D2F6F
:100EC0004E2F0130A836A70CA60C890B622F0130DB
:100ED0002000C90049082100AE072E082D0603197D
:100EE000992F612F2E082D020318992F0130A63556
:100EF000A70DA80D890B772F0130AE022D082E0605
:100F00000319952F0130AC022C0807390319952FCE
:100F1000762F0130AB36AA0CA90C890B8A2F013031
:100F20002000C90049082100AD072E082D06031D29
:100F3000892FAC1FAB2FFF30A606FF30A706FF306E
:100F4000A8060130A607003003180130A7070030BB
:100F500003180130A8072C1FBD2FFF30A906FF3052
:100F6000AA06FF30AB060130A90700300318013094
:100F7000AA07003003180130AB07AC012608A90707
:100F80002708AA3D2808AB3DAB1FD82FFF30A90684
:100F9000FF30AA06FF30AB060130A9070030031866
:100FA0000130AA07003003180130AB07AC01AC0ACE
:100FB00029082000B10021002A082000B2002100E9
:100FC0002B082000B30021002E082000C90049088A
:100FD000B40021002C082000CA004A08B50088315E
:100FE0000420200031082100A60020003208210042
:100FF000A700200033082100A800080005300800E1
:1010000001340034003400342000340803190D2862
:10101000330832043104031D1E280030B1000030B3
:10102000B2000030B30008000130B6003608B40743
:101030000130B336B20CB10C890B1928FE303305E0
:101040000319372814280130B6003608B4070130D8
:10105000B107003003180130B20700300318013027
:10106000B3070130B336B20CB10C890B3228FF3014
:1010700033050319442823280130B4020130B13567
:10108000B20DB30D890B3F28B21B4A28023034023F
:1010900003183C2834185228FF30B1057F30B205C0
:1010A000FF30B3050310B40C3408B600B701B80123
:1010B0001030B635B70DB80D890B59283608B10474
:1010C0003708B2043808B304350803190800B31709
:1010D000080021002F08B3003008B4003108B50023
:1010E0000310340D350DB6003608BC003C08031D56
:1010F00082280030B2000030B1000030B000003073
:10110000AF0008002F08B3003008B4003108B50064
:101110001730B536B40CB30C890B89283308B600E8
:101120003608B700B017FF30AF05FF30B00500300C
:10113000B1052F08B8003008B9003108BA00BB016A
:101140008E30BC02BC1FC0283C08803A8F3E03187A
:10115000B2280030B2000030B1000030B0000030E2
:10116000AF0008000130BB36BA0CB90CB80C890BC3
:10117000B3280130B3003308BC070319D928B228BB
:1011800018303C02031CD6280030B2000030B100F9
:101190000030B0000030AF0008000130B835B90DA4
:1011A000BA0DBB0D890BCE280130BC023C08031DD3
:1011B000CD2837080319E728B809B909BA09BB09C6
:1011C000B80A0319B90A0319BA0A0319BB0A3B087A
:1011D000B2003A08B1003908B0003808AF00080082
:1011E00003302100BC008A30BB005530890BF62843
:1011F000BB0BF628BC0BF628003222008E10210013
:1012000039033A04031D152966082000C700210090
:1012100065082000C600210064082000C5002100E8
:1012200063082000C40001302B2902302100390658
:101230003A04031D312966082000C7002100650813
:101240002000C600210064082000C50021006308BA
:101250002000C4000230C8000030C900A531572565
:1012600088312100C001C1014008BB004108BC0019
:101270000030BC1BFF30BD00BE003E08803ABF00FE
:101280003808803A3F02031D4F2937083D02031DED
:101290004F2936083C02031D4F2935083B0203182D
:1012A0005B295330890B5229000001302100C0070F
:1012B0000030C13D342922008E1400302000C700C8
:1012C0000030C6000030C5000030C4000130C80046
:1012D0000030C900A5315725883100302000C700F3
:1012E0000030C6000030C5000030C4000230C80025
:1012F0000030C900A5315725883136302100A000C3
:10130000AA30A1008E31CE262100B501B601080019
:101310009431A724893122008E1459082000C70077
:10132000220058082000C600220057082000C500EF
:10133000220056082000C4000130C8000030C90057
:10134000A5315725893122005D082000C700220001
:101350005C082000C60022005B082000C5002200B7
:101360005A082000C4000230C8000030C900A5316E
:101370005725893122008E102100C601C701470878
:10138000803AC1006E08803A4102031DC9296D08E8
:1013900046020318D5295330890BCC2900000130AF
:1013A0002100C6070030C73DBF29A1315A2189312C
:1013B000A1315721893122006F082100B900220094
:1013C0006E082100B8006A08BB006908BA009C31A9
:1013D0000F2489312100C801C9014908803AC100A0
:1013E0006C08803A4102031DF7296B084802031874
:1013F000032A5330890BFA29000001302100C80765
:101400000030C93DED2922008E142100CA01CB0114
:101410004A08C1004B08C2000030C21BFF30C300A5
:10142000C4004408803AC50022006D08803A2100BB
:101430004502031D2B2A22006C0821004302031DD4
:101440002B2A22006B0821004202031D2B2A2200B6
:101450006A08210041020318372A5330890B2E2ACB
:10146000000001302100CA070030CB3D082ABF012F
:10147000C001080047302100A000A830A1008E3133
:10148000CE268A3181302100A000A830A1008E3103
:10149000CE268A3101302100CA000030CB009631BF
:1014A00007268A3121004A084B04031D5B2AE030DD
:1014B000A000A9305F2AD8302100A000A930A100E7
:1014C0008E31CE268A31E8302100A000A930A1005B
:1014D0008E31CE268A310A302100B5000030B600A8
:1014E0000130B7000030B800963180268A319B3039
:1014F0002100A000A930A1008E31CE268A310B3008
:101500002100B5000030B6000130B7000030B8004F
:10151000963180268A3128302100A000A830A10011
:101520008E31CE268A3102302100CA000030CB0035
:10153000963107268A3121004A084B04031DA42A4C
:10154000E030A000A930A82AD8302100A000A9309E
:10155000A1008E31CE268A31E8302100A000A930CA
:10156000A1008E31CE268A310A302100B50000302C
:10157000B6000230B7000030B800963180268A31BC
:101580009B302100A000A930A1008E31CE268A31E7
:101590000B302100B5000030B6000230B70000303B
:1015A000B800963180268A319B302100A000A830F7
:1015B000A1008E31CE268A3101309A3100228A3143
:1015C00021003608803AD40080305402031DEA2AF4
:1015D00001303502031CF12AAF302100A000A930F0
:1015E000F52AA6302100A000A930A1008E31CE2618
:1015F0008A3165302100A000A830A1008E31CE26AE
:1016000008003C308400AA308500003F2000C40060
:10161000013FC5000130C6000030C7009331D02320
:101620008B313C308400AA308500003F2000C4008C
:10163000013FC5000230C6000030C7009331D023FF
:101640008B3101302000C4000030C5000130C600DD
:101650000030C7008B31DE238B3101302000C40005
:101660000030C5000230C6000030C7008B31DE23D9
:101670008B3122008E1421006C082000BA0021005A
:101680006B082000B900A53178258B31200039087E
:10169000C2003A08C3003B08C40030308400AA30BE
:1016A0008500003FBF00013FC000023FC1008C31F8
:1016B000BC248B3120003F082100A90020004008F5
:1016C0002100AA00200041082100AB000030A60044
:1016D0008030A700BF30A8008631E4268B3121007E
:1016E0002608AF002708B0002808B100883169201B
:1016F0008B3121002F08A131B7218B3121006D09D9
:10170000BD006E09BE00BD0A0319BE0A69083D0787
:101710002000B90021006A083E3D2000BA00A53132
:1017200078258B3120003908C2003A08C3003B08F5
:10173000C40033308400AA308500003FBF00013F61
:10174000C000023FC1008C31BC248B3120003F0817
:101750002100A900200040082100AA002000410823
:101760002100AB000030A6008030A700BF30A800E9
:101770008631E4268B3121002608AF002708B0000F
:101780002808B100883169208B3121002F08A13150
:10179000B2218B3103302100B6000030B7000C308D
:1017A000B8000030B9009E31BD268B3103302100D6
:1017B000A000A930A1008E31CE26080020004603EB
:1017C00047040319F22B22004D082000CB00220011
:1017D0004C082000CA0022004B082000C90022004B
:1017E0004A08002C220051082000CB00220050089B
:1017F0002000CA0022004F082000C90022004E0825
:101800002000C8004508803A2100A0008030200256
:10181000031D0D2C013020004402031C112C01304B
:10182000122C00302100A100A201A135A20DA1358A
:10183000A20D20004508803A2100A3008030230239
:10184000031D252C013020004402031C292C0130EB
:101850002A2C00302100A400A501A435A50D2000EC
:101860004508803A2100A60080302602031D3B2C4B
:10187000013020004402031C3F2C0130402C00307A
:101880002100A700A80124082704A900250828048E
:10189000AA0021082904AB0022082A04AC002B0866
:1018A000AD002C08AE000030AE1BFF30AF00B00022
:1018B0002D082000C80421002E082000C9042100A2
:1018C0002F082000CA04210030082000CB0448085B
:1018D0002100A000200049082100A10020004A08A2
:1018E0002100A20020004B082100A3001030A4001A
:1018F000A337A20CA10CA00CA40B782C210820006B
:10190000BD00210020082000BC004908BF00480895
:10191000BE0003302100A50025082000C0004708B4
:10192000C2004608C100A331DA238B3120004603F0
:101930004704031DAB2C4B082200D10020004A08AD
:101940002200D000200049082200CF0020004808D3
:101950002200CE00080020004B082200CD0020000D
:101960004A082200CC00200049082200CB002000B9
:1019700048082200CA00080020003F08C5004008AF
:10198000C6004108C7000310460D470DC8004808AF
:101990002100A0002008031DD52C00302000BF002E
:1019A0000030C0000030C100080020004208C5001F
:1019B0004308C6004408C7000310460D470DC80081
:1019C00048082100A5002508031DEE2C003020004A
:1019D000BF000030C0000030C10008002100250811
:1019E0007B3E2000C50045082100A00720003F08DD
:1019F000C5004008C6004108C7001030C736C60CF5
:101A0000C50C890BFE2C4508C80048082100A5001C
:101A100020004208C5004308C6004408C700103033
:101A2000C736C60CC50C890B102D4508C8004808E0
:101A30002100A50680302000C50045082100A5052D
:101A40002000C017C317FF30C205FF30C3050030A8
:101A5000C40500302100A1000030A2000030A30026
:101A600007302000C50045082100A40020003F1CCD
:101A7000442D42082100A107200043082100A23D77
:101A8000200044082100A33D01302000C136C00CD5
:101A9000BF0C890B452D0130C235C30DC40D890B18
:101AA0004C2D01302100A402031D362D09302000E9
:101AB000C50045082100A40020003F1C6A2D4208F3
:101AC0002100A107200043082100A23D2000440876
:101AD0002100A33D01302000C136C00CBF0C890B92
:101AE0006B2D01302100A336A20CA10C890B722DA5
:101AF0000130A402031D5C2D21082000B10021004B
:101B000022082000B200210023082000B300210099
:101B100020082000C5004508B40021002508200049
:101B2000C6004608B5008831042020003108BF00F7
:101B30003208C0003308C1000800220045084404F0
:101B400043044204031DB82D2000D5010030D1000C
:101B50000030D0000030CF000030CE000030220036
:101B6000C9000030C8000030C7000030C6000800BF
:101B7000C51B4A2E4508031DC72D4408031DC72D4C
:101B80004308031DC72D01304202031C4A2E0030BA
:101B90002000D1000030D0000030CF000030CE0057
:101BA000210066082200C900210065082200C80043
:101BB000210064082200C700210063082200C6003B
:101BC000893188218D31FF302200C207FF30C33DAB
:101BD000FF30C43DFF30C53D2100DC01DD015D0863
:101BE000803ACC0080304C02031DF82D18305C0286
:101BF0000318080021006308CC006408CD006508C4
:101C0000CE006608CF000130D0000030D100003097
:101C1000D2000030D3005C0A112ED035D10DD20D88
:101C2000D30D890B0D2E530852045104500403198F
:101C30001B2E01301C2E0030D400D501D601D70157
:101C40005408CC055508CD055608CE055708CF05D4
:101C50005D08D9005C08D800D835D90DD835D90D24
:101C60009030DA002730DB0058085A078600590800
:101C70005B3D87004C08810741314D08813D413172
:101C80004E08813D41314F08813D0130DC07003075
:101C9000DD3DEF2D210066082000D1002100650800
:101CA0002000D000210064082000CF00210063083C
:101CB0002000CE0000302200C9000030C8000030F3
:101CC000C7000030C600893188218D3101302200E3
:101CD000C2070030C33D0030C43D0030C53D210087
:101CE000DC01DD015D08803ACC0080304C02031D30
:101CF0007B2E18305C020318080021006308CC001A
:101D00006408CD006508CE006608CF000130D00021
:101D10000030D1000030D2000030D3005C0A942E95
:101D2000D035D10DD20DD30D890B902E530852040E
:101D30005104500403199E2E01309F2E0030D40010
:101D4000D501D601D7015408CC055508CD05560854
:101D5000CE055708CF055D08D9005C08D800D835F6
:101D6000D90DD835D90D9030DA002730DB0058086E
:101D70005A07860059085B3D87004C0881024131B3
:101D80004D08813B41314E08813B41314F08813B39
:101D90007D310130DC070030DD3D722EA2302100A4
:101DA000A6002608B30021002108A7002008A600ED
:101DB000A00A0319A10A2608840027088500000844
:101DC000A8002808B4003408031908002530340698
:101DD0000319EF2E3408A131D4218E31D32E2100E6
:101DE000B201F62E3216F62E3217132F2108A70055
:101DF0002008A600A00A0319A10A260884002708C3
:101E000085000008B400003A0319FF2F643A031953
:101E1000132F0D3A0319132F053A0319F22E193A0D
:101E20000319F42ED32E321B4A2F321E242F3308CF
:101E300086008701403FAE00413FAF00423FB00007
:101E4000433FB1000430352F330886008701403FFF
:101E5000A600413FA7002608AE002708AF00890D65
:101E6000893B8909B000B1000230A6002608B307FB
:101E7000B11F6A2F0330A6002608B204AE09AF09CD
:101E8000B009B109AE0A0319AF0A0319B00A031960
:101E9000B10A6A2F321E592F330886008701403F4E
:101EA000AE00413FAF00423FB000433FB1000430BD
:101EB000672F330886008701403FA600413FA700F7
:101EC0002608AE002708AF00B001B1010230A6001D
:101ED0002608B307B401B40A0A30340603199D2F4B
:101EE0003408A600A701A635A70DA635A70D00301A
:101EF00026078400A830273D8500003FA800013F49
:101F0000A900023FAA00033FAB002B083102031DCA
:101F1000932F2A083002031D932F29082F02031D37
:101F2000932F28082E02031C9D2F0130A60026089F
:101F3000B4070A303406031D702F32080339031921
:101F4000A52F2D30A131D4218E3121003408AC00D1
:101F5000AD01AC1BAD03FF302100AC07FF30AD3D40
:101F60002C0A03192D0A0319D32E00302000C200B9
:101F70000030C1000030C0000A30BF0021002D0831
:101F800085002C0884008435850D8435850D00304E
:101F90008407A830853D003F2000B100013FB2001A
:101FA000023FB300033FB400210031082000B80015
:101FB000210030082000B70021002F082000B600C3
:101FC00021002E082000B5009D3103258E31200010
:101FD0003408C6003308C5003208C4003108C30005
:101FE000993136218E3120003F08303E2100A60075
:101FF0002608B4003408A131D4218E31AB2F08005B
:102000000B340034003400341034003420340034F5
:102010002E3400343C34003448340034533400341B
:102020005B34003461340034653400346634003489
:1020300065340034613400345B340034533400348C
:10204000483400343C3400342E340034203400341E
:102050001034003400340034F0340034E034003400
:10206000D2340034C4340034B8340034AD340034D5
:10207000A53400349F3400349B3400349A34003447
:102080009B3400349F340034A5340034AD34003424
:10209000B8340034C4340034D2340034E034003472
:1020A000F034003400340034103400342034003470
:1020B0002E3400343C34003448340034533400347B
:1020C0005B340034613400346534003466340034E9
:1020D00065340034613400345B34003453340034EC
:1020E000483400343C3400342E340034203400347E
:1020F0001034003400340034F0340034E034003460
:10210000D2340034C4340034B8340034AD34003434
:10211000A53400349F3400349B3400349A340034A6
:102120009B3400349F340034A5340034AD34003483
:10213000B8340034C4340034D2340034E0340034D1
:10214000F0340034003400341034003420340034CF
:102150002E3400343C3400344834003453340034DA
:102160005B34003461340034653400346634003448
:1021700065340034613400345B340034533400344B
:10218000483400343C3400342E34003420340034DD
:102190001034003400340034F0340034E0340034BF
:1021A000D2340034C4340034B8340034AD34003494
:1021B000A53400349F3400349B3400349A34003406
:1021C0009B3400349F340034A5340034AD340034E3
:1021D000B8340034C4340034D2340034E034003431
:1021E000F0340034003400340B3400340034003454
:1021F00010340034203400342E3400343C340034A5
:1022000048340034533400345B34003461340034D7
:10221000653400346634003465340034613400348D
:102220005B34003453340034483400343C340034DC
:102230002E340034203400341034003400340034A0
:10224000F0340034E0340034D2340034C434003488
:10225000B8340034AD340034A53400349F34003435
:102260009B3400349A3400349B3400349F3400345F
:10227000A5340034AD340034B8340034C4340034F0
:10228000D2340034E0340034F0340034003400340C
:1022900010340034203400342E3400343C34003404
:1022A00048340034533400345B3400346134003437
:1022B00065340034663400346534003461340034ED
:1022C0005B34003453340034483400343C3400343C
:1022D0002E34003420340034103400340034003400
:1022E000F0340034E0340034D2340034C4340034E8
:1022F000B8340034AD340034A53400349F34003495
:102300009B3400349A3400349B3400349F340034BE
:10231000A5340034AD340034B8340034C43400344F
:10232000D2340034E0340034F0340034003400346B
:1023300010340034203400342E3400343C34003463
:1023400048340034533400345B3400346134003496
:10235000653400346634003465340034613400344C
:102360005B34003453340034483400343C3400349B
:102370002E3400342034003410340034003400345F
:10238000F0340034E0340034D2340034C434003447
:10239000B8340034AD340034A53400349F340034F4
:1023A0009B3400349A3400349B3400349F3400341E
:1023B000A5340034AD340034B8340034C4340034AF
:1023C000D2340034E0340034F034003400340034CB
:1023D0000034003410340034203400342E340034FF
:1023E0003C34003448340034533400345B3400341B
:1023F00061340034653400346634003465340034AC
:10240000613400345B3400345334003448340034D5
:102410003C3400342E340034203400341034003482
:1024200000340034F0340034E0340034D23400346A
:10243000C4340034B8340034AD340034A53400342E
:102440009F3400349B3400349A3400349B3400347D
:102450009F340034A5340034AD340034B834003433
:10246000C4340034D2340034E0340034F034003466
:102470000034003410340034203400342E3400345E
:102480003C34003448340034533400345B3400347A
:10249000613400346534003466340034653400340B
:1024A000613400345B340034533400344834003435
:1024B0003C3400342E3400342034003410340034E2
:1024C00000340034F0340034E0340034D2340034CA
:1024D000C4340034B8340034AD340034A53400348E
:1024E0009F3400349B3400349A3400349B340034DD
:1024F0009F340034A5340034AD340034B834003493
:10250000C4340034D2340034E0340034F0340034C5
:102510000034003410340034203400342E340034BD
:102520003C34003448340034533400345B340034D9
:10253000613400346534003466340034653400346A
:10254000613400345B340034533400344834003494
:102550003C3400342E340034203400341034003441
:1025600000340034F0340034E0340034D234003429
:10257000C4340034B8340034AD340034A5340034ED
:102580009F3400349B3400349A3400349B3400343C
:102590009F340034A5340034AD340034B8340034F2
:1025A000C4340034D2340034E0340034F034003425
:1025B000003400340034003410340034203400344B
:1025C0002E3400343C340034483400345334003466
:1025D0005B340034613400346534003466340034D4
:1025E00065340034613400345B34003453340034D7
:1025F000483400343C3400342E3400342034003469
:102600001034003400340034F0340034E03400344A
:10261000D2340034C4340034B8340034AD3400341F
:10262000A53400349F3400349B3400349A34003491
:102630009B3400349F340034A5340034AD3400346E
:10264000B8340034C4340034D2340034E0340034BC
:10265000F0340034003400341034003420340034BA
:102660002E3400343C3400344834003453340034C5
:102670005B34003461340034653400346634003433
:1026800065340034613400345B3400345334003436
:10269000483400343C3400342E34003420340034C8
:1026A0001034003400340034F0340034E0340034AA
:1026B000D2340034C4340034B8340034AD3400347F
:1026C000A53400349F3400349B3400349A340034F1
:1026D0009B3400349F340034A5340034AD340034CE
:1026E000B8340034C4340034D2340034E03400341C
:1026F000F03400340034003410340034203400341A
:102700002E3400343C340034483400345334003424
:102710005B34003461340034653400346634003492
:1027200065340034613400345B3400345334003495
:10273000483400343C3400342E3400342034003427
:102740001034003400340034F0340034E034003409
:10275000D2340034C4340034B8340034AD340034DE
:10276000A53400349F3400349B3400349A34003450
:102770009B3400349F340034A5340034AD3400342D
:10278000B8340034C4340034D2340034E03400347B
:10279000F034003400340034240096161616080075
:1027A00020004508803AC80080304802031DDA2B1B
:1027B00040304402031CE12B3F302000C4000030B5
:1027C000C50020004508C9004408C800480EF0397B
:1027D000C900C8014508CB004408CA000630CA3504
:1027E000CB0D890BEF2B48084A04CC0049084B0459
:1027F000CD0044084C042100A000200045084D04F1
:102800002100A100A201A11BA2032208A30020080D
:102810002000C800210021082000C9002100220852
:102820002000CA00210023082000CB001030CB3646
:10283000CA0CC90CC80C890B172C4908BD004808E4
:10284000BC00210021082000BF002100200820003A
:10285000BE000730CC004C08C0004708C200460844
:10286000C100A331DA23080021003608803A200095
:10287000C90080304902031D402C18302100350268
:1028800003189A2C21003708380403196A2C0130E8
:102890002000C9000030CA000030CB000030CC005E
:1028A0002100350A2000582CC935CA0DCB0DCC0D9E
:1028B000890B542C49082100DF0420004A0821001C
:1028C000E00420004B082100E10420004C08210016
:1028D000E204902C01302000C9000030CA00003012
:1028E000CB000030CC002100350A20007B2CC935FC
:1028F000CA0DCB0DCC0D890B772CC909CA09CB09A0
:10290000CC0949082100DF0520004A082100E00524
:1029100020004B082100E10520004C082100E205C1
:102920003630A000AA30A1008E31CE262100B5019C
:10293000B601080039302100A000AA30A1008E3174
:10294000CE2601302100B5000030B600080021007D
:102950005F0822004605D6002100600822004705D6
:10296000D7002100610822004805D8002100620834
:1029700022004905D90046092000B100220047097C
:102980002000B200220048092000B30022004909BB
:102990002000B40021005F08200031052200DA0089
:1029A00021006008200032052200DB0021006108C0
:1029B000200033052200DC002100620820003405DD
:1029C0002200DD0021005F0820004E052200DE000D
:1029D0002100600820004F052200DF00210061086F
:1029E000200050052200E00021006208200051056F
:1029F0002200E10020004E09B1004F09B200500949
:102A0000B3005109B40021005F0820003105220005
:102A1000D20021006008200032052200D3002100EE
:102A20006108200033052200D40021006208200044
:102A300034052200D50008002000C901CA014A0857
:102A4000803A2100B70080303702031D2A2D18304C
:102A5000200049020318862D21006308B70064088E
:102A6000B8006508B9006608BA000130BB00003044
:102A7000BC000030BD000030BE002000490A21002B
:102A8000452DBB35BC0DBD0DBE0D890B412D3B0841
:102A9000B7053C08B8053D08B9053E08BA053A082F
:102AA0003904380437040319742D20004A08210022
:102AB000B800200049082100B700B735B80DB73578
:102AC000B80D9030B9002730BA0037083907BB007D
:102AD00038083A3DBC003B0886003C0887000030BF
:102AE000C03FC13FC23FC33F01302000C907003093
:102AF000CA3D4A08803A2100B70080303702031DE2
:102B0000842D183020004902031C2C2D3630210062
:102B1000A000AA30A1008E31CE262100B501B60159
:102B2000080021005F08B9006008BA006108BB0016
:102B30006208BC000130BD000030BE000030BF00A4
:102B40000030C000350AA82DBD35BE0DBF0DC00D2B
:102B5000890BA42D3D08B9053E08BA053F08BB0501
:102B60004008BC053C083B043A0439040319FB2D1A
:102B7000370838040319D52D0130B9000030BA00E8
:102B80000030BB000030BC00350ACA2DB935BA0D83
:102B9000BB0DBC0D890BC62D3908E3043A08E404CB
:102BA0003B08E5043C08E604F12D0130B900003093
:102BB000BA000030BB000030BC00350AE32DB93547
:102BC000BA0DBB0DBC0D890BDF2DB909BA09BB09C4
:102BD000BC093908E3053A08E4053B08E5053C086B
:102BE000E6053630A000AA30A1008E31CE262100A5
:102BF000B501B60108003930A000AA30A1008E311D
:102C0000CE2601302100B5000030B60008002100BA
:102C10004A034B0403191B2E22004D082100D1004A
:102C200022004C082100D00022004B082100CF00D8
:102C300022004A08292E220051082100D10022003A
:102C400050082100D00022004F082100CF002200B0
:102C50004E082100CE0001302000C4000030C50025
:102C600021004B082000C70021004A082000C600B0
:102C70008B31DE23963121004B08C7004A08C6007D
:102C8000A631C326963121004708CD004608CC0066
:102C9000D11B592E5108031D572E5008031D572EC6
:102CA0004F08031D572E01304E02031C592E0130D0
:102CB0005A2E00302000CC00CD014C08C4004D0835
:102CC000C50021004B082000C70021004A08200051
:102CD000C6008B31DE239631073021004C064D04AF
:102CE0000319742E0130752E00302000CC00CD0168
:102CF0004C082100CA0020004D082100CB0008002C
:102D000022008E14FF302000C700FF30C600FF30C5
:102D1000C500FF30C400210038082000C900210090
:102D200037082000C800A531572596310030200013
:102D3000BC00BD000030BE00BF0021003508B90056
:102D400039082000C000210038082000C2002100FE
:102D500037082000C100A331DA23963122008E10FB
:102D600017302100BA000030BB00BB1BF52E22003B
:102D70000C15003222000C11210037033804031D0A
:102D8000D22E20000E1BC62E8E1DD22E2C302100DE
:102D9000A000AA30A1003B08A3003A08A2008E318F
:102DA000CE269631173021003A063B04031DEE2E45
:102DB00022008E1400302000C7000030C600003012
:102DC000C5000030C400210038082000C9002100DF
:102DD00037082000C800A53157259631FF30210063
:102DE000BA07FF30BB3DBB1FB72E6330A000A83031
:102DF000A1008E31CE26080022008E10210037035C
:102E00003804031D332F0130B9000030BA00003000
:102E1000BB000030BC00350A112FB935BA0DBB0D0F
:102E2000BC0D890B0D2F39082300B40621003A0888
:102E30002300B50621003B082300B60621003C080C
:102E40002300B70637082000C700230036082000FB
:102E5000C600230035082000C500230034082000E8
:102E6000C4000130682F0230210037063804031DEA
:102E70006E2F0130B9000030BA000030BB000030C6
:102E8000BC00350A472FB935BA0DBB0DBC0D890BF7
:102E9000432F39082300B00621003A082300B10669
:102EA00021003B082300B20621003C082300B306A2
:102EB00033082000C700230032082000C60023008A
:102EC00031082000C500230030082000C400023073
:102ED000C8000030C900A531572596313630210091
:102EE000A000AA30A1008E31CE262100B501B60186
:102EF000080000302100C3000030C2000030C100D3
:102F00000030C00035033604031D892F22000D1246
:102F10008B2F22000E1017302100C4000030C50096
:102F2000C51BE52F22000C15210035033604031DB7
:102F3000B82F20000E0E890C890C01392100B90030
:102F4000BA01440AA52FB935BA0D890BA32F390848
:102F5000BB003A08BC000030BC1BFF30BD00BE0007
:102F60003B08C0043C08C1043D08C2043E08D72FFA
:102F700020000E0C2100B900B90C390C0139BA003F
:102F8000BB01440AC52FBA35BB0D890BC32F3A08C4
:102F9000BC003B08BD000030BD1BFF30BE00BF00C1
:102FA0003C08C0043D08C1043E08C2043F08C304F5
:102FB00022000C110830890BDB2F0000FF302100AC
:102FC000C407FF30C53DC51F922F22000C112030D1
:102FD0002100A000A930A1004308A5004208A400D8
:102FE0004108A3004008A2008E31CE2621004308EC
:102FF000B8004208B7004108B6004008B500080014
:1030000020003108840032088500000833060319C7
:1030100008003208B6003108B500B10A0319B20A37
:1030200035088400360885001200031D0028B10110
:10303000B201080022008C018D018E013330210085
:103040008C0060308D00F8308E0023008E018D01E1
:103050008C0124008D018C01C8308E0025008C016C
:103060008D018E013C002108E0390D38A1002008B7
:10307000E0390E38A0002408E0391738A4003D00DC
:103080001F08E03914389F001E08E03918389E00E8
:103090001D08E03919389D0008002000B8005828A4
:1030A0000130B5003508B8070130B3070030B43D32
:1030B00033088400340885000008A3313E2398318A
:1030C000FF3A013E2000B500380886000130870035
:1030D0000108A3313E23983120003507B600360899
:1030E000B7003708031D7B283808860001308700A9
:1030F0000108031D50283708B300B401B31BB40303
:103100000800220061082000AA00220060082000B8
:10311000A90022005F082000A80022005E0820000D
:10312000A7000130AB000030AC00A5313625983146
:10313000220055082000AA00220054082000A900FF
:10314000220053082000A800220052082000A700F7
:103150000230AB000030AC00A5313625983122009A
:103160008E10A131392198310030A1319E21080003
:1031700022002208860023088700A1314E219831C1
:10318000810001302200A2070030A33D0130A402DB
:103190000030A53B240825040319D228A13172214F
:1031A000053008002015DA28A13192210800A1314C
:1031B0008E21080022003808F0007008F0000C3062
:1031C000203E860001308700413F8A00403F0A00D0
:1031D0009831013A0319D728033A0319D428013A40
:1031E0000319D428073A0319D728D7280800210043
:1031F000B61B30293608803A2000C90080304902C9
:10320000031D052918302100350203183029283004
:103210002100A000AA30A10036082000CA00210029
:1032200035082000C900C935CA0DC935CA0D90300E
:10323000CB002730CC0049084B0786004A084C3D9C
:103240008700403F2100A200413FA300423FA4006D
:10325000433FA5008E31CE262100B501B6010800FE
:1032600001302100B5000030B600080020004208FF
:10327000410440043F0403197029C801C80AC21B55
:103280004D290130BF35C00DC10DC20D890B42293A
:103290000130C7004708C8073F2942084602031DFE
:1032A0005B2941084502031D5B2940084402031DB8
:1032B0005B293F084302031C65293F08C3024008FD
:1032C000C43B4108C53B4208C63B0130C236C10C75
:1032D000C00CBF0C890B66290130C802031D4D29A3
:1032E0004608C2004508C1004408C0004308BF00AA
:1032F00008002100B801B9019529B801B901A82930
:1033000001308529023085290330B8000030B9002A
:10331000A8293930A000AA30A1008E31CE26013074
:103320002100B5000030B60008003608003A031945
:103330009A2989293508003A03197D29013A031988
:103340008029033A03198229013A0319842989291A
:103350003808B70037082000C9000130A63105261B
:10336000993136302100A000AA30A1008E31CE263E
:103370002100B501B60108007E1CC0299831B8288B
:1033800022002208860023088700A1316921993193
:10339000810001302200A2070030A33D0130A402C9
:1033A0000030A53B240825040319DA29A1319A210C
:1033B000053008002015E229A23134220800A2318C
:1033C0002C220800220038082000B1003108B1008A
:1033D0000C30203E860001308700413F8A00403F8C
:1033E0000A009931013A0319DF29033A0319DC294C
:1033F000013A0319DC29073A0319DF29DF290800FC
:103400002000CB00CC014B30B1000030B2000130C5
:10341000B3000030B400A331AD239A310030A531A0
:10342000E1259A31003A03191D2ACB302100A00072
:10343000A830A1008E31CE269A310830890B1E2A81
:1034400000004C302000B1000030B2000130B30069
:103450000030B400A331AD239A310130A531E1250C
:103460009A31003A03193B2ADD302100A000A83030
:10347000A1008E31CE2620004C08C900CA0149089F
:103480002100B50020004A082100B600080073039F
:103490007404031D4E2A22000D12502A22000E1021
:1034A0000F30F9000030FA00FA1B872A0C110130A6
:1034B000F5000030F600790A5F2AF535F60D890B24
:1034C0005D2A70087505F70071087605F800770821
:1034D000780403196D2A0E156E2A0E117208F50074
:1034E000F6017A087606031D772A79087506031D0A
:1034F000802A73037404031D7F2A0D16802A0E147C
:103500000C15FF30F907FF30FA3DFA1F562A0C114F
:1035100073037404031D8E2A0D1208000E10080098
:103520002000C4004408031D992A5408C100410822
:10353000C4004408031D9E2A003008004008B9005A
:103540003F08B8004408A731D0279A312000380836
:10355000C1004108C4074408860001308700010803
:10356000031DB52AD401003008004008B9003F0807
:10357000B8004408A731A0279A3120003808C100BC
:103580003908C20044084107C3004308D400540866
:1035900086000130870001080319D82A54088600E4
:1035A0000130870081010130C1004108D407D92AC8
:1035B000D401440808002000B500B401B40A220078
:1035C000A018080020003508B30033082200A1002D
:1035D0002010A014A0110E302000B30033082200E8
:1035E000AA00F430A8000130A9002015C230AC00B8
:1035F0002130AD00B801C230AE002130AF00B901BA
:10360000C230B0002130B100BA01C230B200213066
:10361000B300BB01C830B4002130B500BC01A231F9
:10362000A2229A31A1316F219A3142302000B1009B
:103630002130B200A23168229A314E302000B10010
:103640002630B200A23171222000B40108001730E8
:103650002100B7000030B800B81B6A2B2C30A00046
:10366000AA30A10063082000C900210064082000DE
:10367000CA00210065082000CB0021006608200058
:10368000CC002100370A20004A2B0310CC0CCB0CB5
:10369000CA0CC90CFF3E031D452B01304905210012
:1036A000A200003020004A052100A30000302000C5
:1036B0004B052100A400003020004C052100A5008E
:1036C0008E31CE269B31FF302100B707FF30B83D49
:1036D000B81F2E2B6330A000A830A1008E31CE265B
:1036E0002100B501B601080017302100B7000030F5
:1036F000B800B81BB72B2C30A000AA30A1005F087F
:103700002000C900210060082000CA0021006108D3
:103710002000CB00210062082000CC002100370AE5
:103720002000972B0310CC0CCB0CCA0CC90CFF3E0D
:10373000031D922B013049052100A200003020001A
:103740004A052100A300003020004B052100A40001
:10375000003020004C052100A5008E31CE269B3183
:10376000FF302100B707FF30B83DB81F7B2B633017
:10377000A000A830A1008E31CE262100B501B601EF
:103780000800A231D8229B310318D02BED2BA13198
:103790007A210800A1317E210800A131862108008C
:1037A00022003B08F1007108F0001230203E860034
:1037B00001308700413F8A00403F0A009B31013AB7
:1037C0000319CD2B033A0319C72B013A0319CA2B4E
:1037D000073A0319CD2BCD2B08002200A011230896
:1037E000F2002208F100A20A0319A30A710884005A
:1037F000720885000008A131A8219B310130220008
:10380000A4020030A53B24082504031D092C063022
:103810000A2C0330F3000030F40073080800200085
:10382000C9010B30A63105269C312100BD01BE0126
:1038300005302000B1000030B20021003B0820001C
:10384000B40021003A082000B3009C315F249C3171
:1038500021003E08803ABC0020003208803A210056
:103860003C02031D372C2000310821003D020318C3
:103870004C2C21003808BC003C082000C9000B304B
:10388000A63105269C3100320032000001302100B3
:10389000BD070030BE3D182CA3314E239C310318C8
:1038A000592CEE302100A000A830A1008E31CE2688
:1038B0009C312000C9010B30A631052608002000EC
:1038C000B701B21F6A2CB109B209B10A0319B20AD1
:1038D000B701B70AB41F752CB309B409B30A0319A9
:1038E000B40A0130B5003508B706B801B90131088E
:1038F00032040319A42CB601B60AB21B892C01307C
:10390000B135B20D890B802C0130B5003508B607F2
:103910007D2C0130B835B90D890B8A2C3208340260
:10392000031D942C31083302031C9B2C3108B30275
:103930003208B43B38140130B236B10C890B9C2CE0
:103940000130B602031D892C37080319AC2CB809C5
:10395000B909B80A0319B90A3908B2003808B10020
:10396000080021003E08EC003D08EB006C08200038
:10397000BA0021006B082000B900A53178259C31E0
:1039800020003908C2003A08C3003B08C4003030A8
:103990008400AA308500003FBF00013FC000023F05
:1039A000C1008C31BC249C3120003F082100A900BB
:1039B000200040082100AA00200041082100AB009F
:1039C0000030A6008030A700BF30A8008631E42672
:1039D0009C3121002608AF002708B0002808B1005C
:1039E000883169209C3121002F08A131B7219C31F9
:1039F00036302100A000AA30A1008E31CE26210051
:103A0000BD01BE01080000302000BD000030BC0038
:103A10000030BB000030BA003408330432043104F3
:103A200003194D2DBE01BE0AB41B222D0130B13544
:103A3000B20DB30DB40D890B172D0130B900390843
:103A4000BE07142D0130BA35BB0DBC0DBD0D890B61
:103A5000232D34083802031D372D33083702031D88
:103A6000372D32083602031D372D31083502031C6D
:103A7000422D3108B5023208B63B3308B73B340853
:103A8000B83B3A140130B436B30CB20CB10C890B0C
:103A9000432D0130BE02031D222D3D08B4003C0819
:103AA000B3003B08B2003A08B1000800200034031C
:103AB0003504031D5E2D22000D12602D22000E1014
:103AC0000F302000BA000030BB00BB1BA12D22002C
:103AD0000C1101302000B6000030B7003A0A722DF8
:103AE000B635B70D890B702D31083605B800320890
:103AF0003705B900380839040319812D22000E1545
:103B0000832D22000E1120003308B600B7013B08B8
:103B10003706031D8D2D3A083606031D982D3403F4
:103B20003504031D962D22000D16982D22000E142B
:103B300022000C15FF302000BA07FF30BB3DBB1F31
:103B4000672D22000C11200034033504031DAB2D1A
:103B500022000D12080022000E1008007E1CB22D5B
:103B60009B31C12BA33122239D310318C12DDF2DA1
:103B7000A23104220800A2310C220800A2311C222A
:103B8000080022003B082000B2003208B1001230C9
:103B9000203E860001308700413F8A00403F0A00F6
:103BA0009D31013A0319BE2D033A0319B82D013A8C
:103BB0000319BB2D073A0319BE2DBE2D08002200A4
:103BC000A01123082000B300220022082000B20028
:103BD0002200A20A0319A30A200032088400330835
:103BE00085000008A131CE219D3101302200A402C0
:103BF0000030A53B24082504031D002E0630012EAD
:103C000003302000B4000030B50034080800210063
:103C10003E08EA003D08E9006D09BF006E09C000DA
:103C2000BF0A0319C00A69083F072000B900210034
:103C30006A08403D2000BA00A53178259E31200059
:103C40003908C2003A08C3003B08C400333084007E
:103C5000AA308500003FBF00013FC000023FC10005
:103C60008C31BC249E3120003F082100A900200097
:103C700040082100AA00200041082100AB000030CC
:103C8000A6008030A700BF30A8008631E4269E3110
:103C900021002608AF002708B0002808B1008831AD
:103CA00069209E3121002F08A131B2219E3136308A
:103CB0002100A000AA30A1008E31CE262100BD0136
:103CC000BE01080021003E08EE003D08ED006D0930
:103CD000BF006E09C000BF0A0319C00A69083F0788
:103CE0002000B90021006A08403D2000BA00A5313B
:103CF00078259E3120003908C2003A08C3003B08ED
:103D0000C40033308400AA308500003FBF00013F6B
:103D1000C000023FC1008C31BC249E3120003F080E
:103D20002100A900200040082100AA00200041082D
:103D30002100AB000030A6008030A700BF30A800F3
:103D40008631E4269E3121002608AF002708B00006
:103D50002808B100883169209E3121002F08A13147
:103D6000B2219E3136302100A000AA30A1008E3150
:103D7000CE262100BD01BE01080044308400AA30D7
:103D800085000008A2313C229E3144308400AA30D4
:103D9000850000089A31DB229E3104302100BA00F0
:103DA0003D30890BD12EBA0BD12E0032A231982290
:103DB0009E3104302100BA003D30890BDD2EBA0B54
:103DC000DD2E00322000C9010230A63105269E31C9
:103DD00004302100BA003D30890BEC2EBA0BEC2EDA
:103DE0000032210036083838BA003A082000C900ED
:103DF0000130A63105269E3104302100BA003D3045
:103E0000890B002FBA0B002F003221003808BA00AE
:103E10003A082000C9000230A63105269E31043040
:103E20002100BA003D30890B132FBA0B132F00323B
:103E3000FF302100A000A830A1008E31CE2608005E
:103E4000A33198239F31A3302100DE005530890B28
:103E5000272FDE0B272F8B170B174E302100A000CA
:103E6000A930A1008E31CE269F318B3101239F31A5
:103E7000402F8D319D259F31402F8031C5209F31AE
:103E80002000560803196C2FA431F6249F3121001D
:103E9000DE0020005208CD3E860001308700210060
:103EA0005E08810020005208CD3E86000130870068
:103EB0000A300106031D672F5208CD3E86000130EF
:103EC0008700810101302200E4000030E50001306C
:103ED0002000D2070030D33D220064086504031996
:103EE000852FB8302100DE005E082000C500CD30EF
:103EF000853142259F312200E401E5012000D201F5
:103F0000D301B830833178239F3120005508013A1E
:103F10000319392F033A03193D2F402F402F20005A
:103F2000BE003E0886000130870020300106031DD8
:103F30009E2F0130B9003908BE07912F3E08860038
:103F400001308700093001060319992FBC01BD011A
:103F5000BB013E088600013087002D300106031D9D
:103F6000B62F0130B9003908BB07BE2F3E088600C6
:103F7000013087002B300106031DC22F0130B9002C
:103F80003908BE073E088600013087000108A331CA
:103F90002F239F31031CEB2F20003D08B2003C086B
:103FA000B1000A30B3000030B400A43143249F3183
:103FB00020003E0886000130870001083107B90063
:103FC00032080318320ABA003908D03EBC00FF306C
:103FD0003A3DBD00BE2F20003B080319FB2F3C09D2
:103FE000B9003D09BA00B90A0319BA0A3908B7007D
:103FF0003A08B80008003D08B8003C08B7000800BF
:104000008331942B8331802B8331A82B8331BC2BBC
:104010008531272D8431AE2C8431CB2C8331C72BB5
:104020008331D22B8331E62B8331FA2B84310E2C52
:104030008431222C8431362C8431532C8431702CE1
:1040400084318D2C8431E82C8431F32C8431FE2C86
:0C4050008531092D8531142D85311F2D7F
:10426E000800080020009713080020001F11080006
:10427E00200011110800A1313F21080024009614DE
:10428E0008002400161508002400961508002400C6
:10429E001108080020009115080020009111080057
:1042AE0020009717080020001F1508002400161480
:1042BE000800240096140800240016150800240097
:1042CE00961508002400110808002000911508001A
:1042DE0020009111080024009612161608002400E2
:1042EE00961616160800A131452101300800A1319D
:1042FE00452102300800A131452101300800A131CD
:10430E00482100300800A131722105300800A1318A
:10431E0076210A300800A1317621093008001630C6
:10432E002100970008002400961216160800F000CF
:10433E007008200095000800F000700820009D0015
:10434E000800F000700824009100080022002010E0
:10435E00AB010E3008002000B100310896000800B5
:10436E002000B10031089E0008002200A011A131EA
:10437E004B21043008007E1CC629803102280130F2
:10438E0008007E1CCC298731FE2F05300800200046
:10439E00B10031082400910008002000B30033085A
:1043AE00A63129260800E8340334003400347F3463
:1043BE000034E83403340A3400340A340034A131B2
:1043CE00372122002010AB010E3008002200A0156C
:1043DE002135A131A821033008002200A0150314B5
:1043EE00210DA131A8210530080032009101920162
:1043FE00930194019501960108007E1C082AA131B3
:10440E007A29A1316021013008007E1C102AA131C9
:10441E007E29A1316021023008007E1C182AA131AC
:10442E008229A1316021013008007E1C202AA13191
:10443E008629A1316321003008007E1C282AA13173
:10444E008A29A1319A21053008007E1C302AA1311B
:10445E008E299331CC230A3008007E1C382AA131D4
:10446E0092299331CC23093008002000B200320883
:10447E00B10031082200A100080022008E14A131E3
:10448E003C21A2310030A131A321080020003208C6
:10449E002300E400200031082300E3000800200080
:1044AE0032082300E200200031082300E10008005A
:1044BE007E1C632AA131AD2922002010AB010E30E3
:1044CE000800200032082100E800200031082100F9
:1044DE00E7000800200032082200E9002000310821
:1044EE002200E80008006230320099009B019D0115
:1044FE0003309F0020309E0008007E1C882AA131C8
:10450E00BC292200A011A13166210430080021002F
:10451E00110C2000B100B10C310C0139B200320C7B
:10452E00080080302100B50035082000C900023097
:10453E00A631052608002400951A0800940128309B
:10454E00950096010330920008007E1CB02AA1311E
:10455E00E629A131382122002010AB010E300800CF
:10456E007E1CBB2AA131ED292200A0152135A131D7
:10457E00CE21033008002000911908002000911967
:10458E0008000830890BC92A0000C52A2200201C09
:10459E0008000030A231C222A231A6314E26A2312D
:1045AE00CD2A24001608BF3940389600160E890C05
:1045BE00890C0139F000700C08007E1CE82AA1312C
:1045CE00F4292200A0150314210DA131CE210530AE
:1045DE0008006400800101310130FE020030FF3B13
:1045EE007F087E0403190034F12AFE0012001E001B
:1045FE000130FE020030FF3B7F087E0403190034B9
:10460E00FD2A200090122300630864040319080099
:10461E0064088A0063080A00A33108002000911084
:10462E002300610862040319080062088A00610809
:10463E000A00A331080024001608BF39403896003E
:10464E00160E890C890C01392000B100310C0800BE
:10465E002000B200B1013A30320203183C2B303048
:10466E003202031C3C2BB101B10A310C08002000B0
:10467E00B2007B30320203184C2B61303202031C25
:10468E004C2BDF30B1003108B20532080800003083
:10469E009A310022A331210035082000CD004D08AB
:1046AE002100B700371C5D2B03100800031408000F
:1046BE000F3020009E009D01911021009114443076
:1046CE002000B1002230B200A23156224E3020001E
:1046DE009F000800210036082200EF002100350857
:1046EE002200EE0036302100A000AA30A1008E314B
:1046FE00CE262100B501B6010800583020009800E2
:10470E0061309600950190122100901681302000A4
:10471E00B1001830B200A2314D228930200097002E
:10472E000800A131FC21A33198311A20A331A23106
:10473E007A22A331A1319621A331A3315F23A33174
:10474E00A3318423A331A331F22308002200201DBC
:10475E000800200032082200A300200031082200A9
:10476E00A200200034082200A500200033082200F9
:10477E00A4002011080020002108F1002008F000FC
:10478E00A6319A26A33120002308F1002208F0005A
:10479E002408FB007B08F2002608F4002508F3002D
:1047AE009A314722080020003D08B2003C08B100B3
:1047BE00A7317027A33120003F08B2003E08B10098
:1047CE004008C3004308B3004208B5004108B400D6
:1047DE009D31562508002100911211120830230038
:1047EE009F0090309D0024309E0019309B009C014C
:1047FE00FD012000D9010830B1003108DE00D801DA
:10480E00D701D6012100911608002000D501D50A46
:10481E00210035082200C200210036082200C30004
:10482E00890D893B8909C400C50036302100A000DE
:10483E00AA30A1008E31CE262100B501B6010800A6
:10484E0023009D1C2C2C1D121D161908F000200093
:10485E005808A03E860001308700700881000130A4
:10486E00F0007008D807083058020318D80101303C
:10487E00F0007008D60708002000B501B601311C03
:10488E004C2C3308B5073408B63D0130B335B40DA2
:10489E00890B4D2C0130B236B10C890B522C3108DC
:1048AE003204031D462C3608B2003508B10008004C
:1048BE0002302000C9004908D50021003508220029
:1048CE00BE00210036082200BF00890D893B8909F0
:1048DE00C000C10036302100A000AA30A1008E31E8
:1048EE00CE262100B501B6010800083020005E0278
:1048FE000318972C5908A83E86000130870001083E
:10490E0023009A000130F00070082000D90708300B
:10491E0059020318D9010130F0007008DE070800B3
:10492E00210011120800210036082000C5002100C8
:10493E0035082000C400210038082000C7002100DF
:10494E0037082000C6008B31DE23A431363021001B
:10495E00A000AA30A1008E31CE262100B501B601ED
:10496E000800210036082000C5002100350820006F
:10497E00C400210038082000C7002100370820009D
:10498E00C6009331D023A43136302100A000AA30C6
:10499E00A1008E31CE262100B501B6010800A1314D
:1049AE005421A4312200A01DE62CA231D822A4311C
:1049BE00031CE62C0F30F50075082200AA00220019
:1049CE002A35203E860002308700413F8A00403F54
:1049DE000A00A431F50075082200AA000800200084
:1049EE00B20156080319F82C5708A03E8600013074
:1049FE0087000108B1003108B2000130B100310862
:104A0E00D707083057020318D70121009112013041
:104A1E002000D602210091162000320808005F34D3
:104A2E002234E4342234B7342234AE341D34BC3450
:104A3E0019348434223441342734043422340C346F
:104A4E002234143422341C342234243422342C34B0
:104A5E00223434342234AC34223416342734200039
:104A6E002708AD002808AE002908AF002A08B000BC
:104A7E001030B036AF0CAE0CAD0C890B402D2E089D
:104A8E00A1002D08A0002808A3002708A200A40159
:104A9E00A40A2C08A6002B08A500A331C2230800E7
:104AAE0020004408CA004508CB004608CC00470841
:104ABE00CD001030CD36CC0CCB0CCA0C890B612D31
:104ACE004B08BD004A08BC004508BF004408BE00A4
:104ADE00C001C00A4908C2004808C100A331DA2348
:104AEE0008002000BE01BA1F832DB909BA09B90A00
:104AFE000319BA0ABE01BE0A3908B1003A08B2005B
:104B0E00B3018E30BC003C08B4003E08BD003D0829
:104B1E00B5008831042020003108B9003208BA00EF
:104B2E003308BB000800B32D42302100A000AA308C
:104B3E00A1008E31CE26080001302100A000AA303F
:104B4E00A1008E31CE26080040302100A000AA30F0
:104B5E00A1008E31CE26080020005508013A031917
:104B6E009B2D033A0319A32DAB2D08002200A01193
:104B7E000230F0007008AB00CA2DA131822108006E
:104B8E00A1318621080022003A08F0007008F000DA
:104B9E001030203E860001308700413F8A00403FA2
:104BAE000A00A531023A0319C42D013A0319C42D86
:104BBE00C72D08002000B800B901B90A220020183C
:104BCE00022E20142000B90138080319F22D2200FC
:104BDE00AA01AA0AF82D02302000B70037082200D9
:104BEE00AA00A1315D21A531A2318E22A531031873
:104BFE00022EA231CD222000390808002000CB0061
:104C0E004B08CA004A08CC004908CA004A08CD0021
:104C1E004C30B1000030B2000230B3000030B400AE
:104C2E00A331AD23A6310030A531E125A631003ADE
:104C3E0003190800CB302100A000A830A1008E314E
:104C4E00CE2608002000B2005E0803192B2E21008C
:104C5E00111A362E2000320823009A004B2E111204
:104C6E0020003208B1007D08A83E86000130870082
:104C7E00310881000130B1003108FD0708307D0296
:104C8E000318FD010130DE022100111608007E1C02
:104C9E00522EA431D62CA1316F21A6312200A01D97
:104CAE00632EA3312223A631031C632E0F30200066
:104CBE00B60036082200AA0022002A35203E8600C1
:104CCE0002308700413F8A00403F0A00A631200093
:104CDE00B60036082200AA0008002000D5010030D8
:104CEE00D1000030D0000030CF000030CE000030B8
:104CFE002200C9000030C8000030C7000030C600D6
:104D0E000030C5000030C4000030C3000030C200C7
:104D1E0036302100A000AA30A1008E31CE2621000F
:104D2E00B501B601080022000D120F30F60000305A
:104D3E00F700F71BC12E0C110130F2000030F3000A
:104D4E00760AAB2EF235F30D890BA92E700872057B
:104D5E00F40071087305F500740875040319B92E73
:104D6E000E15BA2E0E110C15FF30F607FF30F73D5B
:104D7E00F71FA22E0C11080022008E140030200006
:104D8E00BC00BD000030BE00BF000530C9004908A0
:104D9E00C000210047082000C20021004608200064
:104DAE00C100A331DA23A63121004708B600460818
:104DBE00B5009731792721003808C9003708C80097
:104DCE003608C7003508C600080022002015F92E47
:104DDE00A13182210800A131512103300800A131F7
:104DEE008621080022003808F0007008F0000C3010
:104DFE00203E860001308700413F8A00403F0A0076
:104E0E00A731013A0319F62E033A0319EF2E013A90
:104E1E000319EF2E073A0319F22EF62E08007E1C08
:104E2E001A2FA531BD2D2200A01102302000B10095
:104E3E0031082200AB00292FA23114220800A23122
:104E4E001C22080022003A082000B1003108B100EF
:104E5E001030203E860001308700413F8A00403FDF
:104E6E000A00A731023A0319232F013A0319232FFF
:104E7E00262F08007E1C452FA631EC2E2200201571
:104E8E00522FA23114220800A1316C2103300800E8
:104E9E00A2311C220800220038082000B10031087F
:104EAE00B1000C30203E860001308700413F8A0061
:104EBE00403F0A00A731013A03194F2F033A031955
:104ECE00482F013A0319482F073A03194B2F4F2F3A
:104EDE00080022000D120F302000B7000030B8007D
:104EEE00B81B9D2F22000C1101302000B3000030A2
:104EFE00B400370A842FB335B40D890B822F3108D5
:104F0E003305B50032083405B600350836040319EA
:104F1E00932F22000E15952F22000E110C15FF3027
:104F2E002000B707FF30B83DB81F792F22000C11B3
:104F3E0008002000BE00BC01BD01AD2F0130BA003B
:104F4E003A08BE070130BC070030BD3D3E08860062
:104F5E000130870001080319CB2F3908B200380839
:104F6E00B1003E088600013087000108BA00BB017F
:104F7E003A08B3003B08B40098310020A731200056
:104F8E00310832040319A52F3D08B9003C08B800BA
:104F9E0008002000BE00BC01BD01DD2F0130BA00AB
:104FAE003A08BE070130BC070030BD3D3E08860002
:104FBE000130870001080319FB2F3908B2003808A9
:104FCE00B1003E088600013087000108BA00BB011F
:104FDE003A08B3003B08B40098310020A7312000F6
:104FEE0031083204031DD52F3D08B9003C08B80026
:104FFE00080001340034003400340A340034003424
:10500E0000346434003400340034E83403340034A3
:10501E0000341034273400340034A0348634013484
:10502E000034403442340F34003480349634983493
:10503E0000340034E134F53405340034CA349A3483
:10504E003B340A34743465347334743469346E34D6
:10505E006734203462346F34743474346F346D3486
:10506E0020344C344534443420346434723469343E
:10507E007634653472342E342E342E340A340034A1
:10508E000A342D342D342D342D347334743461346C
:10509E007234743469346E346734203463346F344C
:1050AE006D346D34203474346534733474342D346B
:1050BE002D342D342D340A340A3400342D342D344D
:1050CE002D342D34663469346E3469347334683457
:1050DE0065346434203463346F346D346D3420346D
:1050EE0074346534733474342D342D342D342D349E
:1050FE000A340034743465347334743469346E3461
:10510E006734203474346F34703420344C34453466
:10511E0044342034643472346934763465347234F1
:10512E002E342E342E3400340A34743465347334F1
:10513E00743469346E3467342034703469346534B1
:10514E007A346F342034643472346934763465348E
:10515E0072342E342E342E34003455344E345234B0
:10516E00453443344F3447344E3449345A3445343D
:10517E004434203443344F344D344D3441344E3462
:10518E00443421340A3400346434723476345F3457
:10519E00773472346934743465342034653472343F
:1051AE0072346F34723421340A34003464347234FD
:1051BE0076345F347234653461346434203465344B
:1051CE00723472346F34723421340A3400346634DB
:1051DE00693466346F3420346E346F347434203452
:1051EE007234653461346434793421340A340034D1
:1051FE00643472347634203469346E3469347434E1
:10520E00693461346C3469347A34653464340A3404
:10521E0000346134623473343A34203461346C3483
:10522E006C342034743468346534723465340A3422
:10523E00003472346534613464342034643461343F
:10524E00743461343A34203425346C3475340A3471
:10525E000034F4344A34483495349534C734C13468
:10526E00DC344534DC346D34C334B334333440343D
:10527E0068346534613474346534723470346F3428
:10528E0073347434743469346D34653400340A34D0
:10529E000A34733479347334743465346D34203491
:1052AE0064346F346E3465340A34003468346534D3
:1052BE0061347434653472347034723465347434D9
:1052CE0069346D346534003474346F346734673444
:1052DE006C346534683465346134743465347234D6
:1052EE0000343434013448349D34B0344534003401
:1052FE00DA344234003480343F34703469346534E7
:10530E007A346F346F346E34743469346D3465347A
:10531E000034743469346D34653468346534613402
:10532E0074346534723400340A340A347334683495
:10533E006F347234743473343A3420340034463457
:10534E00413449344C34453444340A340A3400343C
:10535E007034613473347334653464340A340A340B
:10536E0000346434723476345034653461346B34C2
:10537E0000346434723476344734613469346E34B4
:10538E0000346C34653464346734613469346E349B
:10539E0000346D347334743461347434753473344E
:1053AE0000344634413449344C34453444340A34A0
:1053BE0000347034613473347334653464340A34B5
:1053CE0000346F34703465346E3473343A342034B0
:1053DE00003464346F346D346F3476346534003495
:1053EE006C3465346434703477347234003467341A
:1053FE006534743441340034733465347434413458
:10540E0000346734653474344D3400347334653489
:10541E0074344D340034703469346E34673400346F
:10542E0063346F346D346D340034723465346C34DF
:10543E000034613462347334003470346F34733436
:10544E000034253464340A34003425346434203472
:10545E0000340034C8343F340034C8343D34413451
:10546E000A34003445340A3400343F3400347A347C
:0C547E0000344E340034523400345934F1
:020000040001F9
:08000E00ECFFF3FFFFFFFFFF11
:00000001FF
