:10000000803150287F3400347E14803120007F08F6
:10001000FC002100901E13282000901E1328A331FD
:10002000592380314B280B1F4B282100111D2228FA
:100030002000111D222822006B088A006A080A008D
:1000400080314B282100911D2F282000911D2F2841
:10005000220069088A0068080A0080314B282100C4
:10006000911C39282000911C3928A3316623803146
:100070004B282100911E43282000911E4328A431C3
:100080007D2480314B282100111E4B282000111E99
:100090004B28A431D2247C082000FF007E100900E8
:1000A0008031522807308400A23085005A30860003
:1000B000003087000030FF000430A3314D23803131
:1000C00047308400A2308500E93086000030870088
:1000D0000030FF000630A3314D23803122008031F3
:1000E00002208031EE00803103208031EF006C303F
:1000F0008400A53085002030860002308700003063
:10010000FF002030A3314D23803190308400273010
:1001100085006030FE000030FF00A33141238031B4
:10012000FD014E308400003085000C30FE000030B0
:10013000FF00A33141238031D93084000030850095
:100140001030FE000030FF00A33141238031203009
:100150008400013085004C30FE000030FF00A331E8
:1001600041238031A0308400013085003930FE0009
:100170000030FF00A33141237E1020009331D72BA4
:1001800001302100C6000030C700C801C90149087C
:10019000803A2400C00080304002031DD22818306D
:1001A000210048020318582921005D082400C000DE
:1001B00021005E082400C10021005F082400C20065
:1001C000210060082400C3000130C4000030C500D5
:1001D0000030C6000030C7002100480A2400F4287F
:1001E000C435C50DC60DC70D890BF0284408C005E0
:1001F0004508C1054608C2054708C305430842042F
:100200004104400403194629210049082400C10083
:10021000210048082400C000C035C10DC035C10D03
:100220009030C2002730C3004008420786004108D2
:10023000433D8700403FC400413FC500423FC600E8
:10024000433FC7002000510824004706031D3829FA
:100250002000500824004606031D382920004F08BE
:1002600024004506031D382920004E0824004406BA
:10027000031D3C2901303D290030C800C901480850
:100280002100C605240049082100C70501302100CE
:10029000C8070030C93D4908803A2400C0008030BA
:1002A0004002031D5629183021004802031CD4289F
:1002B000210046084704031977292030A000A930FF
:1002C000A1008E31CE262000D50100302100E800AB
:1002D0000030E7000030E6000030E5000030E400C8
:1002E0000030E3000030E2000030E1000800CC0103
:1002F000CD014D08803A2400C00080304002031D2B
:100300008429183021004C020318BA2A21005D0804
:100310002400C00021005E082400C10021005F0805
:100320002400C200210060082400C30021004D0801
:100330002400C50021004C082400C400C435C50DAC
:10034000C435C50D9030C6002730C70044084607A5
:1003500086004508473D8700403FC800413FC9002F
:10036000423FCA00433FCB0020005108803A24009E
:10037000CC004B08803A4C022000031DCF292400FA
:100380004A0820005002031DCF29240049082000FC
:100390004F02031DCF292400480820004E020318F5
:1003A000D3290130D42900302400CD00CE01210012
:1003B0004C0A2400DD29CD35CE0D890BDB294D08F3
:1003C000CF004E08D0000030D01BFF30D100D2004B
:1003D0000130D3000030D4000030D5000030D6000A
:1003E00021004C0A2400F829D335D40DD50DD60DA3
:1003F000890BF4295308CF055408D0055508D105B9
:100400005608D2054F08C0055008C1055108C2055D
:100410005208C30540082100E504240041082100DA
:10042000E604240042082100E704240043082100D8
:10043000E8045D082400C00021005E082400C1001B
:1004400021005F082400C200210060082400C300CE
:1004500021004D082400C50021004C082400C400E0
:10046000C435C50DC435C50D9030C6002730C70052
:100470004408460786004508473D8700403FC800BE
:10048000413FC900423FCA00433FCB004B08803A7E
:10049000CC0020005108803A24004C02031D602A41
:1004A0002000500824004A02031D602A20004F0843
:1004B00024004902031D602A20004E08240048023F
:1004C0000318642A0130652A0030CD00CE012100D6
:1004D0004C0A24006D2ACD35CE0D890B6B2A4D08B0
:1004E000CF004E08D0000030D01BFF30D100D2002A
:1004F0000130D3000030D4000030D5000030D600E9
:1005000021004C0A2400882AD335D40DD50DD60DF0
:10051000890B842A5308CF055408D0055508D10506
:100520005608D2054F08C0055008C1055108C2053C
:100530005208C30540082100E104240041082100BD
:10054000E204240042082100E304240043082100BF
:10055000E4040130CC070030CD3D4D08803A240042
:10056000C00080304002031DB82A183021004C0220
:10057000031C86298931192180312100CA01CB0150
:100580004B08803A2400C00080304002031DCB2A73
:10059000183021004A0203180800210065082400D1
:1005A000C000210066082400C10021006708240063
:1005B000C200210068082400C3000130C4000030DC
:1005C000C5000030C6000030C70021004A0A2400E0
:1005D000ED2AC435C50DC60DC70D890BE92A44089F
:1005E000C0054508C1054608C2054708C3054308BC
:1005F0004204410440040319FF2A0130002B00305B
:10060000C800C901C809C909C80A0319C90A2100D3
:1006100061082400CA00210062082400CB002100E8
:1006200063082400CC00210064082400CD000130C0
:10063000CE000030CF000030D0000030D1002100CB
:100640004A0A2400272BCE35CF0DD00DD10D890BB2
:10065000232B4E08CA054F08CB055008CC0551087E
:10066000CD054D084C044B044A040319392B0130C5
:100670003A2B00304807D20049080318490AD30032
:100680005208D4005308D5000030D51BFF30D600E7
:10069000D70021004B082400D90021004A0824007B
:1006A000D800D835D90DD835D90D9030DA0027309B
:1006B000DB0058085A07860059085B3D870054083C
:1006C000810741315508813D41315608813D413115
:1006D0005708813D01302100CA070030CB3DC02AB8
:1006E0002100D50001302200E6000030E7001C2D7B
:1006F0002100550A860001308700403FB500413F88
:10070000B600A4316224210036082200E70021004F
:1007100035082200E60008002100550A8600013055
:100720008700403FB500413FB600A431B524210009
:1007300036082200E700210035082200E600080004
:100740002100550A860001308700403FB500413F37
:10075000B60099310E21210036082200E700210061
:1007600035082200E600080095312A2521003608C8
:100770002200E700210035082200E60008002100E1
:10078000550A860001308700403FB500413FB60062
:10079000A331C223210036082200E70021003508DA
:1007A0002200E60008002100550A8600013087007B
:1007B000403FB500413FB6009931902121003608F5
:1007C0002200E700210035082200E6000800210091
:1007D000550A860001308700403FBD00413FBE0002
:1007E0009E311E2621003E082200E70021003D0820
:1007F0002200E60008002100550A8600013087002B
:10080000403FBD00413FBE009E31792621003E0899
:100810002200E70021003D082200E6000800210038
:10082000550A860001308700403FBD00413FBE00B1
:100830009C31C82421003E082200E70021003D0829
:100840002200E60008002100550A860001308700DA
:10085000403FB500413FB60055080B3E86000130D1
:100860008700403FB700413FB800A431F024210089
:1008700036082200E700210035082200E6000800C3
:100880002100550A860001308700403FB500413FF6
:10089000B60055080B3E860001308700403FB70088
:1008A000413FB800A5310E25210036082200E7009F
:1008B000210035082200E60008002100550A8600C4
:1008C00001308700403FB500413FB60055080B3E60
:1008D000860001308700403FB700413FB8009731A4
:1008E0008327210036082200E70021003508220076
:1008F000E60008002100550A860001308700403FCD
:10090000B500413FB600423FB700433FB80055082D
:100910000B3E860001308700403FB900413FBA00DE
:100920008931A221210036082200E7002100350884
:100930002200E60008002100550A860001308700E9
:10094000403FB500413FB60055080B3E86000130E0
:100950008700403FB700413FB80095319F252100F7
:1009600036082200E700210035082200E6000800D2
:100970002100550A860001308700403FB500413F05
:10098000B60055080B3E860001308700403FB70097
:10099000413FB8009431B724210036082200E70017
:1009A000210035082200E60008009B313E2321008B
:1009B00036082200E700210035082200E600080082
:1009C0009B318B23210036082200E70021003508E7
:1009D0002200E6000800A531F0252100360822009B
:1009E000E700210035082200E600080089311921BE
:1009F000210040082200E70021003F082200E60015
:100A000008008A313A22210053082200E700210021
:100A100052082200E6000800C8302100A000A830DB
:100A2000A1008E31CE260800B4302100A000A830ED
:100A3000A1008E31CE260800210055088600013025
:100A400087000108FF3E031C142D840016300402A9
:100A50000318142DA0310435003E82000800200048
:100A6000C700C801C9011130BF00AA30C000470843
:100A70009A31A72285312000C6004608CA004A08DC
:100A80000319080048084904031DA22E3F30B30093
:100A9000AA30B4004A089831642085312000330818
:100AA0003404031D552D0230942E4330B300AA3078
:100AB000B4004A089831642085312000330834049A
:100AC000031D692D45088600013087008101810AD8
:100AD000C72E4730B300AA30B4004A0898316420CA
:100AE0008531200033083404031D782D0330942E03
:100AF0004530B300AA30B4004A08983164208531EB
:100B0000200033083404031D872D0430942E263032
:100B1000B300AA30B4004A0898316420853120001F
:100B200033083404031D962D0530942E3030B30065
:100B3000AA30B4004A089831642085312000330877
:100B40003404031DA52D0630942E6130B300AA3065
:100B5000B4004A08983164208531200033083404F9
:100B6000031DB42D0730942ED330B300A930B40048
:100B70004A08983164208531200033083404031D6D
:100B8000C32D0830942EDB30B300A930B4004A08DE
:100B9000983164208531200033083404031DD22DA0
:100BA0000930942E9430B300A930B4004A0898312B
:100BB00064208531200033083404031DE12D0A3000
:100BC000942E6D30B300A930B4004A0898316420E7
:100BD0008531200033083404031DF02D0B30942E92
:100BE0004F30B300A930B4004A08983164208531F1
:100BF000200033083404031DFF2D0C30942EE33005
:100C0000B300A930B4004A0898316420853120002F
:100C100033083404031D0E2E0D30942E1A30B30009
:100C2000AA30B4004A089831642085312000330886
:100C30003404031D1D2E0E30942E7B30B300A930DA
:100C4000B4004A0898316420853120003308340408
:100C5000031D2C2E0F30942EA030B300A930B40009
:100C60004A08983164208531200033083404031D7C
:100C70003B2E1030942E2130B300AA30B4004A0825
:100C8000983164208531200033083404031D4A2E36
:100C90001130942E2B30B300AA30B4004A0898319A
:100CA00064208531200033083404031D592E12308E
:100CB000942EEB30B300A930B4004A089831642078
:100CC0008531200033083404031D682E1330942E20
:100CD0001330B300AA30B4004A089831642085313B
:100CE000200033083404031D772E1430942E3A303C
:100CF000B300AA30B4004A0898316420853120003E
:100D000033083404031D862E1530942E3530B3007D
:100D1000AA30B4004A089831642085312000330895
:100D20003404031D9C2E1630C60045088600013091
:100D3000870046088100C72E4508860001308700DD
:100D40008101C72E48034904031DB42E4A0894317B
:100D5000462485312000450A860001308700370887
:100D6000C03F3808C13FC72E023048064904031D62
:100D7000C72E4A08943146248531200045080B3E91
:100D80008600013087003708C03F3808C13F013076
:100D9000C8070030C93D1130BF00AA30C000003084
:100DA000382D210026082000C90021002708200036
:100DB000CA00210028082000CB0003104A0D4B0D6B
:100DC000CC004C082100AE0029082000C9002100F9
:100DD0002A082000CA0021002B082000CB000310A5
:100DE0004A0D4B0DCC004C082100AD002E08031914
:100DF000062F2D082E0203180E2F2E03FF3A2D0763
:100E00002000C90019304902031C0E2F21002908B7
:100E1000A6002A08A7002B08A800080021002D081A
:100E2000031908002E082D0203181F2F2D03FF3A67
:100E30002E072000C90019304902031808000630A7
:100E40002000C90049082100AC00A81BAC17AB1B4F
:100E50002C17A717FF30A605FF30A7050030A805FF
:100E6000AA17FF30A905FF30AA050030AB052D08F1
:100E70002E0203185F2F0130A935AA0DAB0D890B87
:100E80003C2F0130AD022D082E0603195A2F0130D8
:100E9000AC022C08073903195A2F3B2F0130A83612
:100EA000A70CA60C890B4F2F01302000C900490860
:100EB0002100AE072E082D060319862F4E2F2E086F
:100EC0002D020318862F0130A635A70DA80D890B1A
:100ED000642F0130AE022D082E060319822F013037
:100EE000AC022C0807390319822F632F0130AB366F
:100EF000AA0CA90C890B772F01302000C9004908E2
:100F00002100AD072E082D06031D762FAC1F982F4C
:100F1000FF30A606FF30A706FF30A8060130A6075F
:100F2000003003180130A707003003180130A8076C
:100F30002C1FAA2FFF30A906FF30AA06FF30AB06F0
:100F40000130A907003003180130AA070030031848
:100F50000130AB07AC012608A9072708AA3D2808DD
:100F6000AB3DAB1FC52FFF30A906FF30AA06FF30EF
:100F7000AB060130A907003003180130AA07003082
:100F800003180130AB07AC01AC0A29082000B100FE
:100F900021002A082000B20021002B082000B30005
:100FA00021002E082000C9004908B40021002C08A7
:100FB0002000CA004A08B5009F319B272000310855
:100FC0002100A600200032082100A70020003308DD
:100FD0002100A80008002200201D0800200032087F
:100FE0002200A300200031082200A20020003408C3
:100FF0002200A500200033082200A40020110800D0
:101000002200201C080000309331CC238831A63107
:10101000A4268831002800302100C3000030C2001F
:101020000030C1000030C00035033604031D1B280A
:1010300022000D121D2822000E1017302100C400BE
:101040000030C500C51B772822000C152100350390
:101050003604031D4A2820000E0E890C890C013924
:101060002100B900BA01440A3728B935BA0D890BF5
:1010700035283908BB003A08BC000030BC1BFF30E3
:10108000BD00BE003B08C0043C08C1043D08C204CA
:101090003E08692820000E0C2100B900B90C390C5B
:1010A0000139BA00BB01440A5728BA35BB0D890B78
:1010B00055283A08BC003B08BD000030BD1BFF307E
:1010C000BE00BF003C08C0043D08C1043E08C20485
:1010D0003F08C30422000C110830890B6D28000062
:1010E000FF302100C407FF30C53DC51F2428220062
:1010F0000C1130302100A000A930A1004308A50048
:101100004208A4004108A3004008A2008E31CE2668
:1011100021004308B8004208B7004108B600400863
:10112000B500080021002F08B3003008B4003108D2
:10113000B5000310340D350DB6003608BC003C0870
:10114000031DAB280030B2000030B1000030B00009
:101150000030AF0008002F08B3003008B400310899
:10116000B5001730B536B40CB30C890BB228330870
:10117000B6003608B700B017FF30AF05FF30B00536
:101180000030B1052F08B8003008B9003108BA00A6
:10119000BB018E30BC02BC1FE9283C08803A8F3E60
:1011A0000318DB280030B2000030B1000030B0007E
:1011B0000030AF0008000130BB36BA0CB90CB80CD7
:1011C000890BDC280130B3003308BC07031902295E
:1011D000DB2818303C02031CFF280030B20000302E
:1011E000B1000030B0000030AF0008000130B83569
:1011F000B90DBA0DBB0D890BF7280130BC023C08B4
:10120000031DF628370803191029B809B909BA09C6
:10121000BB09B80A0319B90A0319BA0A0319BB0AA8
:101220003B08B2003A08B1003908B0003808AF00F6
:10123000080003302100A000AA30A1008E31CE2684
:10124000893196311526893122008E1459082000E3
:10125000C700220058082000C600220057082000BE
:10126000C500220056082000C4000130C80000302C
:10127000C900A531AD25893122005D082000C700D5
:1012800022005C082000C60022005B082000C50088
:1012900022005A082000C4000230C8000030C900F3
:1012A000A531AD25893122008E102100C201C30174
:1012B0004308803AC1006E08803A4102031D62294A
:1012C0006D08420203186E295330890B652900000E
:1012D00001302100C2070030C33D5829A131BF2190
:1012E0008931A131BC21893122006F082100B90068
:1012F00022006E082100B8006A08BB006908BA0025
:101300009C31262489312100C401C5014508803A59
:10131000C1006C08803A4102031D90296B08440209
:1013200003189C295330890B9329000001302100B8
:10133000C4070030C53D862922008E142100BF015C
:10134000C001080003302100BC008A30BB005530CA
:10135000890BA829BB0BA829BC0BA82900322200A5
:101360008E10210039033A04031DC72960082000AC
:10137000C70021005F082000C60021005E08200091
:10138000C50021005D082000C4000130DD290230C5
:10139000210039063A04031DE32960082000C70034
:1013A00021005F082000C60021005E082000C50063
:1013B00021005D082000C4000230C8000030C900D0
:1013C000A531AD2589312100C001C1014008BB0014
:1013D0004108BC000030BC1BFF30BD00BE003E0811
:1013E000803ABF003808803A3F02031D012A3708BF
:1013F0003D02031D012A36083C02031D012A35085F
:101400003B0203180D2A5330890B042A00000130D7
:101410002100C0070030C13DE62922008E140030B3
:101420002000C7000030C6000030C5000030C400F6
:101430000130C8000030C900A531AD258931003028
:101440002000C7000030C6000030C5000030C400D6
:101450000230C8000030C900A531AD2589315930AE
:101460002100A000AA30A1008E31CE262100B501B6
:10147000B601080047302100A000A830A1008E313D
:10148000CE268A3181302100A000A830A1008E3103
:10149000CE268A3101302100CA000030CB009631BF
:1014A0008E268A3121004A084B04031D5B2AFB303B
:1014B000A000A9305F2AF3302100A000A930A100CC
:1014C0008E31CE268A310B302100A000AA30A10037
:1014D0008E31CE268A310A302100B5000030B600A8
:1014E0000130B7000030B800973107278A31B63095
:1014F0002100A000A930A1008E31CE268A310B3008
:101500002100B5000030B6000130B7000030B8004F
:10151000973107278A3128302100A000A830A10088
:101520008E31CE268A3102302100CA000030CB0035
:1015300096318E268A3121004A084B04031DA42AC5
:10154000FB30A000A930A82AF3302100A000A93068
:10155000A1008E31CE268A310B302100A000AA30A6
:10156000A1008E31CE268A310A302100B50000302C
:10157000B6000230B7000030B800973107278A3133
:10158000B6302100A000A930A1008E31CE268A31CC
:101590000B302100B5000030B6000230B70000303B
:1015A000B800973107278A319B302100A000A8306E
:1015B000A1008E31CE268A3101309A3117228A312C
:1015C00021003608803AD40080305402031DEA2AF4
:1015D00001303502031CF12ACA302100A000A930D5
:1015E000F52AC1302100A000A930A1008E31CE26FD
:1015F0008A3165302100A000A830A1008E31CE26AE
:1016000008005F308400AA308500003F2000C4003D
:10161000013FC5000130C6000030C7009F313727A9
:101620008B315F308400AA308500003F2000C40069
:10163000013FC5000230C6000030C7009F31372788
:101640008B3101302000C4000030C5000130C600DD
:101650000030C7008B31DE238B3101302000C40005
:101660000030C5000230C6000030C7008B31DE23D9
:101670008B3122008E1421006C082000BA0021005A
:101680006B082000B900A531CE258B312000390828
:10169000C2003A08C3003B08C40053308400AA309B
:1016A0008500003FBF00013FC000023FC1008C31F8
:1016B000BC248B3120003F082100A90020004008F5
:1016C0002100AA00200041082100AB000030A60044
:1016D0008030A700BF30A8008631D1268B31210091
:1016E0002608AF002708B0002808B10088319220F2
:1016F0008B3121002F08A23124228B3121006D096A
:10170000BD006E09BE00BD0A0319BE0A69083D0787
:101710002000B90021006A083E3D2000BA00A53132
:10172000CE258B3120003908C2003A08C3003B089F
:10173000C40056308400AA308500003FBF00013F3E
:10174000C000023FC1008C31BC248B3120003F0817
:101750002100A900200040082100AA002000410823
:101760002100AB000030A6008030A700BF30A800E9
:101770008631D1268B3121002608AF002708B00022
:101780002808B100883192208B3121002F08A23126
:101790001F228B3103302100B6000030B7000C301F
:1017A000B8000030B9009E31D4268B3103302100BF
:1017B000A000A930A1008E31CE26080020004603EB
:1017C00047040319F22B22004D082000CB00220011
:1017D0004C082000CA0022004B082000C90022004B
:1017E0004A08002C220051082000CB00220050089B
:1017F0002000CA0022004F082000C90022004E0825
:101800002000C8004508803A2100A0008030200256
:10181000031D0D2C013020004402031C112C01304B
:10182000122C00302100A100A201A135A20DA1358A
:10183000A20D20004508803A2100A3008030230239
:10184000031D252C013020004402031C292C0130EB
:101850002A2C00302100A400A501A435A50D2000EC
:101860004508803A2100A60080302602031D3B2C4B
:10187000013020004402031C3F2C0130402C00307A
:101880002100A700A80124082704A900250828048E
:10189000AA0021082904AB0022082A04AC002B0866
:1018A000AD002C08AE000030AE1BFF30AF00B00022
:1018B0002D082000C80421002E082000C9042100A2
:1018C0002F082000CA04210030082000CB0448085B
:1018D0002100A000200049082100A10020004A08A2
:1018E0002100A20020004B082100A3001030A4001A
:1018F000A337A20CA10CA00CA40B782C210820006B
:10190000BD00210020082000BC004908BF00480895
:10191000BE0003302100A50025082000C0004708B4
:10192000C2004608C100A43116248B3120004603B2
:101930004704031DAB2C4B082200D10020004A08AD
:101940002200D000200049082200CF0020004808D3
:101950002200CE00080020004B082200CD0020000D
:101960004A082200CC00200049082200CB002000B9
:1019700048082200CA00080020003F08C5004008AF
:10198000C6004108C7000310460D470DC8004808AF
:101990002100A0002008031DD52C00302000BF002E
:1019A0000030C0000030C100080020004208C5001F
:1019B0004308C6004408C7000310460D470DC80081
:1019C00048082100A5002508031DEE2C003020004A
:1019D000BF000030C0000030C10008002100250811
:1019E0007B3E2000C50045082100A00720003F08DD
:1019F000C5004008C6004108C7001030C736C60CF5
:101A0000C50C890BFE2C4508C80048082100A5001C
:101A100020004208C5004308C6004408C700103033
:101A2000C736C60CC50C890B102D4508C8004808E0
:101A30002100A50680302000C50045082100A5052D
:101A40002000C017C317FF30C205FF30C3050030A8
:101A5000C40500302100A1000030A2000030A30026
:101A600007302000C50045082100A40020003F1CCD
:101A7000442D42082100A107200043082100A23D77
:101A8000200044082100A33D01302000C136C00CD5
:101A9000BF0C890B452D0130C235C30DC40D890B18
:101AA0004C2D01302100A402031D362D09302000E9
:101AB000C50045082100A40020003F1C6A2D4208F3
:101AC0002100A107200043082100A23D2000440876
:101AD0002100A33D01302000C136C00CBF0C890B92
:101AE0006B2D01302100A336A20CA10C890B722DA5
:101AF0000130A402031D5C2D21082000B10021004B
:101B000022082000B200210023082000B300210099
:101B100020082000C5004508B40021002508200049
:101B2000C6004608B5009F319B2720003108BF0042
:101B30003208C0003308C1000800AB302100A0000B
:101B4000A930A1008E31CE268D31220041084004FB
:101B50003F043E04031DC72D10302100A000A93012
:101B6000A1008E31CE262000D50100302100E800F2
:101B70000030E7000030E6000030E5000030E4000F
:101B80000030E3000030E2000030E10008002200F5
:101B9000C11B522E4108031DD72D4008031DD72D10
:101BA0003F08031DD72D01303E02031C522E00308A
:101BB0002100E8000030E7000030E6000030E500DA
:101BC0006008E4005F08E3005E08E2005D08E100F1
:101BD000893119218D31FF302200BE07FF30BF3D12
:101BE000FF30C03DFF30C13D2100D601D70157086D
:101BF000803AC60080304602031D002E183056027F
:101C00000318080021005D08C6005E08C7005F08D1
:101C1000C8006008C9000130CA000030CB000030A5
:101C2000CC000030CD00560A192ECA35CB0DCC0D94
:101C3000CD0D890B152E4D084C044B044A04031995
:101C4000232E0130242E0030CE00CF01D001D1014F
:101C50004E08C6054F08C7055008C8055108C905F4
:101C60005708D3005608D200D235D30DD235D30D44
:101C70009030D4002730D50052085407860053080E
:101C8000553D87004608810741314708813D413174
:101C90004808813D41314908813D0130D607003077
:101CA000D73DF72D21006008E8005F08E7005E08D7
:101CB000E6005D08E5000030E4000030E30000309D
:101CC000E2000030E100893119218D31013022001C
:101CD000BE070030BF3D0030C03D0030C13D210097
:101CE000D601D7015708803AC60080304602031D4E
:101CF0007B2E183056020318080021005D08C6002C
:101D00005E08C7005F08C8006008C9000130CA004B
:101D10000030CB000030CC000030CD00560A942EAD
:101D2000CA35CB0DCC0DCD0D890B902E4D084C0432
:101D30004B044A0403199E2E01309F2E0030CE0022
:101D4000CF01D001D1014E08C6054F08C705500884
:101D5000C8055108C9055708D3005608D200D23526
:101D6000D30DD235D30D9030D4002730D500520892
:101D7000540786005308553D8700460881024131CB
:101D80004708813B41314808813B41314908813B4B
:101D90007D310130D6070030D73D722EA2302100B0
:101DA000A6002608B30021002108A7002008A600ED
:101DB000A00A0319A10A2608840027088500000844
:101DC000A8002808B4003408031908002530340698
:101DD0000319EF2E3408A23141228E31D32E210077
:101DE000B201F62E3216F62E3217132F2108A70055
:101DF0002008A600A00A0319A10A260884002708C3
:101E000085000008B400003A0319FF2F643A031953
:101E1000132F0D3A0319132F053A0319F22E193A0D
:101E20000319F42ED32E321B4A2F321E242F3308CF
:101E300086008701403FAE00413FAF00423FB00007
:101E4000433FB1000430352F330886008701403FFF
:101E5000A600413FA7002608AE002708AF00890D65
:101E6000893B8909B000B1000230A6002608B307FB
:101E7000B11F6A2F0330A6002608B204AE09AF09CD
:101E8000B009B109AE0A0319AF0A0319B00A031960
:101E9000B10A6A2F321E592F330886008701403F4E
:101EA000AE00413FAF00423FB000433FB1000430BD
:101EB000672F330886008701403FA600413FA700F7
:101EC0002608AE002708AF00B001B1010230A6001D
:101ED0002608B307B401B40A0A30340603199D2F4B
:101EE0003408A600A701A635A70DA635A70D00301A
:101EF00026078400A830273D8500003FA800013F49
:101F0000A900023FAA00033FAB002B083102031DCA
:101F1000932F2A083002031D932F29082F02031D37
:101F2000932F28082E02031C9D2F0130A60026089F
:101F3000B4070A303406031D702F32080339031921
:101F4000A52F2D30A23141228E3121003408AC0062
:101F5000AD01AC1BAD03FF302100AC07FF30AD3D40
:101F60002C0A03192D0A0319D32E00302000C200B9
:101F70000030C1000030C0000A30BF0021002D0831
:101F800085002C0884008435850D8435850D00304E
:101F90008407A830853D003F2000B100013FB2001A
:101FA000023FB300033FB400210031082000B80015
:101FB000210030082000B70021002F082000B600C3
:101FC00021002E082000B5009D311A258E312000F9
:101FD0003408C6003308C5003208C4003108C30005
:101FE00099314D218E3120003F08303E2100A6005E
:101FF0002608B4003408A23141228E31AB2F0800EC
:102000000B340034003400341034003420340034F5
:102010002E3400343C34003448340034533400341B
:102020005B34003461340034653400346634003489
:1020300065340034613400345B340034533400348C
:10204000483400343C3400342E340034203400341E
:102050001034003400340034F0340034E034003400
:10206000D2340034C4340034B8340034AD340034D5
:10207000A53400349F3400349B3400349A34003447
:102080009B3400349F340034A5340034AD34003424
:10209000B8340034C4340034D2340034E034003472
:1020A000F034003400340034103400342034003470
:1020B0002E3400343C34003448340034533400347B
:1020C0005B340034613400346534003466340034E9
:1020D00065340034613400345B34003453340034EC
:1020E000483400343C3400342E340034203400347E
:1020F0001034003400340034F0340034E034003460
:10210000D2340034C4340034B8340034AD34003434
:10211000A53400349F3400349B3400349A340034A6
:102120009B3400349F340034A5340034AD34003483
:10213000B8340034C4340034D2340034E0340034D1
:10214000F0340034003400341034003420340034CF
:102150002E3400343C3400344834003453340034DA
:102160005B34003461340034653400346634003448
:1021700065340034613400345B340034533400344B
:10218000483400343C3400342E34003420340034DD
:102190001034003400340034F0340034E0340034BF
:1021A000D2340034C4340034B8340034AD34003494
:1021B000A53400349F3400349B3400349A34003406
:1021C0009B3400349F340034A5340034AD340034E3
:1021D000B8340034C4340034D2340034E034003431
:1021E000F0340034003400340B3400340034003454
:1021F00010340034203400342E3400343C340034A5
:1022000048340034533400345B34003461340034D7
:10221000653400346634003465340034613400348D
:102220005B34003453340034483400343C340034DC
:102230002E340034203400341034003400340034A0
:10224000F0340034E0340034D2340034C434003488
:10225000B8340034AD340034A53400349F34003435
:102260009B3400349A3400349B3400349F3400345F
:10227000A5340034AD340034B8340034C4340034F0
:10228000D2340034E0340034F0340034003400340C
:1022900010340034203400342E3400343C34003404
:1022A00048340034533400345B3400346134003437
:1022B00065340034663400346534003461340034ED
:1022C0005B34003453340034483400343C3400343C
:1022D0002E34003420340034103400340034003400
:1022E000F0340034E0340034D2340034C4340034E8
:1022F000B8340034AD340034A53400349F34003495
:102300009B3400349A3400349B3400349F340034BE
:10231000A5340034AD340034B8340034C43400344F
:10232000D2340034E0340034F0340034003400346B
:1023300010340034203400342E3400343C34003463
:1023400048340034533400345B3400346134003496
:10235000653400346634003465340034613400344C
:102360005B34003453340034483400343C3400349B
:102370002E3400342034003410340034003400345F
:10238000F0340034E0340034D2340034C434003447
:10239000B8340034AD340034A53400349F340034F4
:1023A0009B3400349A3400349B3400349F3400341E
:1023B000A5340034AD340034B8340034C4340034AF
:1023C000D2340034E0340034F034003400340034CB
:1023D0000034003410340034203400342E340034FF
:1023E0003C34003448340034533400345B3400341B
:1023F00061340034653400346634003465340034AC
:10240000613400345B3400345334003448340034D5
:102410003C3400342E340034203400341034003482
:1024200000340034F0340034E0340034D23400346A
:10243000C4340034B8340034AD340034A53400342E
:102440009F3400349B3400349A3400349B3400347D
:102450009F340034A5340034AD340034B834003433
:10246000C4340034D2340034E0340034F034003466
:102470000034003410340034203400342E3400345E
:102480003C34003448340034533400345B3400347A
:10249000613400346534003466340034653400340B
:1024A000613400345B340034533400344834003435
:1024B0003C3400342E3400342034003410340034E2
:1024C00000340034F0340034E0340034D2340034CA
:1024D000C4340034B8340034AD340034A53400348E
:1024E0009F3400349B3400349A3400349B340034DD
:1024F0009F340034A5340034AD340034B834003493
:10250000C4340034D2340034E0340034F0340034C5
:102510000034003410340034203400342E340034BD
:102520003C34003448340034533400345B340034D9
:10253000613400346534003466340034653400346A
:10254000613400345B340034533400344834003494
:102550003C3400342E340034203400341034003441
:1025600000340034F0340034E0340034D234003429
:10257000C4340034B8340034AD340034A5340034ED
:102580009F3400349B3400349A3400349B3400343C
:102590009F340034A5340034AD340034B8340034F2
:1025A000C4340034D2340034E0340034F034003425
:1025B000003400340034003410340034203400344B
:1025C0002E3400343C340034483400345334003466
:1025D0005B340034613400346534003466340034D4
:1025E00065340034613400345B34003453340034D7
:1025F000483400343C3400342E3400342034003469
:102600001034003400340034F0340034E03400344A
:10261000D2340034C4340034B8340034AD3400341F
:10262000A53400349F3400349B3400349A34003491
:102630009B3400349F340034A5340034AD3400346E
:10264000B8340034C4340034D2340034E0340034BC
:10265000F0340034003400341034003420340034BA
:102660002E3400343C3400344834003453340034C5
:102670005B34003461340034653400346634003433
:1026800065340034613400345B3400345334003436
:10269000483400343C3400342E34003420340034C8
:1026A0001034003400340034F0340034E0340034AA
:1026B000D2340034C4340034B8340034AD3400347F
:1026C000A53400349F3400349B3400349A340034F1
:1026D0009B3400349F340034A5340034AD340034CE
:1026E000B8340034C4340034D2340034E03400341C
:1026F000F03400340034003410340034203400341A
:102700002E3400343C340034483400345334003424
:102710005B34003461340034653400346634003492
:1027200065340034613400345B3400345334003495
:10273000483400343C3400342E3400342034003427
:102740001034003400340034F0340034E034003409
:10275000D2340034C4340034B8340034AD340034DE
:10276000A53400349F3400349B3400349A34003450
:102770009B3400349F340034A5340034AD3400342D
:10278000B8340034C4340034D2340034E03400347B
:10279000F034003400340034200091190800200087
:1027A000911908000830890BD32B0000CF2BA331DF
:1027B000E9239331A3302100D8005530890BDE2B5B
:1027C000D80BDE2B8B170B175E302100A000A93031
:1027D000A1008E31CE2693318B3101239331F72B1B
:1027E0008D319D259331F72B8031C020933120000E
:1027F00056080319232CA5314C2593312100D8000C
:1028000020005208C53E860001308700210058088C
:10281000810020005208C53E8600013087000A3042
:102820000106031D1E2C5208C53E8600013087009C
:10283000810101302200E4000030E5000130200079
:10284000D2070030D33D22006408650403193C2CF4
:10285000B0302100D80058082000C500C5308531AF
:102860002F2593312200E401E5012000D201D3019C
:10287000B03083317023933120005508013A031999
:10288000F02B033A0319F42BF72BF72B2000BE0093
:102890003E0886000130870020300106031D552CBC
:1028A0000130B9003908BE07482C3E0886000130C7
:1028B0008700093001060319502CBC01BD01BB0182
:1028C0003E088600013087002D300106031D6D2C67
:1028D0000130B9003908BB07752C3E08860001306D
:1028E00087002B300106031D792C0130B90039080F
:1028F000BE073E088600013087000108A33180230F
:102900009431031CA22C20003D08B2003C08B10009
:102910000A30B3000030B400A4319924943120006F
:102920003E0886000130870001083107B9003208EF
:102930000318320ABA003908D03EBC00FF303A3DD5
:10294000BD00752C20003B080319B22C3C09B900CE
:102950003D09BA00B90A0319BA0A3908B7003A089A
:10296000B80008003D08B8003C08B7000800210086
:102970003608803A2000C90080304902031DC32C6C
:1029800018302100350203181D2D210037083804A6
:102990000319ED2C01302000C9000030CA000030BE
:1029A000CB000030CC002100350A2000DB2CC935DB
:1029B000CA0DCB0DCC0D890BD72C49082100D904A9
:1029C00020004A082100DA0420004B082100DB0423
:1029D00020004C082100DC04132D01302000C90028
:1029E0000030CA000030CB000030CC002100350A96
:1029F0002000FE2CC935CA0DCB0DCC0D890BFA2C4D
:102A0000C909CA09CB09CC0949082100D905200008
:102A10004A082100DA0520004B082100DB052000D0
:102A20004C082100DC055930A000AA30A1008E31ED
:102A3000CE262100B501B60108005C302100A000BF
:102A4000AA30A1008E31CE2601302100B500003021
:102A5000B60008002000C901CA014A08803A2100D6
:102A6000B70080303702031D382D1830200049028E
:102A70000318942D21005D08B7005E08B8005F08B8
:102A8000B9006008BA000130BB000030BC00003063
:102A9000BD000030BE002000490A2100532DBB3587
:102AA000BC0DBD0DBE0D890B4F2D3B08B7053C0875
:102AB000B8053D08B9053E08BA053A083904380496
:102AC00037040319822D20004A082100B800200095
:102AD00049082100B700B735B80DB735B80D9030AB
:102AE000B9002730BA0037083907BB0038083A3D2B
:102AF000BC003B0886003C0887000030C03FC13F57
:102B0000C23FC33F01302000C9070030CA3D4A0818
:102B1000803A2100B70080303702031D922D183013
:102B200020004902031C3A2D59302100A000AA3090
:102B3000A1008E31CE262100B501B601080021008A
:102B40005908B9005A08BA005B08BB005C08BC0011
:102B50000130BD000030BE000030BF000030C000BA
:102B6000350AB62DBD35BE0DBF0DC00D890BB22D7A
:102B70003D08B9053E08BA053F08BB054008BC053D
:102B80003C083B043A0439040319092E3708380479
:102B90000319E32D0130B9000030BA000030BB004A
:102BA0000030BC00350AD82DB935BA0DBB0DBC0DAF
:102BB000890BD42D3908DD043A08DE043B08DF0414
:102BC0003C08E004FF2D0130B9000030BA000030AD
:102BD000BB000030BC00350AF12DB935BA0DBB0D74
:102BE000BC0D890BED2DB909BA09BB09BC0939081F
:102BF000DD053A08DE053B08DF053C08E0055930F5
:102C0000A000AA30A1008E31CE262100B501B60168
:102C100008005C30A000AA30A1008E31CE26013021
:102C20002100B5000030B6000800210059086105F8
:102C30002200D60021005A0862052200D700210098
:102C40005B0863052200D80021005C0864052200AF
:102C5000D900210061092000B10021006209200093
:102C6000B200210063092000B300210064092000A4
:102C7000B40021005908200031052200DA002100AB
:102C80005A08200032052200DB0021005B082000EA
:102C900033052200DC0021005C08200034052200FE
:102CA000DD002100590865052200DE0021005A08D8
:102CB00066052200DF0021005B0867052200E000B6
:102CC00021005C0868052200E10021006509200060
:102CD000B100210066092000B20021006709200030
:102CE000B300210068092000B40021005908200029
:102CF00031052200D20021005A08200032052200AE
:102D0000D30021005B08200033052200D4002100FD
:102D10005C08200034052200D500080021004A0389
:102D20004B040319A22E22004D082100D1002200DD
:102D30004C082100D00022004B082100CF002200C7
:102D40004A08B02E220051082100D100220050086C
:102D50002100D00022004F082100CF0022004E08A1
:102D60002100CE0001302000C4000030C500210049
:102D70004B082000C70021004A082000C6008B3104
:102D8000DE23963121004B08C7004A08C600A63151
:102D9000F326963121004708CD004608CC00D11B10
:102DA000E02E5108031DDE2E5008031DDE2E4F08B5
:102DB000031DDE2E01304E02031CE02E0130E12EF9
:102DC00000302000CC00CD014C08C4004D08C500E7
:102DD00021004B082000C70021004A082000C6003F
:102DE0008B31DE239631073021004C064D04031948
:102DF000FB2E0130FC2E00302000CC00CD014C0811
:102E00002100CA0020004D082100CB00080022004C
:102E10008E14FF302000C700FF30C600FF30C50011
:102E2000FF30C400210038082000C9002100370805
:102E30002000C800A531AD25973100302000BC002E
:102E4000BD000030BE00BF0021003508B9003908C0
:102E50002000C000210038082000C20021003708EF
:102E60002000C100A4311624973122008E101730A3
:102E70002100BA000030BB00BB1B7C2F22000C15C8
:102E8000003222000C11210037033804031D592F92
:102E900020000E1B4D2F8E1D592F4F302100A000FA
:102EA000AA30A1003B08A3003A08A2008E31CE262A
:102EB0009731173021003A063B04031D752F22007D
:102EC0008E1400302000C7000030C6000030C5005E
:102ED0000030C400210038082000C9002100370854
:102EE0002000C800A531AD259731FF302100BA0779
:102EF000FF30BB3DBB1F3E2F6330A000A830A100B8
:102F00008E31CE26080022008E10210037033804AF
:102F1000031DBA2F0130B9000030BA000030BB00E9
:102F20000030BC00350A982FB935BA0DBB0DBC0D69
:102F3000890B942F39082200C60621003A08220086
:102F4000C70621003B082200C80621003C082200D9
:102F5000C90649082000C700220048082000C60012
:102F6000220047082000C500220046082000C400B7
:102F70000130EF2F0230210037063804031DF52FF2
:102F80000130B9000030BA000030BB000030BC0096
:102F9000350ACE2FB935BA0DBB0DBC0D890BCA2F22
:102FA00039082200C20621003A082200C306210087
:102FB0003B082200C40621003C082200C506450843
:102FC0002000C700220044082000C6002200430859
:102FD0002000C500220042082000C4000230C800C2
:102FE0000030C900A531AD25973159302100A0002E
:102FF000AA30A1008E31CE262100B501B60108000D
:1030000008002000BE00BC01BD010E280130BA003E
:103010003A08BE070130BC070030BD3D3E088600BF
:1030200001308700010803192C283908B20038083C
:10303000B1003E088600013087000108BA00BB01DC
:103040003A08B3003B08B400A4314824983120006A
:1030500031083204031D06283D08B9003C08B800B9
:10306000080022008C018D018E01333021008C007C
:1030700060308D00F8308E0023008E018D018C01B0
:1030800024008D018C01C8308E0025008C018D013B
:103090008E013C002108E0390D38A1002008E039FC
:1030A0000E38A0002408E0391738A4003D001F089E
:1030B000E03914389F001E08E03918389E001D08BA
:1030C000E03919389D0008002000B8006F28013051
:1030D000B5003508B8070130B3070030B43D3308F8
:1030E0008400340885000008A3318F239831FF3A0B
:1030F000013E2000B5003808860001308700010835
:10310000A3318F23983120003507B6003608B70069
:103110003708031D9228380886000130870001080F
:10312000031D67283708B300B401B31BB4030800BC
:10313000220061082000AA00220060082000A900E7
:1031400022005F082000A80022005E082000A700DF
:103150000130AB000030AC00A5318C259831220045
:1031600055082000AA00220054082000A9002200CF
:1031700053082000A800220052082000A7000230B7
:10318000AB000030AC00A5318C25983122008E10A8
:10319000A1319E2198310030A2310B22080022007B
:1031A0002208860023088700A131B32198318100CD
:1031B00001302200A2070030A33D0130A4020030FC
:1031C000A53B240825040319E928A131D72105309E
:1031D00008002015F128A131F7210800A131F321C1
:1031E000080022003808F0007008F0000C30203E83
:1031F000860001308700413F8A00403F0A00983135
:10320000013A0319EE28033A0319EB28013A03198E
:10321000EB28073A0319EE28EE2808002100B61B18
:1032200047293608803A2000C90080304902031D32
:103230001C29183021003502031847294B30210082
:10324000A000AA30A10036082000CA0021003508DD
:103250002000C900C935CA0DC935CA0D9030CB0050
:103260002730CC0049084B0786004A084C3D8700B0
:10327000403F2100A200413FA300423FA400433F42
:10328000A5008E31CE262100B501B601080001301F
:103290002100B5000030B6000800200042084104BB
:1032A00040043F0403198729C801C80AC21B6429C6
:1032B0000130BF35C00DC10DC20D890B5929013038
:1032C000C7004708C807562942084602031D72294D
:1032D00041084502031D722940084402031D72295A
:1032E0003F084302031C7C293F08C3024008C43B3B
:1032F0004108C53B4208C63B0130C236C10CC00C78
:10330000BF0C890B7D290130C802031D64294608C2
:10331000C2004508C1004408C0004308BF000800BF
:103320002100B801B901AC29B801B901BF290130A8
:103330009C2902309C290330B8000030B900BF2915
:103340005C30A000AA30A1008E31CE2601302100D1
:10335000B5000030B60008003608003A0319B1295C
:10336000A0293508003A03199429013A031997292D
:10337000033A03199929013A03199B29A02938080E
:10338000B70037082000C9000130A6315B2699310B
:1033900059302100A000AA30A1008E31CE26210094
:1033A000B501B60108007E1CD7299831CF2822002C
:1033B0002208860023088700A131CE21993181009F
:1033C00001302200A2070030A33D0130A4020030EA
:1033D000A53B240825040319F129A131FF2105305B
:1033E00008002015F929A2319B220800A23193225E
:1033F0000800220038082000B1003108B1000C306C
:10340000203E860001308700413F8A00403F0A008D
:103410009A31013A0319F629033A0319F329013ABB
:103420000319F329073A0319F629F62908002000A1
:10343000CB00CC014B30B1000030B2000130B30002
:103440000030B4008731EB279A310030A63137269F
:103450009A31003A0319342ACB302100A000A83059
:10346000A1008E31CE269A310830890B352A000012
:103470004C302000B1000030B2000130B300003009
:10348000B4008731EB279A310130A63137269A31C3
:10349000003A0319522ADD302100A000A830A10013
:1034A0008E31CE2620004C08C900CA0149082100EF
:1034B000B50020004A082100B60008007303740418
:1034C000031D652A22000D12672A22000E100F30FC
:1034D000F9000030FA00FA1B9E2A0C110130F500A9
:1034E0000030F600790A762AF535F60D890B742A34
:1034F00070087505F70071087605F80077087804FC
:103500000319842A0E15852A0E117208F500F6019A
:103510007A087606031D8E2A79087506031D972AF8
:1035200073037404031D962A0D16972A0E140C15A6
:10353000FF30F907FF30FA3DFA1F6D2A0C117303B3
:103540007404031DA52A0D1208000E1008002000A7
:10355000C4004408031DB02A5408C1004108C40037
:103560004408031DB52A003008004008B9003F0890
:10357000B8004408983101209A3120003808C10071
:103580004108C40744088600013087000108031D74
:10359000CC2AD401003008004008B9003F08B80028
:1035A0004408A731D0279A3120003808C1003908D3
:1035B000C20044084107C3004308D40054088600F1
:1035C0000130870001080319EF2A540886000130F2
:1035D000870081010130C1004108D407F02AD401DD
:1035E000440808002000B500B401B40A2200A01865
:1035F000080020003508B30033082200A100201085
:10360000A014A0110E302000B30033082200AA003D
:10361000F430A8000130A90020152F30AC00223072
:10362000AD00B8012F30AE002230AF00B9012F300D
:10363000B0002230B100BA012F30B2002230B30006
:10364000BB013530B4002230B500BC01A3310923E1
:103650009A31A131D4219A31A7302000B100213014
:10366000B200A231CF229A31A4302000B10026301E
:10367000B200A231D8222000B40108001730210086
:10368000B7000030B800B81B812B4F30A000AA3023
:10369000A1005D082000C90021005E082000CA00CA
:1036A00021005F082000CB00210060082000CC0032
:1036B0002100370A2000612B0310CC0CCB0CCA0C64
:1036C000C90CFF3E031D5C2B013049052100A200FF
:1036D000003020004A052100A300003020004B05E7
:1036E0002100A400003020004C052100A5008E31EF
:1036F000CE269B31FF302100B707FF30B83DB81F01
:10370000452B6330A000A830A1008E31CE262100C9
:10371000B501B601080017302100B7000030B8002D
:10372000B81BCE2B4F30A000AA30A10059082000B2
:10373000C90021005A082000CA0021005B082000AF
:10374000CB0021005C082000CC002100370A2000BB
:10375000AE2B0310CC0CCB0CCA0CC90CFF3E031DC6
:10376000A92B013049052100A200003020004A05A4
:103770002100A300003020004B052100A4000030F0
:1037800020004C052100A5008E31CE269B31FF3054
:103790002100B707FF30B83DB81F922B6330A0005F
:1037A000A830A1008E31CE262100B501B601080057
:1037B000A33129239B310318E72B042CA131DF21EE
:1037C0000800A131E3210800A131EB21080022000B
:1037D0003B08F1007108F0001230203E86000130F5
:1037E0008700413F8A00403F0A009B31013A03199C
:1037F000E42B033A0319DE2B013A0319E12B073AB4
:103800000319E42BE42B08002200A0112308F20086
:103810002208F100A20A0319A30A710884007208A1
:1038200085000008A23115229B3101302200A4023C
:103830000030A53B24082504031D202C0630212C34
:103840000330F3000030F400730808002000C901C1
:103850000B30A6315B269C312100BD01BE01053035
:103860002000B1000030B20021003B082000B4006D
:1038700021003A082000B3009C3176249C312100BD
:103880003E08803ABC0020003208803A21003C0209
:10389000031D4E2C2000310821003D020318632C2B
:1038A00021003808BC003C082000C9000B30A631BC
:1038B0005B269C3100320032000001302100BD0740
:1038C0000030BE3D2F2CA3319F239C310318702C58
:1038D000EE302100A000A830A1008E31CE269C3110
:1038E0002000C9010B30A6315B2608002000B7017B
:1038F000B21F812CB109B209B10A0319B20AB7018A
:10390000B70AB41F8C2CB309B409B30A0319B40A5B
:103910000130B5003508B706B801B90131083204E5
:103920000319BB2CB601B60AB21BA02C0130B1356D
:10393000B20D890B972C0130B5003508B607942CD1
:103940000130B835B90D890BA12C32083402031DA2
:10395000AB2C31083302031CB22C3108B3023208FD
:10396000B43B38140130B236B10C890BB32C0130A2
:10397000B602031DA02C37080319C32CB809B909D6
:10398000B80A0319B90A3908B2003808B1000800AA
:1039900021003E08EC003D08EB006C082000BA0056
:1039A00021006B082000B900A531CE259C312000F4
:1039B0003908C2003A08C3003B08C40053308400F1
:1039C000AA308500003FBF00013FC000023FC10098
:1039D0008C31BC249C3120003F082100A90020002C
:1039E00040082100AA00200041082100AB0000305F
:1039F000A6008030A700BF30A8008631D1269C31B8
:103A000021002608AF002708B0002808B10088313F
:103A100092209C3121002F08A23124229C31593060
:103A20002100A000AA30A1008E31CE262100BD01C8
:103A3000BE01080000302000BD000030BC00003096
:103A4000BB000030BA0034083304320431040319D7
:103A5000642DBE01BE0AB41B392D0130B135B20D43
:103A6000B30DB40D890B2E2D0130B9003908BE07F6
:103A70002B2D0130BA35BB0DBC0DBD0D890B3A2D78
:103A800034083802031D4E2D33083702031D4E2D16
:103A900032083602031D4E2D31083502031C592D04
:103AA0003108B5023208B63B3308B73B3408B83B9F
:103AB0003A140130B436B30CB20CB10C890B5A2D48
:103AC0000130BE02031D392D3D08B4003C08B3008F
:103AD0003B08B2003A08B100080020003403350466
:103AE000031D752D22000D12772D22000E100F30B0
:103AF0002000BA000030BB00BB1BB82D22000C1107
:103B000001302000B6000030B7003A0A892DB635E2
:103B1000B70D890B872D31083605B80032083705F7
:103B2000B900380839040319982D22000E159A2D72
:103B300022000E1120003308B600B7013B083706FB
:103B4000031DA42D3A083606031DAF2D340335049A
:103B5000031DAD2D22000D16AF2D22000E142200E4
:103B60000C15FF302000BA07FF30BB3DBB1F7E2D78
:103B700022000C11200034033504031DC22D220045
:103B80000D12080022000E1008007E1CC92D9B316A
:103B9000D82BA33173239D310318D82DF62DA231D4
:103BA0006B220800A23173220800A2318322080090
:103BB00022003B082000B2003208B1001230203E43
:103BC000860001308700413F8A00403F0A009D3156
:103BD000013A0319D52D033A0319CF2D013A0319E0
:103BE000D22D073A0319D52DD52D08002200A0119A
:103BF00023082000B300220022082000B200220087
:103C0000A20A0319A30A20003208840033088500A1
:103C10000008A2313B229D3101302200A402003075
:103C2000A53B24082504031D172E0630182E03304B
:103C30002000B4000030B5003408080021003E0820
:103C4000EA003D08E9006D09BF006E09C000BF0A27
:103C50000319C00A69083F072000B90021006A085B
:103C6000403D2000BA00A531CE259E312000390804
:103C7000C2003A08C3003B08C40056308400AA3092
:103C80008500003FBF00013FC000023FC1008C31F2
:103C9000BC249E3120003F082100A90020004008DC
:103CA0002100AA00200041082100AB000030A6003E
:103CB0008030A700BF30A8008631D1269E31210078
:103CC0002608AF002708B0002808B10088319220EC
:103CD0009E3121002F08A2311F229E315930210030
:103CE000A000AA30A1008E31CE262100BD01BE0168
:103CF000080021003E08EE003D08ED006D09BF0000
:103D00006E09C000BF0A0319C00A69083F072000F6
:103D1000B90021006A08403D2000BA00A531CE2537
:103D20009E3120003908C2003A08C3003B08C40095
:103D300056308400AA308500003FBF00013FC0001C
:103D4000023FC1008C31BC249E3120003F0821007D
:103D5000A900200040082100AA00200041082100FD
:103D6000AB000030A6008030A700BF30A80086312D
:103D7000D1269E3121002608AF002708B000280870
:103D8000B100883192209E3121002F08A2311F22DC
:103D90009E3159302100A000AA30A1008E31CE26DC
:103DA0002100BD01BE01080067308400AA308500F3
:103DB0000008A231A3229E3167308400AA3085001A
:103DC00000089A31F2229E3104302100BA003D30C1
:103DD000890BE82EBA0BE82E0032A231FF229E3169
:103DE00004302100BA003D30890BF42EBA0BF42EBA
:103DF00000322000C9010230A6315B269E3104301A
:103E00002100BA003D30890B032FBA0B032F00327B
:103E1000210036083838BA003A082000C9000130BD
:103E2000A6315B269E3104302100BA003D30890B5B
:103E3000172FBA0B172F003221003808BA003A08A2
:103E40002000C9000230A6315B269E3104302100DB
:103E5000BA003D30890B2A2FBA0B2A2F0032FF30CF
:103E60002100A000A830A1008E31CE26080020003D
:103E70004508803AC80080304802031D412F403079
:103E80004402031C482F3F302000C4000030C5000E
:103E900020004508C9004408C800480EF039C90090
:103EA000C8014508CB004408CA000630CA35CB0D0E
:103EB000890B562F48084A04CC0049084B04CD0012
:103EC00044084C042100A000200045084D042100B6
:103ED000A100A201A11BA2032208A3002008200028
:103EE000C800210021082000C9002100220820006C
:103EF000CA00210023082000CB001030CB36CA0CAA
:103F0000C90CC80C890B7E2F4908BD004808BC00AD
:103F1000210021082000BF00210020082000BE0051
:103F20000730CC004C08C0004708C2004608C1005A
:103F3000A43116240800200034080319A42F3308E4
:103F400032043104031DB52F0030B1000030B2003F
:103F50000030B30008000130B6003608B407013065
:103F6000B336B20CB10C890BB02FFE3033050319F8
:103F7000CE2FAB2F0130B6003608B4070130B107A1
:103F8000003003180130B207003003180130B307C6
:103F90000130B336B20CB10C890BC92FFF30330599
:103FA0000319DB2FBA2F0130B4020130B135B20D45
:103FB000B30D890BD62FB21BE12F02303402031848
:103FC000D32F3418E92FFF30B1057F30B205FF3011
:103FD000B3050310B40C3408B600B701B8011030B3
:103FE000B635B70DB80D890BF02F3608B104370878
:103FF000B2043808B304350803190800B3170800E1
:1040000083318C2B8331782B8331A02B8531142D78
:1040100084319B2C8431B82C8331B42B8331BF2B5A
:104020008331D32B8331E72B8331FB2B84310F2C4E
:104030008431232C8431402C84315D2C84317A2CC2
:104040008431D52C8431E02C8431EB2C8431F62C56
:084050008531012D85310C2D95
:10433200080001300800053008002000971308002B
:1043420020001F110800200011110800A131A42132
:104352000800240096140800240016150800240002
:104362009615080024001108080020009115080085
:1043720020009111080020009717080020001F1547
:1043820008002400161408002400961408002400D3
:1043920016150800240096150800240011080800CC
:1043A20020009115080020009111080024009612A7
:1043B200161608002400961616160800A131AA2126
:1043C20001300800A131AA2102300800A131AA213E
:1043D20001300800A131AD2100300800A131D72100
:1043E20005300800A131DB210A300800A131DB21B0
:1043F20009300800163021009700080024009612A8
:104402001616080024009616161608000134003409
:1044120000340034F0007008200095000800F0001D
:10442200700820009D000800F00070082400910030
:10443200080022002010AB010E3008002000B1005D
:104442003108960008002000B10031089E000800E3
:104452002200A011A131B021043008007E1C332AB1
:10446200A1319A29013008007E1C392AA1319C29E8
:10447200053008002000B100310824009100080036
:104482002000B3003308A6317F260800E834033445
:104492000A3400340A340034A13199212200201058
:1044A200AB010E3008002200A0152135A2311522E1
:1044B200033008002200A0150314210DA231152299
:1044C2000530080032009101920193019401950197
:1044D200960108007E1C6F2AA131DF29A131C52176
:1044E200013008007E1C772AA131E329A131C521C0
:1044F200023008007E1C7F2AA131E729A131C521A3
:10450200013008007E1C872AA131EB29A131C82184
:10451200003008007E1C8F2AA131EF29A131FF2132
:10452200053008007E1C972AA131F329A23103220B
:104532000A3008007E1C9F2AA131F729A2310322EA
:10454200093008002000B2003208B1003108220010
:10455200A100080022008E14A131A121A231003055
:10456200A23110220800200032082200ED002000B3
:1045720031082200EC000800200032082300DA0093
:10458200200031082300D90008007E1CCA2AA2316B
:104592001A2A22002010AB010E3008002000320837
:1045A2002200EB00200031082200EA00080020006F
:1045B20032082200E900200031082200E800080049
:1045C2006230320099009B019D0103309F00203030
:1045D2009E0008007E1CEF2AA231292A2200A01187
:1045E200A131CB21043008002100110C2000B100C0
:1045F200B10C310C0139B200320C080080302100BC
:10460200B50035082000C9000230A6315B2608003B
:104612002400951A08009401283095009601033071
:10462200920008007E1C172BA2314D2A98310020DF
:1046320022002010AB010E3008007E1C222BA2317A
:10464200542A2200A0152135A2313B220330080052
:1046520024001608BF3940389600160E890C890CC2
:104662000139F000700C08007E1C392BA2315B2A44
:104672002200A0150314210DA2313B2205300800AF
:104682006400800101310130FE020030FF3B7F08EF
:104692007E0403190034422BFE0012001E0001307A
:1046A200FE020030FF3B7F087E04031900344E2BCC
:1046B2002000901222006C086D04031908006D0896
:1046C2008A006C080A00A331080020009110230020
:1046D20059085A04031908005A088A0059080A009E
:1046E200A331080024001608BF3940389600160E80
:1046F200890C890C01392000B100310C080020001E
:10470200B200B1013A30320203188D2B303032023E
:10471200031C8D2BB101B10A310C08002000B2003C
:104722007B30320203189D2B61303202031C9D2B19
:10473200DF30B1003108B2053208080000309A318A
:104742001722A331210035082000CD004D08210099
:10475200B700371CAE2B03100800031408000F30FB
:1047620020009E009D01911021009114AB30200089
:10477200B1002230B200A231BD224E3020009F0093
:104782000800210036082200EF002100350822002F
:10479200EE0059302100A000AA30A1008E31CE26B1
:1047A2002100B501B60108005830200098006130A0
:1047B2009600950190122100901698302000B100C9
:1047C2001830B200A231B4228930200097000800CC
:1047D200A2316322A33198313120A331A231E122E7
:1047E200A331A131FB21A331A331B023A331A331E2
:1047F200D523A331A4312E24080020002108F10082
:104802002008F000A631CA26A33120002308F100B7
:104812002208F0002408FB007B08F2002608F400BE
:104822002508F3009A315E22080020003D08B200FC
:104832003C08B100A731A027A43120003F08B200F4
:104842003E08B1004008C3004308B3004208B50067
:104852004108B4009D316D2508002100911211120A
:10486200083023009F0090309D0024309E001930B4
:104872009B009C01FD012000D9010830B1003108E4
:10488200DE00D801D701D6012100911608002000D0
:104892003108840032088500000833060319080035
:1048A2003208B6003108B500B10A0319B20A350858
:1048B2008400360885001200031D482CB101B201A4
:1048C20008002000D501D50A210035082200BE00CB
:1048D200210036082200BF00890D893B8909C000EA
:1048E200C10059302100A000AA30A1008E31CE268D
:1048F2002100B501B601080023009D1C822C1D1267
:104902001D161908F00020005808A03E860001304C
:104912008700700881000130F0007008D807083065
:1049220058020318D8010130F0007008D6070800B9
:104932002000B501B601311CA22C3308B50734089A
:10494200B63D0130B335B40D890BA32C0130B2361C
:10495200B10C890BA82C31083204031D9C2C36089B
:10496200B2003508B100080002302000C900490831
:10497200D500210035082000CE0021003608200095
:10498200CF00890D893B8909D000D100593021001F
:10499200A000AA30A1008E31CE262100B501B601B9
:1049A2000800083020005E020318ED2C5908A83ECA
:1049B200860001308700010823009A000130F000D0
:1049C20070082000D907083059020318D9010130B4
:1049D200F0007008DE070800210011120800210013
:1049E20036082000C500210035082000C40021003F
:1049F20038082000C700210037082000C6008B318C
:104A0200DE23A43159302100A000AA30A1008E314A
:104A1200CE262100B501B60108002100360820008B
:104A2200C500210035082000C400210038082000FC
:104A3200C700210037082000C6009F313727A53163
:104A420059302100A000AA30A1008E31CE262100CB
:104A5200B501B6010800A131B921A5312200A01D7E
:104A62003C2DA3312923A531031C3C2D0F30F50029
:104A720075082200AA0022002A35203E8600023054
:104A82008700413F8A00403F0A00A531F5007508C2
:104A92002200AA0008002000B201560803194E2D78
:104AA2005708A03E8600013087000108B100310896
:104AB200B2000130B1003108D7070830570203189D
:104AC200D7012100911201302000D6022100911657
:104AD200200032080800C6342234353423341E3410
:104AE2002334C5341D34D3341934EB3422347134B5
:104AF20027346B342234733422347B3422348334AB
:104B020022348B342234933422349B3422341334AF
:104B120023344634273420002708AD002808AE008D
:104B22002908AF002A08B0001030B036AF0CAE0C26
:104B3200AD0C890B962D2E08A1002D08A000280887
:104B4200A3002708A200A401A40A2C08A6002B088F
:104B5200A500A331FE23080020004408CA0045082E
:104B6200CB004608CC004708CD001030CD36CC0C27
:104B7200CB0CCA0C890BB72D4B08BD004A08BC00F0
:104B82004508BF004408BE00C001C00A4908C2006F
:104B92004808C100A431162408002000BE01BA1F33
:104BA200D92DB909BA09B90A0319BA0ABE01BE0A4E
:104BB2003908B1003A08B200B3018E30BC003C089B
:104BC200B4003E08BD003D08B5009F319B27200080
:104BD2003108B9003208BA003308BB000800092EB8
:104BE20065302100A000AA30A1008E31CE26080037
:104BF20024302100A000AA30A1008E31CE26080068
:104C020063302100A000AA30A1008E31CE26080018
:104C120020005508013A0319F12D033A0319F92D21
:104C2200012E08002200A0110230F0007008AB0033
:104C3200202EA131E7210800A131EB21080022003A
:104C42003A08F0007008F0001030203E8600013073
:104C52008700413F8A00403F0A00A631023A031909
:104C62001A2E013A03191A2E1D2E08002000B80030
:104C7200B901B90A22002018582E20142000B901C7
:104C820038080319482E2200AA01AA0A4E2E023021
:104C92002000B70037082200AA00A131C221A631A4
:104CA200A231F522A6310318582E883100202000A7
:104CB200390808002000CB004B08CA004A08CC0083
:104CC2004908CA004A08CD004C30B1000030B20099
:104CD2000230B3000030B4008731EB27A631003038
:104CE200A6313726A631003A03190800CB3021003D
:104CF200A000A830A1008E31CE2608002000B2000C
:104D02005E080319812E2100111A8C2E2000320810
:104D120023009A00A12E111220003208B1007D0852
:104D2200A83E860001308700310881000130B100C1
:104D32003108FD0708307D020318FD010130DE0253
:104D42002100111608007E1CA82EA5312C2DA131A0
:104D5200D421A6312200A01DB92EA3317323A6317E
:104D6200031CB92E0F302000B60036082200AA001C
:104D720022002A35203E860002308700413F8A0009
:104D8200403F0A00A6312000B60036082200AA00E1
:104D9200080022000D120F30F6000030F700F71B5A
:104DA200F12E0C110130F2000030F300760ADB2EF6
:104DB200F235F30D890BD92E70087205F4007108D3
:104DC2007305F500740875040319E92E0E15EA2E11
:104DD2000E110C15FF30F607FF30F73DF71FD22EEC
:104DE2000C11080022008E1400302000BC00BD000F
:104DF2000030BE00BF000530C9004908C0002100D4
:104E020047082000C200210046082000C100A4314A
:104E12001624A63121004708B6004608B50088319D
:104E22000B2021003808C9003708C8003608C7001F
:104E32003508C600080022002015292FA131E721DC
:104E42000800A131B62103300800A131EB2108008E
:104E520022003808F0007008F0000C30203E860076
:104E620001308700413F8A00403F0A00A731013AE2
:104E72000319262F033A03191F2F013A03191F2F73
:104E8200073A0319222F262F08007E1C4A2FA6312B
:104E9200132E2200A01102302000B100310822009E
:104EA200AB00592FA2317B220800A23183220800D5
:104EB20022003A082000B1003108B1001030203E33
:104EC200860001308700413F8A00403F0A00A73137
:104ED200023A0319532F013A0319532F562F080090
:104EE2007E1C752FA7311C2F22002015822FA23184
:104EF2007B220800A131D12103300800A231832294
:104F02000800220038082000B1003108B1000C303E
:104F1200203E860001308700413F8A00403F0A0060
:104F2200A731013A03197F2F033A0319782F013A67
:104F32000319782F073A03197B2F7F2F08002200CD
:104F42000D120F302000B7000030B800B81BCD2F73
:104F520022000C1101302000B3000030B400370AE7
:104F6200B42FB335B40D890BB22F31083305B50018
:104F720032083405B600350836040319C32F22005F
:104F82000E15C52F22000E110C15FF302000B70799
:104F9200FF30B83DB81FA92F22000C1108002000D5
:104FA200BE00BC01BD01DD2F0130BA003A08BE07C8
:104FB2000130BC070030BD3D3E088600013087004D
:104FC20001080319FB2F3908B2003808B1003E0866
:104FD2008600013087000108BA00BB013A08B3001D
:104FE2003B08B400A4314824A73120003108320420
:104FF2000319D52F3D08B9003C08B8000800013458
:105002000034003400340A34003400340034643490
:10501200003400340034E8340334003400341034F3
:10502200273400340034A034863401340034403450
:1050320042340F34003480349634983400340034CF
:10504200E134F53405340034CA349A343B340A343A
:10505200743465347334743469346E346734203490
:1050620062346F34743474346F346D3420344C349D
:1050720045344434203464347234693476346534CB
:1050820072342E342E342E340A3400340A342D3441
:105092002D342D342D3473347434613472347434B9
:1050A20069346E346734203463346F346D346D3454
:1050B200203474346534733474342D342D342D34E7
:1050C2002D340A340A3400342D342D342D342D3449
:1050D200663469346E3469347334683465346434E4
:1050E200203463346F346D346D3420347434653459
:1050F200733474342D342D342D342D340A34003469
:10510200743465347334743469346E3467342034DF
:1051120074346F34703420344C3445344434203485
:105122006434723469347634653472342E342E34F5
:105132002E3400340A34743465347334743469346C
:105142006E34673420347034693465347A346F34A1
:1051520020346434723469347634653472342E34D3
:105162002E342E34003455344E34523445344334C4
:105172004F3447344E3449345A344534443420345D
:1051820043344F344D344D3441344E34443421345D
:105192000A3400346434723476345F3477347234CF
:1051A20069347434653420346534723472346F3443
:1051B200723421340A3400346434723476345F3405
:1051C2007234653461346434203465347234723438
:1051D2006F34723421340A340034663469346634EC
:1051E2006F3420346E346F34743420347234653446
:1051F20061346434793421340A34003464347234CE
:105202007634203469346E346934743469346134E8
:105212006C3469347A34653464340A340034723458
:1052220065346C343A34203461346C346C34203458
:10523200743468346534723465340A340034613449
:10524200623473343A34203461346C346C34203434
:10525200743468346534723465340A340034723418
:1052620065346134643420346434613474346134B8
:105272003A34203425346C3475340A340034F4342E
:105282004A34483495349534C734C134DC34453417
:10529200DC346D34C334B33433344034683465346D
:1052A200613474346534723470346F3473347434EA
:1052B200743469346D34653400340A340A34733416
:1052C20079347334743465346D34203464346F3417
:1052D2006E3465340A3400346834653461347434AD
:1052E20065347234703472346534743469346D34B4
:1052F2006534003474346F34673467346C34653425
:10530200683465346134743465347234003434344E
:10531200013448349D34B03445340034DA344234F4
:10532200003480343F347034693465347A346F34F5
:105332006F346E34743469346D34653400347434CB
:1053420069346D3465346834653461347434653479
:105352007234003464346F34523465346C344D34F6
:105362006F34763465340A3400340A340A347334C0
:1053720068346F347234743473343A342034003401
:105382004634413449344C34453444340A340A34C2
:1053920000347034613473347334653464340A34E1
:1053A2000A340034643472347634503465346134EF
:1053B2006B34003464347234763447346134693483
:1053C2006E3400346C346534643467346134693467
:1053D2006E3400346D34733474346134743475341F
:1053E200733400344634413449344C344534443403
:1053F2000A34003470346134733473346534643481
:105402000A34003464346F344D346F347634653486
:105412000A3400346F34703465346E3473343A3481
:105422002034003464346F346D346F347634653430
:1054320000346C346534643470347734723400343C
:1054420067346534743441340034733465347434ED
:10545200413400346734653474344D340034733469
:10546200653474344D340034703469346E346734C6
:10547200003463346F346D346D3400347234653407
:105482006C340034613462347334003470346F34F9
:1054920073340034253464340A34003425346434DB
:1054A200203400340034C8343F340034C8343D342E
:1054B20041340A34003445340A3400343F34003471
:0E54C2007A3400344E340034523400345934FD
:020000040001F9
:08000E00ECFFF3FFFFFFFFFF11
:00000001FF
