:10000000803150287F3400347E14803120007F08F6
:10001000FC002100901E13282000901E1328A431FC
:10002000F52480314B280B1F4B282100111D22285D
:100030002000111D2228210069088A0068080A0092
:1000400080314B282100911D2F282000911D2F2841
:10005000220065088A0064080A0080314B282100CC
:10006000911C39282000911C3928A53102258031A6
:100070004B282100911E43282000911E4328A631C1
:100080003C2680314B282100111E4B282000111ED8
:100090004B28A63174267C082000FF007E10090042
:1000A00080315228A2308400A33085005A30860067
:1000B000003087000430A331E8238031EE30840023
:1000C000A3308500EA308600003087000630A33177
:1000D000E82380312200803102208031EA00803123
:1000E00003208031EB000E308400A73085005030B3
:1000F0008600023087002030A331E8238031FD01E3
:100100004E308400003085000C30A331E223803172
:10011000D8308400003085001230A331E2238031D2
:1001200020308400013085004630A331E223803145
:10013000A0308400013085003930A331E2238031C2
:1001400020308400023085003030A331E2237E105D
:1001500020008931892901302100C8000030C90000
:10016000CA01CB014B08803A2500A0008030200254
:10017000031DBD28183021004A0203182729210039
:1001800058082500A000210059082500A1002100E1
:100190005A082500A20021005B082500A3000130B9
:1001A000A4000030A50021004A0A2500D928A43562
:1001B000A50D890BD7282408A6002508A700003024
:1001C000A71BFF30A800A9002608A0052708A10545
:1001D0002808A2052908A3052308220421042004D5
:1001E0000319152921004A35203E86000230870078
:1001F000403F2500A000413FA100210065082500E7
:100200002106031D07292100640825002006031D7F
:100210000B2901300C290030A200A3012208210083
:10022000C805250023082100C90501302100CA079F
:100230000030CB3D4B08803A2500A00080302002E2
:10024000031D2529183021004A02031CBF28210064
:1002500048084904031946291930A000A930A10013
:1002600086314A262000D50100302100E30000300D
:10027000E2000030E1000030E0000030DF0000303C
:10028000DE000030DD000030DC000800CE01CF01D0
:100290004F08803A2500A00080302002031D53291A
:1002A000183021004E0203183A2A21005808250070
:1002B000A000210059082500A10021005A082500AE
:1002C000A20021005B082500A30021004E35203E3E
:1002D000860002308700403F2500A400413FA50072
:1002E00021006508803A2500A6002508803A2602EC
:1002F000031D7D292408210064020318812901308F
:10030000822900302500A700A80121004E0A2500FF
:100310008B29A735A80D890B89290130A900003048
:10032000AA0021004E0A25009729A935AA0D890B9C
:10033000952927082905AB0028082A05AC002B08B9
:10034000AD002C08AE000030AE1BFF30AF00B00097
:100350002D08A0052E08A1052F08A2053008A30529
:1003600020082100E004250021082100E1042500E7
:1003700022082100E204250023082100E304580894
:100380002500A000210059082500A10021005A08DD
:100390002500A20021005B082500A30021004E35A6
:1003A000203E860002308700403F2500A400413FE8
:1003B000A5002508803AA60021006508803A25009E
:1003C0002602031DE72921006408250024020318E2
:1003D000EB290130EC2900302500A700A8012100FD
:1003E0004E0A2500F529A735A80D890BF329013000
:1003F000A9000030AA0021004E0A2500012AA935D3
:10040000AA0D890BFF2927082905AB0028082A0512
:10041000AC002B08AD002C08AE000030AE1BFF3046
:10042000AF00B0002D08A0052E08A1052F08A205D9
:100430003008A30520082100DC0425002108210044
:10044000DD04250022082100DE0425002308210008
:10045000DF040130CE070030CF3D4F08803A250041
:10046000A00080302002031D382A183021004E02DF
:10047000031C55298931002180312100CC01CD0197
:100480004D08803A2500A00080302002031D4B2A31
:10049000183021004C0203180800210060082500D4
:1004A000A000210061082500A100210062082500AC
:1004B000A200210063082500A3000130A400003041
:1004C000A50021004C0A2500672AA435A50D890B3B
:1004D000652A2408A6002508A7000030A71BFF30C6
:1004E000A800A9002608A0052708A1052808A2053C
:1004F0002908A305A31B8B2A2308031D892A220888
:10050000031D892A2108031D892A01302002031CAA
:100510008B2A01308C2A0030AA00AB01AA09AB0952
:10052000AA0A0319AB0A21005C082500AC002100CF
:100530005D082500AD0021005E082500AE00210009
:100540005F082500AF000130B0000030B10021008D
:100550004C0A2500AD2AB035B10D890BAB2A300805
:10056000B2003108B3000030B31BFF30B400B50057
:100570003208AC053308AD053408AE053508AF05C3
:10058000AF1BD12A2F08031DCF2A2E08031DCF2A07
:100590002D08031DCF2A01302C02031CD12A013063
:1005A000D22A00302A07B6002B0803182B0AB700FE
:1005B00021004C35203E8600023087002500360899
:1005C000810741313708813D7F3101302100CC075F
:1005D0000030CD3D402A2100D60001302200E2004B
:1005E0000030E300B5302100A000A830A10056087B
:1005F0008600013087000108D400D5015408A2000C
:100600005508A300560A860001308700403FA40029
:10061000413FA50056080B3E860001308700403F51
:10062000A600413FA70086314A268231A42C210032
:10063000560A860001308700403F2000C900413F34
:10064000CA00A531842520004A082200E3002000CA
:1006500049082200E20008002100560A8600013005
:100660008700403F2000C900413FCA00A531C22594
:1006700020004A082200E300200049082200E2008E
:1006800008002100560A860001308700403F200004
:10069000C900413FCA009831C92020004A08220001
:1006A000E300200049082200E20008009431AA2457
:1006B00020004A082200E300200049082200E2004E
:1006C00008002100560A860001308700403F2000C4
:1006D000C900413FCA00A5315D2520004A0822001B
:1006E000E300200049082200E20008002100560A29
:1006F000860001308700403FB700413FB8009B3182
:100700006923210038082200E30021003708220075
:10071000E20008002100560A860001308700403FB1
:10072000BD00413FBE009F31A52721003E082200A9
:10073000E30021003D082200E20008002100560AE3
:10074000860001308700403FBD00413FBE0093312D
:10075000ED2321003E082200E30021003D08220095
:10076000E20008002100560A860001308700403F61
:10077000BD00413FBE009E314F2621003E082200B1
:10078000E30021003D082200E20008002100560A93
:10079000860001308700403FB700413FB80056084F
:1007A0000B3E860001308700403FB900413FBA0050
:1007B000A6319226210038082200E30021003708E4
:1007C0002200E20008002100560A8600013087005E
:1007D000403FB700413FB80056080B3E860001304D
:1007E0008700403FB900413FBA00A631B026210042
:1007F00038082200E300210037082200E200080048
:100800002100560A860001308700403FB700413F73
:10081000B80056080B3E860001308700403FB90003
:10082000413FBA0087317C27210038082200E300CD
:10083000210037082200E20008002100560A860045
:1008400001308700403F2000C900413FCA0021001D
:1008500056080B3E860001308700403F2000CB0049
:10086000413FCC008A31132220004A082200E300D5
:10087000200049082200E20008002100560A8600F4
:1008800001308700403F2000C900413FCA002100DD
:1008900056080B3E860001308700403F2000CB0009
:1008A000413FCC008831012020004A082200E300AB
:1008B000200049082200E20008009A31E5222000C9
:1008C0004A082200E300200049082200E200080054
:1008D0009C317F2420004A082200E30020004908C0
:1008E0002200E2000800A731712720004A082200F8
:1008F000E300200049082200E200080089310021BD
:10090000210042082200E300210041082200E20009
:1009100008008A31A122210052082200E3002100B0
:1009200051082200E2000800A0302100A000A830F9
:10093000A10086314A2608008C302100A000A83092
:10094000A10086314A2608002100560886000130A1
:1009500087000108FF3E031C9C2C84001530040214
:1009600003189C2C98310435003E820008002000BA
:10097000C700C801C901FF30BF00A930C000470847
:100980009C31C82484312000C6004608CA004A08A9
:100990000319080048084904031D1B2E2D30B3001D
:1009A000AA30B4004A089A313B228431200033082F
:1009B0003404031DDD2C02300D2E3130B300AA307B
:1009C000B4004A089A313B228431200033083404B1
:1009D000031DF12C45088600013087008101810A42
:1009E000402E3530B300AA30B4004A089A313B2279
:1009F0008431200033083404031D002D03300D2EF4
:100A00003330B300AA30B4004A089A313B22843113
:100A1000200033083404031D0F2D04300D2E143034
:100A2000B300AA30B4004A089A313B228431200036
:100A300033083404031D1E2D05300D2E1E30B30067
:100A4000AA30B4004A089A313B228431200033088E
:100A50003404031D2D2D06300D2E4F30B300AA3067
:100A6000B4004A089A313B22843120003308340410
:100A7000031D3C2D07300D2EC130B300A930B4004A
:100A80004A089A313B228431200033083404031D84
:100A90004B2D08300D2EC930B300A930B4004A08E0
:100AA0009A313B228431200033083404031D5A2D2F
:100AB00009300D2E8D30B300A930B4004A089A31A8
:100AC0003B228431200033083404031D692D0A3091
:100AD0000D2E6630B300A930B4004A089A313B228B
:100AE0008431200033083404031D782D0B300D2E83
:100AF0004830B300A930B4004A089A313B2284310F
:100B0000200033083404031D872D0C300D2ED13006
:100B1000B300A930B4004A089A313B228431200046
:100B200033083404031D962D0D300D2E0830B3000C
:100B3000AA30B4004A089A313B228431200033089D
:100B40003404031DA52D0E300D2E7430B300A930D2
:100B5000B4004A089A313B2284312000330834041F
:100B6000031DB42D0F300D2E0F30B300AA30B4008A
:100B70004A089A313B228431200033083404031D93
:100B8000C32D10300D2E1930B300AA30B4004A081E
:100B90009A313B228431200033083404031DD22DC6
:100BA00011300D2ED930B300A930B4004A089A3163
:100BB0003B228431200033083404031DE12D123020
:100BC0000D2E0130B300AA30B4004A089A313B22FE
:100BD0008431200033083404031DF02D13300D2E12
:100BE0002830B300AA30B4004A089A313B2284313D
:100BF000200033083404031DFF2D14300D2E233044
:100C0000B300AA30B4004A089A313B228431200054
:100C100033083404031D152E1530C6004508860020
:100C20000130870046088100402E450886000130CB
:100C300087008101402E48034904031D2D2E4A08D8
:100C40009631A12684312000450A860001308700B4
:100C50003708C03F3808C13F402E023048064904DB
:100C6000031D402E4A089631A126843120004508F4
:100C70000B3E8600013087003708C03F3808C13F6F
:100C80000130C8070030C93DFF30BF00A930C000A7
:100C90000030C02CA2302100A8002808B500210097
:100CA0002108A9002008A800A00A0319A10A280801
:100CB0008400290885000008AA002A08B600360822
:100CC000031908002530360603196B2E3608A331A8
:100CD000DC2386314F2E2100B401722E3416722E81
:100CE00034178F2E2108A9002008A800A00A031994
:100CF000A10A28088400290885000008B600003AE7
:100D000003197B2F643A03198F2E0D3A03198F2E86
:100D1000053A03196E2E193A0319702E4F2E341B03
:100D2000C62E341EA02E350886008701403FB00035
:100D3000413FB100423FB200433FB3000430B12E07
:100D4000350886008701403FA800413FA9002808D8
:100D5000B0002908B100890D893B8909B200B300B0
:100D60000230A8002808B507B31FE62E0330A800FC
:100D70002808B404B009B109B209B309B00A0319CB
:100D8000B10A0319B20A0319B30AE62E341ED52E8E
:100D9000350886008701403FB000413FB100423F27
:100DA000B200433FB3000430E32E350886008701CC
:100DB000403FA800413FA9002808B0002908B10021
:100DC000B201B3010230A8002808B507B601B60A7F
:100DD0000A3036060319192F3608A800A901A835CC
:100DE000A90DA835A90D003028078400A030293DA1
:100DF0008500003FAA00013FAB00023FAC00033F6B
:100E0000AD002D083302031D0F2F2C083202031DE5
:100E10000F2F2B083102031D0F2F2A083002031C4D
:100E2000192F0130A8002808B6070A303606031D1E
:100E3000EC2E340803390319212F2D30A331DC2384
:100E4000863121003608AE00AF01AE1BAF03FF3084
:100E50002100AE07FF30AF3D2E0A03192F0A0319F8
:100E60004F2E00302000C2000030C1000030C00012
:100E70000A30BF0021002F0885002E088400843529
:100E8000850D8435850D00308407A030853D003FF9
:100E90002000B100013FB200023FB300033FB400A5
:100EA000210033082000B800210032082000B700DC
:100EB000210031082000B600210030082000B500D4
:100EC0009E31A126863120003408C6003308C500B3
:100ED0003208C4003108C3009B312623863120002C
:100EE0003F08303E2100A8002808B6003608A3318C
:100EF000DC238631272F0800210039033A04031D23
:100F0000B12F0130BB000030BC000030BD0000300C
:100F1000BE00370A8F2FBB35BC0DBD0DBE0D890B32
:100F20008B2F3B082200C20621003C082200C3068A
:100F300021003D082200C40621003E082200C5060B
:100F400045082000C700220044082000C6002200F7
:100F500043082000C500220042082000C4000130E0
:100F6000E62F0230210039063A04031DEC2F013030
:100F7000BB000030BC000030BD000030BE00370AAE
:100F8000C52FBB35BC0DBD0DBE0D890BC12F3B0858
:100F90002200BE0621003C082200BF0621003D08B9
:100FA0002200C00621003E082200C10641082000A0
:100FB000C700220040082000C60022003F08200091
:100FC000C50022003E082000C4000230C8000030E6
:100FD000C9009331CC23873147302100A000AA30CB
:100FE000A10086314A262100B701B801080020007F
:100FF00032082200E500200031082200E400080049
:10100000080020004A08803A2100B70080303702EB
:10101000031D0D2818302000490203186C282000F9
:101020004B084C0403193A2801302100B700003066
:10103000B8002000490A21001F28B735B80D890BD8
:101040001D283708B9003808BA000030BA1BFF3035
:10105000BB00BC0039082000CE0421003A08200063
:10106000CF0421003B082000D00421003C082000D0
:10107000D104612801302100B7000030B800200001
:10108000490A21004528B735B80D890B4328B7090F
:10109000B8093708B9003808BA000030BA1BFF3069
:1010A000BB00BC0039082000CE0521003A08200012
:1010B000CF0521003B082000D00521003C0820007E
:1010C000D10547302100A000AA30A10086314A2670
:1010D0002000C901CA0108004A302100A000AA303E
:1010E000A10086314A2601302000C9000030CA0024
:1010F000080021002F08B3003008B4003108B50003
:101100000310340D350DB6003608BC003C08031D35
:1011100092280030B2000030B1000030B000003042
:10112000AF0008002F08B3003008B4003108B50044
:101130001730B536B40CB30C890B99283308B600B8
:101140003608B700B017FF30AF05FF30B0050030EC
:10115000B1052F08B8003008B9003108BA00BB014A
:101160008E30BC02BC1FD0283C08803A8F3E03184A
:10117000C2280030B2000030B1000030B0000030B2
:10118000AF0008000130BB36BA0CB90CB80C890BA3
:10119000C3280130B3003308BC070319E928C2286B
:1011A00018303C02031CE6280030B2000030B100C9
:1011B0000030B0000030AF0008000130B835B90D84
:1011C000BA0DBB0D890BDE280130BC023C08031DA3
:1011D000DD2837080319F728B809B909BA09BB0986
:1011E000B80A0319B90A0319BA0A0319BB0A3B085A
:1011F000B2003A08B1003908B0003808AF00080062
:10120000F1302100A000A930A10086314A268931A1
:1012100097311227893122008E1455082000C7000B
:10122000220054082000C600220053082000C500F8
:10123000220052082000C4000130C8000030C9005C
:101240009331CC238931220059082000C7002200A5
:1012500058082000C600220057082000C5002200C0
:1012600056082000C4000230C8000030C900933185
:10127000CC23893122008E102100C401C50145080C
:10128000803AC3006F08803A4302031D49296E0863
:101290004402031855295330890B4C2900000130B2
:1012A0002100C4070030C53D3F29A3315A238931AD
:1012B000A3315723893122006B082100BB00220093
:1012C0006A082100BA006B08BD006A08BC009D31A5
:1012D000AD2589312100C601C7014708803AC30006
:1012E0006D08803A4302031D77296C0846020318F3
:1012F00083295330890B7A29000001302100C60769
:101300000030C73D6D2922008E142100C101C201A9
:101310000800A53198258931A3302100D700553028
:10132000890B9029D70B90298B170B175730210069
:10133000A000A930A10086314A2689318B316A2369
:1013400089312000CE14CE16F9302100A000A8303B
:10135000A100200051082100A50020005008210014
:10136000A40020004F082100A30020004E08210007
:10137000A20086314A268931C4298E31042689315A
:10138000C4298031AB208931200056080319F02987
:10139000A631EE2689312100D70020005208C53E33
:1013A0008600013087002100570881002000520884
:1013B000C53E8600013087000A300106031DEB2977
:1013C0005208C53E860001308700810101302200AD
:1013D000E0000030E10001302000D2070030D33DB2
:1013E0002200600861040319092AB0302100D700E7
:1013F00057082000C500C5308431B7248931220048
:10140000E001E1012000D201D301B0308231EB22B2
:10141000893120005508013A0319BD29033A0319FF
:10142000C129C429C42920004E082100B70020008A
:101430004F082100B800200050082100B90020000A
:1014400051082100BA000130BB000030BC00200070
:10145000490A21002D2ABB35BC0D890B2B2A3B08DC
:10146000BD003C08BE000030BE1BFF30BF00C00006
:101470003D08B7053E08B8053F08B9054008BA055C
:101480003A083904380437040319942A20004B0819
:101490004C0403196A2A01302100B7000030B8005B
:1014A0002000490A2100562AB735B80D890B542A65
:1014B0003708B9003808BA000030BA1BFF30BB004B
:1014C000BC003908D8043A08D9043B08DA043C08BF
:1014D000DB048A2A01302100B7000030B800200068
:1014E000490A2100752AB735B80D890B732AB70947
:1014F000B8093708B9003808BA000030BA1BFF3005
:10150000BB00BC003908D8053A08D9053B08DA0504
:101510003C08DB054730A000AA30A10086314A26EE
:101520002000C901CA0108004A302100A000AA30E9
:10153000A10086314A2601302000C9000030CA00CF
:1015400008001F302100A000A830A10086314A26E3
:101550008A3159302100A000A830A10086314A26E6
:101560008A3101302100C7000030C8009731892737
:101570008A31210047084804031DC22AE930A0002F
:10158000A930C62AE1302100A000A930A10086318F
:101590004A268A31F9302100A000A930A100863105
:1015A0004A268A310A302100B7000030B8000130E5
:1015B000B9000030BA00963138268A31A4302100B3
:1015C000A000A930A10086314A268A310B302100C3
:1015D000B7000030B8000130B9000030BA009631D1
:1015E00038268A3100302100A000A830A1008631C1
:1015F0004A268A3102302100C7000030C8009731E6
:1016000089278A31210047084804031D0B2BE93044
:10161000A000A9300F2BE1302100A000A930A100CB
:1016200086314A268A31F9302100A000A930A10074
:1016300086314A268A310A302100B7000030B800CE
:101640000230B9000030BA00963138268A31A43011
:101650002100A000A930A10086314A268A310B3032
:101660002100B7000030B8000230B9000030BA00E5
:10167000963138268A3173302100A000A830A100AD
:1016800086314A268A3101309B31F0238A3120008D
:101690004A08803A2100D30080305302031D532BA7
:1016A000013020004902031C5A2BB8302100A00051
:1016B000A9305E2BAF302100A000A930A1008631F7
:1016C0004A268A313D302100A000A830A100863191
:1016D0004A2608004D308400AA308500003F2000D3
:1016E000C400013FC5000130C6000030C70095317D
:1016F0006F258B314D308400AA308500003F2000DB
:10170000C400013FC5000230C6000030C70095315B
:101710006F258B3101302000C4000030C50001303E
:10172000C6000030C7008C3145248B3101302000C9
:10173000C4000030C5000230C6000030C7008C3144
:1017400045248B3121006D082000BA0021006C086F
:101750002000B900A7314F278B3120003908C20083
:101760003A08C3003B08C40041308400AA30850019
:10177000003FBF00013FC000023FC1008D31232563
:101780008B3120003F082100A900200040082100E3
:10179000AA00200041082100AB000030A6008030E4
:1017A000A700BF30A8008E31E6268B312100260825
:1017B000AF002708B0002808B100883179208B31AC
:1017C00021002F08A331BF238B3121006E09BD00FA
:1017D0006F09BE00BD0A0319BE0A6A083D07200052
:1017E000B90021006B083E3D2000BA00A7314F2709
:1017F0008B3120003908C2003A08C3003B08C400FE
:1018000044308400AA308500003FBF00013FC00083
:10181000023FC1008D3123258B3120003F0821007C
:10182000A900200040082100AA0020004108210052
:10183000AB000030A6008030A700BF30A8008E317A
:10184000E6268B3121002608AF002708B0002808C3
:10185000B100883179208B3121002F08A331BA23C0
:101860008B3103302100B8000030B9000C30BA00D1
:101870000030BB0095310C258B31EC302100A000ED
:10188000A830A10086314A260800200046034704FC
:101890000319592C220049082000CB0022004808D7
:1018A0002000CA00220047082000C9002200460884
:1018B000672C22004D082000CB0022004C0820009D
:1018C000CA0022004B082000C90022004A0820005C
:1018D000C8004508803A2100A00080302002031D86
:1018E000742C013020004402031C782C0130792C28
:1018F00000302100A100A201A135A20DA135A20D49
:1019000020004508803A2100A30080302302031DF7
:101910008C2C013020004402031C902C0130912CAF
:1019200000302100A400A501A435A50D2000450824
:10193000803A2100A60080302602031DA22C01302F
:1019400020004402031CA62C0130A72C00302100EB
:10195000A700A80124082704A90025082804AA0034
:1019600021082904AB0022082A04AC002B08AD0092
:101970002C08AE000030AE1BFF30AF00B0002D08C9
:101980002000C80421002E082000C90421002F08CF
:101990002000CA04210030082000CB0448082100A0
:1019A000A000200049082100A10020004A082100D1
:1019B000A20020004B082100A3001030A400A33790
:1019C000A20CA10CA00CA40BDF2C21082000BD0050
:1019D000210020082000BC004908BF004808BE00C4
:1019E00003302100A50025082000C0004708C200E0
:1019F0004608C100A531F0258C312000460347047C
:101A0000031D122D4B082200CD0020004A082200A1
:101A1000CC00200049082200CB002000480822000A
:101A2000CA00080020004B082200C90020004A0814
:101A30002200C800200049082200C70020004808F2
:101A40002200C600080020003F08C5004008C6006C
:101A50004108C7000310460D470DC8004808210083
:101A6000A0002008031D3C2D00302000BF000030E6
:101A7000C0000030C100080020004208C500430833
:101A8000C6004408C7000310460D470DC8004808AB
:101A90002100A5002508031D552D00302000BF00A2
:101AA0000030C0000030C1000800210025087B3E46
:101AB0002000C50045082100A00720003F08C50000
:101AC0004008C6004108C7001030C736C60CC50C18
:101AD000890B652D4508C80048082100A500200095
:101AE0004208C5004308C6004408C7001030C73686
:101AF000C60CC50C890B772D4508C8004808210085
:101B0000A50680302000C50045082100A50520005D
:101B1000C017C317FF30C205FF30C3050030C4052E
:101B200000302100A1000030A2000030A3000730E7
:101B30002000C50045082100A40020003F1CAB2D5B
:101B400042082100A107200043082100A23D2000F7
:101B500044082100A33D01302000C136C00CBF0C59
:101B6000890BAC2D0130C235C30DC40D890BB32DCB
:101B700001302100A402031D9D2D09302000C50065
:101B800045082100A40020003F1CD12D420821005F
:101B9000A107200043082100A23D200044082100A5
:101BA000A33D01302000C136C00CBF0C890BD22DE3
:101BB00001302100A336A20CA10C890BD92D0130D4
:101BC000A402031DC32D21082000B100210022081A
:101BD0002000B200210023082000B30021002008CB
:101BE0002000C5004508B400210025082000C600DB
:101BF0004608B5009531D32520003108BF003208D2
:101C0000C0003308C100080099302100A000A930AD
:101C1000A10086314A268E31210066086704031D23
:101C20002B2E0930A000A930A10086314A262000C1
:101C3000D50100302100E3000030E2000030E10077
:101C40000030E0000030DF000030DE000030DD005A
:101C50000030DC0008006708803AC8008030480285
:101C6000031D342E01306602031C8E2E003021002D
:101C7000E3000030E2000030E1000030E0005B08EB
:101C8000DF005A08DE005908DD005808DC00893101
:101C900000218E31FF302100E607FF30E73DCF0104
:101CA000D0015008803AC80080304802031D5A2EE7
:101CB00018304F020318080001302100C80000301E
:101CC000C9004F0A652EC835C90D890B632E490816
:101CD000803ACA0080304A02031D702E013048024B
:101CE000031C742E0130752E00302100CB00CC0176
:101CF00058084B05CD0059084C05CE004F35203E05
:101D00008600023087004D08810741314E08813D31
:101D10007F310130CF070030D03D512E21005B08CC
:101D2000E3005A08E2005908E1005808E0000030DA
:101D3000DF000030DE000030DD000030DC008931E3
:101D400000218E3101302100E6070030E73DCF0150
:101D5000D0015008803AC80080304802031DB22EDE
:101D600018304F020318080001302100C80000306D
:101D7000C9004F0ABD2EC835C90D890BBB2E4908B5
:101D8000803ACA0080304A02031DC82E0130480242
:101D9000031CCC2E0130CD2E00302100CB00CC0115
:101DA00058084B05CD0059084C05CE004F35203E54
:101DB0008600023087004D08810241314E08813B88
:101DC0007F310130CF070030D03DA92E21002608F9
:101DD0002000C900210027082000CA00210028088F
:101DE0002000CB0003104A0D4B0DCC004C08210005
:101DF000AE0029082000C90021002A082000CA00DE
:101E000021002B082000CB0003104A0D4B0DCC0005
:101E10004C082100AD002E0803191B2F2D082E029F
:101E20000318232F2E03FF3A2D072000C900193075
:101E30004902031C232F21002908A6002A08A70015
:101E40002B08A800080021002D08031908002E08FF
:101E50002D020318342F2D03FF3A2E072000C9004E
:101E6000193049020318080006302000C90049084B
:101E70002100AC00A81BAC17AB1B2C17A717FF3019
:101E8000A605FF30A7050030A805AA17FF30A90551
:101E9000FF30AA050030AB052D082E020318742F61
:101EA0000130A935AA0DAB0D890B512F0130AD02C0
:101EB0002D082E0603196F2F0130AC022C080739AC
:101EC00003196F2F502F0130A836A70CA60C890BD1
:101ED000642F01302000C90049082100AE072E08F8
:101EE0002D0603199B2F632F2E082D0203189B2FFD
:101EF0000130A635A70DA80D890B792F0130AE0250
:101F00002D082E060319972F0130AC022C08073933
:101F10000319972F782F0130AB36AA0CA90C890B27
:101F20008C2F01302000C90049082100AD072E0880
:101F30002D06031D8B2FAC1FAD2FFF30A606FF30E3
:101F4000A706FF30A8060130A607003003180130AD
:101F5000A707003003180130A8072C1FBF2FFF3040
:101F6000A906FF30AA06FF30AB060130A9070030F2
:101F700003180130AA07003003180130AB07AC0189
:101F80002608A9072708AA3D2808AB3DAB1FDA2F72
:101F9000FF30A906FF30AA06FF30AB060130A907C3
:101FA000003003180130AA07003003180130AB07D6
:101FB000AC01AC0A29082000B10021002A08200049
:101FC000B20021002B082000B30021002E082000C1
:101FD000C9004908B40021002C082000CA004A08A2
:101FE000B5009531D325200031082100A60020003E
:101FF00032082100A700200033082100A8000800B3
:102000000B340034003400341034003420340034F5
:102010002E3400343C34003448340034533400341B
:102020005B34003461340034653400346634003489
:1020300065340034613400345B340034533400348C
:10204000483400343C3400342E340034203400341E
:102050001034003400340034F0340034E034003400
:10206000D2340034C4340034B8340034AD340034D5
:10207000A53400349F3400349B3400349A34003447
:102080009B3400349F340034A5340034AD34003424
:10209000B8340034C4340034D2340034E034003472
:1020A000F034003400340034103400342034003470
:1020B0002E3400343C34003448340034533400347B
:1020C0005B340034613400346534003466340034E9
:1020D00065340034613400345B34003453340034EC
:1020E000483400343C3400342E340034203400347E
:1020F0001034003400340034F0340034E034003460
:10210000D2340034C4340034B8340034AD34003434
:10211000A53400349F3400349B3400349A340034A6
:102120009B3400349F340034A5340034AD34003483
:10213000B8340034C4340034D2340034E0340034D1
:10214000F0340034003400341034003420340034CF
:102150002E3400343C3400344834003453340034DA
:102160005B34003461340034653400346634003448
:1021700065340034613400345B340034533400344B
:10218000483400343C3400342E34003420340034DD
:102190001034003400340034F0340034E0340034BF
:1021A000D2340034C4340034B8340034AD34003494
:1021B000A53400349F3400349B3400349A34003406
:1021C0009B3400349F340034A5340034AD340034E3
:1021D000B8340034C4340034D2340034E034003431
:1021E000F0340034003400340B3400340034003454
:1021F00010340034203400342E3400343C340034A5
:1022000048340034533400345B34003461340034D7
:10221000653400346634003465340034613400348D
:102220005B34003453340034483400343C340034DC
:102230002E340034203400341034003400340034A0
:10224000F0340034E0340034D2340034C434003488
:10225000B8340034AD340034A53400349F34003435
:102260009B3400349A3400349B3400349F3400345F
:10227000A5340034AD340034B8340034C4340034F0
:10228000D2340034E0340034F0340034003400340C
:1022900010340034203400342E3400343C34003404
:1022A00048340034533400345B3400346134003437
:1022B00065340034663400346534003461340034ED
:1022C0005B34003453340034483400343C3400343C
:1022D0002E34003420340034103400340034003400
:1022E000F0340034E0340034D2340034C4340034E8
:1022F000B8340034AD340034A53400349F34003495
:102300009B3400349A3400349B3400349F340034BE
:10231000A5340034AD340034B8340034C43400344F
:10232000D2340034E0340034F0340034003400346B
:1023300010340034203400342E3400343C34003463
:1023400048340034533400345B3400346134003496
:10235000653400346634003465340034613400344C
:102360005B34003453340034483400343C3400349B
:102370002E3400342034003410340034003400345F
:10238000F0340034E0340034D2340034C434003447
:10239000B8340034AD340034A53400349F340034F4
:1023A0009B3400349A3400349B3400349F3400341E
:1023B000A5340034AD340034B8340034C4340034AF
:1023C000D2340034E0340034F034003400340034CB
:1023D0000034003410340034203400342E340034FF
:1023E0003C34003448340034533400345B3400341B
:1023F00061340034653400346634003465340034AC
:10240000613400345B3400345334003448340034D5
:102410003C3400342E340034203400341034003482
:1024200000340034F0340034E0340034D23400346A
:10243000C4340034B8340034AD340034A53400342E
:102440009F3400349B3400349A3400349B3400347D
:102450009F340034A5340034AD340034B834003433
:10246000C4340034D2340034E0340034F034003466
:102470000034003410340034203400342E3400345E
:102480003C34003448340034533400345B3400347A
:10249000613400346534003466340034653400340B
:1024A000613400345B340034533400344834003435
:1024B0003C3400342E3400342034003410340034E2
:1024C00000340034F0340034E0340034D2340034CA
:1024D000C4340034B8340034AD340034A53400348E
:1024E0009F3400349B3400349A3400349B340034DD
:1024F0009F340034A5340034AD340034B834003493
:10250000C4340034D2340034E0340034F0340034C5
:102510000034003410340034203400342E340034BD
:102520003C34003448340034533400345B340034D9
:10253000613400346534003466340034653400346A
:10254000613400345B340034533400344834003494
:102550003C3400342E340034203400341034003441
:1025600000340034F0340034E0340034D234003429
:10257000C4340034B8340034AD340034A5340034ED
:102580009F3400349B3400349A3400349B3400343C
:102590009F340034A5340034AD340034B8340034F2
:1025A000C4340034D2340034E0340034F034003425
:1025B000003400340034003410340034203400344B
:1025C0002E3400343C340034483400345334003466
:1025D0005B340034613400346534003466340034D4
:1025E00065340034613400345B34003453340034D7
:1025F000483400343C3400342E3400342034003469
:102600001034003400340034F0340034E03400344A
:10261000D2340034C4340034B8340034AD3400341F
:10262000A53400349F3400349B3400349A34003491
:102630009B3400349F340034A5340034AD3400346E
:10264000B8340034C4340034D2340034E0340034BC
:10265000F0340034003400341034003420340034BA
:102660002E3400343C3400344834003453340034C5
:102670005B34003461340034653400346634003433
:1026800065340034613400345B3400345334003436
:10269000483400343C3400342E34003420340034C8
:1026A0001034003400340034F0340034E0340034AA
:1026B000D2340034C4340034B8340034AD3400347F
:1026C000A53400349F3400349B3400349A340034F1
:1026D0009B3400349F340034A5340034AD340034CE
:1026E000B8340034C4340034D2340034E03400341C
:1026F000F03400340034003410340034203400341A
:102700002E3400343C340034483400345334003424
:102710005B34003461340034653400346634003492
:1027200065340034613400345B3400345334003495
:10273000483400343C3400342E3400342034003427
:102740001034003400340034F0340034E034003409
:10275000D2340034C4340034B8340034AD340034DE
:10276000A53400349F3400349B3400349A34003450
:102770009B3400349F340034A5340034AD3400342D
:10278000B8340034C4340034D2340034E03400347B
:10279000F03400340034003420004408CA004508F6
:1027A000CB004608CC004708CD001030CD36CC0C0D
:1027B000CB0CCA0C890BD62B4B08BD004A08BC00B9
:1027C0004508BF004408BE00C001C00A4908C20055
:1027D0004808C100A531F025080021003E08EF009F
:1027E0003D08EE006E09BF006F09C000BF0A031963
:1027F000C00A6A083F072000B90021006B08403D6D
:102800002000BA00A7314F27933120003908C200B9
:102810003A08C3003B08C40044308400AA30850055
:10282000003FBF00013FC000023FC1008D312325A2
:10283000933120003F082100A9002000400821001A
:10284000AA00200041082100AB000030A600803023
:10285000A700BF30A8008E31E6269331210026085C
:10286000AF002708B0002808B100883179209331E3
:1028700021002F08A331BA23933147302100A00053
:10288000AA30A10086314A262100BD01BE01080000
:1028900000302100C0000030BF000030BE0000301A
:1028A000BD0022000D1217302100C1000030C2000F
:1028B000C21B882C22000C1520000E0E890C890CDE
:1028C00001392100B700B801410A682CB735B80DAD
:1028D000890B662C3708B9003808BA000030BA1BDB
:1028E000FF30BB00BC003908BD043A08BE043B08F9
:1028F000BF043C08C00422000C110830890B7E2C58
:102900000000FF302100C107FF30C23DC21F5A2C1A
:1029100022000C1129302100A000A930A10040089C
:10292000A5003F08A4003E08A3003D08A200863190
:102930004A26210040082000CC0021003F0820004A
:10294000CB0021003E082000CA0021003D082000E5
:10295000C90008002000CB01CC014C08803A2100BE
:10296000B70080303702031DB82C183020004B020E
:102970000318012D21005808B7005908B8005A085B
:10298000B9005B08BA000130BB000030BC00200079
:102990004B0A2100CD2CBB35BC0D890BCB2C3B0841
:1029A000BD003C08BE000030BE1BFF30BF00C000B1
:1029B0003D08B7053E08B8053F08B9054008BA0507
:1029C0003A083904380437040319EF2C20004B353A
:1029D000203E8600023087000030C03FC13F0130FA
:1029E0002000CB070030CC3D4C08803A2100B700D6
:1029F00080303702031DFF2C183020004B02031CCF
:102A0000BA2C47302100A000AA30A10086314A2606
:102A10002000C901CA01080055308400AA30850091
:102A20000008A4314A24953155308400AA3085002D
:102A300000089D311325953104302100BC003D3044
:102A4000890B202DBC0B202D0032A4319D24953103
:102A500004302100BC003D30890B2C2DBC0B2C2DEB
:102A600000322000C9010230A731DC279531043043
:102A70002100BC003D30890B3B2DBC0B3B2D0032AF
:102A8000210038083838BC003C082000C90001305B
:102A9000A731DC27953104302100BC003D30890B83
:102AA0004F2DBC0B4F2D003221003A08BC003C08D2
:102AB0002000C9000230A731DC2795310430210005
:102AC000BC003D30890B622DBC0B622D0032E8301A
:102AD0002100A000A830A10086314A26080020006D
:102AE0004508803AC80080304802031D792D4030E7
:102AF0004402031C802D3F302000C4000030C5007C
:102B000020004508C9004408C800480EF039C90033
:102B1000C8014508CB004408CA000630CA35CB0DB1
:102B2000890B8E2D48084A04CC0049084B04CD007F
:102B300044084C042100A000200045084D04210059
:102B4000A100A201A11BA2032208A30020082000CB
:102B5000C800210021082000C9002100220820000F
:102B6000CA00210023082000CB001030CB36CA0C4D
:102B7000C90CC80C890BB62D4908BD004808BC001B
:102B8000210021082000BF00210020082000BE00F5
:102B90000730CC004C08C0004708C2004608C100FE
:102BA000A531F0250800200034080319DC2D330876
:102BB00032043104031DED2D0030B1000030B200AD
:102BC0000030B30008000130B6003608B407013009
:102BD000B336B20CB10C890BE82DFE303305031966
:102BE000062EE32D0130B6003608B4070130B107D8
:102BF000003003180130B207003003180130B3076A
:102C00000130B336B20CB10C890B012EFF30330505
:102C10000319132EF22D0130B4020130B135B20D7B
:102C2000B30D890B0E2EB21B192E0230340203187D
:102C30000B2E3418212EFF30B1057F30B205FF3046
:102C4000B3050310B40C3408B600B701B801103056
:102C5000B635B70DB80D890B282E3608B1043708E4
:102C6000B2043808B304350803190800B317080084
:102C700022008E14FF302000C700FF30C600FF3056
:102C8000C500FF30C40021003A082000C90021001F
:102C900039082000C8009331CC2396310030200041
:102CA000BC00BD000030BE00BF0021003708BB00E3
:102CB0003B082000C00021003A082000C20021008B
:102CC00039082000C100A531F025963122008E1070
:102CD00000302100BF000030BE000030BD000030D9
:102CE000BC001730C0000030C100C11B9A2E22006A
:102CF0000C15003222000C1120000E1F8B2E3D30CF
:102D00002100A000AA30A1004108A3004008A200B1
:102D100086314A2696311730210040064104031DB2
:102D2000932E22008E14FF302100C007FF30C13DDA
:102D3000C11F772E3B30A000A830A10086314A2663
:102D400008002000BE003E088600013087002030C9
:102D50000106031DB02E0130B9003908BE07A32EAD
:102D60003E08860001308700093001060319AB2EAA
:102D7000BC01BD01BB013E088600013087002D303B
:102D80000106031DC82E0130B9003908BB07D02E3B
:102D90003E088600013087002B300106031DD42E2B
:102DA0000130B9003908BE073E08860001308700AF
:102DB0000108A5311C259631031CFD2E20003D087D
:102DC000B2003C08B1000A30B3000030B400A631B4
:102DD0005826963120003E08860001308700010801
:102DE0003107B90032080318320ABA003908D03E58
:102DF000BC00FF303A3DBD00D02E20003B08031937
:102E00000D2F3C09B9003D09BA00B90A0319BA0AE5
:102E10003908B7003A08B80008003D08B8003C0877
:102E2000B700080020004E0821005C052200D200F7
:102E300020004F0821005D052200D300200050082B
:102E400021005E052200D4002000510821005F050A
:102E50002200D50021005C092000B10021005D099D
:102E60002000B20021005E092000B30021005F09AC
:102E70002000B4004E0831052200D60020004F0883
:102E800032052200D7002000500833052200D80068
:102E90002000510834052200D90020004E082100EE
:102EA00060052200DA0020004F08210061052200A1
:102EB000DB0020005008210062052200DC00200019
:102EC0005108210063052200DD0021006009200077
:102ED000B100210061092000B20021006209200038
:102EE000B300210063092000B4004E083105220020
:102EF000CE0020004F0832052200CF0020005008ED
:102F000033052200D0002000510834052200D100F2
:102F1000080021004703480403199D2F2200490897
:102F20002100D000220048082100CF0022004708DD
:102F30002100CE0022004608AB2F22004D082100C0
:102F4000D00022004C082100CF0022004B082100B5
:102F5000CE0022004A082100CD0001302000C4002C
:102F60000030C500210048082000C70021004708A4
:102F70002000C6008C314524973121004808C40048
:102F80004708C30099311E21973121004408CC0025
:102F90004308CB00D01BDB2F5008031DD92F4F084F
:102FA000031DD92F4E08031DD92F01304D02031CDC
:102FB000DB2F0130DC2F0030C900CA014908200096
:102FC000C40021004A082000C50021004808200054
:102FD000C700210047082000C6008C3145249731E6
:102FE000073021004B064C040319F82F0130F92F4C
:102FF0000030C900CA014908C7004A08C8000800D3
:1030000083312C2B8331172B8331412B84319C2C22
:1030100084311D2C84313D2C8331562B8331612B1F
:103020008331762B83318A2B83319E2B8331B22BD4
:103030008331C62B8331E32B8431002C84315D2C0A
:103040008431682C8431732C84317E2C8431892C1A
:103050008431942C08002000B2005E0803192D284A
:103060002100111A38282000320823009A004D2828
:10307000111220003208B1007D08A83E8600013000
:103080008700310881000130B1003108FD070830A8
:103090007D020318FD010130DE0221001116080037
:1030A0007E1C5428A631CE2EA3316F2398312200E6
:1030B000A01D6528A5310F259831031C65280F3008
:1030C0002000B60036082200AA0022002A35503E11
:1030D000860002308700413F8A00403F0A00983155
:1030E0002000B60036082200AA00080022000D12B7
:1030F0000F30F6000030F700F71B9D280C1101304F
:10310000F2000030F300760A8728F235F30D890BC0
:10311000852870087205F40071087305F5007408BD
:103120007504031995280E1596280E110C15FF30FD
:10313000F607FF30F73DF71F7E280C11080022002C
:103140002015AC28A33182230800A331512303307A
:103150000800A3318623080022003808F000700818
:10316000F0000C30203E860001308700413F8A008D
:10317000403F0A009831013A0319A928033A03197C
:10318000A228013A0319A228073A0319A528A92859
:1031900008002000CA1BED284A08803ACB00803086
:1031A0004B02031DD528183049020318ED28393089
:1031B0002100A000AA30A10020004935203E860051
:1031C00002308700403F2100A200413FA30086312A
:1031D0004A262000C901CA01080001302000C900A8
:1031E0000030CA0008007E1CF728A731942F220067
:1031F000A01102302000B10031082200AB000629E6
:10320000A43122240800A4312A24080022003A080C
:103210002000B1003108B1001030203E860001309E
:103220008700413F8A00403F0A009931023A031962
:103230000029013A031900290329080022008E14ED
:1032400000302000BC00BD000030BE00BF000530D3
:10325000CD004D08C000210044082000C20021001C
:1032600043082000C100A531F0259931943148244C
:1032700020004C082100C60020004B082100C5009A
:1032800020004A082100C400200049082100C30092
:1032900008007E1C4D2998319F28220020155A29AC
:1032A000A43122240800A3316C2303300800A43188
:1032B0002A240800220038082000B1003108B1009B
:1032C0000C30203E860001308700413F8A00403F9D
:1032D0000A009931013A03195729033A0319502971
:1032E000013A03195029073A0319532957290800AD
:1032F00022000D120F302000B7000030B800B81BBC
:10330000A52922000C1101302000B3000030B400C8
:10331000370A8C29B335B40D890B8A293108330556
:10332000B50032083405B6003508360403199B2968
:1033300022000E159D2922000E110C15FF302000D1
:10334000B707FF30B83DB81F812922000C110800D3
:103350002000BE00BC01BD01B5290130BA003A0809
:10336000BE070130BC070030BD3D3E08860001307D
:10337000870001080319D3293908B2003808B100C1
:103380003E088600013087000108BA00BB013A08F8
:10339000B3003B08B400A631222699312000310841
:1033A00032040319AD293D08B9003C08B8000800F3
:1033B0002000BE00BC01BD01E5290130BA003A0879
:1033C000BE070130BC070030BD3D3E08860001301D
:1033D000870001080319032A3908B2003808B10030
:1033E0003E088600013087000108BA00BB013A0898
:1033F000B3003B08B400A6312226993120003108E1
:103400003204031DDD293D08B9003C08B80008005E
:1034100022008C018D018E01333021008C00603040
:103420008D00F8308E0023008E018D018C01240068
:103430008D018C01C0308E0025008C018D018E0124
:103440003C002108E0390D38A1002008E0390E3891
:10345000A0002408E0391738A4003D001F08E03917
:1034600014389F001E08E03918389E001D08E03906
:1034700019389D0008002000B800462A0130B50028
:103480003508B8070130B3070030B43D3308840075
:10349000340885000008A5313B259A31FF3A013EEA
:1034A0002000B50038088600013087000108A531EA
:1034B0003B259A3120003507B6003608B70037089B
:1034C000031D692A38088600013087000108031DA2
:1034D0003E2A3708B300B401B31BB403080022002E
:1034E0005D082000AA0022005C082000A90022003C
:1034F0005B082000A80022005A082000A700013025
:10350000AB000030AC00A7312E279A3122005108C1
:103510002000AA00220050082000A90022004F0825
:103520002000A80022004E082000A7000230AB00B7
:103530000030AC00A7312E279A3122008E10A33123
:1035400039239A310030A331A62308002200220833
:10355000860023088700A3314E239A318100013071
:103560002200A2070030A33D0130A4020030A53B99
:10357000240825040319C02AA3317223053008004A
:103580002015C82AA33192230800A3318E230800F6
:1035900022003808F0007008F0000C30203E860051
:1035A00001308700413F8A00403F0A009A31013ACA
:1035B0000319C52A033A0319C22A013A0319C22A78
:1035C000073A0319C52AC52A080017302000CB0086
:1035D0000030CC00CC1B1B2B3D302100A000AA30BA
:1035E000A1005808B7005908B8005A08B9005B088C
:1035F000BA0020004B0A2100022B0310BA0CB90CB0
:10360000B80CB70CFF3E031DFD2A01303705A200A0
:1036100000303805A30000303905A40000303A0519
:10362000A50086314A269A31FF302000CB07FF30B3
:10363000CC3DCC1FEC2A3B302100A000A830A100DB
:1036400086314A262000C901CA010800200042082C
:10365000410440043F040319602BC801C80AC21B7F
:103660003D2B0130BF35C00DC10DC20D890B322B72
:103670000130C7004708C8072F2B42084602031D28
:103680004B2B41084502031D4B2B40084402031DF0
:103690004B2B3F084302031C552B3F08C302400835
:1036A000C43B4108C53B4208C63B0130C236C10C91
:1036B000C00CBF0C890B562B0130C802031D3D2BDB
:1036C0004608C2004508C1004408C0004308BF00C6
:1036D00008002100BA01BB01852BBA01BB01982B60
:1036E0000130752B0230752B0330BA000030BB005F
:1036F000982B4A30A000AA30A10086314A2601301A
:103700002100B7000030B80008003808003A03195B
:103710008A2B792B3708003A03196D2B013A0319CC
:10372000702B033A0319722B013A0319742B792B6E
:103730003A08B90039082000C9000130A731DC2758
:103740009B3147302100A000AA30A10086314A26D3
:103750002100B701B80108007E1CB02B9A31A62ABF
:1037600022002208860023088700A33169239B31A9
:10377000810001302200A2070030A33D0130A402E5
:103780000030A53B240825040319CA2BA3319A2332
:10379000053008002015D22BA43142240800A431A2
:1037A0003A240800220038082000B1003108B10096
:1037B0000C30203E860001308700413F8A00403FA8
:1037C0000A009B31013A0319CF2B033A0319CC2B82
:1037D000013A0319CC2B073A0319CF2BCF2B080042
:1037E0002100B700B801B7302000B1000030B200AE
:1037F0000130B3000030B400A531AD259B3100305D
:10380000A731B8279B31003A03190E2CA3302100B1
:10381000A000A830A10086314A269B310830890BD0
:103820000F2C0000B8302000B1000030B200013091
:10383000B3000030B400A531AD259B310130A73174
:10384000B8279B31003A03192C2CC6302100A00068
:10385000A830A10086314A26210038082000CB007C
:10386000CC014B08C9004C08CA000800730374045B
:10387000031D3D2C22000D123F2C22000E100F3094
:10388000F9000030FA00FA1B762C0C110130F5001B
:103890000030F600790A4E2CF535F60D890B4C2CCC
:1038A00070087505F70071087605F8007708780448
:1038B00003195C2C0E155D2C0E117208F500F60133
:1038C0007A087606031D662C79087506031D6F2C91
:1038D00073037404031D6E2C0D166F2C0E140C153F
:1038E000FF30F907FF30FA3DFA1F452C0C11730326
:1038F0007404031D7D2C0D1208000E1008001730F3
:103900002000CB000030CC00CC1BBD2C3D30210072
:10391000A000AA30A10020004E082100B70020001E
:103920004F082100B800200050082100B9002000F5
:1039300051082100BA0020004B0A2100A42C0310DA
:10394000BA0CB90CB80CB70CFF3E031D9F2C01300C
:103950003705A20000303805A30000303905A40067
:1039600000303A05A50086314A269C31FF30200000
:10397000CB07FF30CC3DCC1F862C3B302100A00074
:10398000A830A10086314A262000C901CA010800DA
:103990002000C4004408031DD12C5408C100410874
:1039A000C4004408031DD62C003008004008B900AC
:1039B0003F08B80044089931D8219C3120003808CC
:1039C000C1004108C407440886000130870001088F
:1039D000031DED2CD401003008004008B9003F0859
:1039E000B80044089931A8219C3120003808C10052
:1039F0003908C20044084107C3004308D4005408F2
:103A000086000130870001080319102D5408860034
:103A10000130870081010130C1004108D407112D18
:103A2000D401440808002000B500B401B40A220003
:103A3000A018080020003508B30033082200A100B8
:103A40002010A014A0110E302000B3003308220073
:103A5000AA00F430A8000130A9002015CA30AC003B
:103A60002330AD00B801CA30AE002330AF00B90139
:103A7000CA30B0002330B100BA01CA30B2002330DE
:103A8000B300BB01D030B4002330B500BC01A43179
:103A9000A7249D31A3316F239D3142302000B10016
:103AA0002330B200A43176249D3150302000B10083
:103AB0001830B2008731F7272000B4010800A43184
:103AC000DD249D3103186E2D8B2DA3317A23080040
:103AD000A3317E230800A3318623080022003B087F
:103AE000F1007108F0001230203E8600013087009E
:103AF000413F8A00403F0A009D31013A03196B2D76
:103B0000033A0319652D013A0319682D073A031981
:103B10006B2D6B2D08002200A0112308F200220853
:103B2000F100A20A0319A30A710884007208850033
:103B30000008A331B0239D3101302200A4020030DF
:103B4000A53B24082504031DA72D0630A82D03300E
:103B5000F3000030F400730808002000C9010B30A6
:103B6000A731DC279D312100BF01C00105302000B5
:103B7000B1000030B20021003D082000B400210057
:103B80003C082000B3009D31FD259D3121004008F7
:103B9000803ABE0020003208803A21003E02031D18
:103BA000D52D2000310821003F020318EA2D210005
:103BB0003A08BE003E082000C9000B30A731DC27C0
:103BC0009D3100320032000001302100BF0700307B
:103BD000C03DB62DA5312B259D310318F72DD730CB
:103BE0002100A000A830A10086314A269D31200086
:103BF000C9010B30A731DC2708002000B701B21F34
:103C0000082EB109B209B10A0319B20AB701B70AFD
:103C1000B41F132EB309B409B30A0319B40A01304F
:103C2000B5003508B706B801B901310832040319E7
:103C3000422EB601B60AB21B272E0130B135B20DA5
:103C4000890B1E2E0130B5003508B6071B2E01303A
:103C5000B835B90D890B282E32083402031D322ED7
:103C600031083302031C392E3108B3023208B43B49
:103C700038140130B236B10C890B3A2E0130B6023D
:103C8000031D272E370803194A2EB809B909B80AA7
:103C90000319B90A3908B2003808B1000800210038
:103CA0003E08ED003D08EC006D082000BA00210040
:103CB0006C082000B900A7314F279E312000390839
:103CC000C2003A08C3003B08C40041308400AA3057
:103CD0008500003FBF00013FC000023FC1008D31A1
:103CE00023259E3120003F082100A9002000400824
:103CF0002100AA00200041082100AB000030A600EE
:103D00008030A700BF30A8008E31E6269E3121000A
:103D10002608AF002708B0002808B10088317920B4
:103D20009E3121002F08A331BF239E31473021004F
:103D3000A000AA30A10086314A262100BD01BE01A3
:103D4000080000302000BD000030BC000030BB0087
:103D50000030BA0034083304320431040319EB2E66
:103D6000BE01BE0AB41BC02E0130B135B20DB30D79
:103D7000B40D890BB52E0130B9003908BE07B22E3B
:103D80000130BA35BB0DBC0DBD0D890BC12E3408F9
:103D90003802031DD52E33083702031DD52E3208F5
:103DA0003602031DD52E31083502031CE02E3108E2
:103DB000B5023208B63B3308B73B3408B83B3A1477
:103DC0000130B436B30CB20CB10C890BE12E0130CA
:103DD000BE02031DC02E3D08B4003C08B3003B08E2
:103DE000B2003A08B1000800200034033504031D76
:103DF000FC2E22000D12FE2E22000E100F3020008D
:103E0000BA000030BB00BB1B3F2F22000C11013059
:103E10002000B6000030B7003A0A102FB635B70DB3
:103E2000890B0E2F31083605B80032083705B90066
:103E30003808390403191F2F22000E15212F2200E4
:103E40000E1120003308B600B7013B083706031DEA
:103E50002B2F3A083606031D362F34033504031D75
:103E6000342F22000D16362F22000E1422000C15BE
:103E7000FF302000BA07FF30BB3DBB1F052F2200DB
:103E80000C11200034033504031D492F22000D12AC
:103E9000080022000E1008007E1C502F9D315F2D5F
:103EA000A5310F259F3103185F2F7D2FA4311224D8
:103EB0000800A4311A240800A4312A240800220092
:103EC0003B082000B2003208B1001230203E8600CC
:103ED00001308700413F8A00403F0A009F31013A8C
:103EE00003195C2F033A0319562F013A0319592F6E
:103EF000073A03195C2F5C2F08002200A011230849
:103F00002000B300220022082000B2002200A20AF2
:103F10000319A30A20003208840033088500000832
:103F2000A331D6239F3101302200A4020030A53BEB
:103F300024082504031D9E2F06309F2F03302000E8
:103F4000B4000030B5003408080021003E08EB0042
:103F50003D08EA006E09BF006F09C000BF0A0319DF
:103F6000C00A6A083F072000B90021006B08403DE5
:103F70002000BA00A7314F279F3120003908C20026
:103F80003A08C3003B08C40044308400AA308500CE
:103F9000003FBF00013FC000023FC1008D3123251B
:103FA0009F3120003F082100A90020004008210087
:103FB000AA00200041082100AB000030A60080309C
:103FC000A700BF30A8008E31E6269F3121002608C9
:103FD000AF002708B0002808B100883179209F3150
:103FE00021002F08A331BA239F3147302100A000C0
:103FF000AA30A10086314A262100BD01BE01080079
:1040000001340034003400340A3400340034003405
:104010006434003400340034E834033400340034B1
:104020001034273400340034A03486340134003492
:10403000403442340F3400348034963498340034A1
:104040000034E134F53405340034CA349A343B3456
:10466A0001300800053008002000971308002000D8
:10467A001F110800200011110800A3313F23080070
:10468A002400961408002400161508002400961524
:10469A0008002400110808002000911508002000D5
:1046AA009111080020009717080020001F15080024
:1046BA002400161408002400961408002400161575
:1046CA00080024009615080024001108080020009C
:1046DA009115080020009111080024009612161660
:1046EA0008002400961616160800A3314523013047
:1046FA000800A331452302300800A33145230130C5
:10470A000800A331482300300800A3317223053082
:10471A000800A33176230A300800A3317623093032
:10472A000800163021009700080024009612161679
:10473A0008002400961616160800013400340034C6
:10474A000034F0007008200095000800F00070089E
:10475A0020009D000800F000700824009100080065
:10476A0022002010AB010E3008002000B1003108F1
:10477A00960008002000B10031089E0008002200BF
:10478A00A011A3314B23043008007E1CCE2BA33189
:10479A00352B013008007E1CD42BA331372B053072
:1047AA0008002000B1003108240091000800200010
:1047BA00B300330898312B200800640080010131CE
:1047CA00890BE32B0034FE0012001E00FE0BE92BBE
:1047DA000034E83403340A3400340A34003498319B
:1047EA002A2022002010AB010E3008002200A0155A
:1047FA002135A331B023033008002200A015031489
:10480A00210DA331B0230530080032009101920135
:10481A00930194019501960108007E1C162CA33180
:10482A007A2BA3316023013008007E1C1E2CA33191
:10483A007E2BA3316023023008007E1C262CA33174
:10484A00822BA3316023013008007E1C2E2CA33159
:10485A00862BA3316323003008007E1C362CA3313B
:10486A008A2BA3319A23053008007E1C3E2CA331E3
:10487A008E2BA3319E230A3008007E1C462CA331BE
:10488A00922BA3319E23093008002000B20032087F
:10489A00B10031082200A100080022008E14A331C1
:1048AA003C23A4310030A331AB2308002000320896
:1048BA002200E900200031082200E8000800200058
:1048CA0032082200E700200031082200E600080032
:1048DA007E1C712CA331B52B22002010AB010E30A7
:1048EA000800200032082100E900200031082100D8
:1048FA00E80008006230320099009B019D010330F4
:10490A009F0020309E0008007E1C8D2CA331C42BF2
:10491A002200A011A3316623043008002100110CE3
:10492A002000B100B10C310C0139B200320C080080
:10493A0080302100B70037082000C9000230A731B3
:10494A00DC2708002400951A0800940128309500F5
:10495A0096010330920008007E1CB52CA331F42B7B
:10496A008831002022002010AB010E3008007E1C86
:10497A00C02CA331FB2B2200A0152135A331D6234D
:10498A00033008002000911908002000911908003E
:10499A000830890BCE2C0000CA2C2200201C0800EB
:1049AA000030A431C724A43198315020A431D22C2C
:1049BA0024001608BF3940389600160E890C890C57
:1049CA000139F000700C08007E1CED2CA431022C79
:1049DA002200A0150314210DA331D62305300800A7
:1049EA002000901222006808690403190800690867
:1049FA008A0068080A00A5310800200091102200E8
:104A0A00660867040319080067088A0066080A002E
:104A1A00A531080024001608BF3940389600160E42
:104A2A00890C890C01392000B100310C08002000E2
:104A3A00B200B1013A3032020318292D3030320265
:104A4A00031C292DB101B10A310C080000309B3139
:104A5A00F023A53120004908CD004D082100B900F6
:104A6A00391C392D03100800031408002000B20075
:104A7A007B3032020318492D61303202031C492D62
:104A8A00DF30B1003108B205320808000F302000CB
:104A9A009E009D0191102100911452302000B10016
:104AAA002430B200A43164244E3020009F00080054
:104ABA0020004A082200EB00200049082200EA00F0
:104ACA0047302100A000AA30A10086314A262000E2
:104ADA00C901CA01080058302000980061309600C8
:104AEA0095019012210090166F302000B1001A3003
:104AFA00B200A4315B24893020009700080020000E
:104B0A00D501D50A4A082100E700200049082100FA
:104B1A00E6004730A000AA30A10086314A262000CC
:104B2A00C901CA010800A4310A24A5319A31082210
:104B3A00A531A4317F24A531A3319623A531A5310E
:104B4A004B25A531A5317025A531A63108260800C7
:104B5A002200201D0800200032082200A3002000A5
:104B6A0031082200A200200034082200A5002000FB
:104B7A0033082200A4002011080002302000CB00D4
:104B8A004B08D5004A082100E50020004908210009
:104B9A00E4004730A000AA30A10086314A2620004E
:104BAA00C901CA01080020002108F1002008F0000C
:104BBA0098317620A53120002308F1002208F00060
:104BCA002408FB007B08F2002608F4002508F300FD
:104BDA009C313624080020003D08B2003C08B10090
:104BEA0099317821A53120003F08B2003E08B10072
:104BFA004008C3004308B3004208B5004108B400A6
:104C0A009E31F42608002100911211120830230067
:104C1A009F0090309D0024309E0019309B009C011B
:104C2A00FD012000D9010830B1003108DE00D801A9
:104C3A00D701D6012100911608002000310884000E
:104C4A003208850000083306031908003208B60046
:104C5A003108B500B10A0319B20A350884003608CA
:104C6A0085001200031D222EB101B20108002300A3
:104C7A009D1C412E1D121D161908F000200058080F
:104C8A00A03E860001308700700881000130F000E4
:104C9A007008D807083058020318D8010130F0000C
:104CAA007008D60708002000B501B601311C612E34
:104CBA003308B5073408B63D0130B335B40D890B56
:104CCA00622E0130B236B10C890B672E31083204DC
:104CDA00031D5B2E3608B2003508B1000800083003
:104CEA0020005E0203188F2E5908A83E8600013064
:104CFA008700010823009A000130F00070082000A4
:104D0A00D907083059020318D9010130F000700898
:104D1A00DE070800210011120800210038082000CF
:104D2A00C500210037082000C40021003A082000ED
:104D3A00C700210039082000C6008C314524A6315D
:104D4A0047302100A000AA30A10086314A2621005E
:104D5A00B701B8010800210038082000C500210069
:104D6A0037082000C40021003A082000C7002100AB
:104D7A0039082000C60095316F25A6314730210039
:104D8A00A000AA30A10086314A262100B701B80145
:104D9A000800A3315423A6312200A01DDE2EA4311F
:104DAA00DD24A631031CDE2E0F30F5007508220023
:104DBA00AA0022002A35503E860002308700413F71
:104DCA008A00403F0A00A631F50075082200AA00B1
:104DDA0008002000B20156080319F02E5708A03E19
:104DEA008600013087000108B1003108B2000130A5
:104DFA00B1003108D707083057020318D70121003C
:104E0A00911201302000D6022100911620003208AA
:104E1A0008006D342434E9342434BC3424344C344A
:104E2A001F34AC341B3489342434493419341234D1
:104E3A0024341A342434223424342A3424343234A0
:104E4A0024343A34243442342434B1342434F33408
:104E5A00183420002708AD002808AE002908AF0042
:104E6A002A08B0001030B036AF0CAE0CAD0C890B6E
:104E7A00382F2E08A1002D08A0002808A300270813
:104E8A00A200A401A40A2C08A6002B08A500A5319B
:104E9A00D82508002000BE01BA1F5A2FB909BA093D
:104EAA00B90A0319BA0ABE01BE0A3908B1003A089A
:104EBA00B200B3018E30BC003C08B4003E08BD000D
:104ECA003D08B5009531D32520003108B9003208D4
:104EDA00BA003308BB0008008A2F53302100A00013
:104EEA00AA30A10086314A26080012302100A0000B
:104EFA00AA30A10086314A26080051302100A000BC
:104F0A00AA30A10086314A26080020005508013A35
:104F1A000319722F033A03197A2F822F08002200ED
:104F2A00A0110230F0007008AB00A12FA331822338
:104F3A000800A3318623080022003A08F00070080E
:104F4A00F0001030203E860001308700413F8A0081
:104F5A00403F0A00A731023A03199B2F013A03196D
:104F6A009B2F9E2F08002000B800B901B90A220021
:104F7A002018D92F20142000B90138080319C92F85
:104F8A002200AA01AA0ACF2F02302000B700370850
:104F9A002200AA00A3315D23A731A4319324A731AB
:104FAA000318D92FA431D224200039080800200080
:104FBA00CB004B08CA004A08CC004908CA004A0874
:104FCA00CD004C30B1000030B2000230B3000030E6
:104FDA00B400A531AD25A7310030A731B827A731D4
:104FEA00003A03190800A3302100A000A830A1004C
:104FFA0086314A2608000A347434653473347434AA
:10500A0069346E346734203462346F3474347434DF
:10501A006F346D3420344C34453444342034643491
:10502A00723469347634653472342E342E342E3424
:10503A000A3400340A342D342D342D342D3473348B
:10504A00743461347234743469346E34673420349D
:10505A0063346F346D346D3420347434653473348E
:10506A0074342D342D342D342D340A340A3400345A
:10507A002D342D342D342D34663469346E3469342C
:10508A007334683465346434203463346F346D3473
:10509A006D34203474346534733474342D342D34BF
:1050AA002D342D340A340034743465347334743432
:1050BA0069346E346734203474346F347034203475
:1050CA004C3445344434203464347234693476348C
:1050DA00653472342E342E342E3400340A34743447
:1050EA0065347334743469346E34673420347034FC
:1050FA00693465347A346F342034643472346934F0
:10510A007634653472342E342E342E3400345534C9
:10511A004E345234453443344F3447344E34493490
:10512A005A3445344434203443344F344D344D34A6
:10513A0041344E34443421340A34003464347234F1
:10514A0076345F3477347234693474346534203495
:10515A006534723472346F34723421340A34003450
:10516A0065347834653463343A342034253464340D
:10517A0020342534643420342534643420340A3409
:10518A0000346434723476345F3472346534613492
:10519A00643420346534723472346F347234213496
:1051AA000A3400346634693466346F3420346E3419
:1051BA006F3474342034723465346134643479342D
:1051CA0021340A3400346434723476342034693435
:1051DA006E3469347434693461346C3469347A34C1
:1051EA00653464340A3400346D346F34763465348B
:1051FA004D34613473346B343A34203425346C348E
:10520A00753420340A340034723465346C343A34D8
:10521A00203461346C346C3420347434683465342A
:10522A00723465340A3400346134623473343A3483
:10523A00203461346C346C3420347434683465340A
:10524A00723465340A340034723465346134643437
:10525A00203464346134743461343A34203425346B
:10526A006C3475340A340034F4344A34483495348E
:10527A009534C734C134DC344534DC346D34C3343A
:10528A00B334333440346834653461347434653447
:10529A00723470346F3473347434743469346D34E2
:1052AA00653400340A340A34733479347334743408
:1052BA0065346D34203464346F346E3465340A34A2
:1052CA00003468346534613474346534723470344B
:1052DA0072346534743469346D346534003474342A
:1052EA006F34673467346C346534683465346134D8
:1052FA0074346534723400343434013448349D349F
:10530A00B03445340034DA344234003480343F3423
:10531A007034693465347A346F346F346E3474346B
:10532A0069346D346534003464346F34523465340E
:10533A006C344D346F34763465340A3400340A34AC
:10534A000A34733468346F347234743473343A34CC
:10535A00203400344634413449344C3445344434DE
:10536A000A340A3400347034613473347334653463
:10537A0064340A340A34003464347234763450346F
:10538A00653461346B3400346434723476344734AF
:10539A00613469346E3400346C346534643467348F
:1053AA00613469346E3400346D3473347434613466
:1053BA0074347534733400344634413449344C34CB
:1053CA00453444340A3400347034613473347334E9
:1053DA00653464340A34003464346F344D346F34C1
:1053EA00763465340A3400346F34703465346E347C
:1053FA0073343A342034003464346F346D346F3487
:10540A007634653400346C346534643470347734FB
:10541A00723400346734653474344134003473347C
:10542A0065347434413400346734653474344D342B
:10543A0000347334653474344D3400347034693450
:10544A006E346734003463346F346D346D34003431
:10545A00723465346C340034613462347334003429
:10546A0070346F3473340034253464340A340034AD
:10547A0025346434203400340034C8343F340034D2
:10548A00C8343D3441340A34003445340A340034D3
:10549A003F3400347A3400344E3400345234003409
:0254AA00593473
:020000040001F9
:08000000FF3FFF3FFF3FFF3F00
:08000E00ECFFF3FFFFFFFFFF11
:00000001FF
