:1000000080315028053008007E14803120007F08A0
:10001000FC002100901E13282000901E1328A231FE
:10002000D92280314B280B1F4B282100111D22287B
:100030002000111D2228220067088A0066080A0095
:1000400080314B282100911D2F282000911D2F2841
:10005000220065088A0064080A0080314B282100CC
:10006000911C39282000911C3928A231E6228031C8
:100070004B282100911E43282000911E4328A431C3
:10008000252480314B282100111E4B282000111EF1
:100090004B28A4317A247C082000FF007E10090040
:1000A00080315228CC308400933085005A3086004D
:1000B000003087000030FF000430A231CD228031B3
:1000C00079308400A1308500EB3086000030870055
:1000D0000030FF000430A231CD228031173084007F
:1000E000A230850068308600013087000030FF00B4
:1000F0000830A231CD22803114308400A530850033
:1001000020308600023087000030FF002030A2310E
:10011000CD22803190308400273085006030FE0091
:100120000030FF00A231C1228031FD014E30840039
:10013000003085000C30FE000030FF00A231C122EB
:100140008031DF308400003085000C30FE0000304C
:10015000FF00A231C12280312030840001308500AF
:100160004830FE000030FF00A231C1228031A030B3
:100170008400013085004130FE000030FF00A231D4
:10018000C1227E1020009F31202F01302100CC00A1
:100190000030CD00CE01CF014F08803A2400C000CE
:1001A00080304002031DD728183021004E0203186A
:1001B0005D29210063082400C00021006408240098
:1001C000C100210065082400C20021006608240047
:1001D000C3000130C4000030C5000030C60000304C
:1001E000C70021004E0A2400F928C435C50DC60DEC
:1001F000C70D890BF5284408C0054508C105460808
:10020000C2054708C30543084204410440040319DA
:100210004B2921004F082400C10021004E08240072
:10022000C000C035C10DC035C10D9030C2002730AF
:10023000C3004008420786004108433D8700403F15
:10024000C400413FC500423FC600433FC7002200F3
:10025000410824004706031D3D29220040082400D0
:100260004606031D3D2922003F0824004506031DC4
:100270003D2922003E0824004406031D4129013087
:1002800042290030C800C90148082100CC052400DB
:1002900049082100CD0501302100CE070030CF3DB7
:1002A0004F08803A2400C00080304002031D5B29C3
:1002B000183021004E02031CD92821004C084D049F
:1002C00003197D291030A000A930A1008E31CE265F
:1002D0002000D50100302100EA000030E9000030A4
:1002E000E8000030E70000302000D1000030D000EE
:1002F0000030CF000030CE0008002100D201D30131
:100300005308803A2400C00080304002031D8B292E
:100310001830210052020318C22A21006308240069
:10032000C000210064082400C100210065082400E9
:10033000C200210066082400C300210053082400E5
:10034000C500210052082400C400C435C50DC435C1
:10035000C50D9030C6002730C70044084607860008
:100360004508473D8700403FC800413FC900423F24
:10037000CA00433FCB0022004108803A2400CC0051
:100380004B08803A4C022200031DD62924004A085B
:1003900022004002031DD6292400490822003F0202
:1003A000031DD6292400480822003E020318DA293A
:1003B0000130DB2900302400CD00CE012100520A9B
:1003C0002400E429CD35CE0D890BE2294D08CF005C
:1003D0004E08D0000030D01BFF30D100D2000130D9
:1003E000D3000030D4000030D5000030D60021000A
:1003F000520A2400FF29D335D40DD50DD60D890B13
:10040000FB295308CF055408D0055508D1055608D7
:10041000D2054F08C0055008C1055108C205520851
:10042000C30540082100E704240041082100E80436
:10043000240042082100E904240043082100EA04C2
:1004400063082400C000210064082400C1002100CA
:1004500065082400C200210066082400C3002100B2
:1004600053082400C500210052082400C400C435EC
:10047000C50DC435C50D9030C6002730C7004408EF
:10048000460786004508473D8700403FC800413F7A
:10049000C900423FCA00433FCB004B08803ACC0022
:1004A00022004108803A24004C02031D672A2200E2
:1004B000400824004A02031D672A22003F08240046
:1004C0004902031D672A22003E082400480203183F
:1004D0006B2A01306C2A0030CD00CE012100520A77
:1004E0002400742ACD35CE0D890B722A4D08CF0019
:1004F0004E08D0000030D01BFF30D100D2000130B8
:10050000D3000030D4000030D5000030D6002100E8
:10051000520A24008F2AD335D40DD50DD60D890B60
:100520008B2A5308CF055408D0055508D105560825
:10053000D2054F08C0055008C1055108C205520830
:10054000C30540082000CE04240041082000CF0449
:10055000240042082000D004240043082000D104D5
:1005600001302100D2070030D33D5308803A2400E7
:10057000C00080304002031DC02A18302100520202
:10058000031C8D2987313B2780312100D001D10107
:100590005108803A2400C00080304002031DD32A55
:1005A00018302100500203180800210067082400B9
:1005B000C000210068082400C1002100690824004F
:1005C000C20021006A082400C3000130C4000030CA
:1005D000C5000030C6000030C7002100500A2400CA
:1005E000F52AC435C50DC60DC70D890BF12A44087F
:1005F000C0054508C1054608C2054708C3054308AC
:100600004204410440040319072B0130082B003039
:10061000C800C901C809C909C80A0319C90A2000C4
:100620004E082400CA0020004F082400CB00200000
:1006300050082400CC00200051082400CD000130D7
:10064000CE000030CF000030D0000030D1002100BB
:10065000500A24002F2BCE35CF0DD00DD10D890B94
:100660002B2B4E08CA054F08CB055008CC05510866
:10067000CD054D084C044B044A040319412B0130AD
:10068000422B00304807D20049080318490AD3001A
:100690005208D4005308D5000030D51BFF30D600D7
:1006A000D700210051082400D9002100500824005F
:1006B000D800D835D90DD835D90D9030DA0027308B
:1006C000DB0058085A07860059085B3D870054082C
:1006D000810741315508813D41315608813D413105
:1006E0005708813D01302100D0070030D13DC82A94
:1006F0002100D70001302200E2000030E300572D36
:100700002100570A860001308700403FB500413F75
:10071000B600A4310A24210036082200E30021009B
:1007200035082200E20008002100570A8600013047
:100730008700403FB500413FB600A4315D24210051
:1007400036082200E300210035082200E2000800FC
:100750002100570A860001308700403FB500413F25
:10076000B6009831B020210036082200E3002100B5
:1007700035082200E2000800A63172262100360862
:100780002200E300210035082200E2000800943135
:10079000A824210036082200E300210035082200A9
:1007A000E20008002100570A860001308700403F20
:1007B000B500413FB600A331422321003608220094
:1007C000E300210035082200E20008002100570A5A
:1007D000860001308700403FB500413FB6009931A7
:1007E0003221210036082200E300210035082200D2
:1007F000E20008002100570A860001308700403FD0
:10080000BD00413FBE009D31FE2521003E08220073
:10081000E30021003D082200E20008002100570A01
:10082000860001308700403FB500413FB600A3314C
:100830000023210036082200E300210035082200B1
:10084000E20008002100570A860001308700403F7F
:10085000B500413FB600A3315523210036082200E0
:10086000E300210035082200E20008002100570AB9
:10087000860001308700403FBD00413FBE009C31F3
:100880000C2421003E082200E30021003D08220044
:10089000E20008002100570A860001308700403F2F
:1008A000BD00413FBE009C315A2421003E08220079
:1008B000E30021003D082200E20008002100570A61
:1008C000860001308700403FB500413FB600570821
:1008D0000B3E860001308700403FB700413FB80023
:1008E000A4319824210036082200E30021003508B5
:1008F0002200E20008002100570A8600013087002C
:10090000403FB500413FB60057080B3E860001301E
:100910008700403FB700413FB800A431B624210012
:1009200036082200E300210035082200E20008001A
:100930002100570A860001308700403FB500413F43
:10094000B60057080B3E860001308700403FB700D5
:10095000413FB8009631FC26210036082200E30012
:10096000210035082200E20008002100570A860015
:1009700001308700403FB500413FB600423FB7001D
:10098000433FB80057080B3E860001308700403FC8
:10099000B900413FBA0089315821210036082200B0
:1009A000E300210035082200E20008002100570A78
:1009B000860001308700403FB500413FB600570830
:1009C0000B3E860001308700403FB700413FB80032
:1009D00095319325210036082200E30021003508D7
:1009E0002200E20008002100570A8600013087003B
:1009F000403FB500413FB60057080B3E860001302E
:100A00008700403FB700413FB800943135242100B2
:100A100036082200E300210035082200E200080029
:100A20009B312423210036082200E30021003508F1
:100A30002200E20008009B317123210036082200C9
:100A4000E300210035082200E2000800A5319825C6
:100A5000210036082200E300210035082200E200D0
:100A6000080087313B27210040082200E3002100D5
:100A70003F082200E20008008A310D2221005508BB
:100A80002200E300210054082200E2000800C830E0
:100A90002100A000A830A1008E31CE260800B4307D
:100AA0002100A000A830A1008E31CE260800210030
:100AB00057088600013087000108FF3E031C4F2DB8
:100AC00084001930040203184F2DA0310435003E74
:100AD000820008002000C700C801C9010D30BF0016
:100AE000AA30C00047089A318D2285312000C60007
:100AF0004608CA004A080319080048084904031DAB
:100B00000B2F3B30B300AA30B4004A0898313D2087
:100B10008531200033083404031D902D0230ED2E62
:100B20003F30B300AA30B4004A0898313D208531E7
:100B3000200033083404031DA42D4508860001302D
:100B400087008101810A302F4330B300AA30B400FE
:100B50004A0898313D208531200033083404031DB4
:100B6000B32D0330ED2E4130B300AA30B4004A0853
:100B700098313D208531200033083404031DC22DF7
:100B80000430ED2E2230B300AA30B4004A08983168
:100B90003D208531200033083404031DD12D06305B
:100BA000ED2E2C30B300AA30B4004A0898313D2015
:100BB0008531200033083404031DE02D0730ED2E6D
:100BC0006330B300AA30B4004A0898313D20853123
:100BD000200033083404031DEF2D0830ED2ED730EC
:100BE000B300A930B4004A0898313D208531200077
:100BF00033083404031DFE2D0930ED2EDF30B30021
:100C0000A930B4004A0898313D20853120003308CE
:100C10003404031D0D2E0A30ED2E8430B300A930AC
:100C2000B4004A0898313D2085312000330834044F
:100C3000031D1C2E0B30ED2E5D30B300A930B40027
:100C40004A0898313D208531200033083404031DC3
:100C50002B2E0C30ED2E3F30B300A930B4004A08E3
:100C600098313D208531200033083404031D3A2E8D
:100C70000D30ED2E9030B300A930B4004A08983101
:100C80003D208531200033083404031D492E0E30E9
:100C9000ED2EB130B300A930B4004A0898313D20A0
:100CA0008531200033083404031D582E0F30ED2EFB
:100CB000E730B300A930B4004A0898313D208531AF
:100CC000200033083404031D672E1030ED2E16303B
:100CD000B300AA30B4004A0898313D208531200085
:100CE00033083404031D762E1130ED2E6B30B30023
:100CF000A930B4004A0898313D20853120003308DE
:100D00003404031D852E1230ED2E9B30B300A93024
:100D1000B4004A0898313D2085312000330834045E
:100D2000031D942E1330ED2E1D30B300AA30B400F5
:100D30004A0898313D208531200033083404031DD2
:100D4000A32E1430ED2E2730B300AA30B4004A0889
:100D500098313D208531200033083404031DB22E24
:100D60001530ED2EEF30B300A930B4004A089831A9
:100D70003D208531200033083404031DC12E163078
:100D8000ED2E0F30B300AA30B4004A0898313D2050
:100D90008531200033083404031DD02E1730ED2E8A
:100DA0003630B300AA30B4004A0898313D2085316E
:100DB000200033083404031DDF2E1830ED2E3130AF
:100DC000B300AA30B4004A0898313D208531200094
:100DD00033083404031DF52E1930C600450886007B
:100DE0000130870046088100302FBB30B300A930A6
:100DF000B4004A0898313D2085312000330834047E
:100E0000031D042F0100302F20004508860001300B
:100E100087008101302F48034904031D1D2F4A0814
:100E20009F318F2785312000450A860001308700D9
:100E30003708C03F3808C13F302F02304806490408
:100E4000031D302F4A089F318F2785312000450828
:100E50000B3E8600013087003708C03F3808C13F8D
:100E600001302000C8070030C93D0D30BF00AA3056
:100E7000C0000030732D95311D25873122008E145E
:100E800055082000C700220054082000C600220098
:100E900053082000C500220052082000C400013081
:100EA000C8000030C900A5315525873122005908F6
:100EB0002000C700220058082000C6002200570862
:100EC0002000C500220056082000C4000230C800DF
:100ED0000030C900A5315525873122008E10210030
:100EE000C601C7014708803AC1006E08803A410236
:100EF000031D7C2F6D0846020318882F5330890B81
:100F00007F2F000001302100C6070030C73D722F3F
:100F1000A13131218731A1312E21873122006F0883
:100F20002100B90022006E082100B8006C08BB0047
:100F30006B08BA009931B92187312100C801C90174
:100F40004908803AC10022006D08803A2100410220
:100F5000031DAE2F22006C08210048020318BA2F8F
:100F60005330890BB12F000001302100C807003039
:100F7000C93DA02F22008E142100CA01CB014A08CE
:100F8000C1004B08C2000030C21BFF30C300C400C8
:100F90004408803AC50022006B08803A21004502CF
:100FA000031DE22F22006A0821004302031DE22FE5
:100FB0002200690821004202031DE22F2200680876
:100FC000210041020318EE2F5330890BE52F00005A
:100FD00001302100CA070030CB3DBF2FBF01C00147
:100FE00008002000B200B1013A3032020318FE2F8F
:100FF00030303202031CFE2FB101B10A310C08005F
:101000000130080022005D082000AA0022005C08D0
:101010002000A90022005B082000A80022005A0836
:101020002000A7000130AB000030AC00A531342512
:101030008831220051082000AA0022005008200018
:10104000A90022004F082000A80022004E0820001E
:10105000A7000230AB000030AC00A5313425883148
:1010600022008E10A131102188310030A1317D2164
:10107000080021002F08B3003008B4003108B50083
:101080000310340D350DB6003608BC003C08031DB6
:1010900052280030B2000030B1000030B000003003
:1010A000AF0008002F08B3003008B4003108B500C5
:1010B0001730B536B40CB30C890B59283308B60079
:1010C0003608B700B017FF30AF05FF30B00500306D
:1010D000B1052F08B8003008B9003108BA00BB01CB
:1010E0008E30BC02BC1F90283C08803A8F3E03180B
:1010F00082280030B2000030B1000030B000003073
:10110000AF0008000130BB36BA0CB90CB80C890B23
:1011100083280130B3003308BC070319A9288228AB
:1011200018303C02031CA6280030B2000030B10089
:101130000030B0000030AF0008000130B835B90D04
:10114000BA0DBB0D890B9E280130BC023C08031D63
:101150009D2837080319B728B809B909BA09BB0986
:10116000B80A0319B90A0319BA0A0319BB0A3B08DA
:10117000B2003A08B1003908B0003808AF000800E2
:101180002000460347040319D428220049082100FF
:10119000A300220048082100A200220047082100E5
:1011A000A10022004608E22822004D082100A300E9
:1011B00022004C082100A20022004B082100A100BF
:1011C00022004A082100A00020004508803AC800FB
:1011D00080304802031DEE2801304402031CFA2827
:1011E00007302100A0040030A1040030A204003028
:1011F000A3040329F8302100A005FF30A105FF302A
:10120000A205FF30A30520082000C8002100210806
:101210002000C900210022082000CA002100230864
:101220002000CB001030CC00CB37CA0CC90CC80C46
:10123000CC0B14294908BD004808BC002100210836
:101240002000BF00210020082000BE000330CD0098
:101250004D08C0004708C2004608C100A331BE23A4
:101260008831200046034704031D47292100230835
:101270002200CD00210022082200CC0021002108FC
:101280002200CB00210020082200CA000800210013
:1012900023082200C900210022082200C8002100E2
:1012A00021082200C700210020082200C6000800F3
:1012B00003302100BC008A30BB005530890B5E2909
:1012C000BB0B5E29BC0B5E29003222008E10210070
:1012D00039033A04031D7D2966082000C700210058
:1012E00065082000C600210064082000C500210018
:1012F00063082000C4000130B02902302100390603
:101300003A040319A0290330210039063A04031DC9
:10131000B62966082000C700210065082000C60025
:10132000210064082000C500210063082000C400DB
:101330000130C8000030C900A53155258931210090
:1013400066082000C700210065082000C6002100B3
:1013500064082000C500210063082000C40002309A
:10136000C8000030C900A531552589312100C001D0
:10137000C1014008BB004108BC000030BC1BFF306D
:10138000BD00BE003E08803ABF003808803A3F02E8
:10139000031DD42937083D02031DD42936083C0219
:1013A000031DD42935083B020318E0295330890B6B
:1013B000D729000001302100C0070030C13DB92904
:1013C00022008E1400302000C7000030C60000301C
:1013D000C5000030C4000130C8000030C900A5318C
:1013E0005525893100302000C7000030C60000308C
:1013F000C5000030C4000230C8000030C900A5316B
:101400005525893155302100A000AA30A1008E3128
:10141000CE262100B501B601080047302100A0000A
:10142000A830A1008E31CE268A3181302100A00063
:10143000A830A1008E31CE268A3101302100CA00A9
:101440000030CB00963109268A3121004A084B042E
:10145000031D2E2AFF30A000A930322AF7302100C8
:10146000A000A930A1008E31CE268A31073021009C
:10147000A000AA30A1008E31CE268A310A30210088
:10148000B5000030B6000130B7000030B80096312A
:1014900080268A31A6302100A000A930A1008E311B
:1014A000CE268A310B302100B5000030B600013065
:1014B000B7000030B800963180268A3128302100EC
:1014C000A000A830A1008E31CE268A310230210042
:1014D000CA000030CB00963109268A3121004A0823
:1014E0004B04031D772AFF30A000A9307B2AF73078
:1014F0002100A000A930A1008E31CE268A3107300C
:101500002100A000AA30A1008E31CE268A310A30F7
:101510002100B5000030B6000230B7000030B8003E
:10152000963180268A31A6302100A000A930A10082
:101530008E31CE268A310B302100B5000030B60046
:101540000230B7000030B800963180268A319B30D7
:101550002100A000A830A1008E31CE268A310130B2
:101560009931FD218A3121003608803AD600803039
:101570005602031DBD2A01303502031CC42ACE3099
:101580002100A000A930C82AC5302100A000A93040
:10159000A1008E31CE268A3165302100A000A8300E
:1015A000A1008E31CE26080061308400AA3085006B
:1015B000003F2000C400013FC5000130C6000030DC
:1015C000C7009E31BC268A3161308400AA30850074
:1015D000003F2000C400013FC5000230C6000030BB
:1015E000C7009E31BC268A3101302000C400003083
:1015F000C5000130C6000030C7008831C0208A31E4
:1016000001302000C4000030C5000230C6000030A8
:10161000C7008831C0208A3122008E1421006E0854
:101620002000BA0021006D082000B900A531762500
:101630008A3120003908C2003A08C3003B08C400C0
:101640004F308400AA308500003FBF00013FC0003A
:10165000023FC1008B31A8238A3120003F082100BE
:10166000A900200040082100AA0020004108210014
:10167000AB000030A6008030A700BF30A8008C313E
:1016800089248A3121002608AF002708B0002808E5
:10169000B100883139208A3121002F08A1319621EB
:1016A0008A3121006C082000BA0021006B0820005C
:1016B000B900A53176258A3120003908C2003A08E0
:1016C000C3003B08C40052308400AA308500003FAC
:1016D000BF00013FC000023FC1008B31A8238A3107
:1016E00020003F082100A900200040082100AA0096
:1016F000200041082100AB000030A6008030A70088
:10170000BF30A8008C3189248A3121002608AF001F
:101710002708B0002808B100883139208A3121001B
:101720002F08A13191218A3103302100B600003009
:10173000B7000C30B8000030B9009E3159268A310C
:1017400003302100A000A930A1008E31CE26080070
:1017500020003F08C5004008C6004108C70003102C
:10176000460D470DC80048082100A0002008031DB1
:10177000C12B00302000BF000030C0000030C1008D
:10178000080020004208C5004308C6004408C700FE
:101790000310460D470DC80048082100A500250884
:1017A000031DDA2B00302000BF000030C0000030E5
:1017B000C1000800210025087B3E2000C500450827
:1017C0002100A00720003F08C5004008C6004108CE
:1017D000C7001030C736C60CC50C890BEA2B45086C
:1017E000C80048082100A50020004208C5004308A1
:1017F000C6004408C7001030C736C60CC50C890B9C
:10180000FC2B4508C80048082100A50680302000B0
:10181000C50045082100A5052000C017C317FF30EB
:10182000C205FF30C3050030C40500302100A1000F
:101830000030A2000030A30007302000C50045089A
:101840002100A40020003F1C302C42082100A107E9
:10185000200043082100A23D200044082100A33DB0
:1018600001302000C136C00CBF0C890B312C013077
:10187000C235C30DC40D890B382C01302100A402E0
:10188000031D222C09302000C50045082100A400BA
:1018900020003F1C562C42082100A10720004308CD
:1018A0002100A23D200044082100A33D013020007A
:1018B000C136C00CBF0C890B572C01302100A33658
:1018C000A20CA10C890B5E2C0130A402031D482C34
:1018D00021082000B100210022082000B2002100D0
:1018E00023082000B300210020082000C50045087F
:1018F000B400210025082000C6004608B500933139
:10190000D02320003108BF003208C0003308C100D6
:101910000800210026082000C90021002708200017
:10192000CA00210028082000CB0003104A0D4B0DEF
:10193000CC004C082100AE0029082000C90021007D
:101940002A082000CA0021002B082000CB00031029
:101950004A0D4B0DCC004C082100AD002E08031998
:10196000BE2C2D082E020318C62C2E03FF3A2D077D
:101970002000C90019304902031CC62C2100290887
:10198000A6002A08A7002B08A800080021002D089F
:10199000031908002E082D020318D72C2D03FF3A37
:1019A0002E072000C900193049020318080006302C
:1019B0002000C90049082100AC00A81BAC17AB1BD4
:1019C0002C17A717FF30A605FF30A7050030A80584
:1019D000AA17FF30A905FF30AA050030AB052D0876
:1019E0002E020318172D0130A935AA0DAB0D890B56
:1019F000F42C0130AD022D082E060319122D0130F2
:101A0000AC022C0807390319122DF32C0130A8362B
:101A1000A70CA60C890B072D01302000C90049082E
:101A20002100AE072E082D0603193E2D062D2E0887
:101A30002D0203183E2D0130A635A70DA80D890BE8
:101A40001C2D0130AE022D082E0603193A2D01304F
:101A5000AC022C08073903193A2D1B2D0130AB3687
:101A6000AA0CA90C890B2F2D01302000C9004908B0
:101A70002100AD072E082D06031D2E2DAC1F502D65
:101A8000FF30A606FF30A706FF30A8060130A607E4
:101A9000003003180130A707003003180130A807F1
:101AA0002C1F622DFF30A906FF30AA06FF30AB06BF
:101AB0000130A907003003180130AA0700300318CD
:101AC0000130AB07AC012608A9072708AA3D280862
:101AD000AB3DAB1F7D2DFF30A906FF30AA06FF30BE
:101AE000AB060130A907003003180130AA07003007
:101AF00003180130AB07AC01AC0A29082000B10083
:101B000021002A082000B20021002B082000B30089
:101B100021002E082000C9004908B40021002C082B
:101B20002000CA004A08B5009331D02320003108B4
:101B30002100A600200032082100A7002000330861
:101B40002100A80008002200450844044304420480
:101B5000031DBF2D2000D50100302100EA00003018
:101B6000E9000030E8000030E70000302000D1003C
:101B70000030D0000030CF000030CE00080022003E
:101B8000C51B512E4508031DCF2D4408031DCF2D25
:101B90004308031DCF2D01304202031C512E00309B
:101BA0002100EA000030E9000030E8000030E700E2
:101BB00066082000D100210065082000D000210027
:101BC00064082000CF00210063082000CE00873188
:101BD0003B278D31FF302200C207FF30C33DFF306D
:101BE000C43DFF30C53D2100DC01DD015D08803AC8
:101BF000CC0080304C02031DFF2D18305C0203180E
:101C0000080021006308CC006408CD006508CE0000
:101C10006608CF000130D0000030D1000030D20083
:101C20000030D3005C0A182ED035D10DD20DD30D63
:101C3000890B142E53085204510450040319222E08
:101C40000130232E0030D400D501D601D70154082D
:101C5000CC055508CD055608CE055708CF055D08BB
:101C6000D9005C08D800D835D90DD835D90D9030B9
:101C7000DA002730DB0058085A07860059085B3D18
:101C800087004C08810741314D08813D41314E08A4
:101C9000813D41314F08813D0130DC070030DD3DA1
:101CA000F62D21006608EA006508E9006408E800EE
:101CB0006308E70000302000D1000030D000003081
:101CC000CF000030CE0087313B278D31013022001C
:101CD000C2070030C33D0030C43D0030C53D210087
:101CE000DC01DD015D08803ACC0080304C02031D30
:101CF0007B2E18305C020318080021006308CC001A
:101D00006408CD006508CE006608CF000130D00021
:101D10000030D1000030D2000030D3005C0A942E95
:101D2000D035D10DD20DD30D890B902E530852040E
:101D30005104500403199E2E01309F2E0030D40010
:101D4000D501D601D7015408CC055508CD05560854
:101D5000CE055708CF055D08D9005C08D800D835F6
:101D6000D90DD835D90D9030DA002730DB0058086E
:101D70005A07860059085B3D87004C0881024131B3
:101D80004D08813B41314E08813B41314F08813B39
:101D90007D310130DC070030DD3D722EA2302100A4
:101DA000A6002608B30021002108A7002008A600ED
:101DB000A00A0319A10A2608840027088500000844
:101DC000A8002808B4003408031908002530340698
:101DD0000319EF2E3408A131B3218E31D32E210007
:101DE000B201F62E3216F62E3217132F2108A70055
:101DF0002008A600A00A0319A10A260884002708C3
:101E000085000008B400003A0319FF2F643A031953
:101E1000132F0D3A0319132F053A0319F22E193A0D
:101E20000319F42ED32E321B4A2F321E242F3308CF
:101E300086008701403FAE00413FAF00423FB00007
:101E4000433FB1000430352F330886008701403FFF
:101E5000A600413FA7002608AE002708AF00890D65
:101E6000893B8909B000B1000230A6002608B307FB
:101E7000B11F6A2F0330A6002608B204AE09AF09CD
:101E8000B009B109AE0A0319AF0A0319B00A031960
:101E9000B10A6A2F321E592F330886008701403F4E
:101EA000AE00413FAF00423FB000433FB1000430BD
:101EB000672F330886008701403FA600413FA700F7
:101EC0002608AE002708AF00B001B1010230A6001D
:101ED0002608B307B401B40A0A30340603199D2F4B
:101EE0003408A600A701A635A70DA635A70D00301A
:101EF00026078400A830273D8500003FA800013F49
:101F0000A900023FAA00033FAB002B083102031DCA
:101F1000932F2A083002031D932F29082F02031D37
:101F2000932F28082E02031C9D2F0130A60026089F
:101F3000B4070A303406031D702F32080339031921
:101F4000A52F2D30A131B3218E3121003408AC00F2
:101F5000AD01AC1BAD03FF302100AC07FF30AD3D40
:101F60002C0A03192D0A0319D32E00302000C200B9
:101F70000030C1000030C0000A30BF0021002D0831
:101F800085002C0884008435850D8435850D00304E
:101F90008407A830853D003F2000B100013FB2001A
:101FA000023FB300033FB400210031082000B80015
:101FB000210030082000B70021002F082000B600C3
:101FC00021002E082000B5009C31FA248E3120001B
:101FD0003408C6003308C5003208C4003108C30005
:101FE0009831EF208E3120003F08303E2100A600BE
:101FF0002608B4003408A131B3218E31AB2F08007C
:102000000B340034003400341034003420340034F5
:102010002E3400343C34003448340034533400341B
:102020005B34003461340034653400346634003489
:1020300065340034613400345B340034533400348C
:10204000483400343C3400342E340034203400341E
:102050001034003400340034F0340034E034003400
:10206000D2340034C4340034B8340034AD340034D5
:10207000A53400349F3400349B3400349A34003447
:102080009B3400349F340034A5340034AD34003424
:10209000B8340034C4340034D2340034E034003472
:1020A000F034003400340034103400342034003470
:1020B0002E3400343C34003448340034533400347B
:1020C0005B340034613400346534003466340034E9
:1020D00065340034613400345B34003453340034EC
:1020E000483400343C3400342E340034203400347E
:1020F0001034003400340034F0340034E034003460
:10210000D2340034C4340034B8340034AD34003434
:10211000A53400349F3400349B3400349A340034A6
:102120009B3400349F340034A5340034AD34003483
:10213000B8340034C4340034D2340034E0340034D1
:10214000F0340034003400341034003420340034CF
:102150002E3400343C3400344834003453340034DA
:102160005B34003461340034653400346634003448
:1021700065340034613400345B340034533400344B
:10218000483400343C3400342E34003420340034DD
:102190001034003400340034F0340034E0340034BF
:1021A000D2340034C4340034B8340034AD34003494
:1021B000A53400349F3400349B3400349A34003406
:1021C0009B3400349F340034A5340034AD340034E3
:1021D000B8340034C4340034D2340034E034003431
:1021E000F0340034003400340B3400340034003454
:1021F00010340034203400342E3400343C340034A5
:1022000048340034533400345B34003461340034D7
:10221000653400346634003465340034613400348D
:102220005B34003453340034483400343C340034DC
:102230002E340034203400341034003400340034A0
:10224000F0340034E0340034D2340034C434003488
:10225000B8340034AD340034A53400349F34003435
:102260009B3400349A3400349B3400349F3400345F
:10227000A5340034AD340034B8340034C4340034F0
:10228000D2340034E0340034F0340034003400340C
:1022900010340034203400342E3400343C34003404
:1022A00048340034533400345B3400346134003437
:1022B00065340034663400346534003461340034ED
:1022C0005B34003453340034483400343C3400343C
:1022D0002E34003420340034103400340034003400
:1022E000F0340034E0340034D2340034C4340034E8
:1022F000B8340034AD340034A53400349F34003495
:102300009B3400349A3400349B3400349F340034BE
:10231000A5340034AD340034B8340034C43400344F
:10232000D2340034E0340034F0340034003400346B
:1023300010340034203400342E3400343C34003463
:1023400048340034533400345B3400346134003496
:10235000653400346634003465340034613400344C
:102360005B34003453340034483400343C3400349B
:102370002E3400342034003410340034003400345F
:10238000F0340034E0340034D2340034C434003447
:10239000B8340034AD340034A53400349F340034F4
:1023A0009B3400349A3400349B3400349F3400341E
:1023B000A5340034AD340034B8340034C4340034AF
:1023C000D2340034E0340034F034003400340034CB
:1023D0000034003410340034203400342E340034FF
:1023E0003C34003448340034533400345B3400341B
:1023F00061340034653400346634003465340034AC
:10240000613400345B3400345334003448340034D5
:102410003C3400342E340034203400341034003482
:1024200000340034F0340034E0340034D23400346A
:10243000C4340034B8340034AD340034A53400342E
:102440009F3400349B3400349A3400349B3400347D
:102450009F340034A5340034AD340034B834003433
:10246000C4340034D2340034E0340034F034003466
:102470000034003410340034203400342E3400345E
:102480003C34003448340034533400345B3400347A
:10249000613400346534003466340034653400340B
:1024A000613400345B340034533400344834003435
:1024B0003C3400342E3400342034003410340034E2
:1024C00000340034F0340034E0340034D2340034CA
:1024D000C4340034B8340034AD340034A53400348E
:1024E0009F3400349B3400349A3400349B340034DD
:1024F0009F340034A5340034AD340034B834003493
:10250000C4340034D2340034E0340034F0340034C5
:102510000034003410340034203400342E340034BD
:102520003C34003448340034533400345B340034D9
:10253000613400346534003466340034653400346A
:10254000613400345B340034533400344834003494
:102550003C3400342E340034203400341034003441
:1025600000340034F0340034E0340034D234003429
:10257000C4340034B8340034AD340034A5340034ED
:102580009F3400349B3400349A3400349B3400343C
:102590009F340034A5340034AD340034B8340034F2
:1025A000C4340034D2340034E0340034F034003425
:1025B000003400340034003410340034203400344B
:1025C0002E3400343C340034483400345334003466
:1025D0005B340034613400346534003466340034D4
:1025E00065340034613400345B34003453340034D7
:1025F000483400343C3400342E3400342034003469
:102600001034003400340034F0340034E03400344A
:10261000D2340034C4340034B8340034AD3400341F
:10262000A53400349F3400349B3400349A34003491
:102630009B3400349F340034A5340034AD3400346E
:10264000B8340034C4340034D2340034E0340034BC
:10265000F0340034003400341034003420340034BA
:102660002E3400343C3400344834003453340034C5
:102670005B34003461340034653400346634003433
:1026800065340034613400345B3400345334003436
:10269000483400343C3400342E34003420340034C8
:1026A0001034003400340034F0340034E0340034AA
:1026B000D2340034C4340034B8340034AD3400347F
:1026C000A53400349F3400349B3400349A340034F1
:1026D0009B3400349F340034A5340034AD340034CE
:1026E000B8340034C4340034D2340034E03400341C
:1026F000F03400340034003410340034203400341A
:102700002E3400343C340034483400345334003424
:102710005B34003461340034653400346634003492
:1027200065340034613400345B3400345334003495
:10273000483400343C3400342E3400342034003427
:102740001034003400340034F0340034E034003409
:10275000D2340034C4340034B8340034AD340034DE
:10276000A53400349F3400349B3400349A34003450
:102770009B3400349F340034A5340034AD3400342D
:10278000B8340034C4340034D2340034E03400347B
:10279000F0340034003400340134003400340034A8
:1027A000200034080319D92B330832043104031DE7
:1027B000EA2B0030B1000030B2000030B300080056
:1027C0000130B6003608B4070130B336B20CB10C94
:1027D000890BE52BFE3033050319032CE02B013068
:1027E000B6003608B4070130B107003003180130D5
:1027F000B207003003180130B3070130B336B20C12
:10280000B10C890BFE2BFF3033050319102CEF2B75
:102810000130B4020130B135B20DB30D890B0B2C70
:10282000B21B162C023034020318082C34181E2C4C
:10283000FF30B1057F30B205FF30B3050310B40C93
:102840003408B600B701B8011030B635B70DB80D71
:10285000890B252C3608B1043708B2043808B304B4
:10286000350803190800B317080021003608803A1C
:102870002000C90080304902031D412C183021007E
:10288000350203189B2C21003708380403196B2CE0
:1028900001302000C9000030CA000030CB000030F9
:1028A000CC002100350A2000592CC935CA0DCB0DAA
:1028B000CC0D890B552C49082100DF0420004A0863
:1028C0002100E00420004B082100E10420004C0816
:1028D0002100E204912C01302000C9000030CA0020
:1028E0000030CB000030CC002100350A20007C2CC9
:1028F000C935CA0DCB0DCC0D890B782CC909CA0975
:10290000CB09CC0949082100DF0520004A08210035
:10291000E00520004B082100E10520004C082100C3
:10292000E2055530A000AA30A1008E31CE2621004C
:10293000B501B601080058302100A000AA30A1005E
:102940008E31CE2601302100B5000030B6000800DF
:102950002000C901CA014A08803A2100B70080302E
:102960003702031DB62C1830200049020318122D1F
:1029700021006308B7006408B8006508B90066085C
:10298000BA000130BB000030BC000030BD00003098
:10299000BE002000490A2100D12CBB35BC0DBD0D65
:1029A000BE0D890BCD2C3B08B7053C08B8053D088A
:1029B000B9053E08BA053A08390438043704031942
:1029C000002D20004A082100B800200049082100FD
:1029D000B700B735B80DB735B80D9030B90027300E
:1029E000BA0037083907BB0038083A3DBC003B083D
:1029F00086003C0887000030C03FC13FC23FC33F54
:102A000001302000C9070030CA3D4A08803A210041
:102A1000B70080303702031D102D18302000490206
:102A2000031CB82C55302100A000AA30A1008E3123
:102A3000CE262100B501B601080021005F08200064
:102A40004E052200D2002100600820004F05220020
:102A5000D30021006108200050052200D40021008D
:102A60006208200051052200D50020004E09B10067
:102A70004F09B2005009B3005109B40021005F08AA
:102A8000200031052200D600210060082000320518
:102A90002200D70021006108200033052200D80061
:102AA00021006208200034052200D90021005F08BF
:102AB00067052200DA002100600868052200DB00BB
:102AC0002100610869052200DC00210062086A0516
:102AD0002200DD00210067092000B1002100680903
:102AE0002000B200210069092000B30021006A091A
:102AF0002000B40021005F08200031052200CE0034
:102B000021006008200032052200CF00210061086A
:102B1000200033052200D000210062082000340587
:102B20002200D100080021005F08B9006008BA0047
:102B30006108BB006208BC000130BD000030BE006F
:102B40000030BF000030C000350AAA2DBD35BE0DD3
:102B5000BF0DC00D890BA62D3D08B9053E08BA056D
:102B60003F08BB054008BC053C083B043A04390457
:102B70000319FD2D370838040319D72D0130B9008A
:102B80000030BA000030BB000030BC00350ACC2D4C
:102B9000B935BA0DBB0DBC0D890BC82D3908E3043E
:102BA0003A08E4043B08E5043C08E604F32D013050
:102BB000B9000030BA000030BB000030BC00350A5C
:102BC000E52DB935BA0DBB0DBC0D890BE12DB90949
:102BD000BA09BB09BC093908E3053A08E4053B0812
:102BE000E5053C08E6055530A000AA30A1008E316D
:102BF000CE262100B501B60108005830A000AA3049
:102C0000A1008E31CE2601302100B5000030B60083
:102C1000080021004A034B0403191D2E2200490815
:102C20002100D300220048082100D20022004708DA
:102C30002100D100220046082B2E22004D08210041
:102C4000D30022004C082100D20022004B082100B2
:102C5000D10022004A082100D00001302000C40029
:102C60000030C50021004B082000C70021004A08A1
:102C70002000C6008831C020963121004B08C700D3
:102C80004A08C600A631C326963121004708CF0066
:102C90004608CE00D31B5B2E5308031D592E520845
:102CA000031D592E5108031D592E01305002031CDB
:102CB0005B2E01305C2E0030CC00CD014C08200092
:102CC000C40021004D082000C50021004B08200051
:102CD000C70021004A082000C6008831C020963174
:102CE000073021004E064F040319782E0130792E4B
:102CF0000030CC00CD014C08CA004D08CB000800C4
:102D000022008E14FF302000C700FF30C600FF30C5
:102D1000C500FF30C400210038082000C900210090
:102D200037082000C800A531552596310030200015
:102D3000BC00BD000030BE00BF0021003508B90056
:102D400039082000C000210038082000C2002100FE
:102D500037082000C100A331BE23963122008E1017
:102D600017302100BA000030BB00BB1BF52E22003B
:102D70000C15003222000C11210037033804031D0A
:102D8000D22E20000E1BC62E8E1DD22E4B302100BF
:102D9000A000AA30A1003B08A3003A08A2008E318F
:102DA000CE269631173021003A063B04031DEE2E45
:102DB00022008E1400302000C7000030C600003012
:102DC000C5000030C400210038082000C9002100DF
:102DD00037082000C800A53155259631FF30210065
:102DE000BA07FF30BB3DBB1FB72E6330A000A83031
:102DF000A1008E31CE26080022008E10210037035C
:102E00003804031D332F0130B9000030BA00003000
:102E1000BB000030BC00350A112FB935BA0DBB0D0F
:102E2000BC0D890B0D2F39082300B40621003A0888
:102E30002300B50621003B082300B60621003C080C
:102E40002300B70637082000C700230036082000FB
:102E5000C600230035082000C500230034082000E8
:102E6000C4000130682F0230210037063804031DEA
:102E70006E2F0130B9000030BA000030BB000030C6
:102E8000BC00350A472FB935BA0DBB0DBC0D890BF7
:102E9000432F39082300B00621003A082300B10669
:102EA00021003B082300B20621003C082300B306A2
:102EB00033082000C700230032082000C60023008A
:102EC00031082000C500230030082000C400023073
:102ED000C8000030C900A531552596315530210074
:102EE000A000AA30A1008E31CE262100B501B60186
:102EF000080000302100C3000030C2000030C100D3
:102F00000030C00035033604031D892F22000D1246
:102F10008B2F22000E1017302100C4000030C50096
:102F2000C51BE52F22000C15210035033604031DB7
:102F3000B82F20000E0E890C890C01392100B90030
:102F4000BA01440AA52FB935BA0D890BA32F390848
:102F5000BB003A08BC000030BC1BFF30BD00BE0007
:102F60003B08C0043C08C1043D08C2043E08D72FFA
:102F700020000E0C2100B900B90C390C0139BA003F
:102F8000BB01440AC52FBA35BB0D890BC32F3A08C4
:102F9000BC003B08BD000030BD1BFF30BE00BF00C1
:102FA0003C08C0043D08C1043E08C2043F08C304F5
:102FB00022000C110830890BDB2F0000FF302100AC
:102FC000C407FF30C53DC51F922F22000C112030D1
:102FD0002100A000A930A1004308A5004208A400D8
:102FE0004108A3004008A2008E31CE2621004308EC
:102FF000B8004208B7004108B6004008B500080014
:103000002400951A08009401283095009601033099
:103010009200080022008C018D018E0133302100C6
:103020008C0060308D00F8308E0023008E018D0101
:103030008C0124008D018C01C8308E0025008C018C
:103040008D018E013C002108E0390D38A1002008D7
:10305000E0390E38A0002408E0391738A4003D00FC
:103060001F08E03914389F001E08E03918389E0008
:103070001D08E03919389D0008002000B8004828D4
:103080000130B5003508B8070130B3070030B43D52
:1030900033088400340885000008A3310F239831D9
:1030A000FF3A013E2000B500380886000130870055
:1030B0000108A3310F23983120003507B6003608E8
:1030C000B7003708031D6B283808860001308700D9
:1030D0000108031D40283708B300B401B31BB40333
:1030E000080022002208860023088700A13125213C
:1030F0009831810001302200A2070030A33D013049
:10310000A4020030A53B2408250403198B28A13113
:1031100049210530080020159328A13169210800B4
:10312000A1316521080022003808F0007008F00085
:103130000C30203E860001308700413F8A00403F2E
:103140000A009831013A03199028033A03198D288F
:10315000013A03198D28073A03199028902808008E
:103160002100B61BE9283608803A2000C9008030CB
:103170004902031DBE281830210035020318E92832
:1031800047302100A000AA30A10036082000CA0064
:10319000210035082000C900C935CA0DC935CA0D3E
:1031A0009030CB002730CC0049084B0786004A08F6
:1031B0004C3D8700403F2100A200413FA300423F19
:1031C000A400433FA5008E31CE262100B501B601F3
:1031D000080001302100B5000030B60008002000D2
:1031E0004208410440043F0403192929C801C80AC0
:1031F000C21B06290130BF35C00DC10DC20D890BA0
:10320000FB280130C7004708C807F82842084602D3
:10321000031D142941084502031D142940084402D6
:10322000031D14293F084302031C1E293F08C30243
:103230004008C43B4108C53B4208C63B0130C2368A
:10324000C10CC00CBF0C890B1F290130C802031D23
:1032500006294608C2004508C1004408C0004308CA
:10326000BF0008002100B801B9014E29B801B90119
:10327000612901303E2902303E290330B800003078
:10328000B90061295830A000AA30A1008E31CE26A5
:1032900001302100B5000030B60008003608003AC1
:1032A0000319532942293508003A03193629013AEE
:1032B00003193929033A03193B29013A03193D2916
:1032C00042293808B70037082000C9000130A6316C
:1032D0000326993155302100A000AA30A1008E317B
:1032E000CE262100B501B60108007E1C792998314F
:1032F000712822002208860023088700A13140217E
:103300009931810001302200A2070030A33D013035
:10331000A4020030A53B2408250403199329A131F8
:1033200071210530080020159B29A23107220800D1
:10333000A131FF210800220038082000B100310827
:10334000B1000C30203E860001308700413F8A00EA
:10335000403F0A009931013A03199829033A0319A9
:103360009529013A03199529073A031998299829AB
:1033700008002100BD01BE0105302000B100003071
:10338000B20021003B082000B40021003A082000D0
:10339000B3009C31A824993121003E08803ABC003A
:1033A00020003208803A21003C02031DDB29200066
:1033B000310821003D020318F02921003808BC0023
:1033C0003C082000C9000B30A63103269931003299
:1033D0000032000001302100BD070030BE3DBC2995
:1033E000A3311F23993103180800EE302100A000FB
:1033F000A830A1008E31CE2608002000CB00CC01E1
:103400004B30B1000030B2000130B3000030B400E6
:10341000A331912399310030A531DF259931003A4C
:1034200003191A2ACB302100A000A830A1008E3148
:10343000CE2699310830890B1B2A00004C30200021
:10344000B1000030B2000130B3000030B400A3314D
:10345000912399310130A531DF259931003A0319C3
:10346000382ADD302100A000A830A1008E31CE2600
:1034700020004C08C900CA0149082100B5002000FD
:103480004A082100B600080073037404031D4B2A88
:1034900022000D124D2A22000E100F30F9000030CC
:1034A000FA00FA1B842A0C110130F5000030F600F6
:1034B000790A5C2AF535F60D890B5A2A70087505CC
:1034C000F70071087605F8007708780403196A2A6E
:1034D0000E156B2A0E117208F500F6017A087606B1
:1034E000031D742A79087506031D7D2A730374046D
:1034F000031D7C2A0D167D2A0E140C15FF30F907CA
:10350000FF30FA3DFA1F532A0C1173037404031D94
:103510008B2A0D1208000E1008002000C400440879
:10352000031D962A5408C1004108C4004408031D25
:103530009B2A003008004008B9003F08B800440842
:10354000A731D0279A3120003808C1004108C407AC
:1035500044088600013087000108031DB22AD40107
:10356000003008004008B9003F08B8004408A731FF
:10357000A0279A3120003808C1003908C200440849
:103580004107C3004308D400540886000130870077
:1035900001080319D52A54088600013087008101EB
:1035A0000130C1004108D407D62AD40144080800DC
:1035B0002000B500B401B40A2200A01808002000C1
:1035C0003508B30033082200A1002010A014A01178
:1035D0000E302000B30033082200AA00F430A80007
:1035E0000130A9002015A130AC002130AD00B80198
:1035F000A130AE002130AF00B901A130B0002130C0
:10360000B100BA01A130B2002130B300BB01A73034
:10361000B4002130B500BC01983100209A31A131AD
:1036200046219A3119302000B1002130B200A23178
:1036300043229A314C302000B1002630B200A23132
:103640004C222000B401080017302100B7000030E0
:10365000B800B81B672B4B30A000AA30A10063084C
:103660002000C900210064082000CA00210065086C
:103670002000CB00210066082000CC002100370A82
:103680002000472B0310CC0CCB0CCA0CC90CFF3EFE
:10369000031D422B013049052100A200003020000B
:1036A0004A052100A300003020004B052100A400A2
:1036B000003020004C052100A5008E31CE269B3124
:1036C000FF302100B707FF30B83DB81F2B2B633008
:1036D000A000A830A1008E31CE262100B501B60190
:1036E000080017302100B7000030B800B81BB42B19
:1036F0004B30A000AA30A1005F082000C9002100C3
:1037000060082000CA00210061082000CB002100D1
:1037100062082000CC002100370A2000942B0310FF
:10372000CC0CCB0CCA0CC90CFF3E031D8F2B0130F7
:1037300049052100A200003020004A052100A30015
:10374000003020004B052100A400003020004C0573
:103750002100A5008E31CE269B31FF302100B70716
:10376000FF30B83DB81F782B6330A000A830A1000F
:103770008E31CE262100B501B6010800A231A92262
:103780009B310318CD2BEA2BA13151210800A13127
:1037900055210800A1315D21080022003B08F100FD
:1037A0007108F0001230203E860001308700413F52
:1037B0008A00403F0A009B31013A0319CA2B033AA1
:1037C0000319C42B013A0319C72B073A0319CA2B53
:1037D000CA2B08002200A0112308F2002208F100E1
:1037E000A20A0319A30A7108840072088500000860
:1037F000A13187219B3101302200A4020030A53B7A
:1038000024082504031D062C0630072C0330F30082
:103810000030F4007308080021003E082000BA00C0
:1038200021003D082000B900A53176259C312000FB
:103830003908C2003A08C3003B08C4004F30840076
:10384000AA308500003FBF00013FC000023FC10019
:103850008B31A8239C3120003F082100A9002000C3
:1038600040082100AA00200041082100AB000030E0
:10387000A6008030A700BF30A8008C3189249C317D
:1038800021002608AF002708B0002808B1008831C1
:1038900039209C3121002F08A13196219C315530CF
:1038A0002100A000AA30A1008E31CE262100BD014A
:1038B000BE01080021003E082000BA0021003D089A
:1038C0002000B900A53176259C3120003908C200BE
:1038D0003A08C3003B08C40052308400AA30850077
:1038E000003FBF00013FC000023FC1008B31A82351
:1038F0009C3120003F082100A90020004008210041
:10390000AA00200041082100AB000030A600803052
:10391000A700BF30A8008C3189249C3121002608E3
:10392000AF002708B0002808B100883139209C3149
:1039300021002F08A13191219C3155302100A00098
:10394000AA30A1008E31CE262100BD01BE010800A3
:103950002000B701B21FB32CB109B209B10A031993
:10396000B20AB701B70AB41FBE2CB309B409B30A2F
:103970000319B40A0130B5003508B706B801B9011A
:10398000310832040319ED2CB601B60AB21BD22C51
:103990000130B135B20D890BC92C0130B5003508A5
:1039A000B607C62C0130B835B90D890BD32C3208B7
:1039B0003402031DDD2C31083302031CE42C3108D2
:1039C000B3023208B43B38140130B236B10C890B63
:1039D000E52C0130B602031DD22C37080319F52C53
:1039E000B809B909B80A0319B90A3908B200380880
:1039F000B100080000302000BD000030BC000030E5
:103A0000BB000030BA003408330432043104031917
:103A1000442DBE01BE0AB41B192D0130B135B20DC3
:103A2000B30DB40D890B0E2D0130B9003908BE0756
:103A30000B2D0130BA35BB0DBC0DBD0D890B1A2DF8
:103A400034083802031D2E2D33083702031D2E2D96
:103A500032083602031D2E2D31083502031C392D84
:103A60003108B5023208B63B3308B73B3408B83BDF
:103A70003A140130B436B30CB20CB10C890B3A2DA8
:103A80000130BE02031D192D3D08B4003C08B300EF
:103A90003B08B2003A08B1000800200034033504A6
:103AA000031D552D22000D12572D22000E100F3030
:103AB0002000BA000030BB00BB1B982D22000C1167
:103AC00001302000B6000030B7003A0A692DB63543
:103AD000B70D890B672D31083605B8003208370558
:103AE000B900380839040319782D22000E157A2DF3
:103AF00022000E1120003308B600B7013B0837063C
:103B0000031D842D3A083606031D8F2D340335041A
:103B1000031D8D2D22000D168F2D22000E14220064
:103B20000C15FF302000BA07FF30BB3DBB1F5E2DD8
:103B300022000C11200034033504031DA22D2200A5
:103B40000D12080022000E1008007E1CA92D9B31CA
:103B5000BE2BA231F3229D310318B82DD62DA131F1
:103B6000D7210800A131DF210800A131EF21080091
:103B700022003B082000B2003208B1001230203E83
:103B8000860001308700413F8A00403F0A009D3196
:103B9000013A0319B52D033A0319AF2D013A031960
:103BA000B22D073A0319B52DB52D08002200A0113A
:103BB00023082000B300220022082000B2002200C7
:103BC000A20A0319A30A20003208840033088500E2
:103BD0000008A131AD219D3101302200A402003046
:103BE000A53B24082504031DF72D0630F82D0330CE
:103BF0002000B4000030B5003408080021003E0861
:103C0000EC003D08EB006D09BF006E09C000BF0A63
:103C10000319C00A6B083F072000B90021006C0897
:103C2000403D2000BA00A53176259D31200039089D
:103C3000C2003A08C3003B08C40052308400AA30D6
:103C40008500003FBF00013FC000023FC1008B3133
:103C5000A8239D3120003F082100A9002000400832
:103C60002100AA00200041082100AB000030A6007E
:103C70008030A700BF30A8008C3189249D312100FD
:103C80002608AF002708B0002808B1008831392085
:103C90009D3121002F08A13191219D315530210006
:103CA000A000AA30A1008E31CE262100BD01BE01A8
:103CB000080065308400AA3085000008A2310F2278
:103CC0009E3165308400AA30850000089A31D822E0
:103CD0009E3104302100BA003D30890B6D2EBA0BA5
:103CE0006D2E0032A23173229E3104302100BA00C1
:103CF0003D30890B792EBA0B792E00322000C90194
:103D00000230A63103269E3104302100BA003D3036
:103D1000890B882EBA0B882E0032210036083838DD
:103D2000BA003A082000C9000130A63103269E31AE
:103D300004302100BA003D30890B9C2EBA0B9C2E1A
:103D4000003221003808BA003A082000C9000230C9
:103D5000A63103269E3104302100BA003D30890B84
:103D6000AF2EBA0BAF2E0032FF302100A000A830DA
:103D7000A1008E31CE26080020004508803AC800F8
:103D800080304802031DC62E40304402031CCD2E55
:103D90003F302000C4000030C50020004508C900A5
:103DA0004408C800480EF039C900C8014508CB00D6
:103DB0004408CA000630CA35CB0D890BDB2E4808F3
:103DC0004A04CC0049084B04CD0044084C042100AF
:103DD000A000200045084D042100A100A201A11B64
:103DE000A2032208A30020082000C8002100210807
:103DF0002000C900210022082000CA002100230859
:103E00002000CB001030CB36CA0CC90CC80C890B73
:103E1000032F4908BD004808BC00210021082000EC
:103E2000BF00210020082000BE000730CC004C0855
:103E3000C0004708C2004608C100A331BE230800E5
:103E4000A3317C239F31A3302100DE005530890B44
:103E5000272FDE0B272F8B170B174E302100A000CA
:103E6000A930A1008E31CE269F318A31D4229F31D4
:103E7000402F8D31A3259F31402F8031C5209F31A8
:103E80002000560803196C2FA431F4249F3121001F
:103E9000DE0020005208CD3E860001308700210060
:103EA0005E08810020005208CD3E86000130870068
:103EB0000A300106031D672F5208CD3E86000130EF
:103EC0008700810101302200E0000030E100013074
:103ED0002000D2070030D33D22006008610403199E
:103EE000852FB8302100DE005E082000C500CD30EF
:103EF00085316A259F312200E001E1012000D201D5
:103F0000D301B830833178239F3120005508013A1E
:103F10000319392F033A03193D2F402F402F20005A
:103F2000BE003E0886000130870020300106031DD8
:103F30009E2F0130B9003908BE07912F3E08860038
:103F400001308700093001060319992FBC01BD011A
:103F5000BB013E088600013087002D300106031D9D
:103F6000B62F0130B9003908BB07BE2F3E088600C6
:103F7000013087002B300106031DC22F0130B9002C
:103F80003908BE073E0886000130870001088731E6
:103F9000F1279F31031CEB2F20003D08B2003C08A5
:103FA000B1000A30B3000030B400A43141249F3185
:103FB00020003E0886000130870001083107B90063
:103FC00032080318320ABA003908D03EBC00FF306C
:103FD0003A3DBD00BE2F20003B080319FB2F3C09D2
:103FE000B9003D09BA00B90A0319BA0A3908B7007D
:103FF0003A08B80008003D08B8003C08B7000800BF
:104000008331942B8331802B8331A82B8331BC2BBC
:1040100085314F2D8431D62C8431F32C8331C72B3D
:104020008331D22B8331E62B8331FA2B84310E2C52
:104030008431222C8431362C84314A2C84315E2CFC
:1040400084317B2C8431982C8431B52C8531102D12
:1040500085311B2D8531262D8531312D85313C2D26
:044060008531472D32
:10421C000800080020009713080020001F11080058
:10422C00200011110800A131162108002400961459
:10423C000800240016150800240096150800240018
:10424C0011080800200091150800200091110800A9
:10425C0020009717080020001F15080024001614D2
:10426C0008002400961408002400161508002400E9
:10427C00961508002400110808002000911508006C
:10428C002000911108002400961216160800240034
:10429C00961616160800A1311C2101300800A13118
:1042AC001C2102300800A1311C2101300800A13171
:1042BC001F2100300800A131492105300800A1312F
:1042CC004D210A300800A1314D210930080016306B
:1042DC0021009700080024009612161608002400EE
:1042EC00961616160800E83403341E340034F00019
:1042FC007008200095000800F000700820009D0058
:10430C000800F00070082400910008002200201022
:10431C00AB010E3008002000B100310896000800F7
:10432C002000B10031089E0008002200A011A1312C
:10433C002221043008007E1CA52988310028013078
:10434C0008007E1CAB2980310228053008002000B3
:10435C00B10031082400910008002000B30033089C
:10436C00A63127260800A1310E2122002010AB0116
:10437C000E3008002200A0152135A1318721033011
:10438C0008002200A0150314210DA131872105304E
:10439C00080032009101920193019401950196015C
:1043AC0008007E1CDB29A1315129A13137210130B4
:1043BC0008007E1CE329A1315529A1313721023097
:1043CC0008007E1CEB29A1315929A131372101307C
:1043DC0008007E1CF329A1315D29A1313A2100305E
:1043EC0008007E1CFB29A1316129A1317121053006
:1043FC0008007E1C032AA1316529A13175210A30E0
:10440C0008007E1C0B2AA1316929A13175210930C4
:10441C0008002000B2003208B10031082200A100CF
:10442C000800E834033400340034283400347F347A
:10443C00003422008E14A1311321A2310030A1319D
:10444C0082210800200032082300E40020003108FB
:10445C002300E3000800200032082300E2002000C3
:10446C0031082300E10008007E1C3E2AA1318C2972
:10447C0022002010AB010E30080020003208220070
:10448C00E700200031082200E60008002000320876
:10449C002200E500200031082200E4000800623010
:1044AC00320099009B019D0103309F0020309E003B
:1044BC0008007E1C632AA1319B292200A011A13186
:1044CC003D21043008002100110C2000B100B10C7A
:1044DC00310C0139B200320C080080302100B500DB
:1044EC0035082000C9000230A631032608007E1CC6
:1044FC00812AA131B929A1310F2122002010AB0151
:10450C000E3008007E1C8C2AA131C0292200A01577
:10451C002135A131AD21033008002000911908008C
:10452C002000911908000830890B9A2A0000962A5D
:10453C002200201C08000030A2319322A231A631A7
:10454C004C26A2319E2A24001608BF39403896000A
:10455C00160E890C890C0139F000700C08007E1CB9
:10456C00B92AA131C7292200A0150314210DA131AC
:10457C00AD21053008006400800101310130FE02DC
:10458C000030FF3B7F087E0403190034C22AFE0072
:10459C0012001E000130FE020030FF3B7F087E043B
:1045AC0003190034CE2A20009012230063086404FF
:1045BC000319080064088A0063080A00A231080085
:1045CC00200091102300610862040319080062089E
:1045DC008A0061080A00A231080024001608BF39BD
:1045EC0040389600160E890C890C01392000B10058
:1045FC00310C080021003608EE003508ED0055306E
:10460C00A000AA30A1008E31CE262100B501B60142
:10461C0008002000B2007B30320203181D2B6130E1
:10462C003202031C1D2BDF30B1003108B2053208F9
:10463C00080000309931FD21A331210035082000FC
:10464C00CD004D082100B700371C2E2B031008009D
:10465C00031408000F3020009E009D0191102100D2
:10466C0091141F302000B1002230B200A23131224F
:10467C004E3020009F000800210036082200EF0079
:10468C00210035082200EE0055302100A000AA3090
:10469C00A1008E31CE262100B501B6010800210003
:1046AC0036082200ED00210035082200EC005530C0
:1046BC002100A000AA30A1008E31CE262100B50128
:1046CC00B601080058302000980061309600950122
:1046DC0090122100901602302000B1000830B20078
:1046EC00A23128228930200097000800A131CF2167
:1046FC00A33198310A20A331A2315522A331A13123
:10470C006D21A331A3313023A331A3316823A3310D
:10471C00A331D62308002200201D080020003208F7
:10472C002200A300200031082200A200200034083F
:10473C002200A500200033082200A400201108004C
:10474C0020002108F1002008F000A6319A26A331A0
:10475C0020002308F1002208F0002408FB007B084D
:10476C00F2002608F4002508F3009A3144220800D0
:10477C0020003D08B2003C08B100A7317027A331DE
:10478C0020003F08B2003E08B1004008C3004308B7
:10479C00B3004208B5004108B4009D314D25080016
:1047AC00210091121112083023009F0090309D00BF
:1047BC0024309E0019309B009C01FD012000D90182
:1047CC000830B1003108DE00D801D701D601210034
:1047DC00911608002000310884003208850000087A
:1047EC003306031908003208B6003108B500B10AC7
:1047FC000319B20A35088400360885001200031D1F
:10480C00F02BB101B20108002000D501D50A21001E
:10481C0035082200C200210036082200C300890D91
:10482C00893B8909C400C50055302100A000AA307D
:10483C00A1008E31CE262100B501B601080023005F
:10484C009D1C2A2C1D121D161908F000200058085A
:10485C00A03E860001308700700881000130F00016
:10486C007008D807083058020318D8010130F0003E
:10487C007008D60708002000B501B601311C4A2C7F
:10488C003308B5073408B63D0130B335B40D890B88
:10489C004B2C0130B236B10C890B502C3108320440
:1048AC00031D442C3608B2003508B1000800023054
:1048BC002000C9004908D500210035082200BE009F
:1048CC00210036082200BF00890D893B8909C000F0
:1048DC00C10055302100A000AA30A1008E31CE2697
:1048EC002100B501B6010800083020005E02031853
:1048FC00952C5908A83E860001308700010823003A
:10490C009A000130F00070082000D90708305902D5
:10491C000318D9010130F0007008DE0708002100EF
:10492C0011120800210036082000C50021003508AE
:10493C002000C400210038082000C70021003708DF
:10494C002000C6008831C020A43155302100A000C1
:10495C00AA30A1008E31CE262100B501B601080087
:10496C00210036082000C500210035082000C400B5
:10497C00210038082000C700210037082000C6009D
:10498C009E31BC26A43155302100A000AA30A100D4
:10499C008E31CE262100B501B6010800A1312B21A4
:1049AC00A4312200A01DE42CA231A922A431031CA5
:1049BC00E42C0F30F50075082200AA0022002A35DD
:1049CC00203E860002308700413F8A00403F0A00AB
:1049DC00A431F50075082200AA0008002000B201DD
:1049EC0056080319F62C5708A03E860001308700A4
:1049FC000108B1003108B2000130B1003108D7070D
:104A0C00083057020318D701210091120130200001
:104A1C00D602210091162000320808003A342234C4
:104A2C00B534223488342234A5341D347534193409
:104A3C005F34223441342734D7342134DF342134E9
:104A4C00E7342134EF342134F7342134FF3421346A
:104A5C00073422347D3422341634273420002708BE
:104A6C00AD002808AE002908AF002A08B0001030AD
:104A7C00B036AF0CAE0CAD0C890B3E2D2E08A10040
:104A8C002D08A0002808A3002708A200A401A40A4E
:104A9C002C08A6002B08A500A331A6230800200093
:104AAC004408CA004508CB004608CC004708CD0096
:104ABC001030CD36CC0CCB0CCA0C890B5F2D4B08AF
:104ACC00BD004A08BC004508BF004408BE00C00138
:104ADC00C00A4908C2004808C100A331BE2308001F
:104AEC002000BE01BA1F812DB909BA09B90A0319F0
:104AFC00BA0ABE01BE0A3908B1003A08B200B301C5
:104B0C008E30BC003C08B4003E08BD003D08B5002A
:104B1C009331D02320003108B9003208BA00330891
:104B2C00BB000800B12D5E302100A000AA30A1000E
:104B3C008E31CE26080055302100A000AA30A100ED
:104B4C008E31CE2608005B302100A000AA30A100D7
:104B5C008E31CE26080020005508013A0319992DF4
:104B6C00033A0319A12DA92D08002200A01102302F
:104B7C00F0007008AB00C82DA13159210800A131FB
:104B8C005D21080022003A08F0007008F000103097
:104B9C00203E860001308700413F8A00403F0A00DA
:104BAC00A531023A0319C22D013A0319C22DC52DA4
:104BBC0008002000B800B901B90A22002018002E04
:104BCC0020142000B90138080319F02D2200AA0185
:104BDC00AA0AF62D02302000B70037082200AA00DE
:104BEC00A1313421A531A2316922A5310318002E3F
:104BFC00A2319E222000390808002000CB004B086F
:104C0C00CA004A08CC004908CA004A08CD004C30FA
:104C1C00B1000030B2000230B3000030B400A33158
:104C2C009123A6310030A531DF25A631003A0319B6
:104C3C000800CB302100A000A830A1008E31CE2678
:104C4C0008002000B2005E080319292E2100111A59
:104C5C00342E2000320823009A00492E1112200015
:104C6C003208B1007D08A83E86000130870031086B
:104C7C0081000130B1003108FD0708307D020318B6
:104C8C00FD010130DE022100111608007E1C502EA1
:104C9C00A431D42CA1314621A6312200A01D612EB5
:104CAC00A231F322A631031C612E0F302000B60076
:104CBC0036082200AA0022002A35203E8600023047
:104CCC008700413F8A00403F0A00A6312000B60011
:104CDC0036082200AA0008002000D501003021006F
:104CEC00EA000030E9000030E8000030E700003056
:104CFC002000D1000030D0000030CF000030CE00BA
:104D0C0000302200C5000030C4000030C300003069
:104D1C00C20055302100A000AA30A1008E31CE2651
:104D2C002100B501B601080022000D120F30F6006B
:104D3C000030F700F71BC12E0C110130F2000030CF
:104D4C00F300760AAB2EF235F30D890BA92E700801
:104D5C007205F40071087305F500740875040319E5
:104D6C00B92E0E15BA2E0E110C15FF30F607FF30AA
:104D7C00F73DF71FA22E0C11080022008E140030F4
:104D8C002000BC00BD000030BE00BF000530C900D3
:104D9C004908C000210047082000C2002100460835
:104DAC002000C100A331BE23A63121004708B60064
:104DBC004608B5009731792721003808C900370813
:104DCC00C8003608C7003508C600080022002015A8
:104DDC00F92EA13159210800A131282103300800F6
:104DEC00A1315D21080022003808F0007008F000A5
:104DFC000C30203E860001308700413F8A00403F46
:104E0C000A00A731013A0319F62E033A0319EF2EC3
:104E1C00013A0319EF2E073A0319F22EF62E080069
:104E2C007E1C1A2FA531BB2D2200A01102302000B0
:104E3C00B10031082200AB00292FA131E721080075
:104E4C00A131EF21080022003A082000B1003108FE
:104E5C00B1001030203E860001308700413F8A00AF
:104E6C00403F0A00A731023A0319232F013A0319D4
:104E7C00232F262F08007E1C452FA631EC2E220056
:104E8C002015522FA131E7210800A1314321033015
:104E9C000800A131EF210800220038082000B100E1
:104EAC003108B1000C30203E860001308700413FB4
:104EBC008A00403F0A00A731013A03194F2F033AE9
:104ECC000319482F013A0319482F073A03194B2F9E
:104EDC004F2F080022000D120F302000B7000030B9
:104EEC00B800B81B9D2F22000C1101302000B3001C
:104EFC000030B400370A842FB335B40D890B822FE0
:104F0C0031083305B50032083405B60035083604CF
:104F1C000319932F22000E15952F22000E110C153C
:104F2C00FF302000B707FF30B83DB81F792F2200A3
:104F3C000C1108002000BE00BC01BD01AD2F0130DA
:104F4C00BA003A08BE070130BC070030BD3D3E0830
:104F5C0086000130870001080319CB2F3908B200F5
:104F6C003808B1003E088600013087000108BA00FD
:104F7C00BB013A08B3003B08B400A331F023A731BE
:104F8C002000310832040319A52F3D08B9003C0854
:104F9C00B80008002000BE00BC01BD01DD2F0130AF
:104FAC00BA003A08BE070130BC070030BD3D3E08D0
:104FBC0086000130870001080319FB2F3908B20065
:104FCC003808B1003E088600013087000108BA009D
:104FDC00BB013A08B3003B08B400A331F023A7315E
:104FEC00200031083204031DD52F3D08B9003C08C0
:104FFC00B800080001340034003400340A340034A2
:10500C00003400346434003400340034E8340334A5
:10501C00003400341034273400340034A034863487
:10502C0001340034403442340F340034803496342C
:10503C00983400340034E134F53405340034CA3487
:10504C009A343B340A3474346534733474346934AC
:10505C006E346734203462346F34743474346F3487
:10506C006D3420344C34453444342034643472343C
:10507C0069347634653472342E342E342E340A343A
:10508C0000340A342D342D342D342D3473347434CF
:10509C0061347234743469346E346734203463345C
:1050AC006F346D346D34203474346534733474342B
:1050BC002D342D342D342D340A340A3400342D344F
:1050CC002D342D342D34663469346E346934733494
:1050DC00683465346434203463346F346D346D3427
:1050EC00203474346534733474342D342D342D34AD
:1050FC002D340A34003474346534733474346934A4
:10510C006E346734203474346F34703420344C343F
:10511C004534443420346434723469347634653420
:10512C0072342E342E342E3400340A3474346534F4
:10513C007334743469346E346734203470346934A5
:10514C0065347A346F342034643472346934763490
:10515C00653472342E342E342E34003455344E349F
:10516C005234453443344F3447344E3449345A3432
:10517C0045344434203443344F344D344D3441346D
:10518C004E34443421340A3400346434723476346A
:10519C005F34773472346934743465342034653454
:1051AC00723472346F34723421340A3400346434FF
:1051BC00723476345F347234653461346434203440
:1051CC006534723472346F34723421340A340034DE
:1051DC006634693466346F3420346E346F3474340E
:1051EC0020347234653461346434793421340A34B3
:1051FC000034643472347634203469346E34693457
:10520C007434693461346C3469347A34653464349C
:10521C000A3400346134623473343A3420346134E7
:10522C006C346C34203474346834653472346534C2
:10523C000A34003472346534613464342034643498
:10524C006134743461343A34203425346C3475341C
:10525C000A340034F4344A34483495349534C73421
:10526C00C134DC344534DC346D34C334B3343334BE
:10527C004034683465346134743465347234703459
:10528C006F3473347434743469346D34653400346D
:10529C000A340A34733479347334743465346D34A9
:1052AC00203464346F346E3465340A34003468341A
:1052BC0065346134743465347234703472346534EA
:1052CC00743469346D346534003474346F34673439
:1052DC0067346C34653468346534613474346534E3
:1052EC00723400343434013448349D34B034453491
:1052FC000034DA344234003480343F34703469344E
:10530C0065347A346F346F346E34743469346D347C
:10531C006534003468346534613474346534723403
:10532C0031346F34663466340034743469346D341B
:10533C0065346834653461347434653472340034E3
:10534C000A340A34733468346F34723474347334FA
:10535C003A34203400346834653461347434653440
:10536C00723432346F346E34003473346F346634C8
:10537C0074347234653473346534743400344634A4
:10538C00413449344C34453444340A340A340034FE
:10539C007034613473347334653464340A340A34CD
:1053AC0000346434723476345034653461346B3484
:1053BC0000346434723476344734613469346E3476
:1053CC0000346C34653464346734613469346E345D
:1053DC0000346D3473347434613474347534733410
:1053EC0000344634413449344C34453444340A3462
:1053FC0000347034613473347334653464340A3477
:10540C0000346F34703465346E3473343A34203471
:10541C00003464346F346D346F3476346534003456
:10542C006C346534643470347734723400346734DB
:10543C006534743441340034733465347434413419
:10544C0000346734653474344D340034733465344B
:10545C0074344D340034703469346E346734003431
:10546C0063346F346D346D340034723465346C34A1
:10547C000034613462347334003470346F347334F8
:10548C000034253464340A34003425346434203434
:10549C0000340034C8343F340034C8343D34413413
:1054AC000A34003445340A3400344E340A3400349F
:1054BC0052340A3400343F3400347A3400345934D2
:020000040001F9
:08000E00ECFFF3FFFFFFFFFF11
:00000001FF
