:1000000080314F28013008007E14803120007F08A5
:10001000FC002100901E13282000901E1328A631FA
:10002000032680314A280B1F4A282100111D212850
:100030002000111D212851088A0050080A00803133
:100040004A282100911D2E282000911D2E282100D4
:1000500069088A0068080A0080314A282100911C3A
:1000600038282000911C3828A631102680314A28D3
:100070002100911E42282000911E4228A7312E27E0
:1000800080314A282100111E4A282000111E4A28CA
:10009000A73166277C082000FF007E100900803110
:1000A000512821308400A53085005830860000306A
:1000B00087000630A531152580311B308400A5301E
:1000C0008500EA308600003087000630A53115250E
:1000D00080313F3084009830850020308600023027
:1000E00087002030A53115258031FD014E30840078
:1000F000003085000A30A5310F258031D4308400CE
:10010000003085001630A5310F2580312030840065
:10011000013085004C30A5310F258031A03084009E
:10012000013085004C30A5310F25803158308400D6
:10013000023085001530A5310F257E102000973143
:10014000202F01302100C3000030C400C501C601CA
:100150004608803A2400C00080304002031DB328C6
:1001600018302100450203182629210058082400D0
:10017000C000210059082400C10021005A082400B1
:10018000C20021005B082400C3000130C40000301D
:10019000C5002100450A2400CF28C435C50D890BB0
:1001A000CD284408C6004508C7000030C71BFF30F3
:1001B000C800C9004608C0054708C1054808C2056F
:1001C0004908C305C31B14294308031DF12842082D
:1001D000031DF1284108031DF12801304002031CD2
:1001E000142921004535A03E860001308700403F9C
:1001F0002400C000413FC1002100650824004106E1
:10020000031D06292100640824004006031D0A2955
:1002100001300B290030C200C30142082100C30590
:10022000240043082100C40501302100C507003027
:10023000C63D4608803A2400C00080304002031DBD
:100240002429183021004502031CB5282100430849
:10025000440403194529E730A000A830A1008631E5
:1002600018262000D30100302100E3000030E20016
:100270000030E1000030E0000030DF000030DE0040
:100280000030DD000030DC000800C901CA014A0866
:10029000803A2400C00080304002031D52291830EB
:1002A000210049020318392A210058082400C000FF
:1002B000210059082400C10021005A082400C2006E
:1002C00021005B082400C30021004935A03E8600C0
:1002D00001308700403F2400C400413FC500210099
:1002E0006508803A2400C6004508803A4602031D8E
:1002F0007C294408210064020318802901308129E7
:1003000000302400C700C8012100490A24008A29BE
:10031000C735C80D890B88290130C9000030CA00D3
:100320002100490A24009629C935CA0D890B942950
:1003300047084905CB0048084A05CC004B08CD00CA
:100340004C08CE000030CE1BFF30CF00D0004D084F
:10035000C0054E08C1054F08C2055008C305400836
:100360002100E004240041082100E10424004208A7
:100370002100E204240043082100E304580824007B
:10038000C000210059082400C10021005A0824009F
:10039000C20021005B082400C30021004935A03EB3
:1003A000860001308700403F2400C400413FC50063
:1003B0004508803AC60021006508803A24004602BC
:1003C000031DE62921006408240044020318EA29D9
:1003D0000130EB2900302400C700C8012100490A80
:1003E0002400F429C735C80D890BF2290130C90052
:1003F0000030CA002100490A2400002AC935CA0D6C
:10040000890BFE2947084905CB0048084A05CC005E
:100410004B08CD004C08CE000030CE1BFF30CF0083
:10042000D0004D08C0054E08C1054F08C205500850
:10043000C30540082100DC04240041082100DD043C
:10044000240042082100DE04240043082100DF04C8
:100450000130C9070030CA3D4A08803A2400C00074
:1004600080304002031D372A183021004902031C46
:10047000542987314A2780312100C701C801480823
:10048000803A2400C00080304002031D4A2A183000
:100490002100470203180800210060082400C00062
:1004A000210061082400C100210062082400C2006C
:1004B000210063082400C3000130C4000030C500DF
:1004C0002100470A2400662AC435C50D890B642A19
:1004D0004408C6004508C7000030C71BFF30C800ED
:1004E000C9004608C0054708C1054808C2054908B3
:1004F000C305C31B8A2A4308031D882A4208031D1B
:10050000882A4108031D882A01304002031C8A2AD8
:1005100001308B2A0030CA00CB01CA09CB09CA0AB4
:100520000319CB0A21005C082400CC0021005D08DF
:100530002400CD0021005E082400CE0021005F08C9
:100540002400CF000130D0000030D1002100470A44
:100550002400AC2AD035D10D890BAA2A5008D2002C
:100560005108D3000030D31BFF30D400D50052080F
:10057000CC055308CD055408CE055508CF05CF1B33
:10058000D02A4F08031DCE2A4E08031DCE2A4D083F
:10059000031DCE2A01304C02031CD02A0130D12A7F
:1005A00000304A07D6004B0803184B0AD700210039
:1005B0004735A03E86000130870024005608810799
:1005C00041315708813D7F3101302100C70700309C
:1005D000C83D3F2A2300ED0001302200EA00003030
:1005E000EB00812C23006D0A860002308700403F1B
:1005F0002100B500413FB600A6317B262100360818
:100600002200EB00210035082200EA000800230048
:100610006D0A860002308700403F2100B500413F4F
:10062000B600A631A126210036082200EB002100E9
:1006300035082200EA00080023006D0A8600023017
:100640008700403F2100B500413FB6009A31142297
:10065000210036082200EB00210035082200EA00C4
:1006600008009631B526210036082200EB00210053
:1006700035082200EA00080023006D0A86000230D7
:100680008700403F2100B500413FB600A6312A2631
:10069000210036082200EB00210035082200EA0084
:1006A000080023006D0A860002308700403F2100C9
:1006B000B500413FB6009C311524210036082200C8
:1006C000EB00210035082200EA00080023006D0A33
:1006D000860002308700403F2100BD00413FBE0040
:1006E0009431BD2421003E082200EB0021003D088A
:1006F0002200EA00080023006D0A8600023087000D
:10070000403F2100BD00413FBE0095312025210022
:100710003E082200EB0021003D082200EA0008000C
:1007200023006D0A860002308700403F2100BD0093
:10073000413FBE009E31FD2621003E082200EB0015
:1007400021003D082200EA00080023006D0A86000F
:1007500002308700403F2100B500413FB600230032
:100760006D080B3E860002308700403F2100B70035
:10077000413FB800A7318427210036082200EB0052
:10078000210035082200EA00080023006D0A8600D7
:1007900002308700403F2100B500413FB6002300F2
:1007A0006D080B3E860002308700403F2100B700F5
:1007B000413FB800A731A227210036082200EB00F4
:1007C000210035082200EA00080023006D0A860097
:1007D00002308700403F2100B500413FB6002300B2
:1007E0006D080B3E860002308700403F2100B700B5
:1007F000413FB80088315720210036082200EB0025
:10080000210035082200EA00080023006D0A860056
:1008100002308700403F2100B500413FB600230071
:100820006D080B3E860002308700403F2100B70074
:10083000413FB8008931BF21210036082200EB007A
:10084000210035082200EA00080023006D0A860016
:1008500002308700403F2100B500413FB600230031
:100860006D080B3E860002308700403F2100B70034
:10087000413FB80094315C24210036082200EB008F
:10088000210035082200EA0008009D312C252100B6
:1008900036082200EB00210035082200EA0008009B
:1008A0009D317725210036082200EB002100350814
:1008B0002200EA0008009831C320210036082200F7
:1008C000EB00210035082200EA0008008B317C2370
:1008D000210053082200EB00210052082200EA0008
:1008E0000800A0302100A000A830A1008631182601
:1008F00008008C302100A000A830A1008631182605
:10090000080023006D088600023087000108FF3EC2
:10091000031C792C8400143004020318792C9831BC
:100920000435003E820008002000C700C801C9014C
:10093000E830BF00A930C00047089D31C22584318E
:100940002000C6004608CA004A08031908004808E3
:100950004904031DE92D0F30B300AA30B4004A0842
:100960009331CC238431200033083404031DBA2C86
:100970000230DB2D1330B300AA30B4004A089331A3
:10098000CC238431200033083404031DCE2C4508C9
:100990008600023087008101810A0E2E1730B300D5
:1009A000AA30B4004A089331CC23843120003308A4
:1009B0003404031DDD2C0330DB2D1530B300AA30C9
:1009C000B4004A089331CC23843120003308340426
:1009D000031DEC2C0430DB2DF630B300A930B4003D
:1009E0004A089331CC238431200033083404031D9A
:1009F000FB2C0530DB2D0030B300AA30B4004A08D0
:100A00009331CC238431200033083404031D0A2D94
:100A10000630DB2D2D30B300AA30B4004A089331E4
:100A2000CC238431200033083404031D192D0730F2
:100A3000DB2DAA30B300A930B4004A089331CC238F
:100A40008431200033083404031D282D0830DB2DA9
:100A5000B230B300A930B4004A089331CC238431BA
:100A6000200033083404031D372D0930DB2D763088
:100A7000B300A930B4004A089331CC23843120005C
:100A800033083404031D462D0A30DB2D3430B30007
:100A9000A930B4004A089331CC23843120003308B4
:100AA0003404031D552D0B30DB2D1630B300A93057
:100AB000B4004A089331CC23843120003308340435
:100AC000031D642D0C30DB2DBA30B300A930B40007
:100AD0004A089331CC238431200033083404031DA9
:100AE000732D0D30DB2DEA30B300A930B4004A0875
:100AF0009331CC238431200033083404031D822D2C
:100B00000E30DB2D5030B300A930B4004A089331C9
:100B1000CC238431200033083404031D912D0F3081
:100B2000DB2DF130B300A930B4004A089331CC2357
:100B30008431200033083404031DA02D1030DB2D38
:100B4000FB30B300A930B4004A089331CC23843180
:100B5000200033083404031DAF2D1130DB2DC230CB
:100B6000B300A930B4004A089331CC23843120006B
:100B700033083404031DBE2D1230DB2D0A30B300C0
:100B8000AA30B4004A089331CC23843120003308C2
:100B90003404031DCD2D1330DB2D0530B300AA30F6
:100BA000B4004A089331CC23843120003308340444
:100BB000031DE32D1430C60045088600023087006F
:100BC000460881000E2E450886000230870081010C
:100BD0000E2E48034904031DFB2D4A0897318F2729
:100BE00084312000450A8600023087003708C03F64
:100BF0003808C13F0E2E023048064904031D0E2E50
:100C00004A0897318F278431200045080B3E860023
:100C1000023087003708C03F3808C13F0130C8079D
:100C20000030C93DE830BF00A930C00000309D2C25
:100C3000A2302100A6002608B30021002108A70049
:100C40002008A600A00A0319A10A26088400270884
:100C500085000008A8002808B4003408031908001B
:100C6000253034060319392E3408A531092586317B
:100C70001D2E2100B201402E3216402E32175D2E5D
:100C80002108A7002008A600A00A0319A10A260827
:100C90008400270885000008B400003A0319492F92
:100CA000643A03195D2E0D3A03195D2E053A0319B6
:100CB0003C2E193A03193E2E1D2E321B942E321E45
:100CC0006E2E330886008701403FAE00413FAF00E3
:100CD000423FB000433FB10004307F2E330886000E
:100CE0008701403FA600413FA7002608AE00270825
:100CF000AF00890D893B8909B000B1000230A60020
:100D00002608B307B11FB42E0330A6002608B2048C
:100D1000AE09AF09B009B109AE0A0319AF0A031948
:100D2000B00A0319B10AB42E321EA32E330886006E
:100D30008701403FAE00413FAF00423FB000433F1C
:100D4000B1000430B12E330886008701403FA60071
:100D5000413FA7002608AE002708AF00B001B1014F
:100D60000230A6002608B307B401B40A0A303406DC
:100D70000319E72E3408A600A701A635A70DA6354E
:100D8000A70D003026078400A030273D8500003FD6
:100D9000A800013FA900023FAA00033FAB002B08B7
:100DA0003102031DDD2E2A083002031DDD2E290825
:100DB0002F02031DDD2E28082E02031CE72E013012
:100DC000A6002608B4070A303406031DBA2E3208DE
:100DD00003390319EF2E2D30A53109258631210065
:100DE0003408AC00AD01AC1BAD03FF302100AC07F3
:100DF000FF30AD3D2C0A03192D0A03191D2E0030BA
:100E00002000C2000030C1000030C0000A30BF0026
:100E100021002D0885002C0884008435850D84353B
:100E2000850D00308407A030853D003F2000B100D3
:100E3000013FB200023FB300033FB400210031087C
:100E40002000B800210030082000B70021002F0842
:100E50002000B60021002E082000B50088310420B3
:100E6000863120003408C6003308C5003208C400AB
:100E70003108C3009B31D223863120003F08303E29
:100E80002100A6002608B4003408A53109258631C2
:100E9000F52E0800DA302100A000A930A10086312B
:100EA000182687318831CD20873122008E145D08C5
:100EB0002000C70022005C082000C60022005B085A
:100EC0002000C50022005A082000C4000130C800DC
:100ED0000030C9009831802087312200610820004D
:100EE000C700220060082000C60022005F08200022
:100EF000C50022005E082000C4000230C800003097
:100F0000C90098318020873122008E1020005D08B2
:100F1000BA005C08B9009831A12087312000390857
:100F2000C2003A08C3003B08C4000030BF007A305A
:100F3000C0004330C1008D312325873120003F0898
:100F40002100AF00200040082100B000200041082F
:100F50002100B1008A313C22873121002F08BF00D7
:100F60003008C0003108C1003208C200A4318F240B
:100F70008731A4318C24873121006F08B9006E08B5
:100F8000B800200059082100BB00200058082100AB
:100F9000BA009E315B26873120005B08BA005A08F0
:100FA000B9009831A120873120003908C2003A08E1
:100FB000C3003B08C4000030BF007A30C00043309B
:100FC000C1008D312325873120003F082100AF006B
:100FD000200040082100B000200041082100B1009D
:100FE0008A313C2221002F08BF003008C0003108A0
:100FF000C1003208C20022008E140800053008002B
:10100000240096161616080000302000BD0000309F
:10101000BC000030BB000030BA0034083304320496
:10102000310403194E28BE01BE0AB41B2328013027
:10103000B135B20DB30DB40D890B18280130B900CC
:101040003908BE0715280130BA35BB0DBC0DBD0DE2
:10105000890B242834083802031D38283308370246
:10106000031D382832083602031D3828310835029E
:10107000031C43283108B5023208B63B3308B73B9E
:101080003408B83B3A140130B436B30CB20CB10C8E
:10109000890B44280130BE02031D23283D08B400FB
:1010A0003C08B3003B08B2003A08B1000800210038
:1010B0003708380403198C280130B9000030BA0011
:1010C0000030BB000030BC00350A6A28B935BA0DC3
:1010D000BB0DBC0D890B662839082200CA06210009
:1010E0003A082200CB0621003B082200CC06210052
:1010F0003C082200CD064D082000C70022004C0805
:101100002000C60022004B082000C50022004A082B
:101110002000C4000130BC2801302100B90000309B
:10112000BA000030BB000030BC00350A9B28B9353E
:10113000BA0DBB0DBC0D890B972839082200C606D5
:1011400021003A082200C70621003B082200C806F9
:1011500021003C082200C9064D082000C7002200DB
:101160004C082000C60022004B082000C5002200C9
:101170004A082000C4000230C8000030C90098317D
:101180008020883125302100A000AA30A1008631BE
:1011900018262100B501B6010800210054085C059D
:1011A0002200DA00210055085D052200DB00210045
:1011B00056085E052200DC00210057085F0522006A
:1011C000DD0021005C092000B10021005D09200044
:1011D000B20021005E092000B30021005F09200059
:1011E000B40021005408200031052200DE00210057
:1011F0005508200032052200DF002100560820009B
:1012000033052200E00021005708200034052200A9
:10121000E1002100540860052200E2002100550889
:1012200061052200E3002100560862052200E40067
:101230002100570863052200E50021006009200015
:10124000B100210061092000B200210062092000E4
:10125000B300210063092000B400210054082000DD
:1012600031052200D6002100550820003205220059
:10127000D70021005608200033052200D8002100A5
:101280005708200034052200D900080021004A0335
:101290004B0403195A29220051082100D1002200D1
:1012A00050082100D00022004F082100CF0022006A
:1012B0004E086829220055082100D1002200540858
:1012C0002100D000220053082100CF002200520844
:1012D0002100CE0001302000C4000030C5002100F4
:1012E0004B082000C70021004A082000C6008C31AE
:1012F0004524893101302100C6000030C7009931F2
:101300005221893121004708CD004608CC00D11B6D
:1013100098295108031D96295008031D96294F0846
:10132000031D962901304E02031C9829013099298A
:1013300000302000CC00CD014C08C4004D08C50091
:1013400021004B082000C70021004A082000C600E9
:101350008C3145248931073021004C064D04031996
:10136000B3290130B42900302000CC00CD014C0855
:101370002100CA0020004D082100CB0008002100F8
:101380005408B9005508BA005608BB005708BC00FD
:101390000130BD000030BE00350AD029BD35BE0D7C
:1013A000890BCE293D08BF003E08C0000030C01B9D
:1013B000FF30C100C2003F08B9054008BA05410826
:1013C000BB054208BC053C083B043A043904031938
:1013D000302A370838040319092A0130B9000030CF
:1013E000BA00350AF529B935BA0D890BF329390840
:1013F000BB003A08BC000030BC1BFF30BD00BE0083
:101400003B08D8043C08D9043D08DA043E08DB0454
:10141000262A0130B9000030BA00350A112AB93540
:10142000BA0D890B0F2AB909BA093908BB003A0865
:10143000BC000030BC1BFF30BD00BE003B08D8051F
:101440003C08D9053D08DA053E08DB052530A0003B
:10145000AA30A100863118262100B501B601080086
:101460002830A000AA30A1008631182601302100C2
:10147000B5000030B600080021002F08B300300886
:10148000B4003108B5000310340D350DB600360830
:10149000BC003C08031D552A0030B2000030B100EA
:1014A0000030B0000030AF0008002F08B300300853
:1014B000B4003108B5001730B536B40CB30C890B45
:1014C0005C2A3308B6003608B700B017FF30AF0506
:1014D000FF30B0050030B1052F08B8003008B90062
:1014E0003108BA00BB018E30BC02BC1F932A3C08F5
:1014F000803A8F3E0318852A0030B2000030B100D8
:101500000030B0000030AF0008000130BB36BA0C2C
:10151000B90CB80C890B862A0130B3003308BC071C
:101520000319AC2A852A18303C02031CA92A003072
:10153000B2000030B1000030B0000030AF00080051
:101540000130B835B90DBA0DBB0D890BA12A013098
:10155000BC023C08031DA02A37080319BA2AB8099F
:10156000B909BA09BB09B80A0319B90A0319BA0AB1
:101570000319BB0A3B08B2003A08B1003908B000B1
:101580003808AF0008002B308400AA308500003FE7
:101590002000C400013FC5000130C6000030C70074
:1015A000953183258A312B308400AA308500003F95
:1015B0002000C400013FC5000230C6000030C70053
:1015C000953183258A3120005B08BA005A08B9009A
:1015D0009831A1208A3120003908C2003A08C3009E
:1015E0003B08C4001F308400AA308500003FBF00C4
:1015F000013FC000023FC1008D3123258A31200008
:101600003F082100A900200040082100AA00200076
:1016100041082100AB000030A6008030A700BF3099
:10162000A8008E31E6268A3121002608AF0027085F
:10163000B0002808B1008A313C228A3121002F08ED
:10164000A431EC248A3120005C092100BD00200077
:101650005D092100BE00BD0A0319BE0A200058081A
:1016600021003D072000B900590821003E3D20001F
:10167000BA009831A1208A3120003908C2003A0806
:10168000C3003B08C40022308400AA308500003F1C
:10169000BF00013FC000023FC1008D3123258A31C8
:1016A00020003F082100A900200040082100AA00D6
:1016B000200041082100AB000030A6008030A700C8
:1016C000BF30A8008E31E6268A3121002608AF00FF
:1016D0002708B0002808B1008A313C228A31210055
:1016E0002F08A431E7248A315D302100A000A93001
:1016F000A1008631182608001F302100A000A83064
:10170000A100863118268B3159302100A000A83065
:10171000A100863118268B3101302100CA0000302B
:10172000CB00893146218B3121004A084B04031D2F
:101730009D2BD230A000A930A12BCA302100A000DF
:10174000A930A100863118268B31E2302100A0009B
:10175000A930A100863118268B310A302100B5004E
:101760000030B6000130B7000030B80096314C268A
:101770008B318D302100A000A930A10086311826C0
:101780008B310B302100B5000030B6000130B700BE
:101790000030B80096314C268B3100302100A0007B
:1017A000A830A100863118268B3102302100CA00F2
:1017B0000030CB00893146218B3121004A084B048F
:1017C000031DE62BD230A000A930EA2BCA3021003D
:1017D000A000A930A100863118268B31E23021000B
:1017E000A000A930A100863118268B310A302100D3
:1017F000B5000030B6000230B7000030B8009631B6
:101800004C268B318D302100A000A930A1008631FB
:1018100018268B310B302100B5000030B6000230A5
:10182000B7000030B80096314C268B317330210060
:10183000A000A830A100863118268B3101309C31E0
:101840009C248B3121003608803A2300EC00803044
:101850006C02031D2E2C013021003502031C352C97
:10186000A1302100A000A930392C98302100A0001F
:10187000A930A100863118268B313D302100A0000F
:10188000A830A1008631182608002000460347042E
:101890000319592C220051082000CB0022005008C7
:1018A0002000CA0022004F082000C90022004E0874
:1018B000672C220055082000CB002200540820008D
:1018C000CA00220053082000C9002200520820004C
:1018D000C8004508803A2100A00080302002031D86
:1018E000742C013020004402031C782C0130792C28
:1018F00000302100A100A201A135A20DA135A20D49
:1019000020004508803A2100A30080302302031DF7
:101910008C2C013020004402031C902C0130912CAF
:1019200000302100A400A501A435A50D2000450824
:10193000803A2100A60080302602031DA22C01302F
:1019400020004402031CA62C0130A72C00302100EB
:10195000A700A80124082704A90025082804AA0034
:1019600021082904AB0022082A04AC002B08AD0092
:101970002C08AE000030AE1BFF30AF00B0002D08C9
:101980002000C80421002E082000C90421002F08CF
:101990002000CA04210030082000CB0448082100A0
:1019A000A000200049082100A10020004A082100D1
:1019B000A20020004B082100A3001030A400A33790
:1019C000A20CA10CA00CA40BDF2C21082000BD0050
:1019D000210020082000BC004908BF004808BE00C4
:1019E00003302100A50025082000C0004708C200E0
:1019F0004608C100A631E2268C3120004603470488
:101A0000031D122D4B082200D50020004A08220099
:101A1000D400200049082200D300200048082200FA
:101A2000D200080020004B082200D10020004A0804
:101A30002200D000200049082200CF0020004808E2
:101A40002200CE00080020003F08C5004008C60064
:101A50004108C7000310460D470DC8004808210083
:101A6000A0002008031D3C2D00302000BF000030E6
:101A7000C0000030C100080020004208C500430833
:101A8000C6004408C7000310460D470DC8004808AB
:101A90002100A5002508031D552D00302000BF00A2
:101AA0000030C0000030C1000800210025087B3E46
:101AB0002000C50045082100A00720003F08C50000
:101AC0004008C6004108C7001030C736C60CC50C18
:101AD000890B652D4508C80048082100A500200095
:101AE0004208C5004308C6004408C7001030C73686
:101AF000C60CC50C890B772D4508C8004808210085
:101B0000A50680302000C50045082100A50520005D
:101B1000C017C317FF30C205FF30C3050030C4052E
:101B200000302100A1000030A2000030A3000730E7
:101B30002000C50045082100A40020003F1CAB2D5B
:101B400042082100A107200043082100A23D2000F7
:101B500044082100A33D01302000C136C00CBF0C59
:101B6000890BAC2D0130C235C30DC40D890BB32DCB
:101B700001302100A402031D9D2D09302000C50065
:101B800045082100A40020003F1CD12D420821005F
:101B9000A107200043082100A23D200044082100A5
:101BA000A33D01302000C136C00CBF0C890BD22DE3
:101BB00001302100A336A20CA10C890BD92D0130D4
:101BC000A402031DC32D21082000B100210022081A
:101BD0002000B200210023082000B30021002008CB
:101BE0002000C5004508B400210025082000C600DB
:101BF0004608B5009531E72520003108BF003208BE
:101C0000C0003308C100080082302100A000A930C4
:101C1000A100863118268E31210066086704031D55
:101C20002B2ED730A000A830A10086311826200026
:101C3000D30100302100E3000030E2000030E10079
:101C40000030E0000030DF000030DE000030DD005A
:101C50000030DC0008006708803AC300803043028F
:101C6000031D342E01306602031C8E2E003021002D
:101C7000E3000030E2000030E1000030E0005B08EB
:101C8000DF005A08DE005908DD005808DC00873103
:101C90004A278E31FF302100E607FF30E73DCA01B9
:101CA000CB014B08803AC30080304302031D5A2EFB
:101CB00018304A020318080001302100C300003028
:101CC000C4004A0A652EC335C40D890B632E44082F
:101CD000803AC50080304502031D702E013043025A
:101CE000031C742E0130752E00302100C600C70180
:101CF00058084605C80059084705C9004A35A03E9E
:101D00008600013087004808810741314908813D3C
:101D10007F310130CA070030CB3D512E21005B08D6
:101D2000E3005A08E2005908E1005808E0000030DA
:101D3000DF000030DE000030DD000030DC008731E5
:101D40004A278E3101302100E6070030E73DCA0105
:101D5000CB014B08803AC30080304302031DB22EF2
:101D600018304A020318080001302100C300003077
:101D7000C4004A0ABD2EC335C40D890BBB2E4408CE
:101D8000803AC50080304502031DC82E0130430251
:101D9000031CCC2E0130CD2E00302100C600C7011F
:101DA00058084605C80059084705C9004A35A03EED
:101DB0008600013087004808810241314908813B93
:101DC0007F310130CA070030CB3DA92E2100260803
:101DD0002000C900210027082000CA00210028088F
:101DE0002000CB0003104A0D4B0DCC004C08210005
:101DF000AE0029082000C90021002A082000CA00DE
:101E000021002B082000CB0003104A0D4B0DCC0005
:101E10004C082100AD002E0803191B2F2D082E029F
:101E20000318232F2E03FF3A2D072000C900193075
:101E30004902031C232F21002908A6002A08A70015
:101E40002B08A800080021002D08031908002E08FF
:101E50002D020318342F2D03FF3A2E072000C9004E
:101E6000193049020318080006302000C90049084B
:101E70002100AC00A81BAC17AB1B2C17A717FF3019
:101E8000A605FF30A7050030A805AA17FF30A90551
:101E9000FF30AA050030AB052D082E020318742F61
:101EA0000130A935AA0DAB0D890B512F0130AD02C0
:101EB0002D082E0603196F2F0130AC022C080739AC
:101EC00003196F2F502F0130A836A70CA60C890BD1
:101ED000642F01302000C90049082100AE072E08F8
:101EE0002D0603199B2F632F2E082D0203189B2FFD
:101EF0000130A635A70DA80D890B792F0130AE0250
:101F00002D082E060319972F0130AC022C08073933
:101F10000319972F782F0130AB36AA0CA90C890B27
:101F20008C2F01302000C90049082100AD072E0880
:101F30002D06031D8B2FAC1FAD2FFF30A606FF30E3
:101F4000A706FF30A8060130A607003003180130AD
:101F5000A707003003180130A8072C1FBF2FFF3040
:101F6000A906FF30AA06FF30AB060130A9070030F2
:101F700003180130AA07003003180130AB07AC0189
:101F80002608A9072708AA3D2808AB3DAB1FDA2F72
:101F9000FF30A906FF30AA06FF30AB060130A907C3
:101FA000003003180130AA07003003180130AB07D6
:101FB000AC01AC0A29082000B10021002A08200049
:101FC000B20021002B082000B30021002E082000C1
:101FD000C9004908B40021002C082000CA004A08A2
:101FE000B5009531E725200031082100A60020002A
:101FF00032082100A700200033082100A8000800B3
:102000000B340034003400341034003420340034F5
:102010002E3400343C34003448340034533400341B
:102020005B34003461340034653400346634003489
:1020300065340034613400345B340034533400348C
:10204000483400343C3400342E340034203400341E
:102050001034003400340034F0340034E034003400
:10206000D2340034C4340034B8340034AD340034D5
:10207000A53400349F3400349B3400349A34003447
:102080009B3400349F340034A5340034AD34003424
:10209000B8340034C4340034D2340034E034003472
:1020A000F034003400340034103400342034003470
:1020B0002E3400343C34003448340034533400347B
:1020C0005B340034613400346534003466340034E9
:1020D00065340034613400345B34003453340034EC
:1020E000483400343C3400342E340034203400347E
:1020F0001034003400340034F0340034E034003460
:10210000D2340034C4340034B8340034AD34003434
:10211000A53400349F3400349B3400349A340034A6
:102120009B3400349F340034A5340034AD34003483
:10213000B8340034C4340034D2340034E0340034D1
:10214000F0340034003400341034003420340034CF
:102150002E3400343C3400344834003453340034DA
:102160005B34003461340034653400346634003448
:1021700065340034613400345B340034533400344B
:10218000483400343C3400342E34003420340034DD
:102190001034003400340034F0340034E0340034BF
:1021A000D2340034C4340034B8340034AD34003494
:1021B000A53400349F3400349B3400349A34003406
:1021C0009B3400349F340034A5340034AD340034E3
:1021D000B8340034C4340034D2340034E034003431
:1021E000F0340034003400340B3400340034003454
:1021F00010340034203400342E3400343C340034A5
:1022000048340034533400345B34003461340034D7
:10221000653400346634003465340034613400348D
:102220005B34003453340034483400343C340034DC
:102230002E340034203400341034003400340034A0
:10224000F0340034E0340034D2340034C434003488
:10225000B8340034AD340034A53400349F34003435
:102260009B3400349A3400349B3400349F3400345F
:10227000A5340034AD340034B8340034C4340034F0
:10228000D2340034E0340034F0340034003400340C
:1022900010340034203400342E3400343C34003404
:1022A00048340034533400345B3400346134003437
:1022B00065340034663400346534003461340034ED
:1022C0005B34003453340034483400343C3400343C
:1022D0002E34003420340034103400340034003400
:1022E000F0340034E0340034D2340034C4340034E8
:1022F000B8340034AD340034A53400349F34003495
:102300009B3400349A3400349B3400349F340034BE
:10231000A5340034AD340034B8340034C43400344F
:10232000D2340034E0340034F0340034003400346B
:1023300010340034203400342E3400343C34003463
:1023400048340034533400345B3400346134003496
:10235000653400346634003465340034613400344C
:102360005B34003453340034483400343C3400349B
:102370002E3400342034003410340034003400345F
:10238000F0340034E0340034D2340034C434003447
:10239000B8340034AD340034A53400349F340034F4
:1023A0009B3400349A3400349B3400349F3400341E
:1023B000A5340034AD340034B8340034C4340034AF
:1023C000D2340034E0340034F034003400340034CB
:1023D0000034003410340034203400342E340034FF
:1023E0003C34003448340034533400345B3400341B
:1023F00061340034653400346634003465340034AC
:10240000613400345B3400345334003448340034D5
:102410003C3400342E340034203400341034003482
:1024200000340034F0340034E0340034D23400346A
:10243000C4340034B8340034AD340034A53400342E
:102440009F3400349B3400349A3400349B3400347D
:102450009F340034A5340034AD340034B834003433
:10246000C4340034D2340034E0340034F034003466
:102470000034003410340034203400342E3400345E
:102480003C34003448340034533400345B3400347A
:10249000613400346534003466340034653400340B
:1024A000613400345B340034533400344834003435
:1024B0003C3400342E3400342034003410340034E2
:1024C00000340034F0340034E0340034D2340034CA
:1024D000C4340034B8340034AD340034A53400348E
:1024E0009F3400349B3400349A3400349B340034DD
:1024F0009F340034A5340034AD340034B834003493
:10250000C4340034D2340034E0340034F0340034C5
:102510000034003410340034203400342E340034BD
:102520003C34003448340034533400345B340034D9
:10253000613400346534003466340034653400346A
:10254000613400345B340034533400344834003494
:102550003C3400342E340034203400341034003441
:1025600000340034F0340034E0340034D234003429
:10257000C4340034B8340034AD340034A5340034ED
:102580009F3400349B3400349A3400349B3400343C
:102590009F340034A5340034AD340034B8340034F2
:1025A000C4340034D2340034E0340034F034003425
:1025B000003400340034003410340034203400344B
:1025C0002E3400343C340034483400345334003466
:1025D0005B340034613400346534003466340034D4
:1025E00065340034613400345B34003453340034D7
:1025F000483400343C3400342E3400342034003469
:102600001034003400340034F0340034E03400344A
:10261000D2340034C4340034B8340034AD3400341F
:10262000A53400349F3400349B3400349A34003491
:102630009B3400349F340034A5340034AD3400346E
:10264000B8340034C4340034D2340034E0340034BC
:10265000F0340034003400341034003420340034BA
:102660002E3400343C3400344834003453340034C5
:102670005B34003461340034653400346634003433
:1026800065340034613400345B3400345334003436
:10269000483400343C3400342E34003420340034C8
:1026A0001034003400340034F0340034E0340034AA
:1026B000D2340034C4340034B8340034AD3400347F
:1026C000A53400349F3400349B3400349A340034F1
:1026D0009B3400349F340034A5340034AD340034CE
:1026E000B8340034C4340034D2340034E03400341C
:1026F000F03400340034003410340034203400341A
:102700002E3400343C340034483400345334003424
:102710005B34003461340034653400346634003492
:1027200065340034613400345B3400345334003495
:10273000483400343C3400342E3400342034003427
:102740001034003400340034F0340034E034003409
:10275000D2340034C4340034B8340034AD340034DE
:10276000A53400349F3400349B3400349A34003450
:102770009B3400349F340034A5340034AD3400342D
:10278000B8340034C4340034D2340034E03400347B
:10279000F0340034003400342000B800D72B01306E
:1027A000B5003508B8070130B3070030B43D330831
:1027B0008400340885000008A63148269331FF3A8A
:1027C000013E2000B500380886000130870001086E
:1027D000A6314826933120003507B6003608B700E9
:1027E0003708031DFA2B38088600013087000108DE
:1027F000031DCF2B3708B300B401B31BB40308008B
:1028000000302100C3000030C2000030C1000030A1
:10281000C00022000D1217302100C4000030C50096
:10282000C51B412C22000C1520000E0C2100B90004
:10283000B90C390C0139BA00BB01440A212CBA3554
:10284000BB0D890B1F2C3A08BC003B08BD000030B3
:10285000BD1BFF30BE00BF003C08C0043D08C104E2
:102860003E08C2043F08C30422000C110830890B43
:10287000372C0000FF302100C407FF30C53DC51FC5
:10288000122C22000C11F7302100A000A830A1006A
:102890004308A5004208A4004108A3004008A20084
:1028A0008631182621004308B8004208B7004108C5
:1028B000B6004008B500080021003608803AB9008B
:1028C00080303902031D662C173035020318B02CF6
:1028D0002100370838040319892C0130B900003071
:1028E000BA00350A752CB935BA0D890B732C390825
:1028F000BB003A08BC000030BC1BFF30BD00BE006E
:102900003B08D4043C08D5043D08D6043E08D7044F
:10291000A62C0130B9000030BA00350A912CB93527
:10292000BA0D890B8F2CB909BA093908BB003A08CE
:10293000BC000030BC1BFF30BD00BE003B08D4050E
:102940003C08D5053D08D6053E08D7052530A00032
:10295000AA30A100863118262100B501B601080071
:1029600028302100A000AA30A100863118260130AD
:102970002100B5000030B600080021003E0820000C
:10298000D90021003D082000D8005C092100BF00CB
:1029900020005D092100C000BF0A0319C00A200001
:1029A000580821003F072000B90059082100403D88
:1029B0002000BA009831A120943120003908C200CB
:1029C0003A08C3003B08C40022308400AA308500C6
:1029D000003FBF00013FC000023FC1008D312325F1
:1029E000943120003F082100A90020004008210068
:1029F000AA00200041082100AB000030A600803072
:102A0000A700BF30A8008E31E626943121002608A9
:102A1000AF002708B0002808B1008A313C22943169
:102A200021002F08A431E724943125302100A00093
:102A3000AA30A100863118262100BD01BE01080080
:102A400021003E082000DD0021003D082000DC00C0
:102A50005C092100BF0020005D092100C000BF0A01
:102A60000319C00A2000580821003F072000B900C0
:102A700059082100403D2000BA009831A12095312D
:102A800020003908C2003A08C3003B08C4002230C5
:102A90008400AA308500003FBF00013FC000023F14
:102AA000C1008D312325953120003F082100A90068
:102AB000200040082100AA00200041082100AB00AE
:102AC0000030A6008030A700BF30A8008E31E62677
:102AD000953121002608AF002708B0002808B10072
:102AE0008A313C22953121002F08A431E724953109
:102AF00025302100A000AA30A1008631182621002F
:102B0000BD01BE01080020004508803AC8008030A1
:102B10004802031D8D2D40304402031C942D3F308C
:102B20002000C4000030C50020004508C90044084A
:102B3000C800480EF039C900C8014508CB00440858
:102B4000CA000630CA35CB0D890BA22D48084A04AD
:102B5000CC0049084B04CD0044084C042100A000DF
:102B6000200045084D042100A100A201A11BA203E1
:102B70002208A30020082000C8002100210820000E
:102B8000C900210022082000CA00210023082000DB
:102B9000CB001030CB36CA0CC90CC80C890BCA2D1F
:102BA0004908BD004808BC00210021082000BF00E2
:102BB000210020082000BE000730CC004C08C000D7
:102BC0004708C2004608C100A631E22608002000DE
:102BD00034080319F02D330832043104031D012E8B
:102BE0000030B1000030B2000030B3000800013006
:102BF000B6003608B4070130B336B20CB10C890BFD
:102C0000FC2DFE30330503191A2EF72D0130B600C6
:102C10003608B4070130B107003003180130B2079D
:102C2000003003180130B3070130B336B20CB10CD9
:102C3000890B152EFF3033050319272E062E013080
:102C4000B4020130B135B20DB30D890B222EB21B87
:102C50002D2E0230340203181F2E3418352EFF306B
:102C6000B1057F30B205FF30B3050310B40C340852
:102C7000B600B701B8011030B635B70DB80D890BE5
:102C80003C2E3608B1043708B2043808B3043508BE
:102C900003190800B317080022008E14FF3020002B
:102CA000C700FF30C600FF30C500FF30C400210060
:102CB00038082000C900210037082000C8009831DA
:102CC0008020963100302000BC00BD000030BE00E6
:102CD000BF0021003508B90039082000C0002100DC
:102CE00038082000C200210037082000C100A631AA
:102CF000E226963122008E1000302100BD00003007
:102D0000BC000030BB000030BA001730BE000030FD
:102D1000BF00BF1BAE2E22000C15003222000C118A
:102D200020008E1D9F2E1B302100A000AA30A10084
:102D30003F08A3003E08A2008631182696311730BE
:102D400021003E063F04031DA72E22008E14FF30F3
:102D50002100BE07FF30BF3DBF1F8B2E3B30A000C0
:102D6000A830A1008631182608002000C901CA0138
:102D70004A08803A2100B70080303702031DC32E75
:102D80001830200049020318152F21005808B700F9
:102D90005908B8005A08B9005B08BA000130BB00F6
:102DA0000030BC002000490A2100D82EBB35BC0DE4
:102DB000890BD62E3B08BD003C08BE000030BE1B70
:102DC000FF30BF00C0003D08B7053E08B8053F080A
:102DD000B9054008BA05BA1B032F3A08031DFA2E9D
:102DE0003908031DFA2E3808031DFA2E0130370268
:102DF000031C032F20004935A03E860001308700C8
:102E00000030C03FC13F01302000C9070030CA3D3B
:102E10004A08803A2100B70080303702031D132F83
:102E2000183020004902031CC52E25302100A000C7
:102E3000AA30A100863118262100B501B60108008C
:102E4000A631B5269731A3302300EE005530890B0B
:102E5000272FEE0B272F8B170B1725302100A000F3
:102E6000A930A1008631182697318A31C3229731C3
:102E7000402F8E3104269731402F8031A120973189
:102E80002000540803196C2FA731E0279731230045
:102E9000EE0020004E08D83E860001308700230057
:102EA0006E08810020004E08D83E86000130870061
:102EB0000A300106031D672F4E08D83E86000130F8
:102EC0008700810101302200E8000030E900013074
:102ED0002000CE070030CF3D2200680869040319A6
:102EE000852F58302300EE006E082000C500D83032
:102EF0008431942497312200E801E9012000CE01B9
:102F0000CF0158308231EA22973120005308013A2C
:102F10000319392F033A03193D2F402F402F20006A
:102F2000BE003E0886000130870020300106031DE8
:102F30009E2F0130B9003908BE07912F3E08860048
:102F400001308700093001060319992FBC01BD012A
:102F5000BB013E088600013087002D300106031DAD
:102F6000B62F0130B9003908BB07BE2F3E088600D6
:102F7000013087002B300106031DC22F0130B9003C
:102F80003908BE073E088600013087000108A631D7
:102F900039269731031CEB2F20003D08B2003C0876
:102FA000B1000A30B3000030B400A7314A2797318E
:102FB00020003E0886000130870001083107B90073
:102FC00032080318320ABA003908D03EBC00FF307C
:102FD0003A3DBD00BE2F20003B080319FB2F3C09E2
:102FE000B9003D09BA00B90A0319BA0A3908B7008D
:102FF0003A08B80008003D08B8003C08B7000800CF
:103000008331072B8231F22A83311C2B8431792CB6
:103010008431052C8431252C8331312B83313C2B99
:103020008331512B8331662B83317B2B8331902B62
:103030008331A52B8331C52B8331E52B8431452C7E
:103040008431502C84315B2C8431662C8431712C7A
:10305000080008002200201D08002000320822007D
:10306000A300200031082200A20020003408220022
:10307000A500200033082200A40020110800983485
:103080002534F7342534CA342534A7341F34583452
:103090001C34AB34253469341A34453425344D346A
:1030A0002534553425345D342534653425346D3468
:1030B000253475342534BF3425343E341A34200089
:1030C0002708AD002808AE002908AF002A08B00084
:1030D0001030B036AF0CAE0CAD0C890B69282E0841
:1030E000A1002D08A0002808A3002708A200A40121
:1030F000A40A2C08A6002B08A500A631CA260800A1
:1031000020004408CA004508CB004608CC00470808
:10311000CD001030CD36CC0CCB0CCA0C890B8A28D4
:103120004B08BD004A08BC004508BF004408BE006B
:10313000C001C00A4908C2004808C100A631E22601
:1031400008002000BE01BA1FAC28B909BA09B90AA3
:103150000319BA0ABE01BE0A3908B1003A08B20022
:10316000B3018E30BC003C08B4003E08BD003D08F1
:10317000B5009531E72520003108B9003208BA00C2
:103180003308BB000800DC2831302100A000AA3041
:10319000A100863118260800F4302100A000A930D3
:1031A000A1008631182608002F302100A000AA3087
:1031B000A10086311826080020005308013A03199F
:1031C000C428033A0319CC28D42808002200A011EF
:1031D0000230F0007008AB00F328A431B7240800D7
:1031E000A431BB24080022003A08F0007008F00067
:1031F0001030203E860001308700413F8A00403F6A
:103200000A009931023A0319ED28013A0319ED2811
:10321000F02808002000B800B901B90A22002018DF
:103220002B2920142000B901380803191B2922007A
:10323000AA01AA0A212902302000B700370822007B
:10324000AA00A43192249931A531B52599310318EA
:103250002B29A531E0252000390808002000CB00EB
:103260004B08CA004A08CC004908CA004A08CD00E9
:103270004C30B1000030B2000230B3000030B40076
:1032800098312A209931003099310A219931003A38
:1032900003190800A3302100A000A830A100863146
:1032A0001826080022008E1400302000BC00BD004B
:1032B0000030BE00BF000530C9004908C000210031
:1032C00047082000C200210046082000C100A631A6
:1032D000E22699319431002421003808C9003708CA
:1032E000C8003608C7003508C60008002000B20034
:1032F0005E08031978292100111A83292000320859
:1033000023009A009829111220003208B1007D088C
:103310003E3E860001308700310881000130B10057
:103320003108FD0708307D020318FD010130DE027F
:103330002100111608007E1C9F29A731C02FA4313F
:10334000A42499312200A01DB029A6311D2699314F
:10335000031CB0290F302000B60036082200AA0056
:1033600022002A35203E860002308700413F8A0035
:10337000403F0A0099312000B60036082200AA001A
:10338000080022000D120F30F6000030F700F71B86
:10339000E8290C110130F2000030F300760AD2293E
:1033A000F235F30D890BD02970087205F40071080D
:1033B0007305F500740875040319E0290E15E12959
:1033C0000E110C15FF30F607FF30F73DF71FC92926
:1033D0000C11080022002015F729A431B724080099
:1033E000A431862403300800A431BB240800220045
:1033F0003808F0007008F0000C30203E86000130E4
:103400008700413F8A00403F0A009A31013A031980
:10341000F429033A0319ED29013A0319ED29073A72
:103420000319F029F42908002100B61B382A3608B0
:10343000803A2000C90080304902031D222A18303A
:10344000210035020318382A4C302100A000A93091
:10345000A1003535A03E860001308700403FA20024
:10346000413FA300863118262100B501B6010800AE
:1034700001302100B5000030B60008007E1C422A51
:103480009831E6282200A01102302000B100310856
:103490002200AB00512AA53155250800A5315D2534
:1034A000080022003A082000B1003108B1001030B5
:1034B000203E860001308700413F8A00403F0A00DD
:1034C0009A31023A03194B2A013A03194B2A4E2A20
:1034D00008007E1C6D2A9931EA29220020157A2ADB
:1034E000A53155250800A431A12403300800A531D9
:1034F0005D250800220038082000B1003108B10025
:103500000C30203E860001308700413F8A00403F5A
:103510000A009A31013A0319772A033A0319702AEB
:10352000013A0319702A073A0319732A772A080007
:1035300022000D120F302000B7000030B800B81B79
:10354000C52A22000C1101302000B3000030B40065
:10355000370AAC2AB335B40D890BAA2A31083305D2
:10356000B50032083405B600350836040319BB2A05
:1035700022000E15BD2A22000E110C15FF3020006E
:10358000B707FF30B83DB81FA12A22000C11080070
:103590002000BE00BC01BD01D52A0130BA003A08A6
:1035A000BE070130BC070030BD3D3E08860001303B
:1035B000870001080319F32A3908B2003808B1005E
:1035C0003E088600013087000108BA00BB013A08B6
:1035D000B3003B08B400A73114279A31200031080A
:1035E00032040319CD2A3D08B9003C08B800080090
:1035F0002000BE00BC01BD01052B0130BA003A0815
:10360000BE070130BC070030BD3D3E0886000130DA
:10361000870001080319232B3908B2003808B100CC
:103620003E088600013087000108BA00BB013A0855
:10363000B3003B08B400A73114279A3120003108A9
:103640003204031DFD2A3D08B9003C08B8000800FB
:1036500022008C018D018E01333021008C00E0307E
:103660008D0078308E00403023008E008D018C015B
:1036700024008D018C01C0308E0025008C018D014D
:103680008E013C002108E0390D38A1002008E03906
:103690000E38A0002408E0390F38A4003D002708A8
:1036A000E0391438A7001E08E03918389E001D08BC
:1036B000E03919389D000800220065082000AA00A2
:1036C000220064082000A900220063082000A8004E
:1036D000220062082000A7000130AB000030AC00DF
:1036E00098315F209B31220059082000AA00220057
:1036F00058082000A900220057082000A800220036
:1037000056082000A7000230AB000030AC00983112
:103710005F209B3122008E10A4316E249B3100303B
:10372000A431D32408002200220886002308870041
:10373000A43183249B31810001302200A207003094
:10374000A33D0130A4020030A53B24082504031941
:10375000AD2BA431A724053008002015B52BA431CA
:10376000C7240800A431C324080022003808F00050
:103770007008F0000C30203E860001308700413F89
:103780008A00403F0A009B31013A0319B22B033AE9
:103790000319AF2B013A0319AF2B073A0319B22BC8
:1037A000B22B080020004208410440043F040319E2
:1037B0000C2CC801C80AC21BE92B0130BF35C00D53
:1037C000C10DC20D890BDE2B0130C7004708C807A9
:1037D000DB2B42084602031DF72B41084502031D5F
:1037E000F72B40084402031DF72B3F084302031C3C
:1037F000012C3F08C3024008C43B4108C53B4208B6
:10380000C63B0130C236C10CC00CBF0C890B022C68
:103810000130C802031DE92B4608C2004508C1005B
:103820004408C0004308BF0008002100B801B901E6
:10383000312CB801B901442C0130212C0230212C4B
:103840000330B8000030B900442C2830A000AA3062
:10385000A1008631182601302100B5000030B600E5
:1038600008003608003A0319362C252C3508003A92
:103870000319192C013A03191C2C033A03191E2CA5
:10388000013A0319202C252C3808B70037082000EE
:10389000C900013099312E219C3125302100A00032
:1038A000AA30A100863118262100B501B601080012
:1038B0007E1C5C2C9B31932B22002208860023085F
:1038C0008700A4319E249C31810001302200A20790
:1038D0000030A33D0130A4020030A53B240825049C
:1038E0000319762CA431CF240530080020157E2C36
:1038F000A53175250800A5316D250800220038087E
:103900002000B1003108B1000C30203E86000130AB
:103910008700413F8A00403F0A009C31013A031969
:103920007B2C033A0319782C013A0319782C073AB7
:1039300003197B2C7B2C08002000CB00CC014B30E2
:10394000B1000030B2000130B3000030B400983153
:103950002A209C31003099310A219C31003A031908
:10396000B92CA3302100A000A830A1008631182670
:103970009C310830890BBA2C00004C302000B1007B
:103980000030B2000130B3000030B40098312A207A
:103990009C31013099310A219C31003A0319D72C0E
:1039A000B5302100A000A830A100863118262000E3
:1039B0004C08C900CA0149082100B50020004A0886
:1039C0002100B600080073037404031DEA2C2200D2
:1039D0000D12EC2C22000E100F30F9000030FA000E
:1039E000FA1B232D0C110130F5000030F600790A86
:1039F000FB2CF535F60D890BF92C70087505F700D1
:103A000071087605F800770878040319092D0E155A
:103A10000A2D0E117208F500F6017A087606031DCC
:103A2000132D79087506031D1C2D73037404031DE3
:103A30001B2D0D161C2D0E140C15FF30F907FF3031
:103A4000FA3DFA1FF22C0C1173037404031D2A2D86
:103A50000D1208000E10080017302100B7000030CA
:103A6000B800B81B6D2D1B30A000AA30A10058086B
:103A70002000C900210059082000CA0021005A086E
:103A80002000CB0021005B082000CC002100370A79
:103A900020004E2DCC37CB0CCA0CC90C890B4A2DFB
:103AA000013049052100A200003020004A05210014
:103AB000A300003020004B052100A40000302000AE
:103AC0004C052100A500863118269D31FF302100CC
:103AD000B707FF30B83DB81F332D3B30A000A830EA
:103AE000A100863118262100B501B6010800173063
:103AF0002100B7000030B800B81BB82D1B30A00063
:103B0000AA30A10054082000C90021005508200057
:103B1000CA00210056082000CB00210057082000D1
:103B2000CC002100370A2000992DCC37CB0CCA0CD1
:103B3000C90C890B952D013049052100A2000030E8
:103B400020004A052100A300003020004B05210081
:103B5000A400003020004C052100A5008631182665
:103B60009D31FF302100B707FF30B83DB81F7E2DD3
:103B70003B30A000A830A100863118262100B501F5
:103B8000B60108002000C4004408031DCB2D5208D4
:103B9000C1004108C4004408031DD02D00300800B6
:103BA0004008B9003F08B80044089A31F8229D3116
:103BB00020003808C1004108C407440886000130CD
:103BC00087000108031DE72DD201003008004008DE
:103BD000B9003F08B80044089A31C8229D3120003E
:103BE0003808C1003908C20044084107C30043082F
:103BF000D2005208860001308700010803190A2EFE
:103C0000520886000130870081010130C10041085F
:103C1000D2070B2ED20144080800A531EB259E31B6
:103C200003181C2E392EA431AF240800A431B3246C
:103C30000800A431BB24080022003B08F1007108F1
:103C4000F0001230203E860001308700413F8A009C
:103C5000403F0A009E31013A0319192E033A031915
:103C6000132E013A0319162E073A0319192E192E8D
:103C700008002200A0112308F2002208F100A20A85
:103C80000319A30A71088400720885000008A43192
:103C9000DD249E3101302200A4020030A53B24081F
:103CA0002504031D552E0630562E0330F300003038
:103CB000F400730808002000C9010B3099312E214F
:103CC0009E312100BD01BE0105302000B100003051
:103CD000B20021003B082000B40021003A08200077
:103CE000B3009E31AB269E3121003E08803ABC00D5
:103CF00020003208803A21003C02031D832E200060
:103D0000310821003D020318982E21003808BC001C
:103D10003C082000C9000B3099312E219E31003221
:103D20000032000001302100BD070030BE3D642E8E
:103D3000A63158269E310318A52EC6302100A000BA
:103D4000A830A100863118269E312000C9010B3011
:103D500099312E2108002000B701B21FB62EB109FB
:103D6000B209B10A0319B20AB701B70AB41FC12ECA
:103D7000B309B409B30A0319B40A0130B500350810
:103D8000B706B801B901310832040319F02EB601A3
:103D9000B60AB21BD52E0130B135B20D890BCC2E2F
:103DA0000130B5003508B607C92E0130B835B90D58
:103DB000890BD62E32083402031DE02E310833025F
:103DC000031CE72E3108B3023208B43B381401302B
:103DD000B236B10C890BE82E0130B602031DD52E88
:103DE00037080319F82EB809B909B80A0319B90A2E
:103DF0003908B2003808B100080021003E08200050
:103E0000DB0021003D082000DA005B08BA005A08F8
:103E1000B9009831A1209E3120003908C2003A082B
:103E2000C3003B08C4001F308400AA308500003F57
:103E3000BF00013FC000023FC1008D3123259E31EC
:103E400020003F082100A900200040082100AA000E
:103E5000200041082100AB000030A6008030A70000
:103E6000BF30A8008E31E6269E3121002608AF0023
:103E70002708B0002808B1008A313C229E31210079
:103E80002F08A431EC249E3125302100A000AA3057
:103E9000A100863118262100BD01BE0108002000C6
:103EA00034033504031D572F22000D12592F220011
:103EB0000E100F302000BA000030BB00BB1B9A2F41
:103EC00022000C1101302000B6000030B7003A0A81
:103ED0006B2FB635B70D890B692F31083605B80041
:103EE00032083705B9003808390403197A2F22003F
:103EF0000E157C2F22000E1120003308B600B701EA
:103F00003B083706031D862F3A083606031D912FFE
:103F100034033504031D8F2F22000D16912F22002C
:103F20000E1422000C15FF302000BA07FF30BB3DF5
:103F3000BB1F602F22000C11200034033504031D29
:103F4000A42F22000D12080022000E1008007E1C73
:103F5000AB2F9E310D2EA6311D269F310318BA2F8F
:103F6000D82FA53145250800A5314D250800A531DC
:103F70005D25080022003B082000B2003208B10095
:103F80001230203E860001308700413F8A00403FCA
:103F90000A009F31013A0319B72F033A0319B12FD1
:103FA000013A0319B42F073A0319B72FB72F0800A6
:103FB0002200A01123082000B300220022082000C4
:103FC000B2002200A20A0319A30A200032088400CA
:103FD000330885000008A53103259F3101302200F8
:103FE000A4020030A53B24082504031DF92F063048
:103FF000FA2F03302000B4000030B5003408080068
:1040000001340034003400340A3400340034003405
:104010006434003400340034E834033400340034B1
:104020001034273400340034A03486340134003492
:10403000403442340F3400348034963498340034A1
:104040000034E134F53405340034CA349A343B3456
:1048DC0020009713080020001F1108002000111160
:1048EC000800A43174240800240096140800240045
:1048FC00161508002400961508002400110808005D
:10490C002000911508002000911108002000971735
:10491C00080020001F1508002400161408002400AD
:10492C00961408002400161508002400961508009B
:10493C002400110808002000911508002000911196
:10494C000800240096121616080024009616161657
:10495C000800A4317A2401300800A4317A240230F2
:10496C000800A4317A2401300800A4317D240030E1
:10497C000800A431A72405300800A431AB240A3068
:10498C000800A431AB240930080016302100970030
:10499C0008002400961216160800F000700820007B
:1049AC0095000800F000700820009D000800F00041
:1049BC00700824009100080022002010AB010E307A
:1049CC0008002000B1003108960008002000B1005A
:1049DC0031089E0008002200A011A431802404306C
:1049EC0008007E1CFB2C80310228013008007E1C44
:1049FC00012D8731FE2F053008002000B100310851
:104A0C002400910008002000B3003308993176216E
:104A1C000800640080010131890B102D0034FE0068
:104A2C0012001E00FE0B162D00340134003400342D
:104A3C0000347F340034E83403340A3400340A344C
:104A4C0000349831282022002010AB010E300800D1
:104A5C002200A0152135A431DD24033008002200EA
:104A6C00A0150314210DA431DD24053008003200FB
:104A7C0091019201930194019501960108007E1C0D
:104A8C00492DA431AF2CA4319524013008007E1C93
:104A9C00512DA431B32CA4319524023008007E1C76
:104AAC00592DA431B72CA4319524013008007E1C5B
:104ABC00612DA431BB2CA4319824003008007E1C3D
:104ACC00692DA431BF2CA431CF24053008007E1CE5
:104ADC00712DA431C32C883100200A3008007E1CB3
:104AEC00792DA431C72C8831002009300800220010
:104AFC008E14A4317124A5310030A431D8240800BF
:104B0C00200032082200EF00200031082200EE00C5
:104B1C000800200032082200ED002000310822009D
:104B2C00EC0008007E1C9C2DA431E22C22002010ED
:104B3C00AB010E3008006230320099009B019D01E0
:104B4C0003309F0020309E0008007E1CAF2DA43146
:104B5C00F12C2200A011A4319B2404300800210068
:104B6C00110C2000B100B10C310C0139B200320C27
:104B7C0008007E1CC32DA531272D98312920220039
:104B8C002010AB010E3008007E1CCE2DA5312E2D31
:104B9C002200A0152135A531032503300800200083
:104BAC00911908002000911908000830890BDC2DA0
:104BBC000000D82D2200201C08000030A531D5257E
:104BCC00A53199319B21A531E02D24001608BF3960
:104BDC0040389600160E890C890C0139F000700CC7
:104BEC0008007E1CFB2DA531352D2200A0150314C9
:104BFC00210DA5310325053008002000901222005C
:104C0C006E086F04031908006F088A006E080A000A
:104C1C00A63108002000911022006C086D040319C5
:104C2C0008006D088A006C080A00A63108002400F0
:104C3C001608BF3940389600160E890C890C0139BC
:104C4C002000B100310C080021003608EF003508B7
:104C5C00EE002530A000AA30A100863118262100D4
:104C6C00B501B60108002000B200B1013A303202A1
:104C7C000318462E30303202031C462EB101B10A05
:104C8C00310C08002000B2007B3032020318562E83
:104C9C0061303202031C562EDF30B1003108B205F0
:104CAC003208080000309C319C24A63121003508C4
:104CBC002000CD004D082100B700371C672E0310D3
:104CCC000800031408000F3020009E009D01911075
:104CDC00210091147D302000B1002530B200A531A7
:104CEC008F254E3020009F0008002000D301D30AEE
:104CFC0021003608E7003508E6002530A000AA3070
:104D0C00A100863118262100B501B60108005830E3
:104D1C0020009800613096009501901221009016A9
:104D2C005C302000B1001B30B200A53186258930E3
:104D3C0020009700080002302000C9004908D30069
:104D4C0021003608E5003508E4002530A000AA3023
:104D5C00A100863118262100B501B6010800A53145
:104D6C003D25A6319B312823A631A531A125A6319D
:104D7C00A431CB24A631A6316926A631A6318D26C5
:104D8C00A631A631FA26080020002108F1002008DF
:104D9C00F0009931C121A63120002308F10022082E
:104DAC00F0002408FB007B08F2002608F40025081C
:104DBC00F3009C31E324080020003D08B2003C08BD
:104DCC00B1009A319822A63120003F08B2003E086B
:104DDC00B1004008C3004308B3004208B5004108C5
:104DEC00B4009F314F270800210091121112083096
:104DFC0023009F0090309D0024309E0019309B00B2
:104E0C009C01FD012000D7010830B1003108DE0003
:104E1C00D601D501D40121009116080020003108DB
:104E2C008400320885000008330603190800320894
:104E3C00B6003108B500B10A0319B20A350884006E
:104E4C00360885001200031D142FB101B2010800B1
:104E5C0023009D1C332F1D121D161908F000200075
:104E6C005608D03E86000130870070088100013062
:104E7C00F0007008D607083056020318D60101302E
:104E8C00F0007008D40708002000B501B601311CF1
:104E9C00532F3308B5073408B63D0130B335B40D84
:104EAC00890B542F0130B236B10C890B592F3108B4
:104EBC003204031D4D2F3608B2003508B10008002E
:104ECC00083020005E020318812F57083E3E8600F2
:104EDC0001308700010823009A000130F0007008AF
:104EEC002000D707083057020318D7010130F00013
:104EFC007008DE0708002100111208002100360896
:104F0C002000C500210035082000C400210038080D
:104F1C002000C700210037082000C6008C31452432
:104F2C00A73125302100A000AA30A1008631182617
:104F3C002100B501B6010800210036082000C5008B
:104F4C00210035082000C400210038082000C700CB
:104F5C00210037082000C60095318325A731253064
:104F6C002100A000AA30A100863118262100B5012D
:104F7C00B6010800A4318924A7312200A01DD02F2E
:104F8C00A531EB25A731031CD02F0F30F500750888
:104F9C002200AA0022002A35203E8600023087001B
:104FAC00413F8A00403F0A00A731F50075082200F6
:104FBC00AA0008002000B20154080319E22F55087A
:104FCC00D03E8600013087000108B1003108B200E4
:104FDC000130B1003108D507083055020318D5014E
:104FEC002100911201302000D402210091162000E2
:104FFC00320808000A3474346534733474346934F8
:10500C006E346734203462346F34743474346F34D7
:10501C006D3420344C34453444342034643472348C
:10502C0069347634653472342E342E342E340A348A
:10503C0000340A342D342D342D342D34733474341F
:10504C0061347234743469346E34673420346334AC
:10505C006F346D346D34203474346534733474347B
:10506C002D342D342D342D340A340A3400342D349F
:10507C002D342D342D34663469346E3469347334E4
:10508C00683465346434203463346F346D346D3477
:10509C00203474346534733474342D342D342D34FD
:1050AC002D340A34003474346534733474346934F4
:1050BC006E346734203474346F34703420344C3490
:1050CC004534443420346434723469347634653471
:1050DC0072342E342E342E3400340A347434653445
:1050EC007334743469346E346734203470346934F6
:1050FC0065347A346F3420346434723469347634E1
:10510C00653472342E342E342E34003455344E34EF
:10511C005234453443344F3447344E3449345A3482
:10512C0045344434203443344F344D344D344134BD
:10513C004E34443421340A340034643472347634BA
:10514C005F347734723469347434653420346534A4
:10515C00723472346F34723421340A34003464344F
:10516C00723476345F347234653461346434203490
:10517C006534723472346F34723421340A3400342E
:10518C006634693466346F3420346E346F3474345E
:10519C0020347234653461346434793421340A3403
:1051AC000034723465346C343A34203461346C34E9
:1051BC006C342034743468346534723465340A3495
:1051CC0000346134623473343A34203461346C34D6
:1051DC006C342034743468346534723465340A3475
:1051EC000034723465346134643420346434613492
:1051FC00743461343A34203425346C3475340A34C4
:10520C000034F4344A34483495349534C734C134BA
:10521C00DC344534DC346D34C334B334333440348F
:10522C0068346534613474346534723470346F347A
:10523C0073347434743469346D34653400340A3422
:10524C000A34733479347334743465346D342034E3
:10525C0064346F346E3465340A3400346834653425
:10526C00613474346534723470347234653474342B
:10527C0069346D34653400346434723476345F349C
:10528C0072346534613464343A34203425346434F3
:10529C000A34003474346F34673467346C346534D6
:1052AC006834653461347434653472340034693470
:1052BC006E3469347434693461346C3469347A34DE
:1052CC00653464340A3400343434013448349D3445
:1052DC00B03445340034DA344234003480343F3452
:1052EC007034693465347A346F346F346E3474349A
:1052FC0069346D346534003464346F34523465343D
:10530C006C344D346F34763465340A3400340A34DA
:10531C000A34733468346F347234743473343A34FA
:10532C00203400344634413449344C34453444340C
:10533C000A340A3400347034613473347334653491
:10534C0064340A340A34003464347234763450349D
:10535C00653461346B3400346434723476344734DD
:10536C00613469346E3400346C34653464346734BD
:10537C00613469346E3400346D3473347434613494
:10538C0074347534733400344634413449344C34F9
:10539C00453444340A340034703461347334733417
:1053AC00653464340A34003464346F344D346F34EF
:1053BC00763465340A3400346F34703465346E34AA
:1053CC0073343A34203400346C34653464347034BF
:1053DC0077347234003467346534743441340034B7
:1053EC007334653474344134003467346534743444
:1053FC004D3400347334653474344D3400347034AB
:10540C0069346E346734003463346F346D346D3406
:10541C000034723465346C34003461346234733467
:10542C00003470346F3473340034253464342034D5
:10543C0000340034C8343F340034C8343D34413473
:10544C000A34003445340A3400343F3400347A349E
:0A545C0000344E34003452340034A2
:020000040001F9
:08000E00ECFFF3FFFFFFFFFF11
:00000001FF
