:1000000080315A28283400347E14803120007F0843
:10001000FC002100901E13282000901E1328A131FF
:100020006221803155280B1F55282100111D2228DF
:100030002000111D2228210069088A0068080A0092
:10004000803155282100911D2F282000911D2F2837
:10005000220069088A0068080A00803155282100BA
:10006000921C39282000921C3928A1317C21803132
:1000700055282100911C43282000911C4328A131C0
:100080006F21803155282100911E4D282000911E9E
:100090004D28A231E622803155282100111E552815
:1000A0002000111E5528A3311E237C082000FF00CC
:1000B0007E10090080315C28E43084009130850096
:1000C0005A308600003087000030FF000430A13134
:1000D00056218031EC308400AF308500EA30860054
:1000E000003087000030FF000630A13156218031FA
:1000F0002200803102208031EA00803103208031EB
:10010000EB00F430840098308500483086000230DF
:1001100087000030FF002030A1315621803190301F
:100120008400273085006030FE000030FF00A131E0
:100130004A218031FD014E308400003085000C30B2
:10014000FE000030FF00A1314A218031D830840008
:10015000003085001230FE000030FF00A1314A213E
:10016000803120308400013085004A30FE000030AC
:10017000FF00A1314A218031A03084000130850088
:100180003D30FE000030FF00A1314A218031203097
:100190008400023085002830FE000030FF00A131CD
:1001A0004A218031A0308400023085002830FE00D2
:1001B0000030FF00A1314A217E1020009231BE2A7A
:1001C00001302100C3000030C400C501C60146084B
:1001D000803A2500C80080304802031DF2281830FC
:1001E000210045020318782921005C082500C80079
:1001F00021005D082500C90021005E082500CA0015
:1002000021005F082500CB000130CC000030CD007C
:100210000030CE000030CF002100450A250014290F
:10022000CC35CD0DCE0DCF0D890B10294C08C8054E
:100230004D08C9054E08CA054F08CB054B084A04AE
:100240004904480403196629210046082500C9000D
:10025000210045082500C800C835C90DC835C90D9D
:100260009030CA002730CB0048084A07860049086A
:100270004B3D8700403FCC00413FCD00423FCE0088
:10028000433FCF002000510825004F06031D582989
:100290002000500825004E06031D582920004F0855
:1002A00025004D06031D582920004E0825004C0648
:1002B000031D5C2901305D290030D000D1015008B8
:1002C0002100C305250051082100C405013021008B
:1002D000C5070030C63D4608803A2500C80080307A
:1002E0004802031D7629183021004502031CF4281A
:1002F00021004308440403199E29EE30A000A830D1
:10030000A1008D31942580312000D50100302100DD
:10031000E7000030E6000030E5000030E400003087
:10032000E3000030E2000030E1000030E00038304F
:10033000A000B030A1008D31942508002100C90132
:10034000CA014A08803A2500C80080304802031DCF
:10035000AC291830210049020318E22A21005C0868
:100360002500C80021005D082500C90021005E08A5
:100370002500CA0021005F082500CB0021004A08A3
:100380002500CD00210049082500CC00CC35CD0D3D
:10039000CC35CD0D9030CE002730CF004C084E0725
:1003A00086004D084F3D8700403FD000413FD100BF
:1003B000423FD200433FD30020005108803A25003D
:1003C000D4005308803A54022000031DF729250069
:1003D000520820005002031DF72925005108200073
:1003E0004F02031DF7292500500820004E02031874
:1003F000FB290130FC2900302500D500D601210061
:10040000490A2500052AD535D60D890B032A55083A
:10041000D7005608D8000030D81BFF30D900DA00CA
:100420000130DB000030DC000030DD000030DE0099
:100430002100490A2500202ADB35DC0DDD0DDE0D0B
:10044000890B1C2A5B08D7055C08D8055D08D9050F
:100450005E08DA055708C8055808C9055908CA05CD
:100460005A08CB0548082100E4042500490821006A
:10047000E50425004A082100E60425004B08210078
:10048000E7045C082500C80021005D082500C900BC
:1004900021005E082500CA0021005F082500CB006E
:1004A00021004A082500CD00210049082500CC0084
:1004B000CC35CD0DCC35CD0D9030CE002730CF00D2
:1004C0004C084E0786004D084F3D8700403FD00046
:1004D000413FD100423FD200433FD3005308803A0E
:1004E000D40020005108803A25005402031D882AB8
:1004F0002000500825005202031D882A20004F08C2
:1005000025005102031D882A20004E0825005002B4
:1005100003188C2A01308D2A0030D500D601210025
:10052000490A2500952AD535D60D890B932A5508F9
:10053000D7005608D8000030D81BFF30D900DA00A9
:100540000130DB000030DC000030DD000030DE0078
:100550002100490A2500B02ADB35DC0DDD0DDE0D5A
:10056000890BAC2A5B08D7055C08D8055D08D9055E
:100570005E08DA055708C8055808C9055908CA05AC
:100580005A08CB0548082100E0042500490821004D
:10059000E10425004A082100E20425004B0821005F
:1005A000E3040130C9070030CA3D4A08803A2500FB
:1005B000C80080304802031DE02A1830210049029B
:1005C000031CAE2988312F2080312100C701C801CA
:1005D0004808803A2500C80080304802031DF32AED
:1005E0001830210047020318080021006408250084
:1005F000C800210065082500C90021006608250003
:10060000CA00210067082500CB000130CC00003073
:10061000CD000030CE000030CF002100470A250079
:10062000152BCC35CD0DCE0DCF0D890B112B4C08D4
:10063000C8054D08C9054E08CA054F08CB054B082B
:100640004A04490448040319272B0130282B0030A1
:10065000D000D101D009D109D00A0319D10A210053
:1006600060082500D200210061082500D300210088
:1006700062082500D400210063082500D500013060
:10068000D6000030D7000030D8000030D90021005B
:10069000470A25004F2BD635D70DD80DD90D890B1C
:1006A0004B2B5608D2055708D3055808D4055908CE
:1006B000D50555085404530452040319612B013025
:1006C000622B00305007DA0051080318510ADB0092
:1006D0005A08DC005B08DD000030DD1BFF30DE0067
:1006E000DF00210048082500E1002100470825001F
:1006F000E000E035E10DE035E10D9030E20027301B
:10070000E3006008620786006108633D87005C08BB
:10071000810741315D08813D41315E08813D4131B4
:100720005F08813D01302100C7070030C83DE82A3D
:100730002100D70001302200E4000030E500842DC4
:100740002100570A860001308700403F2000B10099
:10075000413FB200210057080B3E86000130870060
:10076000403F2000B300413FB400A231CB22200023
:1007700032082200E500200031082200E4000800D1
:100780002100570A860001308700403F2000B10059
:10079000413FB200A131C421200032082200E5000F
:1007A000200031082200E40008002100570A8600DA
:1007B00001308700403FB500413FB600A731C12757
:1007C000210036082200E500210035082200E4005F
:1007D0000800A431F224210036082200E50021009F
:1007E00035082200E40008009331A32321003608D5
:1007F0002200E500210035082200E4000800210065
:10080000570A860001308700403FD500413FD6009F
:10081000A3317823210056082200E5002100550865
:100820002200E40008002100570A860001308700FA
:10083000403FB500413FB60099319721210036086D
:100840002200E500210035082200E4000800210014
:10085000570A860001308700403FC500413FC6006F
:100860009E31D026210046082200E50021004508DF
:100870002200E40008002100570A860001308700AA
:10088000403FB500413FB600A13196212100360816
:100890002200E500210035082200E40008002100C4
:1008A000570A860001308700403FB500413FB6003F
:1008B000A131FA21210036082200E5002100350887
:1008C0002200E40008002100570A8600013087005A
:1008D000403FC500413FC6009C31312421004608FD
:1008E0002200E500210045082200E4000800210064
:1008F000570A860001308700403FC500413FC600CF
:100900009C317F24210046082200E5002100450893
:100910002200E40008002100570A86000130870009
:10092000403FB500413FB60057080B3E86000130FE
:100930008700403FB700413FB800A3313C2321006E
:1009400036082200E500210035082200E4000800F6
:100950002100570A860001308700403FB500413F23
:10096000B60057080B3E860001308700403FB700B5
:10097000413FB800A3315A23210036082200E50088
:10098000210035082200E40008002100570A8600F3
:1009900001308700403FB500413FB60057080B3E8D
:1009A000860001308700403FB700413FB8009631D4
:1009B0007526210036082200E500210035082200B6
:1009C000E40008002100570A860001308700403FFC
:1009D000B500413FB600423FB700433FB80057085B
:1009E0000B3E860001308700403FB900413FBA000E
:1009F0008831C020210036082200E500210035089A
:100A00002200E40008002100570A86000130870018
:100A1000403FB500413FB60057080B3E860001300D
:100A20008700403FB700413FB800943118242100AF
:100A300036082200E500210035082200E400080005
:100A40002100570A860001308700403FB500413F32
:100A5000B60057080B3E860001308700403FB700C4
:100A6000413FB80093313023210036082200E500D1
:100A7000210035082200E40008009B3149232100B1
:100A800036082200E500210035082200E4000800B5
:100A90009B319623210036082200E500210035080D
:100AA0002200E4000800A53142252100360822007A
:100AB000E500210035082200E400080088312F20DD
:100AC00021003D082200E50021003C082200E4004E
:100AD00008008A311422210055082200E500210077
:100AE00054082200E4000800C8302100A000A8300B
:100AF000A1008D3194250800B4302100A000A83059
:100B0000A1008D319425080021005708860001308E
:100B100087000108FF3E031C7C2D8400193004026D
:100B200003187C2DA0310435003E8200080020000F
:100B3000C700C801C901DC30BF00A930C0004708A8
:100B40009A31B22285312000C6004608CA004A0800
:100B50000319080048084904031D382F1E30B3004C
:100B6000B030B4004A08A631AC26853120003308E5
:100B70003404031DBD2D02301A2F2230B300B030D3
:100B8000B4004A08A631AC2685312000330834046D
:100B9000031DD12D45088600013087008101810A9F
:100BA0005D2F2630B300B030B4004A08A631AC2621
:100BB0008531200033083404031DE02D03301A2F43
:100BC0002430B300B030B4004A08A631AC268531D9
:100BD000200033083404031DEF2D04301A2F053094
:100BE000B300B030B4004A08A631AC2685312000ED
:100BF00033083404031DFE2D06301A2F0F30B300C6
:100C0000B030B4004A08A631AC2685312000330844
:100C10003404031D0D2E07301A2F4630B300B030B8
:100C2000B4004A08A631AC268531200033083404CC
:100C3000031D1C2E08301A2FA630B300A930B400B3
:100C40004A08A631AC268531200033083404031D40
:100C50002B2E09301A2FAE30B300A930B4004A0849
:100C6000A631AC268531200033083404031D3A2E0A
:100C70000A301A2F5330B300A930B4004A08A63105
:100C8000AC268531200033083404031D492E0B3077
:100C90001A2F2C30B300A930B4004A08A631AC2674
:100CA0008531200033083404031D582E0C301A2FD0
:100CB0001D30B300A930B4004A08A631AC268531F6
:100CC000200033083404031D672E0D301A2F5F30C7
:100CD000B300A930B4004A08A631AC268531200003
:100CE00033083404031D762E0E301A2F8030B300E3
:100CF000A930B4004A08A631AC268531200033085B
:100D00003404031D852E0F301A2FB630B300A930DE
:100D1000B4004A08A631AC268531200033083404DB
:100D2000031D942E10301A2FE530B300A930B40003
:100D30004A08A631AC268531200033083404031D4F
:100D4000A32E11301A2F3A30B300A930B4004A084C
:100D5000A631AC268531200033083404031DB22EA1
:100D600012301A2F6A30B300A930B4004A08A631F5
:100D7000AC268531200033083404031DC12E133006
:100D80001A2F0030B300B030B4004A08A631AC26A8
:100D90008531200033083404031DD02E14301A2F5F
:100DA0000A30B300B030B4004A08A631AC26853111
:100DB000200033083404031DDF2E15301A2FBE30F7
:100DC000B300A930B4004A08A631AC268531200012
:100DD00033083404031DEE2E16301A2FDE30B30014
:100DE000A930B4004A08A631AC268531200033086A
:100DF0003404031DFD2E17301A2F1930B300B03004
:100E0000B4004A08A631AC268531200033083404EA
:100E1000031D0C2F18301A2F1430B300B030B4005B
:100E20004A08A631AC268531200033083404031D5E
:100E3000222F1930C6004508860001308700460879
:100E400081005D2F8A30B300A930B4004A08A63172
:100E5000AC268531200033083404031D312F0100F6
:100E60005D2F2000450886000130870081015D2F3D
:100E700048034904031D4A2F4A0892314D22853107
:100E80002000450A8600013087003708C03F380837
:100E9000C13F5D2F023048064904031D5D2F4A08FB
:100EA00092314D228531200045080B3E86000130ED
:100EB00087003708C03F3808C13F01302000C8070D
:100EC0000030C93DDC30BF00A930C0000030A02D8B
:100ED00020004603470403197C2F22004908210003
:100EE000A300220048082100A20022004708210098
:100EF000A100220046088A2F22004D082100A300ED
:100F000022004C082100A20022004B082100A10071
:100F100022004A082100A00020004508803AC800AD
:100F200080304802031D962F01304402031CA22F7B
:100F300007302100A0040030A1040030A2040030DA
:100F4000A304AB2FF8302100A005FF30A105FF302E
:100F5000A205FF30A30520082000C80021002108B9
:100F60002000C900210022082000CA002100230817
:100F70002000CB001030CC00CB37CA0CC90CC80CF9
:100F8000CC0BBC2F4908BD004808BC00210021083B
:100F90002000BF00210020082000BE000330CD004B
:100FA0004D08C0004708C2004608C100A2316622B1
:100FB0008731200046034704031DEF2F210023083B
:100FC0002200CD00210022082200CC0021002108AF
:100FD0002200CB00210020082200CA0008002100C6
:100FE00023082200C900210022082200C800210095
:100FF00021082200C700210020082200C6000800A6
:101000007E1C0428A531942D220020151128A03122
:1010100052200800AF31752703300800A0315A2054
:101020000800220038082000B1003108B1000C305F
:10103000203E860001308700413F8A00403F0A0081
:101040008831013A03190E28033A03190728013A97
:1010500003190728073A03190A280E2808009531B2
:101060000525883122008E1455082000C700220073
:1010700054082000C600220053082000C5002200AA
:1010800052082000C4000130C8000030C900A3315C
:10109000F8238831220059082000C7002200580890
:1010A0002000C600220057082000C5002200560874
:1010B0002000C4000230C8000030C900A331F8236A
:1010C000883122008E102100BF01C0014008803A03
:1010D000BE006D08803A3E02031D70286C083F0276
:1010E00003187C285330890B73280000013021003D
:1010F000BF070030C03D6628AF3160278831AF316F
:101100005D2788310130A2317E22883121006F08AD
:10111000B6006E08B5006B08B8006A08B700A731C2
:101120004D2788310030A2317E2288312100C10153
:10113000C2014208803ABE0022006B08803A2100BA
:101140003E02031DA72822006A082100410203185D
:10115000B3285330890BAA28000001302100C107B1
:101160000030C23D992822008E14AF316327013030
:101170002200E6000030E7002100BC01BD010800AC
:1011800022008E10210039033A04031DD8285F087D
:101190002000C70021005E082000C60021005D0875
:1011A0002000C50021005C082000C40001300B298C
:1011B0000230210039063A040319FB2803302100CC
:1011C00039063A04031D11295F082000C7002100D9
:1011D0005E082000C60021005D082000C500210037
:1011E0005C082000C4000130C8000030C900A331F1
:1011F000F823883121005F082000C70021005E0825
:101200002000C60021005D082000C50021005C0808
:101210002000C4000230C8000030C900A331F82308
:1012200088312100C001C1014008BB004108BC0059
:101230000030BC1BFF30BD00BE003E08803ABF003E
:101240003808803A3F02031D2F2937083D02031D4D
:101250002F2936083C02031D2F2935083B020318AD
:101260003B295330890B3229000001302100C0078F
:101270000030C13D142922008E1400302000C70028
:101280000030C6000030C5000030C4000130C80086
:101290000030C900A331F823883100302000C70096
:1012A0000030C6000030C5000030C4000230C80065
:1012B0000030C900A331F823883138302100A00064
:1012C000B030A1008D3194252100B501B601080090
:1012D0000B302000CD004D082500A0000130230078
:1012E000E0000030E1006108803A2000CD0080304D
:1012F0004D02031D7E2928302300600203180800D8
:10130000210054082000B400210053082000B3003D
:10131000230061082000B200230060082000B10013
:10132000A3310223893120003208BA003108B90004
:101330002830B7000030B8009C31CD24893120001E
:101340003808C1003708C000A431192489312000B1
:1013500040082100CD00200041082100CE002000DF
:1013600042082100CF009E317526893121004D08A9
:101370002300DD0021004E082300DE0021004F087D
:101380002300DF00210054082000C1002100530881
:101390002000C000A4311924893120004008210018
:1013A000AD00200041082100AE00200042082100CD
:1013B000AF0023005D082000C60023005E08200067
:1013C000C70023005F082000C800A031AF2089318A
:1013D000200046082100AA00200047082100AB0099
:1013E000200048082100AC008C3190248931210074
:1013F0002A08B7002B08B8002C08B90097317927C4
:101400008931210037082000CD0023006008A03E6C
:1014100086000230870020004D0881000130230043
:10142000E0070030E13D732947302100A000A830DB
:10143000A1008D3194258A3181302100A000A8308F
:10144000A1008D3194258A3101302100CA0000307D
:10145000CB0094318E248A3121004A084B04031DAD
:10146000352ACE30A000A930392AC6302100A0008C
:10147000A930A1008D3194258A31D6302100A000F9
:10148000A930A1008D3194258A310A302100B500A0
:101490000030B6000130B7000030B8009531F925B2
:1014A0008A3175302100A000A930A1008D3194252A
:1014B0008A310B302100B5000030B6000130B70092
:1014C0000030B8009531F9258A3128302100A0007C
:1014D000A830A1008D3194258A3102302100CA0044
:1014E0000030CB0094318E248A3121004A084B040D
:1014F000031D7E2ACE30A000A930822AC6302100EA
:10150000A000A930A1008D3194258A31D630210068
:10151000A000A930A1008D3194258A310A30210024
:10152000B5000030B6000230B7000030B800953189
:10153000F9258A3175302100A000A930A1008D3134
:1015400094258A310B302100B5000030B6000230FE
:10155000B7000030B8009531F9258A319B30210061
:10156000A000A830A1008D3194258A310130993135
:10157000DA218A3121003608803AD60080305602BE
:10158000031DC42A01303502031CCB2A9D302100E3
:10159000A000A930CF2A94302100A000A930A100DA
:1015A0008D3194258A3165302100A000A830A1003A
:1015B0008D319425080044308400B0308500003F10
:1015C0002000C400013FC5000130C6000030C70044
:1015D0009F312F278A3144308400B0308500003F8E
:1015E0002000C400013FC5000230C6000030C70023
:1015F0009F312F278A3101302000C4000030C50000
:101600000130C6000030C700873168278A310130B9
:101610002000C4000030C5000230C6000030C70002
:10162000873168278A3122008E1421006D0820003E
:10163000C10021006C082000C000A43119248A31A7
:1016400020004008C9004108CA004208CB003230DF
:101650008400B0308500003FC600013FC700023F54
:10166000C8008B31A7238A31200046082100AD0035
:10167000200047082100AE00200048082100AF00EC
:101680000030AA008030AB00BF30AC008C31902419
:101690008A3121002A08B7002B08B8002C08B900AD
:1016A000973179278A3121003708AF31C9278A312C
:1016B00021006B082000C10021006A082000C00042
:1016C000A43119248A3120004008C9004108CA0009
:1016D0004208CB0035308400B0308500003FC600A2
:1016E000013FC700023FC8008B31A7238A31200089
:1016F00046082100AD00200047082100AE00200070
:1017000048082100AF000030AA008030AB00BF3095
:10171000AC008C3190248A3121002A08B7002B08B4
:10172000B8002C08B900973179278A312100370891
:10173000AF31C4278A3103302300E2000030E300D8
:101740000C30E4000030E5009F31932708002000B2
:1017500046082100A000200047082100A100200029
:1017600048082100A2000310210D220DA300230828
:10177000A4002408031DC42B00302000C600003044
:10178000C7000030C8000800200049082100A00060
:1017900020004A082100A10020004B082100A200DF
:1017A0000310210D220DA3002308A9002908031D01
:1017B000E12B00302000C6000030C7000030C80018
:1017C0000800210029087B3EA0002008A407200073
:1017D00046082100A000200047082100A1002000A9
:1017E00048082100A2001030A236A10CA00C890BE1
:1017F000F42B2008A3002308A90020004908210099
:10180000A00020004A082100A10020004B08210070
:10181000A2001030A236A10CA00C890B0A2C2008C3
:10182000A3002308A9068030A0002008A9052000F5
:10183000C717CA17FF30C905FF30CA050030CB05EE
:1018400000302100A5000030A6000030A7000730BE
:10185000A0002008A8002000461C392C49082100BF
:10186000A50720004A082100A63D20004B082100C2
:10187000A73D01302000C836C70CC60C890B3A2C96
:101880000130C935CA0DCB0D890B412C0130210027
:10189000A802031D2B2C0930A0002008A80020005E
:1018A000461C5D2C49082100A50720004A0821009C
:1018B000A63D20004B082100A73D01302000C8367E
:1018C000C70CC60C890B5E2C01302100A736A60C74
:1018D000A50C890B652C0130A802031D4F2C25088F
:1018E0002000B100210026082000B20021002708B6
:1018F0002000B30021002408A00020082000B4002C
:1019000021002908A10021082000B5009131E8211B
:1019100020003108C6003208C7003308C80008009C
:1019200021002A08B0002B08B1002C08B2000310D7
:10193000310D320DB3003308B6002D08B0002E086B
:10194000B1002F08B2000310310D320DB30033087F
:10195000B50036080319B82C350836020318BF2C19
:101960003603FF3A3507B00019303002031CBF2C94
:101970002D08AA002E08AB002F08AC00080035087F
:1019800003190800360835020318CE2C3503FF3A38
:101990003607B00019303002031808000630B000D6
:1019A0003008B400AC1BB417AF1B3417AB17FF30B3
:1019B000AA05FF30AB050030AC05AE17FF30AD0512
:1019C000FF30AE050030AF053508360203180A2D8A
:1019D0000130AD35AE0DAF0D890BE92C0130B502EC
:1019E000350836060319052D0130B40234080739CD
:1019F0000319052DE82C0130AC36AB0CAA0C890B71
:101A0000FC2C0130B0003008B60736083506031943
:101A10002F2DFB2C3608350203182F2D0130AA3547
:101A2000AB0DAC0D890B0F2D0130B6023508360613
:101A300003192B2D0130B4023408073903192B2D5B
:101A40000E2D0130AF36AE0CAD0C890B222D0130BE
:101A5000B0003008B50736083506031D212DB41F28
:101A6000412DFF30AA06FF30AB06FF30AC06013037
:101A7000AA07003003180130AB070030031801300B
:101A8000AC07341F532DFF30AD06FF30AE06FF30DC
:101A9000AF060130AD07003003180130AE0700304B
:101AA00003180130AF07B4012A08AD072B08AE3D7B
:101AB0002C08AF3DAF1F6E2DFF30AD06FF30AE06D8
:101AC000FF30AF060130AD07003003180130AE071C
:101AD000003003180130AF07B401B40A2D0820000C
:101AE000B10021002E082000B20021002F082000A4
:101AF000B30021003608B00030082000B4002100F7
:101B00003408B10031082000B5009131E8212000EF
:101B100031082100AA00200032082100AB0020007B
:101B200033082100AC000800A2302100A6002608DE
:101B3000B30021002108A7002008A600A00A03196D
:101B4000A10A26088400270885000008A8002808A4
:101B5000B400340803190800253034060319B52DE4
:101B60003408AF31E6278D31992D2100B201BC2D0B
:101B70003216BC2D3217D92D2108A7002008A60047
:101B8000A00A0319A10A2608840027088500000876
:101B9000B400003A0319C52E643A0319D92D0D3A41
:101BA0000319D92D053A0319B82D193A0319BA2D7D
:101BB000992D321B102E321EEA2D33088600870124
:101BC000403FAE00413FAF00423FB000433FB10055
:101BD0000430FB2D330886008701403FA600413FBB
:101BE000A7002608AE002708AF00890D893B8909A8
:101BF000B000B1000230A6002608B307B11F302E96
:101C00000330A6002608B204AE09AF09B009B10935
:101C1000AE0A0319AF0A0319B00A0319B10A302E2C
:101C2000321E1F2E330886008701403FAE00413F21
:101C3000AF00423FB000433FB10004302D2E3308C7
:101C400086008701403FA600413FA7002608AE005E
:101C50002708AF00B001B1010230A6002608B30783
:101C6000B401B40A0A3034060319632E3408A600FE
:101C7000A701A635A70DA635A70D003026078400BD
:101C8000A830273D8500003FA800013FA900023F82
:101C9000AA00033FAB002B083102031D592E2A086E
:101CA0003002031D592E29082F02031D592E280822
:101CB0002E02031C632E0130A6002608B4070A304A
:101CC0003406031D362E3208033903196B2E2D30CE
:101CD000AF31E6278D3121003408AC00AD01AC1BDB
:101CE000AD03FF302100AC07FF30AD3D2C0A0319D6
:101CF0002D0A0319992D00302000C2000030C100C8
:101D00000030C0000A30BF0021002D0885002C08DB
:101D100084008435850D8435850D00308407A83016
:101D2000853D003F2000B100013FB200023FB300FB
:101D3000033FB400210031082000B8002100300822
:101D40002000B70021002F082000B60021002E0837
:101D50002000B5009D3171258D3120003408C6006A
:101D60003308C5003208C4003108C300993154213A
:101D70008D3120003F08303E2100A6002608B40027
:101D80003408AF31E6278D31712E0800220041085A
:101D900040043F043E04031DE72E2000D50100301F
:101DA0002100E7000030E6000030E5000030E400EC
:101DB0000030E3000030E2000030E1000030E000DD
:101DC0003830A000B030A1008D31942508002200E9
:101DD000C11B722F4108031DF72E4008031DF72E6B
:101DE0003F08031DF72E01303E02031C722F003006
:101DF0002100E7000030E6000030E5000030E4009C
:101E00005F08E3005E08E2005D08E1005C08E000B6
:101E100088312F208E31FF302200BE07FF30BF3DBA
:101E2000FF30C03DFF30C13D2100D301D401540833
:101E3000803AC30080304302031D202F1830530224
:101E40000318F82F21005C08C3005D08C4005E0879
:101E5000C5005F08C6000130C7000030C800003070
:101E6000C9000030CA00530A392FC735C80DC90D43
:101E7000CA0D890B352F4A08490448044704031941
:101E8000432F0130442F0030CB00CC01CD01CE01D7
:101E90004B08C3054C08C4054D08C5054E08C605CA
:101EA0005408D0005308CF00CF35D00DCF35D00D1A
:101EB0009030D1002730D2004F08510786005008DB
:101EC000523D87004308810741314408813D41313B
:101ED0004508813D41314608813D0130D30700303E
:101EE000D43D172F21005F08E7005E08E6005D087B
:101EF000E5005C08E4000030E3000030E200003060
:101F0000E1000030E00088312F208E3101302200C6
:101F1000BE070030BF3D0030C03D0030C13D210054
:101F2000D301D4015408803AC30080304302031D1A
:101F30009B2F183053020318F82F21005C08C300B0
:101F40005D08C4005E08C5005F08C6000130C70018
:101F50000030C8000030C9000030CA00530AB42F56
:101F6000C735C80DC90DCA0D890BB02F4A084904E1
:101F7000480447040319BE2F0130BF2F0030CB00A7
:101F8000CC01CD01CE014B08C3054C08C4054D085A
:101F9000C5054E08C6055408D0005308CF00CF35FC
:101FA000D00DCF35D00D9030D1002730D2004F0862
:101FB000510786005008523D870043088102413195
:101FC0004408813B41314508813B41314608813B12
:101FD0007D310130D3070030D43D5408803AC3002E
:101FE00080304302031DF62F18305302031C9D2F2F
:101FF00022006008610403190800A5314225080089
:102000000034003410340034203400342E340034D2
:102010003C34003448340034533400345B340034EE
:10202000613400346534003466340034653400347F
:10203000613400345B3400345334003448340034A9
:102040003C3400342E340034203400341034003456
:1020500000340034F0340034E0340034D23400343E
:10206000C4340034B8340034AD340034A534003402
:102070009F3400349B3400349A3400349B34003451
:102080009F340034A5340034AD340034B834003407
:10209000C4340034D2340034E0340034F03400343A
:1020A0000034003410340034203400342E34003432
:1020B0003C34003448340034533400345B3400344E
:1020C00061340034653400346634003465340034DF
:1020D000613400345B340034533400344834003409
:1020E0003C3400342E3400342034003410340034B6
:1020F00000340034F0340034E0340034D23400349E
:10210000C4340034B8340034AD340034A534003461
:102110009F3400349B3400349A3400349B340034B0
:102120009F340034A5340034AD340034B834003466
:10213000C4340034D2340034E0340034F034003499
:102140000034003410340034203400342E34003491
:102150003C34003448340034533400345B340034AD
:10216000613400346534003466340034653400343E
:10217000613400345B340034533400344834003468
:102180003C3400342E340034203400341034003415
:1021900000340034F0340034E0340034D2340034FD
:1021A000C4340034B8340034AD340034A5340034C1
:1021B0009F3400349B3400349A3400349B34003410
:1021C0009F340034A5340034AD340034B8340034C6
:1021D000C4340034D2340034E0340034F0340034F9
:1021E000003400340034003410340034203400341F
:1021F0002E3400343C34003448340034533400343A
:102200005B340034613400346534003466340034A7
:1022100065340034613400345B34003453340034AA
:10222000483400343C3400342E340034203400343C
:102230001034003400340034F0340034E03400341E
:10224000D2340034C4340034B8340034AD340034F3
:10225000A53400349F3400349B3400349A34003465
:102260009B3400349F340034A5340034AD34003442
:10227000B8340034C4340034D2340034E034003490
:10228000F03400340034003410340034203400348E
:102290002E3400343C340034483400345334003499
:1022A0005B34003461340034653400346634003407
:1022B00065340034613400345B340034533400340A
:1022C000483400343C3400342E340034203400349C
:1022D0001034003400340034F0340034E03400347E
:1022E000D2340034C4340034B8340034AD34003453
:1022F000A53400349F3400349B3400349A340034C5
:102300009B3400349F340034A5340034AD340034A1
:10231000B8340034C4340034D2340034E0340034EF
:10232000F0340034003400341034003420340034ED
:102330002E3400343C3400344834003453340034F8
:102340005B34003461340034653400346634003466
:1023500065340034613400345B3400345334003469
:10236000483400343C3400342E34003420340034FB
:102370001034003400340034F0340034E0340034DD
:10238000D2340034C4340034B8340034AD340034B2
:10239000A53400349F3400349B3400349A34003424
:1023A0009B3400349F340034A5340034AD34003401
:1023B000B8340034C4340034D2340034E03400344F
:1023C000F03400340034003401340034003400347C
:1023D000200034080319F129330832043104031DA5
:1023E000022A0030B1000030B2000030B300080013
:1023F0000130B6003608B4070130B336B20CB10C68
:10240000890BFD29FE30330503191B2AF8290130F9
:10241000B6003608B4070130B107003003180130A8
:10242000B207003003180130B3070130B336B20CE5
:10243000B10C890B162AFF3033050319282A072A05
:102440000130B4020130B135B20DB30D890B232A2E
:10245000B21B2E2A023034020318202A3418362ADE
:10246000FF30B1057F30B205FF30B3050310B40C67
:102470003408B600B701B8011030B635B70DB80D45
:10248000890B3D2A3608B1043708B2043808B30472
:10249000350803190800B31708002000BE003E08E5
:1024A00086000130870020300106031D5C2A0130C0
:1024B000B9003908BE074F2A3E0886000130870060
:1024C000093001060319572ABC01BD01BB013E08B2
:1024D0008600013087002D300106031D742A01306B
:1024E000B9003908BB077C2A3E0886000130870006
:1024F0002B300106031D802A0130B9003908BE07C0
:102500003E088600013087000108A131A5219231E3
:10251000031CA92A20003D08B2003C08B1000A3083
:10252000B3000030B400A3310223923120003E08F2
:1025300086000130870001083107B900320803180E
:10254000320ABA003908D03EBC00FF303A3DBD0027
:102550007C2A20003B080319B92A3C09B9003D092F
:10256000BA00B90A0319BA0A3908B7003A08B8001C
:1025700008003D08B8003C08B7000800A2314E2210
:102580009231A3302200EC005530890BC52AEC0BA8
:10259000C52A8B170B178A31DB229231D62A8E314E
:1025A000C6269231D62A8031E0209231200056088A
:1025B0000319022BA331B72392312200EC00200033
:1025C0005208C93E86000130870022006C08810055
:1025D00020005208C93E8600013087000A300106FB
:1025E000031DFD2A5208C93E860001308700810183
:1025F00001302200E2000030E30001302000D20769
:102600000030D33D22006208630403191A2BB43052
:10261000EC006C082000C500C93085319725923147
:102620002200E201E3012000D201D301B430833162
:102630009823923122006708803AEC0080306C02C7
:10264000031D242B013066020318D62A20005508EA
:10265000013A0319CF2A033A0319D32AD62AD62AD4
:1026600021003608803A2000C90080304902031D4D
:102670003C2B1830210035020318962B2100370817
:1026800038040319662B01302000C9000030CA004D
:102690000030CB000030CC002100350A2000542B44
:1026A000C935CA0DCB0DCC0D890B502B4908210023
:1026B000D80420004A082100D90420004B0821003A
:1026C000DA0420004C082100DB048C2B01302000B0
:1026D000C9000030CA000030CB000030CC0021001F
:1026E000350A2000772BC935CA0DCB0DCC0D890BCF
:1026F000732BC909CA09CB09CC0949082100D8059F
:1027000020004A082100D90520004B082100DA05E5
:1027100020004C082100DB053830A000B030A100BB
:102720008D3194252100B501B60108003B30210010
:10273000A000B030A1008D31942501302100B500FA
:102740000030B60008002000C901CA014A08803ADA
:102750002100B70080303702031DB12B1830200054
:10276000490203180D2C21005C08B7005D08B80071
:102770005E08B9005F08BA000130BB000030BC0041
:102780000030BD000030BE002000490A2100CC2BE3
:10279000BB35BC0DBD0DBE0D890BC82B3B08B70565
:1027A0003C08B8053D08B9053E08BA053A083904A1
:1027B000380437040319FB2B20004A082100B80015
:1027C000200049082100B700B735B80DB735B80D5E
:1027D0009030B9002730BA0037083907BB003808F5
:1027E0003A3DBC003B0886003C0887000030C03FF3
:1027F000C13FC23FC33F01302000C9070030CA3D7E
:102800004A08803A2100B70080303702031D0B2CA4
:10281000183020004902031CB32B38302100A000DF
:10282000B030A1008D3194252100B501B60108001A
:1028300021005808B9005908BA005A08BB005B08C3
:10284000BC000130BD000030BE000030BF000030D1
:10285000C000350A2F2CBD35BE0DBF0DC00D890B34
:102860002B2C3D08B9053E08BA053F08BB054008BA
:10287000BC053C083B043A0439040319822C370890
:10288000380403195C2C0130B9000030BA00003064
:10289000BB000030BC00350A512CB935BA0DBB0D58
:1028A000BC0D890B4D2C3908DC043A08DD043B08CB
:1028B000DE043C08DF04782C0130B9000030BA0097
:1028C0000030BB000030BC00350A6A2CB935BA0DA7
:1028D000BB0DBC0D890B662CB909BA09BB09BC0933
:1028E0003908DC053A08DD053B08DE053C08DF0554
:1028F0003830A000B030A1008D3194252100B50101
:10290000B60108003B30A000B030A1008D31942505
:1029100001302100B5000030B600080021004A0354
:102920004B040319A22C220049082100D3002200E5
:1029300048082100D200220047082100D1002200CF
:102940004608B02C22004D082100D30022004C087C
:102950002100D20022004B082100D10022004A08A9
:102960002100D00001302000C4000030C50021004B
:102970004B082000C70021004A082000C60087310C
:102980006827943121004B08C7004A08C600A531CA
:102990006B25943121004708CF004608CE00D31B99
:1029A000E02C5308031DDE2C5208031DDE2C5108B9
:1029B000031DDE2C01305002031CE02C0130E12C01
:1029C0000030CC00CD014C082000C40021004D088F
:1029D0002000C50021004B082000C70021004A0844
:1029E0002000C600873168279431073021004E0649
:1029F0004F040319FD2C0130FE2C0030CC00CD011A
:102A00004C08CA004D08CB0008002100580860059A
:102A10002200D2002100590861052200D3002100C4
:102A20005A0862052200D40021005B0863052200D9
:102A3000D500210060092000B100210061092000BB
:102A4000B200210062092000B300210063092000C8
:102A5000B40021005808200031052200D6002100D2
:102A60005908200032052200D70021005A08200012
:102A700033052200D80021005B0820003405220025
:102A8000D9002100580864052200DA002100590805
:102A900065052200DB0021005A0866052200DC00E3
:102AA00021005B0867052200DD0021006409200089
:102AB000B100210065092000B20021006609200054
:102AC000B300210067092000B4002100580820004D
:102AD00031052200CE0021005908200032052200D5
:102AE000CF0021005A08200033052200D000210029
:102AF0005B08200034052200D10008000B302000C4
:102B0000CD004D082400A00001302300E00000307B
:102B1000E1006108803A2000CD0080304D02031DA5
:102B2000942D283023006002031808002100540867
:102B30002000B400210053082000B30023006108E6
:102B40002000B200230060082000B100A33102235E
:102B5000953120003208BA003108B9002830B7009A
:102B60000030B8009C31CD24953120003808C100D8
:102B70003708C000A43119249531200040082100F5
:102B8000CD00200041082100CE0020004208210095
:102B9000CF009E317526953121004D082300DD00C0
:102BA00021004E082300DE0021004F082300DF0033
:102BB0005D082100B70023005E082100B800230053
:102BC0005F082100B9009731792795312100370836
:102BD0002000CD0023006008203E860002308700E0
:102BE00020004D08810001302300E0070030E13D66
:102BF000892D22008E14FF302000C700FF30C60050
:102C0000FF30C500FF30C400210038082000C90093
:102C1000210037082000C800A331F8239531003087
:102C20002000BC00BD000030BE00BF002100350800
:102C3000B90039082000C000210038082000C20077
:102C4000210037082000C100A23166229531220000
:102C50008E1017302100BA000030BB00BB1B6E2E57
:102C600022000C15003222000C1121003703380419
:102C7000031D4B2E20000E1B3F2E8E1D4B2E2E3083
:102C80002100A000B030A1003B08A3003A08A20038
:102C90008D3194259531173021003A063B04031DF0
:102CA000672E22008E1400302000C7000030C600BE
:102CB0000030C5000030C400210038082000C900E1
:102CC000210037082000C800A331F8239531FF30D8
:102CD0002100BA07FF30BB3DBB1F302E6330A00080
:102CE000A830A1008D319425080022008E1021000B
:102CF00037033804031DAC2E0130B9000030BA0090
:102D00000030BB000030BC00350A8A2EB935BA0D40
:102D1000BB0DBC0D890B862E39082200C20621008E
:102D20003A082200C30621003B082200C406210005
:102D30003C082200C50645082000C70022004408C0
:102D40002000C600220043082000C50022004208DF
:102D50002000C4000130E12E023021003706380483
:102D6000031DE72E0130B9000030BA000030BB006F
:102D70000030BC00350AC02EB935BA0DBB0DBC0DF4
:102D8000890BBC2E39082300B00621003A08230025
:102D9000B10621003B082300B20621003C082300B5
:102DA000B30633082000C700230032082000C60005
:102DB000230031082000C500230030082000C40093
:102DC0000230C8000030C900A331F82396313830F2
:102DD0002100A000B030A1008D3194252100B50163
:102DE000B601080000302100C3000030C2000030EE
:102DF000C1000030C00035033604031D022F22003D
:102E00000D12042F22000E1017302100C4000030D4
:102E1000C500C51B5E2F22000C15210035033604AA
:102E2000031D312F20000E0E890C890C0139210061
:102E3000B900BA01440A1E2FB935BA0D890B1C2FEF
:102E40003908BB003A08BC000030BC1BFF30BD0095
:102E5000BE003B08C0043C08C1043D08C2043E0853
:102E6000502F20000E0C2100B900B90C390C01398B
:102E7000BA00BB01440A3E2FBA35BB0D890B3C2F6B
:102E80003A08BC003B08BD000030BD1BFF30BE004F
:102E9000BF003C08C0043D08C1043E08C2043F080E
:102EA000C30422000C110830890B542F0000FF309E
:102EB0002100C407FF30C53DC51F0B2F22000C1198
:102EC000FE302100A000A830A1004308A500420860
:102ED000A4004108A3004008A2008D3194252100E0
:102EE0004308B8004208B7004108B6004008B500E2
:102EF000080021003708BB003808BC003908BD00B5
:102F000003103C0D3D0DBE003E08C4004408031DE7
:102F1000922F0030BA000030B9000030B800003005
:102F2000B70008003708BB003808BC003908BD00EE
:102F30001730BD36BC0CBB0C890B992F3B08BE006B
:102F40003E08BF00B817FF30B705FF30B8050030A6
:102F5000B9053708C0003808C1003908C200C301EC
:102F60008E30C402C41FD02F4408803A8F3E03180D
:102F7000C22F0030BA000030B9000030B800003075
:102F8000B70008000130C336C20CC10CC00C890B5D
:102F9000C32F0130BB003B08C4070319E92FC22F20
:102FA00018304402031CE62F0030BA000030B9008C
:102FB0000030B8000030B70008000130C035C10D46
:102FC000C20DC30D890BDE2F0130C4024408031D5E
:102FD000DD2F3F080319F72FC009C109C209C30932
:102FE000C00A0319C10A0319C20A0319C30A430814
:102FF000BA004208B9004108B8004008B70008000C
:103000000B340034103420342E343C3448345334E0
:103010005B34613465346634653461345B34533415
:1030200048343C342E34203410340034F034E0344E
:10303000D234C434B834AD34A5349F349B349A347C
:103040009B349F34A534AD34B834C434D234E03426
:10305000F0340034103420342E343C3448345334AB
:103060005B34613465346634653461345B345334C5
:1030700048343C342E34203410340034F034E034FE
:10308000D234C434B834AD34A5349F349B349A342C
:103090009B349F34A534AD34B834C434D234E034D6
:1030A000F0340034103420342E343C34483453345B
:1030B0005B34613465346634653461345B34533475
:1030C00048343C342E34203410340034F034E034AE
:1030D000D234C434B834AD34A5349F349B349A34DC
:1030E0009B349F34A534AD34B834C434D234E03486
:1030F000F03400340B340034103420342E343C349B
:10310000483453345B346134653466346534613437
:103110005B34533448343C342E342034103400347F
:10312000F034E034D234C434B834AD34A5349F34F0
:103130009B349A349B349F34A534AD34B834C434B2
:10314000D234E034F0340034103420342E343C34A3
:10315000483453345B3461346534663465346134E7
:103160005B34533448343C342E342034103400342F
:10317000F034E034D234C434B834AD34A5349F34A0
:103180009B349A349B349F34A534AD34B834C43462
:10319000D234E034F0340034103420342E343C3453
:1031A000483453345B346134653466346534613497
:1031B0005B34533448343C342E34203410340034DF
:1031C000F034E034D234C434B834AD34A5349F3450
:1031D0009B349A349B349F34A534AD34B834C43412
:1031E000D234E034F0340034A63420343E34213478
:1031F000113421341C341E3421341A34DE3420348A
:1032000000340834423420344A34203452342034D8
:103210005A342034623420346A34203472342034F6
:1032200006342134BE342534AF3154279931F000AF
:1032300022002208860023088700700881000130E0
:10324000A2070030A33D0130A4020030A53B2408B2
:10325000250403192F29AF317B27053008002015DD
:103260003729AF319B270800AF319727080022008C
:103270003808F0007008F0000C30203E8600013065
:103280008700413F8A00403F0A009931013A031903
:103290003429033A03193129013A03193129073A2C
:1032A000031934293429080020004208410440044D
:1032B0003F0403198E29C801C80AC21B6B290130BB
:1032C000BF35C00DC10DC20D890B60290130C7008B
:1032D0004708C8075D2942084602031D79294108AD
:1032E0004502031D792940084402031D79293F083E
:1032F0004302031C83293F08C3024008C43B410822
:10330000C53B4208C63B0130C236C10CC00CBF0CE5
:10331000890B84290130C802031D6B294608C200AD
:103320004508C1004408C0004308BF000800210050
:10333000B801B901B329B801B901C6290130A329DF
:103340000230A3290330B8000030B900C6293B3051
:10335000A000B030A1008D31942501302100B500CE
:103360000030B60008003608003A0319B829A7292A
:103370003508003A03199B29013A03199E29033A9B
:103380000319A029013A0319A229A7293808B7006F
:1033900037082000C9000130A43183249931383026
:1033A0002100A000B030A1008D3194252100B5018D
:1033B000B60108002000CB00CC014B30B10000303A
:1033C000B2000130B3000030B400A23121229931A3
:1033D0000030A4315F249931003A0319F729CB302A
:1033E0002100A000A830A1008D319425993108302A
:1033F000890BF82900004C302000B1000030B200E9
:103400000130B3000030B400A231212299310130E3
:10341000A4315F249931003A0319152ADD302100C7
:10342000A000A830A1008D31942520004C08C900CF
:10343000CA0149082100B50020004A082100B60051
:1034400008007E1C252A99311429AF3172279A3140
:103450002000B100220022088600230887002000F7
:103460003108810001302200A2070030A33D013065
:10347000A4020030A53B240825040319432AAF31D8
:10348000A3270530080020154B2AA0317220080020
:10349000A0316A200800220038082000B10031085D
:1034A000B1000C30203E860001308700413F8A0089
:1034B000403F0A009A31013A0319482A033A031996
:1034C000452A013A0319452A073A0319482A482A86
:1034D000080073037404031D702A22000D12722A5F
:1034E00022000E100F30F9000030FA00FA1BA92A52
:1034F0000C110130F5000030F600790A812AF5350B
:10350000F60D890B7F2A70087505F700710876059E
:10351000F8007708780403198F2A0E15902A0E11E7
:103520007208F500F6017A087606031D992A7908D3
:103530007506031DA22A73037404031DA12A0D1628
:10354000A22A0E140C15FF30F907FF30FA3DFA1FBE
:10355000782A0C1173037404031DB02A0D1208009D
:103560000E1008002000C4004408031DBB2A5408A4
:10357000C1004108C4004408031DC02A00300800EF
:103580004008B9003F08B8004408A63149269A31DE
:1035900020003808C1004108C407440886000130F3
:1035A00087000108031DD72AD40100300800400815
:1035B000B9003F08B8004408A63119269A31200006
:1035C0003808C1003908C20044084107C300430855
:1035D000D400540886000130870001080319FA2A34
:1035E000540886000130870081010130C100410884
:1035F000D407FB2AD401440808002000B500B40118
:10360000B40A2200A018080020003508B3003308CF
:103610002200A1002010A014A0110E302000B30041
:1036200033082200AA00F430A8000130A9002015B8
:10363000D430AC002F30AD00B801D430AE002F3004
:10364000AF00B901D430B0002F30B100BA01D4308E
:10365000B2002F30B300BB01DA30B4002F30B50018
:10366000BC01A031FC209A31AF3178279A31483023
:103670002000B1002F30B200A031B8209A31CC30F8
:103680002000B1002430B200A031C1202000B401DC
:10369000080017302100B7000030B800B81B8C2B91
:1036A0002E30A000B030A1005C082000C90021002D
:1036B0005D082000CA0021005E082000CB00210028
:1036C0005F082000CC002100370A20006C2B03107B
:1036D000CC0CCB0CCA0CC90CFF3E031D672B013070
:1036E00049052100A200003020004A052100A30066
:1036F000003020004B052100A400003020004C05C4
:103700002100A5008D3194259B31FF302100B707A2
:10371000FF30B83DB81F502B6330A000A830A10087
:103720008D3194252100B501B60108001730210024
:10373000B7000030B800B81BD92B2E30A000B03035
:10374000A10058082000C900210059082000CA0023
:1037500021005A082000CB0021005B082000CC008B
:103760002100370A2000B92B0310CC0CCB0CCA0C5B
:10377000C90CFF3E031DB42B013049052100A200F6
:10378000003020004A052100A300003020004B0536
:103790002100A400003020004C052100A5008D313F
:1037A00094259B31FF302100B707FF30B83DB81F8B
:1037B0009D2B6330A000A830A1008D3194252100FD
:1037C000B501B6010800A13132219B310318F22B5B
:1037D0000F2CAF3183270800AF3187270800AF31A6
:1037E0008F27080022003B08F1007108F00012301A
:1037F000203E860001308700413F8A00403F0A009A
:103800009C31013A0319EF2B033A0319E92B013AD2
:103810000319EC2B073A0319EF2BEF2B08002200BA
:10382000A0112308F2002208F100A20A0319A30A3A
:1038300071088600720887000108AF31BA279B31F2
:1038400001302200A4020030A53B24082504031DFA
:103850002B2C06302C2C0330F3000030F4007308BE
:103860000800210046082000C10021004508200072
:10387000C000A43119249C3120004008C90041082F
:10388000CA004208CB0032308400B0308500003FCF
:10389000C600013FC700023FC8008B31A7239C31FF
:1038A000200046082100AD00200047082100AE009E
:1038B000200048082100AF000030AA008030AB0093
:1038C000BF30AC008C3190249C3121002A08B70015
:1038D0002B08B8002C08B900973179279C312100BA
:1038E0003708AF31C9279C3138302100A000B030F3
:1038F000A1008D3194252100C501C60108002100D9
:1039000046082000C100210045082000C000A43165
:1039100019249C3120004008C9004108CA0042080F
:10392000CB0035308400B0308500003FC600013F39
:10393000C700023FC8008B31A7239C3120004608F6
:103940002100AD00200047082100AE0020004808FB
:103950002100AF000030AA008030AB00BF30AC00C7
:103960008C3190249C3121002A08B7002B08B80024
:103970002C08B900973179279C3121003708AF31E5
:10398000C4279C3138302100A000B030A1008D3117
:1039900094252100C501C60108002000BD01B81F03
:1039A000D82CB709B809B70A0319B80ABD01BD0A6E
:1039B000BA1FE32CB909BA09B90A0319BA0A0130C6
:1039C000BB003B08BD06BE01BF0137083804031920
:1039D000122DBC01BC0AB81BF72C0130B735B80D4D
:1039E000890BEE2C0130BB003B08BC07EB2C0130EF
:1039F000BE35BF0D890BF82C38083A02031D022D85
:103A000037083902031C092D3708B9023808BA3BB8
:103A10003E140130B836B70C890B0A2D0130BC02B8
:103A2000031DF72C3D0803191A2DBE09BF09BE0A54
:103A30000319BF0A3F08B8003E08B700080021007C
:103A400045082000B100210046082000B2002100F6
:103A500047082000B300CB30CC004C08B400A6319E
:103A6000E0269D312100CC1F3C2D0030C5000030E8
:103A7000C6000030C700080000304C0215300319A2
:103A80004B02031808004508B7004608B80047086D
:103A9000B900973179279D3121003A082000BC00F8
:103AA000210039082000BB00210038082000BA009E
:103AB000210037082000B900A731842720003908E9
:103AC0002100C80020003A082100C90020003B085E
:103AD0002100CA004808C5004908C6004A08C700B6
:103AE000080000302000BD000030BC000030BB00EA
:103AF0000030BA0034083304320431040319BB2DFA
:103B0000BE01BE0AB41B902D0130B135B20DB30D0C
:103B1000B40D890B852D0130B9003908BE07822DFF
:103B20000130BA35BB0DBC0DBD0D890B912D34088C
:103B30003802031DA52D33083702031DA52D3208B9
:103B40003602031DA52D31083502031CB02D3108A6
:103B5000B5023208B63B3308B73B3408B83B3A14D9
:103B60000130B436B30CB20CB10C890BB12D01305D
:103B7000BE02031D902D3D08B4003C08B3003B0875
:103B8000B2003A08B1000800200034033504031DD8
:103B9000CC2D22000D12CE2D22000E100F30200051
:103BA000BA000030BB00BB1B0F2E22000C110130ED
:103BB0002000B6000030B7003A0AE02DB635B70D48
:103BC000890BDE2D31083605B80032083705B900FB
:103BD000380839040319EF2D22000E15F12D2200AB
:103BE0000E1120003308B600B7013B083706031D4D
:103BF000FB2D3A083606031D062E34033504031D3B
:103C0000042E22000D16062E22000E1422000C1582
:103C1000FF302000BA07FF30BB3DBB1FD52D22006F
:103C20000C11200034033504031D192E22000D123F
:103C3000080022000E1008007E1C202E9B31E32B72
:103C4000A13189219E3103182F2E4D2EA031422003
:103C50000800A0314A200800A0315A2008002200A4
:103C60003B082000B2003208B1001230203E86002E
:103C700001308700413F8A00403F0A009E31013AEF
:103C800003192C2E033A0319262E013A0319292E63
:103C9000073A03192C2E2C2E08002200A01123080D
:103CA0002000B300220022082000B2002200A20A55
:103CB0000319A30A20003208860033088700010890
:103CC000AF31E0279E3101302200A4020030A53B35
:103CD00024082504031D6E2E06306F2E03302000AD
:103CE000B4000030B5003408080021004D08AA00D7
:103CF0004E08AB004F08AC004D08C5004E08C6008A
:103D00004F08C7009D311F259E3121004508200026
:103D1000C600210046082000C700210047082000F7
:103D2000C800A031AF209E31200046082100AD0020
:103D3000200047082100AE00200048082100AF0005
:103D40008C3190249E3121002A08D0002B08D1000C
:103D50002C08D2005008AA005108AB005208AC0051
:103D60004D08AD004E08AE004F08AF008C319024D6
:103D70009E3121002A08CD002B08CE002C08CF0050
:103D80004D08C5004E08C6004F08C7009D311F25CD
:103D900021004508CD004608CE004708CF000800A6
:103DA00021004608EB004508EA006C092000CC0021
:103DB00021006D092000CD00CC0A0319CD0A210095
:103DC0006A0820004C07C00021006B0820004D3D10
:103DD000C100A43119249E3120004008C9004108C7
:103DE000CA004208CB0035308400B0308500003F67
:103DF000C600013FC700023FC8008B31A7239E3198
:103E0000200046082100AD00200047082100AE0038
:103E1000200048082100AF000030AA008030AB002D
:103E2000BF30AC008C3190249E3121002A08B700AD
:103E30002B08B8002C08B900973179279E31210052
:103E40003708AF31C4279E3138302100A000B03090
:103E5000A1008D3194252100C501C6010800200074
:103E60004508803AC80080304802031D392F403091
:103E70004402031C402F3F302000C4000030C50026
:103E800020004508C9004408C800480EF039C900A0
:103E9000C8014508CB004408CA000630CA35CB0D1E
:103EA000890B4E2F48084A04CC0049084B04CD002A
:103EB00044084C042100A000200045084D042100C6
:103EC000A100A201A11BA2032208A3002008200038
:103ED000C800210021082000C9002100220820007C
:103EE000CA00210023082000CB001030CB36CA0CBA
:103EF000C90CC80C890B762F4908BD004808BC00C6
:103F0000210021082000BF00210020082000BE0061
:103F10000730CC004C08C0004708C2004608C1006A
:103F2000A2316622080048308400B03085000008C5
:103F3000A0317A209F3148308400B03085000008DD
:103F40009A31FD229F3104302100D5003D30890B8C
:103F5000A72FD50BA72F0032A031F2209F310430BC
:103F60002100D5003D30890BB32FD50BB32F003284
:103F70002000C9010230A43183249F310430210084
:103F8000D5003D30890BC22FD50BC22F0032230044
:103F9000620838382100D50055082000C9000130DA
:103FA000A43183249F3104302100D5003D30890B9A
:103FB000D72FD50BD72F0032230064082100D5005E
:103FC00055082000C9000230A43183249F310430F9
:103FD0002100D5003D30890BEB2FD50BEB2F0032A4
:103FE00021006F08D4006E08D30095317E259F31E3
:103FF00021006F08D4006E08D300893168210800C1
:104000008331C02B8331A02B8331D52B8331E92B16
:1040100085317C2D8531032D8531202D8331F42B85
:104020008331FF2B8431132C8431272C84313B2C9A
:1040300084314F2C8431632C8431772C84318B2C48
:104040008431A82C8431C52C8431E22C85313D2D5E
:104050008531482D8531532D85315E2D8531692D72
:104060008531742D2200A0150314210DAF31BA271C
:1040700005300800320091019201930194019501ED
:10408000960108007E1C4628AF31832FAF31692787
:10409000013008007E1C4E28AF31872FAF316927D1
:1040A000023008007E1C5628AF318B2FAF316927B4
:1040B000013008007E1C5E28AF318F2FAF316C2796
:1040C000003008007E1C6628AF31932FAF31A32744
:1040D000053008007E1C6E28AF31972FAF31A7271F
:1040E0000A3008007E1C7628AF319B2FAF31A727FE
:1040F000093008002000B2003208B1003108220067
:10410000A100080022008E14AF313F27A0310030FB
:10411000AF31B0270800200032082300EB00200058
:1041200031082300EA000800200032082300E900DB
:10413000200031082300E800080020003208230096
:10414000E700200031082300E60008007E1CAA28B2
:10415000AF31BF2F22002010AB010E30080020002D
:10416000480847044604031908008030C8060800C0
:10417000200032082100E900200031082100E80079
:104180000800200032082200E90020003108220047
:10419000E80008002200E601E701AF314227A03124
:1041A0000030AF31B52708006230320099009B0122
:1041B0009D0103309F0020309E0008007E1CE228F5
:1041C000AF31CE2F2200A011AF316F27043008008D
:1041D0002100110C2000B100B10C310C0139B200EA
:1041E000320C080080302100B50035082000C900DD
:1041F0000230A431832408002400951A0800940199
:104200002830950096010330920008007E1C0A2990
:10421000AF31F22FAF31372722002010AB010E3023
:1042200008007E1C1529AF31F92F2200A015213579
:10423000AF31E0270330080020009119080020006A
:10424000911908000830890B232900001F2922003A
:10425000201C08000030A1311C21A131A431CC2444
:10426000A131272924001608BF3940389600160EC0
:10427000890C890C0139F000700C08007E1C422961
:10428000A03132282200A0150314210DAF31E02700
:10429000053008006400800101310130FE02003069
:1042A000FF3B7F087E04031900344B29FE001200F7
:1042B0001E000130FE020030FF3B7F087E04031920
:1042C000003457292000901223006A086B04031958
:1042D00008006B088A006A080A00A1310800200063
:1042E00091102300680869040319080069088A000E
:1042F00068080A00A1310800200092102300660817
:1043000067040319080067088A0066080A00A131DB
:10431000080024001608BF3940389600160E890C94
:10432000890C01392000B100310C08002100360849
:10433000ED003508EC003830A000B030A1008D3120
:1043400094252100B501B60108002000B200B1019A
:104350003A3032020318B22930303202031CB2293B
:10436000B101B10A310C08002000B2007B303202EA
:104370000318C22961303202031CC229DF30B100A8
:104380003108B2053208080002302000B3003308BB
:10439000D5003108CE003208CF00890D893B89094C
:1043A000D000D100B101B20108000F3020009E0002
:1043B0009D0191102100911482302000B100203025
:1043C000B200A03194204E3020009F000800F3304E
:1043D0002800960095012000921021009214CA3006
:1043E0002000B1002030B200A0319D207F30280095
:1043F00097000800210036082200EB002100350854
:104400002200EA0038302100A000B030A1008D3138
:1044100094252100B501B60108005830200098000D
:104420006130960095019012210090161630200000
:10443000B1002730B200A0318B20893020009700D6
:1044400008002200201D0800200032082200A300DE
:10445000200031082200A200200034082200A5001C
:10446000200033082200A4002011080020002108A9
:10447000F1002008F000A5311925A2312000230801
:10448000F1002208F0002408FB007B08F200260857
:10449000F4002508F3009A3169220800A0313A207F
:1044A000A231A6317926A231A031D420A231AF3178
:1044B0009F27A231A131E721A231A131D521A2311B
:1044C000A2310D22A231A2319722080020003D081E
:1044D000B2003C08B100A531E925A23120003F0817
:1044E000B2003E08B1004008C3004308B3004208D0
:1044F000B5004108B4009D31C42508002000BA0071
:104500003A080319872A2030B10002308B2AA030E4
:104510002000B1000230B2002830B3000030B400F7
:10452000A2312122A2310030A4315F2408002100F1
:1045300091121112083023009F0090309D0024300A
:104540009E0019309B009C01FD012000D90108301C
:10455000B1003108DE00D801D701D6012100911643
:104560000800200031088400320885000008330666
:10457000031908003208B6003108B500B10A031962
:10458000B20A35088400360885001200031DB12ADE
:10459000B101B20108002000D501D50A310822007E
:1045A000BE00200032082200BF00890D893B890926
:1045B000C000C100200034082200E10020003308C0
:1045C0002200E0002000B101B201080023009D1C80
:1045D000EB2A1D121D161908F00020005808A03EF5
:1045E000860001308700700881000130F0007008FB
:1045F000D807083058020318D8010130F0007008BD
:10460000D60708002000B501B601311C0B2B33087A
:10461000B5073408B63D0130B335B40D890B0C2B0A
:104620000130B236B10C890B112B31083204031D55
:10463000052B3608B2003508B1000800083020000C
:104640005E020318392B5908A83E86000130870006
:10465000010823009A000130F00070082000D907FB
:10466000083059020318D9010130F0007008DE0744
:104670000800210011120800210036082000C500A2
:10468000210035082000C400210038082000C700A0
:10469000210037082000C60087316827A331383051
:1046A0002100A000B030A1008D3194252100B5017A
:1046B000B6010800210036082000C5002100350899
:1046C0002000C400210038082000C700210037085E
:1046D0002000C6009F312F27A33138302100A000D1
:1046E000B030A1008D3194252100B501B60108003C
:1046F00021005608EF005508EE006F08D4006E0840
:10470000D30095317E25A33121006F08D4006E08B7
:10471000D30089316821A33138302100A000B030A6
:10472000A1008D3194252100D501D6010800AF31BB
:104730005A27A3312200A01DA72BA1313221A3317A
:10474000031CA72B0F30F50075082200AA002200D9
:104750002A35483E860002308700413F8A00403FAC
:104760000A00A331F50075082200AA000800200005
:10477000B20156080319B92B5708A03E8600013034
:1047800087000108B1003108B2000130B1003108E2
:10479000D707083057020318D701210091120130C2
:1047A0002000D602210091162000320808002000C7
:1047B0002708AD002808AE002908AF002A08B0007D
:1047C0001030B036AF0CAE0CAD0C890BE12B2E08BF
:1047D000A1002D08A0002808A3002708A200A4011A
:1047E000A40A2C08A6002B08A500A2313622080036
:1047F00020004408CA004508CB004608CC00470802
:10480000CD001030CD36CC0CCB0CCA0C890B022C51
:104810004B08BD004A08BC004508BF004408BE0064
:10482000C001C00A4908C2004808C100A23166227E
:1048300008002000C501C11F242CC009C109C00AFD
:104840000319C10AC501C50A4008B1004108B200F8
:10485000B3018E30C3004308B4004508C4004408C7
:10486000B5009131E82120003108C0003208C100B4
:104870003308C20008002200A0110230F0007008C6
:10488000AB00482CAF318B270800AF318F270800D1
:1048900022003A08F0007008F0001030203E860038
:1048A00001308700413F8A00403F0A00A431023AAC
:1048B0000319422C013A0319422C452C0800200010
:1048C000B800B901B90A22002018802C2014200059
:1048D000B90138080319702C2200AA01AA0A762C03
:1048E00002302000B70037082200AA00AF31662747
:1048F000A431A031E820A4310318802CA131272154
:104900002000390808002000CB004B08CA004A08E4
:10491000CC004908CA004A08CD004C30B100003034
:10492000B2000230B3000030B400A2312122A43121
:104930000030A4315F24A431003A03190800CB30C1
:104940002100A000A830A1008D319425080020008E
:10495000B2005E080319A92C2100111AB42C200002
:10496000320823009A00C92C111220003208B1002D
:104970007D08A83E860001308700310881000130A3
:10498000B1003108FD0708307D020318FD01013038
:10499000DE022100111608007E1CD02CA331972BBB
:1049A000AF317827A4312200A01DE12CA13189214B
:1049B000A431031CE12C0F302000B6003608220081
:1049C000AA0022002A35483E860002308700413F77
:1049D0008A00403F0A00A4312000B60036082200B9
:1049E000AA0008002000D50100302100E7000030B7
:1049F000E6000030E5000030E4000030E300003065
:104A0000E2000030E1000030E00000302200C10090
:104A10000030C0000030BF000030BE003830210040
:104A2000A000B030A1008D3194252100B501B60160
:104A3000080022000D120F30F6000030F700F71BBF
:104A4000402D0C110130F2000030F300760A2A2DBF
:104A5000F235F30D890B282D70087205F4007108EA
:104A60007305F500740875040319382D0E15392DDA
:104A70000E110C15FF30F607FF30F73DF71F212D03
:104A80000C1108005E2D41302100A000B030A100C3
:104A90008D319425A531672D38302100A000B0302C
:104AA000A1008D319425A531672D3E302100A00055
:104AB000B030A1008D319425A531672D2000550817
:104AC000013A0319432D033A03194C2D552D2100AA
:104AD000B501B601080022008E1400302000BC0091
:104AE000BD000030BE00BF000530C9004908C0004D
:104AF000210047082000C200210046082000C10014
:104B0000A2316622A53121004708B6004608B5004B
:104B10009631F22621003808C9003708C800360847
:104B2000C7003508C600080022002015A12DAF31AE
:104B30008B270800AF31572703300800AF318F278C
:104B4000080022003808F0007008F0000C30203E09
:104B5000860001308700413F8A00403F0A00A531AE
:104B6000013A03199E2D033A0319972D013A0319AF
:104B7000972D073A03199A2D9E2D08007E1CC22DF1
:104B8000A4313B2C2200A01102302000B1003108DA
:104B90002200AB00D12DA03152200800A0315A20B4
:104BA000080022003A082000B1003108B10010309E
:104BB000203E860001308700413F8A00403F0A00C6
:104BC000A531023A0319CB2D013A0319CB2DCE2D75
:104BD000080022000D120F302000B7000030B8008E
:104BE000B81B162E22000C1101302000B30000303B
:104BF000B400370AFD2DB335B40D890BFB2D3108F8
:104C00003305B50032083405B600350836040319FB
:104C10000C2E22000E150E2E22000E110C15FF3048
:104C20002000B707FF30B83DB81FF22D22000C114D
:104C300008002000BE00BC01BD01262E0130BA00D4
:104C40003A08BE070130BC070030BD3D3E08860073
:104C50000130870001080319442E3908B2003808D2
:104C6000B1003E088600013087000108BA00BB0190
:104C70003A08B3003B08B400A231B122A6312000AB
:104C80003108320403191E2E3D08B9003C08B80053
:104C900008002000BE00BC01BD01562E0130BA0044
:104CA0003A08BE070130BC070030BD3D3E08860013
:104CB0000130870001080319742E3908B200380842
:104CC000B1003E088600013087000108BA00BB0130
:104CD0003A08B3003B08B400A231B122A63120004B
:104CE00031083204031D4E2E3D08B9003C08B800BF
:104CF000080022008C018D018E01333021008C00D0
:104D000060308D00F8308E0023008E018D018C0103
:104D100024008D018C01C8308E0025008C018D018E
:104D20008E013C002108E0390D38A1002008E0394F
:104D30000E38A0002408E0391738A4003D001F08F1
:104D4000E03914389F001E08E03918389E001D080D
:104D5000E03919389D0008002000B800B72E013056
:104D6000B5003508B8070130B3070030B43D33084B
:104D70008400340885000008A131B421A631FF3A2F
:104D8000013E2000B5003808860001308700010888
:104D9000A131B421A63120003507B6003608B7008E
:104DA0003708031DDA2E3808860001308700010815
:104DB000031DAF2E3708B300B401B31BB4030800C2
:104DC0002000330832043104031DED2E3408860020
:104DD00087010030C03FC13F080033087F39B5006C
:104DE000B601B535B60D3408860087013508C03FD9
:104DF0003608C13F320D320D0139B500B601340815
:104E00008600870135088104413136088104340861
:104E100086008701823081074131FF30813D7F313B
:104E2000330880393F38B300B213080022005D0810
:104E30002000AA0022005C082000A90022005B08D4
:104E40002000A80022005A082000A7000130AB0073
:104E50000030AC00A331D723A73122005108200035
:104E6000AA00220050082000A90022004F082000BC
:104E7000A80022004E082000A7000230AB0000303E
:104E8000AC00A331D723A73122008E10AF313C27CD
:104E9000A7310030AF31AB2708002100BA01BB01B8
:104EA00005302000B7000030B8002100380820008D
:104EB000BA00210037082000B9009C31CD24A73169
:104EC00021003B08803AB90020003808803A2100D0
:104ED0003902031D6F2F2000370821003A02031802
:104EE000080021003508B90039082000C9000B303E
:104EF000A4318324A73100320032000001302100A8
:104F0000BA070030BB3D502F2000C0018E30BD00DD
:104F10003D08BF00BC1F992FB909BA09BB09BC09DC
:104F2000B90A0319BA0A0319BB0A0319BC0AC0015A
:104F3000C00AFF303C050319A92F0130BC36BB0C59
:104F4000BA0CB90C890B9E2F0130BD003D08BF077C
:104F5000992F3908B1003A08B2003B08B3003F0866
:104F6000BD003D08B4004008BE003E08B5009131C8
:104F7000E82120003108B9003208BA003308BB002C
:104F800008002100B61BFA2F3608803A2000C9001D
:104F900080304902031DCF2F18302100350203183D
:104FA000FA2F2A302100A000B030A10036082000DE
:104FB000CA00210035082000C900C935CA0DC9350D
:104FC000CA0D9030CB002730CC0049084B07860033
:104FD0004A084C3D8700403F2100A200413FA3000A
:104FE000423FA400433FA5008D3194252100B50127
:104FF000B601080001302100B5000030B6000800FD
:1050000001340034003400340A34003400340034F5
:105010006434003400340034E834033400340034A1
:105020001034273400340034A03486340134003482
:10503000403442340F340034803496349834003491
:105040000034E134F53405340034CA349A343B3446
:105050000A34743465347334743469346E346734A8
:10506000203462346F34743474346F346D342034CB
:105070004C344534443420346434723469347634E6
:10508000653472342E342E342E340A3400340A340B
:105090002D342D342D342D34733474346134723402
:1050A000743469346E346734203463346F346D344F
:1050B0006D34203474346534733474342D342D34A9
:1050C0002D342D340A340A3400342D342D342D344B
:1050D0002D34663469346E3469347334683465341D
:1050E0006434203463346F346D346D34203474345C
:1050F0006534733474342D342D342D342D340A3406
:105100000034743465347334743469346E34673401
:10511000203474346F34703420344C344534443487
:1051200020346434723469347634653472342E3405
:105130002E342E3400340A347434653473347434A9
:1051400069346E34673420347034693465347A34A9
:105150006F34203464347234693476346534723494
:105160002E342E342E34003455344E3452344534DB
:1051700043344F3447344E3449345A34453444343C
:10518000203443344F344D344D3441344E34443460
:1051900021340A3400346434723476345F34773422
:1051A0007234693474346534203465347234723442
:1051B0006F34723421340A340034643472347634F7
:1051C0005F3472346534613464342034653472344D
:1051D00072346F34723421340A34003461346234EE
:1051E00073343A34203461346C346C342034743485
:1051F00068346534723465340A340034723465348A
:1052000061346434203464346134743461343A3445
:10521000203425346C3475340A340034F4344A3480
:10522000483495349534C734C134DC344534DC34E7
:105230006D34C334B334333440346834653461344A
:1052400074346534723470346F3473347434743439
:1052500069346D34653400346834653461347434D1
:1052600065347234703472346534743469346D3436
:105270006534003474346F34673467346C346534A7
:1052800068346534613474346534723400343434D1
:10529000013448349D34B03445340034DA34423477
:1052A000003480343F347034693465347A346F3478
:1052B0006F346E34743469346D346534003468345A
:1052C0006534613474346534723431346F34663427
:1052D00066340034743469346D346534683465344C
:1052E000613474346534723400340A340A347334EB
:1052F00068346F347234743473343A342034003484
:1053000068346534613474346534723432346F34E3
:105310006E34003473346F346634743472346534EC
:1053200073346534743400344634413449344C3475
:10533000453444340A340A340034703461347334EC
:105340007334653464340A340A3400346434723497
:1053500076345034653461346B34003464347234E0
:1053600076344734613469346E3400346C346534D7
:1053700064346734613469346E3400346D347334AA
:1053800074346134743475347334003446344134C5
:1053900049344C34453444340A3400347034613474
:1053A00073347334653464340A3400346F347034C5
:1053B00065346E3473343A342034003464346F34DA
:1053C0006D346F347634653400346C346534643451
:0853D0007034773472340034AC
:105E6C0008000800013008000530080020009713D6
:105E7C00080020001F11080028001711080020003E
:105E8C0011110800AF3145270800240096140800B2
:105E9C00240016150800240096150800240011088B
:105EAC000800200091150800200091110800200026
:105EBC009717080020001F15080028001715080068
:105ECC00240016140800240096140800240016154B
:105EDC000800240096150800240011080800200072
:105EEC009115080020009111080024009612161636
:105EFC0008002400961616160800AF314B27013007
:105F0C000800AF314B2702300800AF314B2701306E
:105F1C000800AF314E2700300800AF317B27053029
:105F2C000800AF317F270A300800AF317F270930D6
:105F3C00080016302100970008002400961216164F
:105F4C0008002400961616160800F00070082000B1
:105F5C0095000800F000700820009D000800F0007B
:105F6C007008280095000800F000700824009100CB
:105F7C00080022002010AB010E3008002000B100F8
:105F8C003108960008002000B10031089E0008007E
:105F9C002200A011AF315127043008007E1CD82FED
:105FAC00AF31382F013008007E1CDE2FAF313A2F75
:105FBC00053008002000B1003108240091000800D1
:105FCC002000B3003308A431A7240800C0340334E4
:105FDC001E3400347F340034AF31362722002010B9
:105FEC00AB010E3008002200A0152135AF31BA27C5
:105FFC00033008006734653474344134003473342E
:10600C0065347434413400346734653474344D343D
:10601C0000347334653474344D3400347034693462
:10602C006E346734003463346F346D346D34003443
:10603C00723465346C34003461346234733400343B
:10604C0070346F3473340034253464340A340034BF
:10605C0025346434203400340034C8343F340034E4
:10606C00C8343D3441340A34003445340A340034E5
:10607C004E340A34003452340A3400343F34003481
:06608C007A34003459349F
:020000040001F9
:08000E00ECFFF3FFFFFFFFFF11
:00000001FF
