:1000000080315A28283400347E14803120007F0843
:10001000FC002100901E13282000901E1328A131FF
:100020004A21803155280B1F55282100111D2228F7
:100030002000111D2228210069088A0068080A0092
:10004000803155282100911D2F282000911D2F2837
:1000500022006B088A006A080A00803155282100B6
:10006000921C39282000921C3928A131642180314A
:1000700055282100911C43282000911C4328A131C0
:100080005721803155282100911E4D282000911EB6
:100090004D28A231AB22803155282100111E552850
:1000A0002000111E5528A33100237C082000FF00EA
:1000B0007E10090080315C2895308400AF308500C7
:1000C0005A308600003087000030FF000430A13134
:1000D0003E218031FA30840087308500EA30860086
:1000E000003087000030FF000630A1313E21803112
:1000F0002200803102208031EC00803103208031E9
:10010000ED0091308400AF308500E830860001308A
:1001100087000030FF000430A1313E218031B9302A
:100120008400A3308500483086000230870000300C
:10013000FF002030A1313E218031903084002730F3
:1001400085006030FE000030FF00A1313221803197
:10015000FD014E308400003085000C30FE00003080
:10016000FF00A13132218031D83084000030850079
:100170001230FE000030FF00A131322180312030EA
:100180008400013085004C30FE000030FF00A131BA
:1001900032218031A0308400013085003930FE00EA
:1001A0000030FF00A1313221803120308400023044
:1001B00085002830FE000030FF00A131322180315F
:1001C000A0308400023085002830FE000030FF009F
:1001D000A13132217E1020009531042D0130210003
:1001E000C3000030C400C501C6014608803A25009E
:1001F000C80080304802031D002918302100450244
:100200000318862921005C082500C80021005D082C
:100210002500C90021005E082500CA0021005F08F2
:100220002500CB000130CC000030CD000030CE00E6
:100230000030CF002100450A25002229CC35CD0D04
:10024000CE0DCF0D890B1E294C08C8054D08C905D8
:100250004E08CA054F08CB054B084A044904480418
:1002600003197429210046082500C900210045080A
:100270002500C800C835C90DC835C90D9030CA0061
:100280002730CB0048084A07860049084B3D8700C5
:10029000403FCC00413FCD00423FCE00433FCF0026
:1002A0002000510825004F06031D66292000500834
:1002B00025004E06031D662920004F0825004D0627
:1002C000031D662920004E0825004C06031D6A29DF
:1002D00001306B290030D000D10150082100C30546
:1002E000250051082100C40501302100C507003058
:1002F000C63D4608803A2500C80080304802031DEC
:100300008429183021004502031C022921004308DA
:1003100044040319A529FF30A000A830A1008E31A4
:10032000CE262000D50100302100E7000030E60095
:100330000030E5000030E4000030E3000030E2006F
:100340000030E1000030E0000800C901CA014A089D
:10035000803A2500C80080304802031DB2291830B9
:10036000210049020318E82A21005C082500C80082
:1003700021005D082500C90021005E082500CA0093
:1003800021005F082500CB0021004A082500CD0090
:10039000210049082500CC00CC35CD0DCC35CD0D44
:1003A0009030CE002730CF004C084E0786004D0815
:1003B0004F3D8700403FD000413FD100423FD20037
:1003C000433FD30020005108803A2500D400530851
:1003D000803A54022000031DFD2925005208200008
:1003E0005002031DFD292500510820004F02031D66
:1003F000FD292500500820004E020318012A013073
:10040000022A00302500D500D6012100490A250026
:100410000B2AD535D60D890B092A5508D700560861
:10042000D8000030D81BFF30D900DA000130DB00E3
:100430000030DC000030DD000030DE002100490A21
:100440002500262ADB35DC0DDD0DDE0D890B222A89
:100450005B08D7055C08D8055D08D9055E08DA0594
:100460005708C8055808C9055908CA055A08CB05D0
:1004700048082100E404250049082100E50425007E
:100480004A082100E60425004B082100E7045C0827
:100490002500C80021005D082500C90021005E0874
:1004A0002500CA0021005F082500CB0021004A0872
:1004B0002500CD00210049082500CC00CC35CD0D0C
:1004C000CC35CD0D9030CE002730CF004C084E07F4
:1004D00086004D084F3D8700403FD000413FD1008E
:1004E000423FD200433FD3005308803AD40020005B
:1004F0005108803A25005402031D8E2A200050081E
:1005000025005202031D8E2A20004F0825005102AB
:10051000031D8E2A20004E08250050020318922A3F
:100520000130932A0030D500D6012100490A250068
:100530009B2AD535D60D890B992A5508D700560820
:10054000D8000030D81BFF30D900DA000130DB00C2
:100550000030DC000030DD000030DE002100490A00
:100560002500B62ADB35DC0DDD0DDE0D890BB22A48
:100570005B08D7055C08D8055D08D9055E08DA0573
:100580005708C8055808C9055908CA055A08CB05AF
:1005900048082100E004250049082100E104250065
:1005A0004A082100E20425004B082100E304013041
:1005B000C9070030CA3D4A08803A2500C80080308B
:1005C0004802031DE62A183021004902031CB42901
:1005D0008731612780312100C701C8014808803A6E
:1005E0002500C80080304802031DF92A1830210078
:1005F000470203180800210064082500C8002100F4
:1006000065082500C900210066082500CA002100F0
:1006100067082500CB000130CC000030CD00003051
:10062000CE000030CF002100470A25001B2BCC351F
:10063000CD0DCE0DCF0D890B172B4C08C8054D08DD
:10064000C9054E08CA054F08CB054B084A044904A2
:10065000480403192D2B01302E2B0030D000D1017E
:10066000D009D109D00A0319D10A21006008250058
:10067000D200210061082500D30021006208250076
:10068000D400210063082500D5000130D6000030D9
:10069000D7000030D8000030D9002100470A2500DB
:1006A000552BD635D70DD80DD90D890B512B5608A2
:1006B000D2055708D3055808D4055908D50555085B
:1006C0005404530452040319672B0130682B003083
:1006D0005007DA0051080318510ADB005A08DC0001
:1006E0005B08DD000030DD1BFF30DE00DF00210095
:1006F00048082500E100210047082500E000E0351A
:10070000E10DE035E10D9030E2002730E3006008B4
:10071000620786006108633D87005C0881074131FC
:100720005D08813D41315E08813D41315F08813D79
:1007300001302100C7070030C83DEE2A2100D70054
:1007400001302200E6000030E7007D2D2100570A2D
:10075000860001308700403FB500413FB600A2311E
:100760009022210036082200E700210035082200EF
:10077000E60008002100570A860001308700403F4C
:10078000B500413FB600A231E32221003608220025
:10079000E700210035082200E60008002100570A82
:1007A000860001308700403FB500413FB600A731C9
:1007B000C127210036082200E70021003508220069
:1007C000E6000800A5311725210036082200E700C1
:1007D000210035082200E60008009231B4222100F1
:1007E00036082200E700210035082200E600080054
:1007F0002100570A860001308700403FD500413F65
:10080000D600A3315A23210056082200E700210018
:1008100055082200E60008002100570A8600013032
:100820008700403FB500413FB60099318921210042
:1008300036082200E700210035082200E600080003
:100840002100570A860001308700403FC500413F24
:10085000C6009E316726210046082200E7002100DD
:1008600045082200E60008002100570A86000130F2
:100870008700403FB500413FB600A1317E212100F5
:1008800036082200E700210035082200E6000800B3
:100890002100570A860001308700403FB500413FE4
:1008A000B600A131BF21210036082200E700210057
:1008B00035082200E60008002100570A86000130B2
:1008C0008700403FC500413FC6009C3123242100E2
:1008D00046082200E700210045082200E600080043
:1008E0002100570A860001308700403FC500413F84
:1008F000C6009C317124210046082200E700210037
:1009000045082200E60008002100570A8600013051
:100910008700403FB500413FB60057080B3E8600B8
:1009200001308700403FB700413FB800A3311E238C
:10093000210036082200E700210035082200E600E9
:1009400008002100570A860001308700403FB500AB
:10095000413FB60057080B3E860001308700403FFC
:10096000B700413FB800A3313C23210036082200E4
:10097000E700210035082200E60008002100570AA0
:10098000860001308700403FB500413FB600570860
:100990000B3E860001308700403FB700413FB80062
:1009A00096317526210036082200E700210035081F
:1009B0002200E60008002100570A86000130870067
:1009C000403FB500413FB600423FB700433FB8004B
:1009D00057080B3E860001308700403FB900413F79
:1009E000BA0089316F21210036082200E70021007A
:1009F00035082200E60008002100570A8600013071
:100A00008700403FB500413FB60057080B3E8600C7
:100A100001308700403FB700413FB80093319E232B
:100A2000210036082200E700210035082200E600F8
:100A300008002100570A860001308700403FB500BA
:100A4000413FB60057080B3E860001308700403F0B
:100A5000B700413FB8009231412221003608220000
:100A6000E700210035082200E60008009B313B2307
:100A7000210036082200E700210035082200E600A8
:100A800008009B318823210036082200E70021005E
:100A900035082200E6000800A4313D242100360874
:100AA0002200E700210035082200E6000800873117
:100AB000612721003D082200E70021003C082200B8
:100AC000E60008008A312422210055082200E700B0
:100AD000210054082200E6000800C8302100A000D0
:100AE000A830A1008E31CE260800B4302100A0002D
:100AF000A830A1008E31CE260800210057088600BC
:100B0000013087000108FF3E031C752D8400193059
:100B100004020318752DA0310435003E8200080040
:100B20002000C700C801C9010430BF00AA30C000BE
:100B300047089A31A42285312000C6004608CA0021
:100B40004A080319080048084904031D312F2C30B6
:100B5000B300B030B4004A08A631AC26853120007D
:100B600033083404031DB62D0230132F3030B30088
:100B7000B030B4004A08A631AC26853120003308D5
:100B80003404031DCA2D4508860001308700810109
:100B9000810A562F3430B300B030B4004A08A63171
:100BA000AC268531200033083404031DD92D0330D1
:100BB000132F3230B300B030B4004A08A631AC264F
:100BC0008531200033083404031DE82D0430132F31
:100BD0001330B300B030B4004A08A631AC268531DA
:100BE000200033083404031DF72D0630132F1D3069
:100BF000B300B030B4004A08A631AC2685312000DD
:100C000033083404031D062E0730132F5430B3006D
:100C1000B030B4004A08A631AC2685312000330834
:100C20003404031D152E0830132FC630B300A9302D
:100C3000B4004A08A631AC268531200033083404BC
:100C4000031D242E0930132FCE30B300A930B40079
:100C50004A08A631AC268531200033083404031D30
:100C6000332E0A30132F7330B300A930B4004A0872
:100C7000A631AC268531200033083404031D422EF2
:100C80000B30132F4C30B300A930B4004A08A63102
:100C9000AC268531200033083404031D512E0C305E
:100CA000132F2E30B300A930B4004A08A631AC2669
:100CB0008531200033083404031D602E0D30132FBE
:100CC0007F30B300A930B4004A08A631AC26853184
:100CD000200033083404031D6F2E0E30132FA03074
:100CE000B300A930B4004A08A631AC2685312000F3
:100CF00033083404031D7E2E0F30132FD630B3007B
:100D0000A930B4004A08A631AC268531200033084A
:100D10003404031D8D2E1030132F0730B300B03074
:100D2000B4004A08A631AC268531200033083404CB
:100D3000031D9C2E1130132F5A30B300A930B4007C
:100D40004A08A631AC268531200033083404031D3F
:100D5000AB2E1230132F8A30B300A930B4004A08EA
:100D6000A631AC268531200033083404031DBA2E89
:100D70001330132F0E30B300B030B4004A08A63140
:100D8000AC268531200033083404031DC92E1430ED
:100D9000132F1830B300B030B4004A08A631AC2687
:100DA0008531200033083404031DD82E1530132F4D
:100DB000DE30B300A930B4004A08A631AC26853134
:100DC000200033083404031DE72E1630132F0030A3
:100DD000B300B030B4004A08A631AC2685312000FB
:100DE00033083404031DF62E1730132F2730B300B9
:100DF000B030B4004A08A631AC2685312000330853
:100E00003404031D052F1830132F2230B300B030E7
:100E1000B4004A08A631AC268531200033083404DA
:100E2000031D1B2F1930C6004508860001308700BE
:100E300046088100562FAA30B300A930B4004A08F2
:100E4000A631AC268531200033083404031D2A2F37
:100E50000100562F200045088600013087008101DF
:100E6000562F48034904031D432F4A089F318F27FB
:100E700085312000450A8600013087003708C03FD1
:100E80003808C13F562F023048064904031D562F2B
:100E90004A089F318F278531200045080B3E860088
:100EA000013087003708C03F3808C13F01302000BB
:100EB000C8070030C93D0430BF00AA30C000003070
:100EC000992D94318B24873122008E1459082000EB
:100ED000C700220058082000C60022005708200042
:100EE000C500220056082000C4000130C8000030B0
:100EF000C900A331FA23873122005D082000C70012
:100F000022005C082000C60022005B082000C5000B
:100F100022005A082000C4000230C8000030C90076
:100F2000A331FA23873122008E102100BF01C001B6
:100F30004008803ABE006D08803A3E02031DA22F91
:100F40006C083F020318AE2F5330890BA52F000009
:100F500001302100BF070030C03D982FAF31462738
:100F60008731AF31432787310130A23143228731A6
:100F700021006F08B6006E08B5006B08B8006A085B
:100F8000B700A7314D2787310030A2314322873186
:100F90002100C101C2014208803ABE0022006D0852
:100FA000803A21003E02031DD92F22006C08210047
:100FB00041020318E52F5330890BDC2F000001306C
:100FC0002100C1070030C23DCB2F22008E14AF316B
:100FD0004927873101302200E8000030E900F6306F
:100FE0002100A000A930A1008E31CE262100BC0135
:100FF000BD010800C03403341E3400347F34003493
:101000007E1C0428A431602C2200A0110230200094
:10101000B10031082200AB001328A0313A200800AB
:10102000A0314220080022003A082000B100310817
:10103000B1001030203E860001308700413F8A0019
:10104000403F0A008831023A03190D28013A03197A
:101050000D281028080020004603470403193F28E4
:1010600022004D082100A30022004C082100A2000C
:1010700022004B082100A10022004A084D2822002E
:1010800051082100A300220050082100A2002200E4
:101090004F082100A10022004E082100A0002000DE
:1010A0004508803AC80080304802031D59280130A5
:1010B0004402031C652807302100A0040030A1046D
:1010C0000030A2040030A3046E28F8302100A005EF
:1010D000FF30A105FF30A205FF30A3052008200046
:1010E000C800210021082000C9002100220820009A
:1010F000CA00210023082000CB001030CC00CB37E1
:10110000CA0CC90CC80CCC0B7F284908BD00480884
:10111000BC00210021082000BF0021002008200081
:10112000BE000330CD004D08C0004708C20046088D
:10113000C100A2312B228831200046034704031D41
:10114000B228210023082200D10021002208220019
:10115000D000210021082200CF0021002008220019
:10116000CE000800210023082200CD002100220823
:101170002200CC00210021082200CB002100200801
:101180002200CA0008000B302000CD004D082500C9
:10119000A00001302300DC000030DD005D08803A53
:1011A0002000CD0080304D02031DD92828302300B7
:1011B0005C0203180800210054082000B40021003C
:1011C00053082000B30023005D082000B200230074
:1011D0005C082000B100A231C7228831200032080B
:1011E000BA003108B9002830B7000030B8009C318F
:1011F000BF24883120003808C1003708C000A4315E
:101200001B248831200040082100CD002000410827
:101210002100CE00200042082100CF009131E621BC
:10122000883121004D082300D90021004E082300F9
:10123000DA0021004F082300DB00210054082000C1
:10124000C100210053082000C000A4311B248831B4
:10125000200040082100AD00200041082100AE0020
:10126000200042082100AF00230059082000C600DA
:1012700023005A082000C70023005B082000C80094
:10128000A03197208831200046082100AA002000C4
:1012900047082100AB00200048082100AC008C3139
:1012A000A824883121002A08B7002B08B8002C0890
:1012B000B900973179278831210037082000CD0007
:1012C00023005C08A03E86000230870020004D0805
:1012D000810001302300DC070030DD3DCE280330E3
:1012E0002100BC008A30BB005530890B7529BB0B2F
:1012F0007529BC0B7529003222008E10210039039C
:101300003A04031D94295F082000C70021005E08ED
:101310002000C60021005D082000C50021005C08F7
:101320002000C4000130C7290230210039063A04E8
:101330000319B7290330210039063A04031DCD29CA
:101340005F082000C70021005E082000C6002100C1
:101350005D082000C50021005C082000C4000130A9
:10136000C8000030C900A331FA23893121005F0889
:101370002000C70021005E082000C60021005D0893
:101380002000C50021005C082000C4000230C80015
:101390000030C900A331FA2389312100C001C10105
:1013A0004008BB004108BC000030BC1BFF30BD0042
:1013B000BE003E08803ABF003808803A3F02031D55
:1013C000EB2937083D02031DEB2936083C02031DBB
:1013D000EB2935083B020318F7295330890BEE2916
:1013E000000001302100C0070030C13DD02922009B
:1013F0008E1400302000C7000030C6000030C50049
:101400000030C4000130C8000030C900A331FA2305
:10141000893100302000C7000030C6000030C50010
:101420000030C4000230C8000030C900A331FA23E4
:10143000893146302100A000B030A1008E31CE2687
:101440002100B501B601080047302100A000A830F6
:10145000A1008E31CE268A3181302100A000A83033
:10146000A1008E31CE268A3101302100CA00003021
:10147000CB00943114248A3121004A084B04031D07
:10148000452AEE30A000A930492AE6302100A0000C
:10149000A930A1008E31CE268A31FE302100A00075
:1014A000A930A1008E31CE268A310A302100B50044
:1014B0000030B6000130B7000030B8009531F92592
:1014C0008A3195302100A000A930A1008E31CE26AE
:1014D0008A310B302100B5000030B6000130B70072
:1014E0000030B8009531F9258A3128302100A0005C
:1014F000A830A1008E31CE268A3102302100CA00E8
:101500000030CB00943114248A3121004A084B0466
:10151000031D8E2AEE30A000A930922AE630210069
:10152000A000A930A1008E31CE268A31FE302100E4
:10153000A000A930A1008E31CE268A310A302100C8
:10154000B5000030B6000230B7000030B800953169
:10155000F9258A3195302100A000A930A1008E31F3
:10156000CE268A310B302100B5000030B6000230A3
:10157000B7000030B8009531F9258A319B30210041
:10158000A000A830A1008E31CE268A3101309931D9
:10159000CC218A3121003608803AD60080305602AC
:1015A000031DD42A01303502031CDB2ABD30210083
:1015B000A000A930DF2AB4302100A000A930A1008A
:1015C0008E31CE268A3165302100A000A830A100DE
:1015D0008E31CE26080052308400B0308500003FA6
:1015E0002000C400013FC5000130C6000030C70024
:1015F0009E31C6268A3152308400B0308500003FCB
:101600002000C400013FC5000230C6000030C70002
:101610009E31C6268A3101302000C4000030C5004A
:101620000130C6000030C70088312B208A310130DC
:101630002000C4000030C5000230C6000030C700E2
:1016400088312B208A3122008E1421006D08200061
:10165000C10021006C082000C000A4311B248A3185
:1016600020004008C9004108CA004208CB004030B1
:101670008400B0308500003FC600013FC700023F34
:10168000C8008B31BF238A31200046082100AD00FD
:10169000200047082100AE00200048082100AF00CC
:1016A0000030AA008030AB00BF30AC008C31A824E1
:1016B0008A3121002A08B7002B08B8002C08B9008D
:1016C000973179278A3121003708AF31B7278A311E
:1016D00021006B082000C10021006A082000C00022
:1016E000A4311B248A3120004008C9004108CA00E7
:1016F0004208CB0043308400B0308500003FC60074
:10170000013FC700023FC8008B31BF238A31200050
:1017100046082100AD00200047082100AE0020004F
:1017200048082100AF000030AA008030AB00BF3075
:10173000AC008C31A8248A3121002A08B7002B087C
:10174000B8002C08B900973179278A312100370871
:10175000AF31B2278A3103302300DE000030DF00D2
:101760000C30E0000030E100933129238A31F2305F
:101770002100A000A830A1008E31CE260800200054
:1017800046082100A000200047082100A1002000F9
:1017900048082100A2000310210D220DA3002308F8
:1017A000A4002408031DDC2B00302000C6000030FC
:1017B000C7000030C8000800200049082100A00030
:1017C00020004A082100A10020004B082100A200AF
:1017D0000310210D220DA3002308A9002908031DD1
:1017E000F92B00302000C6000030C7000030C800D0
:1017F0000800210029087B3EA0002008A407200043
:1018000046082100A000200047082100A100200078
:1018100048082100A2001030A236A10CA00C890BB0
:101820000C2C2008A3002308A9002000490821004F
:10183000A00020004A082100A10020004B08210040
:10184000A2001030A236A10CA00C890B222C20087B
:10185000A3002308A9068030A0002008A9052000C5
:10186000C717CA17FF30C905FF30CA050030CB05BE
:1018700000302100A5000030A6000030A70007308E
:10188000A0002008A8002000461C512C4908210077
:10189000A50720004A082100A63D20004B08210092
:1018A000A73D01302000C836C70CC60C890B522C4E
:1018B0000130C935CA0DCB0D890B592C01302100DF
:1018C000A802031D432C0930A0002008A800200016
:1018D000461C752C49082100A50720004A08210054
:1018E000A63D20004B082100A73D01302000C8364E
:1018F000C70CC60C890B762C01302100A736A60C2C
:10190000A50C890B7D2C0130A802031D672C25082E
:101910002000B100210026082000B2002100270885
:101920002000B30021002408A00020082000B400FB
:1019300021002908A10021082000B5009F312A2795
:1019400020003108C6003208C7003308C80008006C
:1019500021002A08B0002B08B1002C08B2000310A7
:10196000310D320DB3003308B6002D08B0002E083B
:10197000B1002F08B2000310310D320DB30033084F
:10198000B50036080319D02C350836020318D72CB9
:101990003603FF3A3507B00019303002031CD72C4C
:1019A0002D08AA002E08AB002F08AC00080035084F
:1019B00003190800360835020318E62C3503FF3AF0
:1019C0003607B00019303002031808000630B000A6
:1019D0003008B400AC1BB417AF1B3417AB17FF3083
:1019E000AA05FF30AB050030AC05AE17FF30AD05E2
:1019F000FF30AE050030AF05350836020318222D42
:101A00000130AD35AE0DAF0D890B012D0130B502A2
:101A10003508360603191D2D0130B4023408073984
:101A200003191D2D002D0130AC36AB0CAA0C890B0F
:101A3000142D0130B0003008B607360835060319FA
:101A4000472D132D360835020318472D0130AA35CE
:101A5000AB0DAC0D890B272D0130B60235083606CB
:101A60000319432D0130B402340807390319432DFB
:101A7000262D0130AF36AE0CAD0C890B3A2D01305E
:101A8000B0003008B50736083506031D392DB41FE0
:101A9000592DFF30AA06FF30AB06FF30AC060130EF
:101AA000AA07003003180130AB07003003180130DB
:101AB000AC07341F6B2DFF30AD06FF30AE06FF3094
:101AC000AF060130AD07003003180130AE0700301B
:101AD00003180130AF07B4012A08AD072B08AE3D4B
:101AE0002C08AF3DAF1F862DFF30AD06FF30AE0690
:101AF000FF30AF060130AD07003003180130AE07EC
:101B0000003003180130AF07B401B40A2D082000DB
:101B1000B10021002E082000B20021002F08200073
:101B2000B30021003608B00030082000B4002100C6
:101B30003408B10031082000B5009F312A27200069
:101B400031082100AA00200032082100AB0020004B
:101B500033082100AC0008002200410840043F0483
:101B60003E04031DC72D2000D50100302100E700F1
:101B70000030E6000030E5000030E4000030E30013
:101B80000030E2000030E1000030E00008002200F8
:101B9000C11B522E4108031DD72D4008031DD72D10
:101BA0003F08031DD72D01303E02031C522E00308A
:101BB0002100E7000030E6000030E5000030E400DE
:101BC0005F08E3005E08E2005D08E1005C08E000F9
:101BD000873161278D31FF302200BE07FF30BF3DC6
:101BE000FF30C03DFF30C13D2100D301D401540876
:101BF000803AC30080304302031D002E1830530288
:101C00000318080021005C08C3005D08C4005E08DA
:101C1000C5005F08C6000130C7000030C8000030B2
:101C2000C9000030CA00530A192EC735C80DC90DA6
:101C3000CA0D890B152E4A084904480447040319A4
:101C4000232E0130242E0030CB00CC01CD01CE015B
:101C50004B08C3054C08C4054D08C5054E08C6050C
:101C60005408D0005308CF00CF35D00DCF35D00D5C
:101C70009030D1002730D2004F085107860050081D
:101C8000523D87004308810741314408813D41317D
:101C90004508813D41314608813D0130D307003080
:101CA000D43DF72D21005F08E7005E08E6005D08DF
:101CB000E5005C08E4000030E3000030E2000030A2
:101CC000E1000030E000873161278D3101302200D2
:101CD000BE070030BF3D0030C03D0030C13D210097
:101CE000D301D4015408803AC30080304302031D5D
:101CF0007B2E183053020318080021005C08C30033
:101D00005D08C4005E08C5005F08C6000130C7005A
:101D10000030C8000030C9000030CA00530A942EB9
:101D2000C735C80DC90DCA0D890B902E4A08490444
:101D30004804470403199E2E01309F2E0030CB002B
:101D4000CC01CD01CE014B08C3054C08C4054D089C
:101D5000C5054E08C6055408D0005308CF00CF353E
:101D6000D00DCF35D00D9030D1002730D2004F08A4
:101D7000510786005008523D8700430881024131D7
:101D80004408813B41314508813B41314608813B54
:101D90007D310130D3070030D43D722EA2302100B6
:101DA000A6002608B30021002108A7002008A600ED
:101DB000A00A0319A10A2608840027088500000844
:101DC000A8002808B4003408031908002530340698
:101DD0000319EF2E3408AF31D4278E31D32E2100D2
:101DE000B201F62E3216F62E3217132F2108A70055
:101DF0002008A600A00A0319A10A260884002708C3
:101E000085000008B400003A0319FF2F643A031953
:101E1000132F0D3A0319132F053A0319F22E193A0D
:101E20000319F42ED32E321B4A2F321E242F3308CF
:101E300086008701403FAE00413FAF00423FB00007
:101E4000433FB1000430352F330886008701403FFF
:101E5000A600413FA7002608AE002708AF00890D65
:101E6000893B8909B000B1000230A6002608B307FB
:101E7000B11F6A2F0330A6002608B204AE09AF09CD
:101E8000B009B109AE0A0319AF0A0319B00A031960
:101E9000B10A6A2F321E592F330886008701403F4E
:101EA000AE00413FAF00423FB000433FB1000430BD
:101EB000672F330886008701403FA600413FA700F7
:101EC0002608AE002708AF00B001B1010230A6001D
:101ED0002608B307B401B40A0A30340603199D2F4B
:101EE0003408A600A701A635A70DA635A70D00301A
:101EF00026078400A830273D8500003FA800013F49
:101F0000A900023FAA00033FAB002B083102031DCA
:101F1000932F2A083002031D932F29082F02031D37
:101F2000932F28082E02031C9D2F0130A60026089F
:101F3000B4070A303406031D702F32080339031921
:101F4000A52F2D30AF31D4278E3121003408AC00BD
:101F5000AD01AC1BAD03FF302100AC07FF30AD3D40
:101F60002C0A03192D0A0319D32E00302000C200B9
:101F70000030C1000030C0000A30BF0021002D0831
:101F800085002C0884008435850D8435850D00304E
:101F90008407A830853D003F2000B100013FB2001A
:101FA000023FB300033FB400210031082000B80015
:101FB000210030082000B70021002F082000B600C3
:101FC00021002E082000B5009D3163258E312000B0
:101FD0003408C6003308C5003208C4003108C30005
:101FE000993146218E3120003F08303E2100A60065
:101FF0002608B4003408AF31D4278E31AB2F080047
:102000000034003410340034203400342E340034D2
:102010003C34003448340034533400345B340034EE
:10202000613400346534003466340034653400347F
:10203000613400345B3400345334003448340034A9
:102040003C3400342E340034203400341034003456
:1020500000340034F0340034E0340034D23400343E
:10206000C4340034B8340034AD340034A534003402
:102070009F3400349B3400349A3400349B34003451
:102080009F340034A5340034AD340034B834003407
:10209000C4340034D2340034E0340034F03400343A
:1020A0000034003410340034203400342E34003432
:1020B0003C34003448340034533400345B3400344E
:1020C00061340034653400346634003465340034DF
:1020D000613400345B340034533400344834003409
:1020E0003C3400342E3400342034003410340034B6
:1020F00000340034F0340034E0340034D23400349E
:10210000C4340034B8340034AD340034A534003461
:102110009F3400349B3400349A3400349B340034B0
:102120009F340034A5340034AD340034B834003466
:10213000C4340034D2340034E0340034F034003499
:102140000034003410340034203400342E34003491
:102150003C34003448340034533400345B340034AD
:10216000613400346534003466340034653400343E
:10217000613400345B340034533400344834003468
:102180003C3400342E340034203400341034003415
:1021900000340034F0340034E0340034D2340034FD
:1021A000C4340034B8340034AD340034A5340034C1
:1021B0009F3400349B3400349A3400349B34003410
:1021C0009F340034A5340034AD340034B8340034C6
:1021D000C4340034D2340034E0340034F0340034F9
:1021E000003400340034003410340034203400341F
:1021F0002E3400343C34003448340034533400343A
:102200005B340034613400346534003466340034A7
:1022100065340034613400345B34003453340034AA
:10222000483400343C3400342E340034203400343C
:102230001034003400340034F0340034E03400341E
:10224000D2340034C4340034B8340034AD340034F3
:10225000A53400349F3400349B3400349A34003465
:102260009B3400349F340034A5340034AD34003442
:10227000B8340034C4340034D2340034E034003490
:10228000F03400340034003410340034203400348E
:102290002E3400343C340034483400345334003499
:1022A0005B34003461340034653400346634003407
:1022B00065340034613400345B340034533400340A
:1022C000483400343C3400342E340034203400349C
:1022D0001034003400340034F0340034E03400347E
:1022E000D2340034C4340034B8340034AD34003453
:1022F000A53400349F3400349B3400349A340034C5
:102300009B3400349F340034A5340034AD340034A1
:10231000B8340034C4340034D2340034E0340034EF
:10232000F0340034003400341034003420340034ED
:102330002E3400343C3400344834003453340034F8
:102340005B34003461340034653400346634003466
:1023500065340034613400345B3400345334003469
:10236000483400343C3400342E34003420340034FB
:102370001034003400340034F0340034E0340034DD
:10238000D2340034C4340034B8340034AD340034B2
:10239000A53400349F3400349B3400349A34003424
:1023A0009B3400349F340034A5340034AD34003401
:1023B000B8340034C4340034D2340034E03400344F
:1023C000F0340034003400340530080021004D089A
:1023D000AA004E08AB004F08AC004D08C5004E08DF
:1023E000C6004F08C7009D311125913121004508D5
:1023F0002000C600210046082000C7002100470831
:102400002000C800A031972091312000460821000B
:10241000AD00200047082100AE0020004808210040
:10242000AF008C31A824913121002A08D0002B085C
:10243000D1002C08D2005008AA005108AB00520865
:10244000AC004D08AD004E08AE004F08AF008C3117
:10245000A824913121002A08CD002B08CE002C0899
:10246000CF004D08C5004E08C6004F08C7009D317B
:10247000112521004508CD004608CE004708CF00B1
:10248000080021003608803A2000C9008030490247
:10249000031D4D2A1830210035020318A72A2100F8
:1024A000370838040319772A01302000C9000030AA
:1024B000CA000030CB000030CC002100350A2000DB
:1024C000652AC935CA0DCB0DCC0D890B612A490887
:1024D0002100D80420004A082100D90420004B081C
:1024E0002100DA0420004C082100DB049D2A013081
:1024F0002000C9000030CA000030CB000030CC0002
:102500002100350A2000882AC935CA0DCB0DCC0D13
:10251000890B842AC909CA09CB09CC0949082100B9
:10252000D80520004A082100D90520004B082100C9
:10253000DA0520004C082100DB054630A000B03051
:10254000A1008E31CE262100B501B6010800493028
:102550002100A000B030A1008E31CE260130210034
:10256000B5000030B60008002000C901CA014A08C1
:10257000803A2100B70080303702031DC22A18308C
:102580002000490203181E2B21005C08B7005D08DB
:10259000B8005E08B9005F08BA000130BB00003027
:1025A000BC000030BD000030BE002000490A210000
:1025B000DD2ABB35BC0DBD0DBE0D890BD92A3B08EC
:1025C000B7053C08B8053D08B9053E08BA053A0804
:1025D00039043804370403190C2B20004A08210061
:1025E000B800200049082100B700B735B80DB7354D
:1025F000B80D9030B9002730BA0037083907BB0052
:1026000038083A3DBC003B0886003C088700003093
:10261000C03FC13FC23FC33F01302000C907003067
:10262000CA3D4A08803A2100B70080303702031DB6
:102630001C2B183020004902031CC42A46302100FC
:10264000A000B030A1008E31CE262100B501B60128
:10265000080056308400B03085000008A0316220A8
:10266000933156308400B030850000089A31EF2253
:10267000933104302100D5003D30890B3D2BD50B23
:102680003D2B0032A031DA20933104302100D500F7
:102690003D30890B492BD50B492B00322000C90155
:1026A0000230A431A824933104302100D5003D30FC
:1026B000890B582BD50B582B003223005E08383875
:1026C0002100D50055082000C9000130A431A824FC
:1026D000933104302100D5003D30890B6D2BD50B93
:1026E0006D2B0032230060082100D5005508200022
:1026F000C9000230A431A824933104302100D50050
:102700003D30890B812BD50B812B003221006F08C6
:10271000D4006E08D30095317E25933121006F08D7
:10272000D4006E08D3008831C3209331EE302100ED
:10273000A000A830A1008E31CE2608002100580844
:10274000B9005908BA005A08BB005B08BC00013048
:10275000BD000030BE000030BF000030C000350AB0
:10276000B52BBD35BE0DBF0DC00D890BB12B3D087E
:10277000B9053E08BA053F08BB054008BC053C0842
:102780003B043A0439040319082C370838040319A8
:10279000E22B0130B9000030BA000030BB0000303D
:1027A000BC00350AD72BB935BA0DBB0DBC0D890B52
:1027B000D32B3908DC043A08DD043B08DE043C086E
:1027C000DF04FE2B0130B9000030BA000030BB003E
:1027D0000030BC00350AF02BB935BA0DBB0DBC0D6D
:1027E000890BEC2BB909BA09BB09BC093908DC050E
:1027F0003A08DD053B08DE053C08DF054630A00051
:10280000B030A1008E31CE262100B501B6010800FE
:102810004930A000B030A1008E31CE260130210019
:10282000B5000030B600080021004A034B0403192C
:10283000282C22004D082100D30022004C08210042
:10284000D20022004B082100D10022004A08362C79
:10285000220051082100D300220050082100D2009C
:1028600022004F082100D10022004E082100D00094
:1028700001302000C4000030C50021004B082000BA
:10288000C70021004A082000C60088312B2094315F
:1028900021004B08C7004A08C600A53167259431BE
:1028A00021004708CF004608CE00D31B662C5308F2
:1028B000031D642C5208031D642C5108031D642C55
:1028C00001305002031C662C0130672C0030CC0014
:1028D000CD014C082000C40021004D082000C50097
:1028E00021004B082000C70021004A082000C60034
:1028F00088312B209431073021004E064F040319F4
:10290000832C0130842C0030CC00CD014C08CA004F
:102910004D08CB0008002100580860052200D600B1
:102920002100590861052200D70021005A086205DC
:102930002200D80021005B0863052200D900210095
:1029400060092000B100210061092000B2002100CF
:1029500062092000B300210063092000B4002100B7
:102960005808200031052200DA0021005908200013
:1029700032052200DB0021005A0820003305220026
:10298000DC0021005B08200034052200DD0021006E
:10299000580864052200DE00210059086505220060
:1029A000DF0021005A0866052200E00021005B08D4
:1029B00067052200E100210064092000B100210028
:1029C00065092000B200210066092000B300210043
:1029D00067092000B40021005808200031052200BA
:1029E000D20021005908200032052200D300210026
:1029F0005A08200033052200D40021005B08200083
:102A000034052200D5000800A23113229531A330ED
:102A10002200EE005530890B0B2DEE0B0B2D8B1782
:102A20000B173D302100A000A930A1008E31CE2629
:102A300095318A31EB229531242D8D31AC2595319C
:102A4000242D8031EE209531200056080319502D99
:102A5000A331992395312200EE0020005208C53E93
:102A600086000130870022006E0881002000520895
:102A7000C53E8600013087000A300106031D4B2D3C
:102A80005208C53E860001308700810101302200D6
:102A9000E4000030E50001302000D2070030D33DD3
:102AA0002200640865040319682DB030EE006E083A
:102AB0002000C500C5308531902595312200E40104
:102AC000E5012000D201D301B03083319E2395313E
:102AD00022006908803AEE0080306E02031D722DDC
:102AE000013068020318242D20005508013A03190B
:102AF0001D2D033A0319212D242D242D0B302000E8
:102B0000CD004D082400A00001302300DC0000307F
:102B1000DD005D08803A2000CD0080304D02031DAD
:102B2000942D283023005C0203180800210054086B
:102B30002000B400210053082000B30023005D08EA
:102B40002000B20023005C082000B100A231C7229F
:102B5000953120003208BA003108B9002830B7009A
:102B60000030B8009C31BF24953120003808C100E6
:102B70003708C000A4311B249531200040082100F3
:102B8000CD00200041082100CE0020004208210095
:102B9000CF009131E621953121004D082300D90065
:102BA00021004E082300DA0021004F082300DB003B
:102BB00059082100B70023005A082100B80023005B
:102BC0005B082100B900973179279531210037083A
:102BD0002000CD0023005C08203E860002308700E4
:102BE00020004D08810001302300DC070030DD3D6E
:102BF000892D22008E14FF302000C700FF30C60050
:102C0000FF30C500FF30C400210038082000C90093
:102C1000210037082000C800A331FA239531003085
:102C20002000BC00BD000030BE00BF002100350800
:102C3000B90039082000C000210038082000C20077
:102C4000210037082000C100A2312B22953122003B
:102C50008E1017302100BA000030BB00BB1B6E2E57
:102C600022000C15003222000C1121003703380419
:102C7000031D4B2E20000E1B3F2E8E1D4B2E3C3075
:102C80002100A000B030A1003B08A3003A08A20038
:102C90008E31CE269531173021003A063B04031DB4
:102CA000672E22008E1400302000C7000030C600BE
:102CB0000030C5000030C400210038082000C900E1
:102CC000210037082000C800A331FA239531FF30D6
:102CD0002100BA07FF30BB3DBB1F302E6330A00080
:102CE000A830A1008E31CE26080022008E102100CF
:102CF00037033804031DAC2E0130B9000030BA0090
:102D00000030BB000030BC00350A8A2EB935BA0D40
:102D1000BB0DBC0D890B862E39082200C60621008A
:102D20003A082200C70621003B082200C8062100FD
:102D30003C082200C90649082000C70022004808B4
:102D40002000C600220047082000C50022004608D7
:102D50002000C4000130E12E023021003706380483
:102D6000031DE72E0130B9000030BA000030BB006F
:102D70000030BC00350AC02EB935BA0DBB0DBC0DF4
:102D8000890BBC2E39082200C20621003A08220015
:102D9000C30621003B082200C40621003C08220093
:102DA000C50645082000C700220044082000C600D0
:102DB000220043082000C500220042082000C40071
:102DC0000230C8000030C900A331FA2396314630E2
:102DD0002100A000B030A1008E31CE262100B50127
:102DE000B601080000302100C3000030C2000030EE
:102DF000C1000030C00035033604031D022F22003D
:102E00000D12042F22000E1017302100C4000030D4
:102E1000C500C51B5E2F22000C15210035033604AA
:102E2000031D312F20000E0E890C890C0139210061
:102E3000B900BA01440A1E2FB935BA0D890B1C2FEF
:102E40003908BB003A08BC000030BC1BFF30BD0095
:102E5000BE003B08C0043C08C1043D08C2043E0853
:102E6000502F20000E0C2100B900B90C390C01398B
:102E7000BA00BB01440A3E2FBA35BB0D890B3C2F6B
:102E80003A08BC003B08BD000030BD1BFF30BE004F
:102E9000BF003C08C0043D08C1043E08C2043F080E
:102EA000C30422000C110830890B542F0000FF309E
:102EB0002100C407FF30C53DC51F0B2F22000C1198
:102EC0000F302100A000A930A1004308A50042084E
:102ED000A4004108A3004008A2008E31CE262100A4
:102EE0004308B8004208B7004108B6004008B500E2
:102EF000080021003708BB003808BC003908BD00B5
:102F000003103C0D3D0DBE003E08C4004408031DE7
:102F1000922F0030BA000030B9000030B800003005
:102F2000B70008003708BB003808BC003908BD00EE
:102F30001730BD36BC0CBB0C890B992F3B08BE006B
:102F40003E08BF00B817FF30B705FF30B8050030A6
:102F5000B9053708C0003808C1003908C200C301EC
:102F60008E30C402C41FD02F4408803A8F3E03180D
:102F7000C22F0030BA000030B9000030B800003075
:102F8000B70008000130C336C20CC10CC00C890B5D
:102F9000C32F0130BB003B08C4070319E92FC22F20
:102FA00018304402031CE62F0030BA000030B9008C
:102FB0000030B8000030B70008000130C035C10D46
:102FC000C20DC30D890BDE2F0130C4024408031D5E
:102FD000DD2F3F080319F72FC009C109C209C30932
:102FE000C00A0319C10A0319C20A0319C30A430814
:102FF000BA004208B9004108B8004008B70008000C
:103000000B340034103420342E343C3448345334E0
:103010005B34613465346634653461345B34533415
:1030200048343C342E34203410340034F034E0344E
:10303000D234C434B834AD34A5349F349B349A347C
:103040009B349F34A534AD34B834C434D234E03426
:10305000F0340034103420342E343C3448345334AB
:103060005B34613465346634653461345B345334C5
:1030700048343C342E34203410340034F034E034FE
:10308000D234C434B834AD34A5349F349B349A342C
:103090009B349F34A534AD34B834C434D234E034D6
:1030A000F0340034103420342E343C34483453345B
:1030B0005B34613465346634653461345B34533475
:1030C00048343C342E34203410340034F034E034AE
:1030D000D234C434B834AD34A5349F349B349A34DC
:1030E0009B349F34A534AD34B834C434D234E03486
:1030F000F03400340B340034103420342E343C349B
:10310000483453345B346134653466346534613437
:103110005B34533448343C342E342034103400347F
:10312000F034E034D234C434B834AD34A5349F34F0
:103130009B349A349B349F34A534AD34B834C434B2
:10314000D234E034F0340034103420342E343C34A3
:10315000483453345B3461346534663465346134E7
:103160005B34533448343C342E342034103400342F
:10317000F034E034D234C434B834AD34A5349F34A0
:103180009B349A349B349F34A534AD34B834C43462
:10319000D234E034F0340034103420342E343C3453
:1031A000483453345B346134653466346534613497
:1031B0005B34533448343C342E34203410340034DF
:1031C000F034E034D234C434B834AD34A5349F3450
:1031D0009B349A349B349F34A534AD34B834C43412
:1031E000D234E034F03400340F3020009E009D01D2
:1031F0009110210091146A302000B1002030B200FB
:10320000A0317C204E3020009F000800AF313A27CB
:103210009931F000220022088600230887007008F8
:1032200081000130A2070030A33D0130A40200302C
:10323000A53B2408250403192129AF316127053056
:10324000080020152929AF3181270800AF317D27DB
:10325000080022003808F0007008F0000C30203E12
:10326000860001308700413F8A00403F0A009931C3
:10327000013A03192629033A03192329013A0319AC
:103280002329073A03192629262908002000420885
:10329000410440043F0403198029C801C80AC21B25
:1032A0005D290130BF35C00DC10DC20D890B5229FA
:1032B0000130C7004708C8074F2942084602031DCE
:1032C0006B2941084502031D6B2940084402031D78
:1032D0006B293F084302031C75293F08C3024008BD
:1032E000C43B4108C53B4208C63B0130C236C10C55
:1032F000C00CBF0C890B76290130C802031D5D2963
:103300004608C2004508C1004408C0004308BF0089
:1033100008002100B801B901A529B801B901B829EF
:1033200001309529023095290330B8000030B900EA
:10333000B8294930A000B030A1008E31CE2601302E
:103340002100B5000030B60008003608003A031925
:10335000AA2999293508003A03198D29013A031938
:103360009029033A03199229013A031994299929BA
:103370003808B70037082000C9000130A431A8245C
:10338000993146302100A000B030A1008E31CE2608
:103390002100B501B60108002000CB00CC014B3064
:1033A000B1000030B2000130B3000030B400A131F0
:1033B000E62199310030A43184249931003A03196F
:1033C000E929CB302100A000A830A1008E31CE2603
:1033D00099310830890BEA2900004C302000B100F7
:1033E0000030B2000130B3000030B400A131E6215A
:1033F00099310130A43184249931003A0319072A04
:10340000DD302100A000A830A1008E31CE262000A2
:103410004C08C900CA0149082100B50020004A082B
:103420002100B60008007E1C172A99310629AF3109
:1034300058279A312000B100220022088600230874
:10344000870020003108810001302200A2070030EF
:10345000A33D0130A4020030A53B24082504031934
:10346000352AAF3189270530080020153D2AA031C3
:103470005A200800A03152200800220038082000FD
:10348000B1003108B1000C30203E860001308700C9
:10349000413F8A00403F0A009A31013A03193A2A13
:1034A000033A0319372A013A0319372A073A03194D
:1034B0003A2A3A2A080073037404031D622A220080
:1034C0000D12642A22000E100F30F9000030FA00AD
:1034D000FA1B9B2A0C110130F5000030F600790A26
:1034E000732AF535F60D890B712A70087505F700FA
:1034F00071087605F800770878040319812A0E15FB
:10350000822A0E117208F500F6017A087606031D6C
:103510008B2A79087506031D942A73037404031D0E
:10352000932A0D16942A0E140C15FF30F907FF305C
:10353000FA3DFA1F6A2A0C1173037404031DA22AB0
:103540000D1208000E1008002000C4004408031DDE
:10355000AD2A5408C1004108C4004408031DB22A22
:10356000003008004008B9003F08B8004408A63100
:1035700049269A3120003808C1004108C407440890
:103580008600013087000108031DC92AD4010030DC
:1035900008004008B9003F08B8004408A6311926C1
:1035A0009A3120003808C1003908C2004408410798
:1035B000C3004308D4005408860001308700010886
:1035C0000319EC2A5408860001308700810101307C
:1035D000C1004108D407ED2AD401440808002000A6
:1035E000B500B401B40A2200A01808002000350874
:1035F000B30033082200A1002010A014A0110E3047
:103600002000B30033082200AA00F430A8000130E3
:10361000A9002015C230AC002F30AD00B801C23077
:10362000AE002F30AF00B901C230B0002F30B10072
:10363000BA01C230B2002F30B300BB01C830B400B1
:103640002F30B500BC01A031E4209A31AF315E27A4
:103650009A312E302000B1002F30B200A031A020CE
:103660009A31F1302000B1002430B200A031A920FD
:103670002000B401080017302100B7000030B80066
:10368000B81B7E2B3C30A000B030A1005C082000AD
:10369000C90021005D082000CA0021005E0820004A
:1036A000CB0021005F082000CC002100370A200059
:1036B0005E2B0310CC0CCB0CCA0CC90CFF3E031DB7
:1036C000592B013049052100A200003020004A0595
:1036D0002100A300003020004B052100A400003091
:1036E00020004C052100A5008E31CE269B31FF30F5
:1036F0002100B707FF30B83DB81F422B6330A00050
:10370000A830A1008E31CE262100B501B6010800F7
:1037100017302100B7000030B800B81BCB2B3C306D
:10372000A000B030A10058082000C90021005908AD
:103730002000CA0021005A082000CB0021005B08AD
:103740002000CC002100370A2000AB2B0310CC0C4A
:10375000CB0CCA0CC90CFF3E031DA62B013049053A
:103760002100A200003020004A052100A300003003
:1037700020004B052100A400003020004C05210052
:10378000A5008E31CE269B31FF302100B707FF30D8
:10379000B83DB81F8F2B6330A000A830A1008E3138
:1037A000CE262100B501B6010800A1311A219B31B6
:1037B0000318E42B012CAF3169270800AF316D27C6
:1037C0000800AF317527080022003B08F10071089E
:1037D000F0001230203E860001308700413F8A0011
:1037E000403F0A009B31013A0319E12B033A0319C8
:1037F000DB2B013A0319DE2B073A0319E12BE12BEE
:1038000008002200A0112308F2002208F100A20AF9
:103810000319A30A71088600720887000108AF31F6
:10382000A8279B3101302200A4020030A53B2408C8
:103830002504031D1D2C06301E2C0330F300003020
:10384000F40073080800210046082000C100210090
:1038500045082000C000A4311B249C3120004008F2
:10386000C9004108CA004208CB0040308400B03093
:103870008500003FC600013FC700023FC8008B31F2
:10388000BF239C31200046082100AD0020004708DE
:103890002100AE00200048082100AF000030AA003F
:1038A0008030AB00BF30AC008C31A8249C312100AB
:1038B0002A08B7002B08B8002C08B90097317927DF
:1038C0009C3121003708AF31B7279C3146302100A9
:1038D000A000B030A1008E31CE262100C501C60166
:1038E0000800210046082000C100210045082000F2
:1038F000C000A4311B249C3120004008C9004108AD
:10390000CA004208CB0043308400B0308500003F3D
:10391000C600013FC700023FC8008B31BF239C3166
:10392000200046082100AD00200047082100AE001D
:10393000200048082100AF000030AA008030AB0012
:10394000BF30AC008C31A8249C3121002A08B7007C
:103950002B08B8002C08B900973179279C31210039
:103960003708AF31B2279C3146302100A000B0307B
:10397000A1008E31CE262100C501C601080020001D
:10398000BD01B81FCA2CB709B809B70A0319B80A8C
:10399000BD01BD0ABA1FD52CB909BA09B90A031964
:1039A000BA0A0130BB003B08BD06BE01BF013708A3
:1039B00038040319042DBC01BC0AB81BE92C0130E2
:1039C000B735B80D890BE02C0130BB003B08BC07B4
:1039D000DD2C0130BE35BF0D890BEA2C38083A02C8
:1039E000031DF42C37083902031CFB2C3708B902DD
:1039F0003808BA3B3E140130B836B70C890BFC2CA2
:103A00000130BC02031DE92C3D0803190C2DBE0931
:103A1000BF09BE0A0319BF0A3F08B8003E08B70035
:103A20000800210045082000B100210046082000C0
:103A3000B200210047082000B300CB30CC004C0876
:103A4000B400A631E0269D312100CC1F2E2D003080
:103A5000C5000030C6000030C700080000304C022E
:103A6000153003194B02031808004508B700460833
:103A7000B8004708B900973179279D3121003A08ED
:103A80002000BC00210039082000BB0021003808BC
:103A90002000BA00210037082000B900A731842790
:103AA000200039082100C80020003A082100C90080
:103AB00020003B082100CA004808C5004908C6008C
:103AC0004A08C700080000302000BD000030BC00DC
:103AD0000030BB000030BA00340833043204310433
:103AE0000319AD2DBE01BE0AB41B822D0130B135C4
:103AF000B20DB30DB40D890B772D0130B900390823
:103B0000BE07742D0130BA35BB0DBC0DBD0D890B40
:103B1000832D34083802031D972D33083702031D07
:103B2000972D32083602031D972D31083502031CEC
:103B3000A22D3108B5023208B63B3308B73B340832
:103B4000B83B3A140130B436B30CB20CB10C890B4B
:103B5000A32D0130BE02031D822D3D08B4003C0898
:103B6000B3003B08B2003A08B1000800200034035B
:103B70003504031DBE2D22000D12C02D22000E1093
:103B80000F302000BA000030BB00BB1B012E22000A
:103B90000C1101302000B6000030B7003A0AD22DD7
:103BA000B635B70D890BD02D31083605B80032086F
:103BB0003705B900380839040319E12D22000E1524
:103BC000E32D22000E1120003308B600B7013B0898
:103BD0003706031DED2D3A083606031DF82D340374
:103BE0003504031DF62D22000D16F82D22000E14AB
:103BF00022000C15FF302000BA07FF30BB3DBB1F71
:103C0000C72D22000C11200034033504031D0B2E98
:103C100022000D12080022000E1008007E1C122E39
:103C20009B31D52BA13171219E310318212E3F2EBE
:103C3000AF31F8270800A03132200800A03142201F
:103C4000080022003B082000B2003208B100123008
:103C5000203E860001308700413F8A00403F0A0035
:103C60009E31013A03191E2E033A0319182E013A08
:103C700003191B2E073A03191E2E1E2E08002200C0
:103C8000A01123082000B300220022082000B20067
:103C90002200A20A0319A30A200032088600330872
:103CA00087000108AF31CE279E3101302200A402E7
:103CB0000030A53B24082504031D602E0630612E2C
:103CC00003302000B4000030B500340808002100A3
:103CD0004608EB004508EA006C092000CC002100F2
:103CE0006D092000CD00CC0A0319CD0A21006A0815
:103CF00020004C07C00021006B0820004D3DC10092
:103D0000A4311B249E3120004008C9004108CA008C
:103D10004208CB0043308400B0308500003FC6002D
:103D2000013FC700023FC8008B31BF239E312000F6
:103D300046082100AD00200047082100AE00200009
:103D400048082100AF000030AA008030AB00BF302F
:103D5000AC008C31A8249E3121002A08B7002B0822
:103D6000B8002C08B900973179279E312100370817
:103D7000AF31B2279E3146302100A000B030A10003
:103D80008E31CE262100C501C6010800200045085D
:103D9000803AC80080304802031DD02E40304402D3
:103DA000031CD72E3F302000C4000030C500200087
:103DB0004508C9004408C800480EF039C900C801C8
:103DC0004508CB004408CA000630CA35CB0D890B24
:103DD000E52E48084A04CC0049084B04CD004408AD
:103DE0004C042100A000200045084D042100A10042
:103DF000A201A11BA2032208A30020082000C800E2
:103E0000210021082000C900210022082000CA004A
:103E1000210023082000CB001030CB36CA0CC90C7F
:103E2000C80C890B0D2F4908BD004808BC002100B3
:103E300021082000BF00210020082000BE0007301C
:103E4000CC004C08C0004708C2004608C100A2319F
:103E50002B220800200034080319332F33083204C2
:103E60003104031D442F0030B1000030B200003097
:103E7000B30008000130B6003608B4070130B3368D
:103E8000B20CB10C890B3F2FFE30330503195D2FA7
:103E90003A2F0130B6003608B4070130B1070030C0
:103EA00003180130B207003003180130B3070130A6
:103EB000B336B20CB10C890B582FFF303305031900
:103EC0006A2F492F0130B4020130B135B20DB30D64
:103ED000890B652FB21B702F023034020318622F3A
:103EE0003418782FFF30B1057F30B205FF30B305AD
:103EF0000310B40C3408B600B701B8011030B63561
:103F0000B70DB80D890B7F2F3608B1043708B204FE
:103F10003808B304350803190800B3170800200057
:103F2000BE003E0886000130870020300106031DD8
:103F30009E2F0130B9003908BE07912F3E08860038
:103F400001308700093001060319992FBC01BD011A
:103F5000BB013E088600013087002D300106031D9D
:103F6000B62F0130B9003908BB07BE2F3E088600C6
:103F7000013087002B300106031DC22F0130B9002C
:103F80003908BE073E088600013087000108A131CC
:103F90008D219F31031CEB2F20003D08B2003C080F
:103FA000B1000A30B3000030B400A231C7229F3103
:103FB00020003E0886000130870001083107B90063
:103FC00032080318320ABA003908D03EBC00FF306C
:103FD0003A3DBD00BE2F20003B080319FB2F3C09D2
:103FE000B9003D09BA00B90A0319BA0A3908B7007D
:103FF0003A08B80008003D08B8003C08B7000800BF
:104000008331BA2B8331A62B8331CE2B8331E22B24
:104010008531752D8431FC2C8531192D8331ED2BA3
:104020008331F82B84310C2C8431202C8431342CB6
:104030008431482C84315C2C8431702C8431842C64
:104040008431A12C8431BE2C8431DB2C8531362D7A
:104050008531412D85314C2D8531572D8531622D8E
:1040600085316D2D7E1C3628AF316D2FAF314F2736
:10407000023008007E1C3E28AF31712FAF314F2730
:10408000013008007E1C4628AF31752FAF31522712
:10409000003008007E1C4E28AF31792FAF318927C0
:1040A000053008007E1C5628AF317D2FAF318D279B
:1040B0000A3008007E1C5E28AF31812FAF318D277A
:1040C000093008002000B2003208B1003108220097
:1040D000A100080022008E14AF312527A031003046
:1040E000AF319E270800200032082300E70020009F
:1040F00031082300E6000800200032082300E50014
:10410000200031082300E4000800200032082300CA
:10411000E300200031082300E20008007E1C922802
:10412000AF31AD2F22002010AB010E30080020006F
:10413000480847044604031908008030C8060800F0
:10414000200032082100E900200031082100E800A9
:104150000800200032082200EB0020003108220075
:10416000EA0008002200E801E901AF312827A03168
:104170000030AF31A32708006230320099009B0164
:104180009D0103309F0020309E0008007E1CCA283D
:10419000AF31BC2F2200A011AF31552704300800E9
:1041A0002100110C2000B100B10C310C0139B2001A
:1041B000320C080080302100B50035082000C9000D
:1041C0000230A431A82408002400951A08009401A4
:1041D0002830950096010330920008007E1CF228DA
:1041E000AF31DA2FAF311F2722002010AB010E3084
:1041F00008007E1CFD28AF31E12F2200A0152135DB
:10420000AF31CE27033008002000911908002000AC
:10421000911908000830890B0B290000072922009A
:10422000201C08000030A1310421A131A431F12467
:10423000A1310F2924001608BF3940389600160E08
:10424000890C890C0139F000700C08007E1C2A29A9
:10425000AF31E82F2200A0150314210DAF31CE2776
:10426000053008006400800101310130FE02003099
:10427000FF3B7F087E04031900343329FE0012003F
:104280001E000130FE020030FF3B7F087E04031950
:1042900000343F29200090122300660867040319A8
:1042A000080067088A0066080A00A131080020009B
:1042B00091102300640865040319080065088A004A
:1042C00064080A00A131080020009210230062084F
:1042D00063040319080063088A0062080A00A13118
:1042E000080024001608BF3940389600160E890CC5
:1042F000890C01392000B100310C0800210036087A
:10430000ED003508EC004630A000B030A1008E3141
:10431000CE262100B501B60108002000B200B1018F
:104320003A30320203189A2930303202031C9A299B
:10433000B101B10A310C08002000B2007B3032021A
:104340000318AA2961303202031CAA29DF30B10008
:104350003108B20532080800F330280096009501B4
:104360002000921021009214B2302000B1002030C1
:10437000B200A03185207F3028009700080021007E
:1043800036082200ED00210035082200EC004630FE
:104390002100A000B030A1008E31CE262100B50151
:1043A000B601080058302000980061309600950151
:1043B00090122100901616302000B1002730B20074
:1043C000A031732089302000970008002200201DB2
:1043D0000800200032082200A3002000310822003B
:1043E000A200200034082200A5002000330822008B
:1043F000A4002011080020002108F1002008F0008E
:10440000A5313E25A13120002308F1002208F0004B
:104410002408FB007B08F2002608F4002508F300BE
:104420009A315B220800AF31F027A231A6317926FC
:10443000A231A031BC20A231AF318527A231A131F8
:10444000AC21A2319831F420A231A131D221A23184
:10445000A2315C22080020003D08B2003C08B100F7
:10446000A531E925A23120003F08B2003E08B10085
:104470004008C3004308B3004208B5004108B40037
:104480009D31B62508002000BA003A0803194C2ACD
:104490002030B1000230502AA0302000B10002309C
:1044A000B2002830B3000030B400A131E621A231BF
:1044B0000030A43184240800210091121112083028
:1044C00023009F0090309D0024309E0019309B00F7
:1044D0009C01FD012000D9010830B1003108DE0047
:1044E000D801D701D601210091160800200031081B
:1044F00084003208850000083306031908003208DA
:10450000B6003108B500B10A0319B20A35088400B3
:10451000360885001200031D762AB101B201080099
:104520002000D501D50A210035082200BE00210057
:1045300036082200BF00890D893B8909C000C100EF
:1045400046302100A000B030A1008E31CE262100DF
:10455000B501B601080023009D1CB02A1D121D16CE
:104560001908F00020005808A03E8600013087009E
:10457000700881000130F0007008D8070830580238
:104580000318D8010130F0007008D6070800200099
:10459000B501B601311CD02A3308B5073408B63D41
:1045A0000130B335B40D890BD12A0130B236B10CCC
:1045B000890BD62A31083204031DCA2A3608B200F4
:1045C0003508B100080002302000C9004908D500B4
:1045D000210035082000CE00210036082000CF0041
:1045E000890D893B8909D000D10046302100A00007
:1045F000B030A1008E31CE262100B501B6010800F1
:10460000083020005E0203181B2B5908A83E8600C4
:1046100001308700010823009A000130F000700883
:104620002000D907083059020318D9010130F000E1
:104630007008DE070800210011120800210036086A
:104640002000C500210035082000C40021003808E2
:104650002000C700210037082000C60088312B2029
:10466000A33146302100A000B030A1008E31CE260B
:104670002100B501B6010800210036082000C50060
:10468000210035082000C400210038082000C700A0
:10469000210037082000C6009E31C626A3314630CF
:1046A0002100A000B030A1008E31CE262100B5013E
:1046B000B601080021005608EF005508EE006F080B
:1046C000D4006E08D30095317E25A33121006F08F8
:1046D000D4006E08D3008831C320A33146302100B6
:1046E000A000B030A1008E31CE262100D501D60128
:1046F0000800AF314027A3312200A01D892BA13132
:104700001A21A331031C892B0F30F50075082200F4
:10471000AA0022002A35483E860002308700413F29
:104720008A00403F0A00A331F50075082200AA0064
:1047300008002000B201560803199B2B5708A03E21
:104740008600013087000108B1003108B200013055
:10475000B1003108D707083057020318D7012100EC
:10476000911201302000D60221009116200032085B
:1047700008008E34203426342134F93420340E34A9
:104780001E3413341A34C6342034BA342534F83481
:104790002F34323420343A342034423420344A34F2
:1047A0002034523420345A342034EE34203400344F
:1047B000083420002708AD002808AE002908AF0003
:1047C0002A08B0001030B036AF0CAE0CAD0C890B1F
:1047D000E32B2E08A1002D08A0002808A30027081D
:1047E000A200A401A40A2C08A6002B08A500A13150
:1047F000FB21080020004408CA004508CB004608F9
:10480000CC004708CD001030CD36CC0CCB0CCA0CF8
:10481000890B042C4B08BD004A08BC004508BF00AA
:104820004408BE00C001C00A4908C2004808C100CF
:10483000A2312B2208002000C501C11F262CC0096F
:10484000C109C00A0319C10AC501C50A4008B1005F
:104850004108B200B3018E30C3004308B4004508DC
:10486000C4004408B5009F312A2720003108C00049
:104870003208C1003308C2000800562C4F30210016
:10488000A000B030A1008E31CE26080046302100B5
:10489000A000B030A1008E31CE2608004C3021009F
:1048A000A000B030A1008E31CE26080020005508AF
:1048B000013A03193E2C033A0319462C4E2C0800EA
:1048C0002200A0110230F0007008AB006D2CAF3157
:1048D00071270800AF317527080022003A08F00060
:1048E0007008F0001030203E860001308700413F04
:1048F0008A00403F0A00A431023A0319672C013AAA
:104900000319672C6A2C08002000B800B901B90A05
:1049100022002018A52C20142000B9013808031902
:10492000952C2200AA01AA0A9B2C02302000B70075
:1049300037082200AA00AF314C27A431A031D02083
:10494000A4310318A52CA1310F212000390808003B
:104950002000CB004B08CA004A08CC004908CA0016
:104960004A08CD004C30B1000030B2000230B30034
:104970000030B400A131E621A4310030A4318424F8
:10498000A431003A03190800CB302100A000A83060
:10499000A1008E31CE2608002000B2005E08031967
:1049A000CE2C2100111AD92C2000320823009A00A5
:1049B000EE2C111220003208B1007D08A83E8600BE
:1049C00001308700310881000130B1003108FD0756
:1049D00008307D020318FD010130DE0221001116AE
:1049E00008007E1CF52CA331792BAF315E27A43152
:1049F0002200A01D062DA1317121A431031C062D1A
:104A00000F302000B60036082200AA0022002A3506
:104A1000483E860002308700413F8A00403F0A003E
:104A2000A5312000B60036082200AA0008002000A8
:104A3000D50100302100E7000030E6000030E5003D
:104A40000030E4000030E3000030E2000030E1001C
:104A50000030E00000302200C1000030C000003013
:104A6000BF000030BE0046302100A000B030A100E1
:104A70008E31CE262100B501B601080022000D12AC
:104A80000F30F6000030F700F71B652D0C110130D8
:104A9000F2000030F300760A4F2DF235F30D890B4A
:104AA0004D2D70087205F40071087305F500740847
:104AB000750403195D2D0E155E2D0E110C15FF30BA
:104AC000F607FF30F73DF71F462D0C1108002200B6
:104AD0008E1400302000BC00BD000030BE00BF00BE
:104AE0000530C9004908C000210047082000C20065
:104AF000210046082000C100A2312B22A53121004F
:104B00004708B6004608B5009631F226210038085D
:104B1000C9003708C8003608C7003508C6000800B5
:104B2000220020159D2DAF3171270800AF313D27A0
:104B300003300800AF317527080022003808F00064
:104B40007008F0000C30203E860001308700413FA5
:104B50008A00403F0A00A531013A03199A2D033A11
:104B60000319932D013A0319932D073A0319962D32
:104B70009A2D08007E1CBE2DA531902D22002015F7
:104B8000CB2DA0313A200800AF315B27033008005D
:104B9000A03142200800220038082000B10031086E
:104BA000B1000C30203E860001308700413F8A0072
:104BB000403F0A00A531013A0319C82D033A0319F1
:104BC000C12D013A0319C12D073A0319C42DC82D6F
:104BD000080022000D120F302000B7000030B8008E
:104BE000B81B162E22000C1101302000B30000303B
:104BF000B400370AFD2DB335B40D890BFB2D3108F8
:104C00003305B50032083405B600350836040319FB
:104C10000C2E22000E150E2E22000E110C15FF3048
:104C20002000B707FF30B83DB81FF22D22000C114D
:104C300008002000BE00BC01BD01262E0130BA00D4
:104C40003A08BE070130BC070030BD3D3E08860073
:104C50000130870001080319442E3908B2003808D2
:104C6000B1003E088600013087000108BA00BB0190
:104C70003A08B3003B08B400A2317622A6312000E6
:104C80003108320403191E2E3D08B9003C08B80053
:104C900008002000BE00BC01BD01562E0130BA0044
:104CA0003A08BE070130BC070030BD3D3E08860013
:104CB0000130870001080319742E3908B200380842
:104CC000B1003E088600013087000108BA00BB0130
:104CD0003A08B3003B08B400A2317622A631200086
:104CE00031083204031D4E2E3D08B9003C08B800BF
:104CF000080022008C018D018E01333021008C00D0
:104D000060308D00F8308E0023008E018D018C0103
:104D100024008D018C01C8308E0025008C018D018E
:104D20008E013C002108E0390D38A1002008E0394F
:104D30000E38A0002408E0391738A4003D001F08F1
:104D4000E03914389F001E08E03918389E001D080D
:104D5000E03919389D0008002000B800B72E013056
:104D6000B5003508B8070130B3070030B43D33084B
:104D70008400340885000008A1319C21A631FF3A47
:104D8000013E2000B5003808860001308700010888
:104D9000A1319C21A63120003507B6003608B700A6
:104DA0003708031DDA2E3808860001308700010815
:104DB000031DAF2E3708B300B401B31BB4030800C2
:104DC0002000330832043104031DED2E3408860020
:104DD00087010030C03FC13F080033087F39B5006C
:104DE000B601B535B60D3408860087013508C03FD9
:104DF0003608C13F320D320D0139B500B601340815
:104E00008600870135088104413136088104340861
:104E100086008701823081074131FF30813D7F313B
:104E2000330880393F38B300B2130800220061080C
:104E30002000AA00220060082000A90022005F08CC
:104E40002000A80022005E082000A7000130AB006F
:104E50000030AC00A331D923A7312200550820002F
:104E6000AA00220054082000A900220053082000B4
:104E7000A800220052082000A7000230AB0000303A
:104E8000AC00A331D923A73122008E10AF312227E5
:104E9000A7310030AF31992708002100BA01BB01CA
:104EA00005302000B7000030B8002100380820008D
:104EB000BA00210037082000B9009C31BF24A73177
:104EC00021003B08803AB90020003808803A2100D0
:104ED0003902031D6F2F2000370821003A02031802
:104EE000080021003508B90039082000C9000B303E
:104EF000A431A824A7310032003200000130210083
:104F0000BA070030BB3D502F2000C0018E30BD00DD
:104F10003D08BF00BC1F992FB909BA09BB09BC09DC
:104F2000B90A0319BA0A0319BB0A0319BC0AC0015A
:104F3000C00AFF303C050319A92F0130BC36BB0C59
:104F4000BA0CB90C890B9E2F0130BD003D08BF077C
:104F5000992F3908B1003A08B2003B08B3003F0866
:104F6000BD003D08B4004008BE003E08B5009F31BA
:104F70002A2720003108B9003208BA003308BB00E4
:104F800008002100B61BFA2F3608803A2000C9001D
:104F900080304902031DCF2F18302100350203183D
:104FA000FA2F38302100A000B030A10036082000D0
:104FB000CA00210035082000C900C935CA0DC9350D
:104FC000CA0D9030CB002730CC0049084B07860033
:104FD0004A084C3D8700403F2100A200413FA3000A
:104FE000423FA400433FA5008E31CE262100B501EB
:104FF000B601080001302100B5000030B6000800FD
:1050000001340034003400340A34003400340034F5
:105010006434003400340034E834033400340034A1
:105020001034273400340034A03486340134003482
:10503000403442340F340034803496349834003491
:105040000034E134F53405340034CA349A343B3446
:105050000A34743465347334743469346E346734A8
:10506000203462346F34743474346F346D342034CB
:105070004C344534443420346434723469347634E6
:10508000653472342E342E342E340A3400340A340B
:105090002D342D342D342D34733474346134723402
:1050A000743469346E346734203463346F346D344F
:1050B0006D34203474346534733474342D342D34A9
:1050C0002D342D340A340A3400342D342D342D344B
:1050D0002D34663469346E3469347334683465341D
:1050E0006434203463346F346D346D34203474345C
:1050F0006534733474342D342D342D342D340A3406
:105100000034743465347334743469346E34673401
:10511000203474346F34703420344C344534443487
:1051200020346434723469347634653472342E3405
:105130002E342E3400340A347434653473347434A9
:1051400069346E34673420347034693465347A34A9
:105150006F34203464347234693476346534723494
:105160002E342E342E34003455344E3452344534DB
:1051700043344F3447344E3449345A34453444343C
:10518000203443344F344D344D3441344E34443460
:1051900021340A3400346434723476345F34773422
:1051A0007234693474346534203465347234723442
:1051B0006F34723421340A340034643472347634F7
:1051C0005F3472346534613464342034653472344D
:1051D00072346F34723421340A34003464347234DB
:1051E0007634203469346E3469347434693461340B
:1051F0006C3469347A34653464340A34003461348C
:10520000623473343A34203461346C346C34203476
:10521000743468346534723465340A34003472345A
:1052200065346134643420346434613474346134FA
:105230003A34203425346C3475340A340034F43470
:105240004A34483495349534C734C134DC34453459
:10525000DC346D34C334B3343334403468346534AF
:10526000613474346534723470346F34733474342C
:10527000743469346D34653400340A340A34733458
:1052800079347334743465346D34203464346F3459
:105290006E3465340A3400346834653461347434EF
:1052A00065347234703472346534743469346D34F6
:1052B0006534003474346F34673467346C34653467
:1052C0006834653461347434653472340034343491
:1052D000013448349D34B03445340034DA34423437
:1052E000003480343F347034693465347A346F3438
:1052F0006F346E34743469346D346534003468341A
:105300006534613474346534723431346F346634E6
:1053100066340034743469346D346534683465340B
:10532000613474346534723400340A340A347334AA
:1053300068346F347234743473343A342034003443
:1053400068346534613474346534723432346F34A3
:105350006E34003473346F346634743472346534AC
:1053600073346534743400344634413449344C3435
:10537000453444340A340A340034703461347334AC
:105380007334653464340A340A3400346434723457
:1053900076345034653461346B34003464347234A0
:1053A00076344734613469346E3400346C34653497
:1053B00064346734613469346E3400346D3473346A
:1053C0007434613474347534733400344634413485
:1053D00049344C34453444340A3400347034613434
:1053E00073347334653464340A34003464346F3491
:1053F0006D346F34763465340A3400346F3470346D
:0C54000065346E3473343A3420340034C8
:105E3C00080008000130080020009713080020001B
:105E4C001F1108002800171108002000111108006C
:105E5C00AF312B27080024009614080024001615D7
:105E6C0008002400961508002400110808002000E2
:105E7C0091150800200091110800200097170800C8
:105E8C0020001F1508002800171508002400161400
:105E9C00080024009614080024001615080024009D
:105EAC009615080024001108080020009115080020
:105EBC0020009111080024009612161608002400E8
:105ECC00961616160800AF31312701300800AF3195
:105EDC00312702300800AF31312701300800AF31D3
:105EEC00342700300800AF31612705300800AF318E
:105EFC0065270A300800AF316527093008001630D5
:105F0C0021009700080024009612161608002400A1
:105F1C00961616160800E8340334003400340134A5
:105F2C00003400340034F0007008200095000800A4
:105F3C00F000700820009D000800F0007008280098
:105F4C0095000800F0007008240091000800220061
:105F5C002010AB010E3008002000B1003108960073
:105F6C0008002000B10031089E0008002200A0119A
:105F7C00AF313727043008007E1CC62FAF31202FDD
:105F8C00013008007E1CCC2F9131E429053008002B
:105F9C002000B10031082400910008002000B3005B
:105FAC003308A431CC240800AF311E272200201066
:105FBC00AB010E3008002200A0152135AF31A82707
:105FCC00033008002200A0150314210DAF31A827BF
:105FDC000530080032009101920193019401950162
:105FEC00960108007E1CFC2FAF31692FAF314F2773
:105FFC000130080064346F346D346F34763465349A
:10600C0000346C3465346434703477347234003456
:10601C006734653474344134003473346534743407
:10602C00413400346734653474344D340034733483
:10603C00653474344D340034703469346E346734E0
:10604C00003463346F346D346D3400347234653421
:10605C006C340034613462347334003470346F3413
:10606C0073340034253464340A34003425346434F5
:10607C00203400340034C8343F340034C8343D3448
:10608C0041340A34003445340A3400344E340A3472
:10609C00003452340A3400343F3400347A3400343F
:0260AC00593465
:020000040001F9
:08000E00ECFFF3FFFFFFFFFF11
:00000001FF
