:1000000080315028053008007E14803120007F08A0
:10001000FC002100901E13282000901E1328A431FC
:100020003A2480314B280B1F4B282100111D222818
:100030002000111D222822006B088A006A080A008D
:1000400080314B282100911D2F282000911D2F2841
:10005000220069088A0068080A0080314B282100C4
:10006000911C39282000911C3928A4314724803163
:100070004B282100911E43282000911E4328A531C2
:10008000662580314B282100111E4B282000111EAF
:100090004B28A531BB257C082000FF007E100900FD
:1000A00080315228D2308400A23085005A30860038
:1000B000003087000030FF000430A4312E2480314E
:1000C00012308400A3308500E930860000308700BC
:1000D0000030FF000630A4312E2480312200873109
:1000E000FE278031EE008731FF278031EF00553049
:1000F0008400A63085002030860002308700003062
:10010000FF002030A4312E2480319030840027302D
:1001100085006030FE000030FF00A43122248031D1
:10012000FD014E308400003085000C30FE000030B0
:10013000FF00A43122248031D930840000308500B2
:100140001030FE000030FF00A43122248031203026
:100150008400013085004C30FE000030FF00A431E7
:1001600022248031A0308400013085003930FE0027
:100170000030FF00A43122247E1020009531492D4B
:1001800001302100C6000030C700C801C90149087C
:10019000803A2400C00080304002031DD22818306D
:1001A000210048020318582921005D082400C000DE
:1001B00021005E082400C10021005F082400C20065
:1001C000210060082400C3000130C4000030C500D5
:1001D0000030C6000030C7002100480A2400F4287F
:1001E000C435C50DC60DC70D890BF0284408C005E0
:1001F0004508C1054608C2054708C305430842042F
:100200004104400403194629210049082400C10083
:10021000210048082400C000C035C10DC035C10D03
:100220009030C2002730C3004008420786004108D2
:10023000433D8700403FC400413FC500423FC600E8
:10024000433FC7002000510824004706031D3829FA
:100250002000500824004606031D382920004F08BE
:1002600024004506031D382920004E0824004406BA
:10027000031D3C2901303D290030C800C901480850
:100280002100C605240049082100C70501302100CE
:10029000C8070030C93D4908803A2400C0008030BA
:1002A0004002031D5629183021004802031CD4289F
:1002B000210046084704031977293B30A000A930E4
:1002C000A1008631A1262000D50100302100E800E0
:1002D0000030E7000030E6000030E5000030E400C8
:1002E0000030E3000030E2000030E1000800CC0103
:1002F000CD014D08803A2400C00080304002031D2B
:100300008429183021004C020318BA2A21005D0804
:100310002400C00021005E082400C10021005F0805
:100320002400C200210060082400C30021004D0801
:100330002400C50021004C082400C400C435C50DAC
:10034000C435C50D9030C6002730C70044084607A5
:1003500086004508473D8700403FC800413FC9002F
:10036000423FCA00433FCB0020005108803A24009E
:10037000CC004B08803A4C022000031DCF292400FA
:100380004A0820005002031DCF29240049082000FC
:100390004F02031DCF292400480820004E020318F5
:1003A000D3290130D42900302400CD00CE01210012
:1003B0004C0A2400DD29CD35CE0D890BDB294D08F3
:1003C000CF004E08D0000030D01BFF30D100D2004B
:1003D0000130D3000030D4000030D5000030D6000A
:1003E00021004C0A2400F829D335D40DD50DD60DA3
:1003F000890BF4295308CF055408D0055508D105B9
:100400005608D2054F08C0055008C1055108C2055D
:100410005208C30540082100E504240041082100DA
:10042000E604240042082100E704240043082100D8
:10043000E8045D082400C00021005E082400C1001B
:1004400021005F082400C200210060082400C300CE
:1004500021004D082400C50021004C082400C400E0
:10046000C435C50DC435C50D9030C6002730C70052
:100470004408460786004508473D8700403FC800BE
:10048000413FC900423FCA00433FCB004B08803A7E
:10049000CC0020005108803A24004C02031D602A41
:1004A0002000500824004A02031D602A20004F0843
:1004B00024004902031D602A20004E08240048023F
:1004C0000318642A0130652A0030CD00CE012100D6
:1004D0004C0A24006D2ACD35CE0D890B6B2A4D08B0
:1004E000CF004E08D0000030D01BFF30D100D2002A
:1004F0000130D3000030D4000030D5000030D600E9
:1005000021004C0A2400882AD335D40DD50DD60DF0
:10051000890B842A5308CF055408D0055508D10506
:100520005608D2054F08C0055008C1055108C2053C
:100530005208C30540082100E104240041082100BD
:10054000E204240042082100E304240043082100BF
:10055000E4040130CC070030CD3D4D08803A240042
:10056000C00080304002031DB82A183021004C0220
:10057000031C86298931382180312100CA01CB0131
:100580004B08803A2400C00080304002031DCB2A73
:10059000183021004A0203180800210065082400D1
:1005A000C000210066082400C10021006708240063
:1005B000C200210068082400C3000130C4000030DC
:1005C000C5000030C6000030C70021004A0A2400E0
:1005D000ED2AC435C50DC60DC70D890BE92A44089F
:1005E000C0054508C1054608C2054708C3054308BC
:1005F0004204410440040319FF2A0130002B00305B
:10060000C800C901C809C909C80A0319C90A2100D3
:1006100061082400CA00210062082400CB002100E8
:1006200063082400CC00210064082400CD000130C0
:10063000CE000030CF000030D0000030D1002100CB
:100640004A0A2400272BCE35CF0DD00DD10D890BB2
:10065000232B4E08CA054F08CB055008CC0551087E
:10066000CD054D084C044B044A040319392B0130C5
:100670003A2B00304807D20049080318490AD30032
:100680005208D4005308D5000030D51BFF30D600E7
:10069000D70021004B082400D90021004A0824007B
:1006A000D800D835D90DD835D90D9030DA0027309B
:1006B000DB0058085A07860059085B3D870054083C
:1006C000810741315508813D41315608813D413115
:1006D0005708813D01302100CA070030CB3DC02AB8
:1006E0002100D40001302200E6000030E700FB2C9E
:1006F0002100540A860001308700403FB500413F89
:10070000B600A5314B25210036082200E700210064
:1007100035082200E60008002100540A8600013056
:100720008700403FB500413FB600A5319E2521001E
:1007300036082200E700210035082200E600080004
:100740002100540A860001308700403FB500413F38
:10075000B6009931C721210036082200E7002100A8
:1007600035082200E600080096319C262100360854
:100770002200E700210035082200E60008002100E1
:10078000540A860001308700403FB500413FB60063
:10079000A4319624210036082200E7002100350804
:1007A0002200E60008002100540A8600013087007C
:1007B000403FB500413FB6009A314922210036083A
:1007C0002200E700210035082200E6000800210091
:1007D000540A860001308700403FBD00413FBE0003
:1007E0009E31E72621003E082200E70021003D0857
:1007F0002200E60008002100540A8600013087002C
:10080000403FBD00413FBE009F31422721003E08CE
:100810002200E70021003D082200E6000800210038
:10082000540A860001308700403FBD00413FBE00B2
:100830009D31362521003E082200E70021003D08B9
:100840002200E60008002100540A860001308700DB
:10085000403FB500413FB60054080B3E86000130D2
:100860008700403FB700413FB800A531D92521009E
:1008700036082200E700210035082200E6000800C3
:100880002100540A860001308700403FB500413FF7
:10089000B60054080B3E860001308700403FB70089
:1008A000413FB800A531F725210036082200E700B6
:1008B000210035082200E60008002100540A8600C5
:1008C00001308700403FB500413FB60054080B3E61
:1008D000860001308700403FB700413FB8008931B2
:1008E000C121210036082200E7002100350822003E
:1008F000E60008002100540A860001308700403FCE
:10090000B500413FB60054080B3E86000130870019
:10091000403FB700413FB80097311127210036080A
:100920002200E700210035082200E600080021002F
:10093000540A860001308700403FB500413FB600B1
:1009400054080B3E860001308700403FB700413F0E
:10095000B80096312926210036082200E700210040
:1009600035082200E60008009B31AC232100360840
:100970002200E700210035082200E60008009B3134
:10098000F923210036082200E70021003508220063
:10099000E6000800A631D926210036082200E7002B
:1009A000210035082200E6000800893138212100A5
:1009B00040082200E70021003F082200E60008006E
:1009C0008A315422210052082200E70021005108F8
:1009D0002200E6000800E3302100A000A830A100BA
:1009E0008631A1260800CF302100A000A830A10048
:1009F0008631A126080021005408860001308700B6
:100A00000108FF3E031CF32C840015300402031878
:100A1000F32C98310435003E820008002000C70006
:100A2000C801C9012130BF00AA30C0004708933176
:100A3000CC2385312000C6004608CA004A080319A5
:100A4000080048084904031D722E4F30B300AA3035
:100A5000B4004A0899315421853120003308340408
:100A6000031D342D0230642E5330B300AA30B4007D
:100A70004A08993154218531200033083404031D7C
:100A8000482D45088600013087008101810A972E94
:100A90005730B300AA30B4004A0899315421853147
:100AA000200033083404031D572D0330642E5530C5
:100AB000B300AA30B4004A0899315421853120008E
:100AC00033083404031D662D0430642E3630B30021
:100AD000AA30B4004A0899315421853120003308E6
:100AE0003404031D752D0530642E4030B300AA3048
:100AF000B4004A0899315421853120003308340468
:100B0000031D842D0630642E7130B300AA30B4006A
:100B10004A08993154218531200033083404031DDB
:100B2000932D0730642EE330B300A930B4004A0897
:100B3000993154218531200033083404031DA22D3E
:100B40000830642EEB30B300A930B4004A08993164
:100B500054218531200033083404031DB12D0930A0
:100B6000642EAF30B300A930B4004A089931542143
:100B70008531200033083404031DC02D0A30642E53
:100B80008830B300A930B4004A0899315421853126
:100B9000200033083404031DCF2D0B30642E6A303F
:100BA000B300A930B4004A0899315421853120009E
:100BB00033083404031DDE2D0C30642EF330B300F3
:100BC000A930B4004A0899315421853120003308F6
:100BD0003404031DED2D0D30642E2A30B300AA30ED
:100BE000B4004A0899315421853120003308340477
:100BF000031DFC2D0E30642E9630B300A930B400D6
:100C00004A08993154218531200033083404031DEA
:100C10000B2E0F30642E3130B300AA30B4004A08D6
:100C2000993154218531200033083404031D1A2ED4
:100C30001030642E3B30B300AA30B4004A0899311A
:100C400054218531200033083404031D292E11302E
:100C5000642EFB30B300A930B4004A089931542106
:100C60008531200033083404031D382E1230642EE1
:100C70002330B300AA30B4004A0899315421853199
:100C8000200033083404031D472E1330642E4A30ED
:100C9000B300AA30B4004A089931542185312000AC
:100CA00033083404031D562E1430642E4530B3002F
:100CB000AA30B4004A089931542185312000330804
:100CC0003404031D6C2E1530C60045088600013023
:100CD000870046088100972E45088600013087006E
:100CE0008101972E48034904031D842E4A0895313B
:100CF000B82585312000450A860001308700370875
:100D0000C03F3808C13F972E023048064904031DF2
:100D1000972E4A089531B8258531200045080B3EAD
:100D20008600013087003708C03F3808C13F0130D6
:100D3000C8070030C93D2130BF00AA30C0000030D4
:100D4000172DA2302100A6002608B300210021089B
:100D5000A7002008A600A00A0319A10A26088400FB
:100D6000270885000008A8002808B40034080319E3
:100D70000800253034060319C22E3408A3310C2391
:100D80008631A62E2100B201C92E3216C92E321785
:100D9000E62E2108A7002008A600A00A0319A10A30
:100DA00026088400270885000008B400003A0319CB
:100DB000D22F643A0319E62E0D3A0319E62E053AAE
:100DC0000319C52E193A0319C72EA62E321B1D2F43
:100DD000321EF72E330886008701403FAE00413FA8
:100DE000AF00423FB000433FB1000430082F33084A
:100DF00086008701403FA600413FA7002608AE00BD
:100E00002708AF00890D893B8909B000B100023085
:100E1000A6002608B307B11F3D2F0330A600260801
:100E2000B204AE09AF09B009B109AE0A0319AF0A9D
:100E30000319B00A0319B10A3D2F321E2C2F3308B3
:100E400086008701403FAE00413FAF00423FB00007
:100E5000433FB10004303A2F330886008701403FFA
:100E6000A600413FA7002608AE002708AF00B0014A
:100E7000B1010230A6002608B307B401B40A0A3053
:100E800034060319702F3408A600A701A635A70D54
:100E9000A635A70D003026078400A830273D850021
:100EA000003FA800013FA900023FAA00033FAB009A
:100EB0002B083102031D662F2A083002031D662FFE
:100EC00029082F02031D662F28082E02031C702FED
:100ED0000130A6002608B4070A303406031D432F4C
:100EE000320803390319782F2D30A3310C238631B2
:100EF00021003408AC00AD01AC1BAD03FF30210074
:100F0000AC07FF30AD3D2C0A03192D0A0319A62E9C
:100F100000302000C2000030C1000030C0000A30A4
:100F2000BF0021002D0885002C0884008435850D24
:100F30008435850D00308407A830853D003F2000B2
:100F4000B100013FB200023FB300033FB4002100F3
:100F500031082000B800210030082000B70021002F
:100F60002F082000B60021002E082000B5009D317A
:100F70008825863120003408C6003308C5003208B1
:100F8000C4003108C3009A310622863120003F0890
:100F9000303E2100A6002608B4003408A3310C23FB
:100FA00086317E2F08007E1CD72FA631FC2E220012
:100FB000A01102302000B10031082200AB00E62F62
:100FC000A33146230800A3314E23080022003A082B
:100FD0002000B1003108B1001030203E8600013001
:100FE0008700413F8A00403F0A008731023A0319D7
:100FF000E02F013A0319E02FE32F08007F3400347B
:101000000800220061082000AA00220060082000D9
:10101000A90022005F082000A80022005E0820002E
:10102000A7000130AB000030AC00A6317526883136
:10103000220055082000AA00220054082000A90020
:10104000220053082000A800220052082000A70018
:101050000230AB000030AC00A6317526883122008A
:101060008E10A231692288310030A231D6220800C8
:10107000210049034A0403194C2822004D0821008D
:10108000D00022004C082100CF0022004B08210094
:10109000CE0022004A085A28220051082100D00020
:1010A000220050082100CF0022004F082100CE006E
:1010B00022004E082100CD0001302000C400003085
:1010C000C50021004A082000C7002100490820006F
:1010D000C6008B31F623883121004A08C600490832
:1010E000C500A7316827883121004608CC00450893
:1010F000CB00D01B8A285008031D88284F08031DE9
:1011000088284E08031D882801304D02031C8A28B8
:1011100001308B2800302000CC00CD014C08C400E9
:101120004D08C50021004A082000C70021004908D9
:101130002000C6008B31F6238831073021004B0692
:101140004C040319A5280130A62800302000CC004B
:10115000CD014C082100C90020004D082100CA0023
:10116000080021002F08B3003008B4003108B50092
:101170000310340D350DB6003608BC003C08031DC5
:10118000CA280030B2000030B1000030B00000309A
:10119000AF0008002F08B3003008B4003108B500D4
:1011A0001730B536B40CB30C890BD1283308B60010
:1011B0003608B700B017FF30AF05FF30B00500307C
:1011C000B1052F08B8003008B9003108BA00BB01DA
:1011D0008E30BC02BC1F08293C08803A8F3E0318A1
:1011E000FA280030B2000030B1000030B00000300A
:1011F000AF0008000130BB36BA0CB90CB80C890B33
:10120000FB280130B3003308BC0703192129FA2851
:1012100018303C02031C1E290030B2000030B1001F
:101220000030B0000030AF0008000130B835B90D13
:10123000BA0DBB0D890B16290130BC023C08031DF9
:101240001529370803192F29B809B909BA09BB09A3
:10125000B80A0319B90A0319BA0A0319BB0A3B08E9
:10126000B2003A08B1003908B0003808AF000800F1
:1012700013302100A000AA30A1008631A1268931B7
:1012800097318727893122008E1459082000C70022
:10129000220058082000C600220057082000C50080
:1012A000220056082000C4000130C8000030C900E8
:1012B000A6319626893122005D082000C700220051
:1012C0005C082000C60022005B082000C500220048
:1012D0005A082000C4000230C8000030C900A631FE
:1012E0009626893122008E102100C201C3014308D5
:1012F000803AC1006E08803A4102031D81296D08C1
:10130000420203188D295330890B842900000130D3
:101310002100C2070030C33D7729A2318A228931DA
:10132000A2318722893122006F082100B9002200F2
:101330006E082100B8006A08BB006908BA009C3139
:10134000942489312100C401C5014508803AC100B7
:101350006C08803A4102031DAF296B084402031850
:10136000BB295330890BB229000001302100C4078A
:101370000030C53DA52922008E142100BF01C00107
:101380000800210037033804031DF6290130B90095
:101390000030BA000030BB000030BC00350AD42950
:1013A000B935BA0DBB0DBC0D890BD0293908220007
:1013B000C60621003A082200C70621003B08220089
:1013C000C80621003C082200C90649082000C700C1
:1013D000220048082000C600220047082000C5005F
:1013E000220046082000C40001302B2A02302100D0
:1013F00037063804031D312A0130B9000030BA0025
:101400000030BB000030BC00350A0A2AB935BA0DDD
:10141000BB0DBC0D890B062A39082200C20621002B
:101420003A082200C30621003B082200C40621001E
:101430003C082200C50645082000C70022004408D9
:101440002000C600220043082000C50022004208F8
:101450002000C4000230C8000030C900A631962622
:10146000893181302100A000A830A1002200490864
:101470002100A500220048082100A40022004708FE
:101480002100A300220046082100A2008631A126E7
:10149000893169302100A000AA30A1008631A1263F
:1014A0002100B501B601080047302100A000A83096
:1014B000A1008631A1268A319C302100A000A830ED
:1014C000A1008631A1268A3101302100C9000030F7
:1014D000CA00883138208A31210049084A04031D96
:1014E000752A0B30A000AA30792A03302100A00011
:1014F000AA30A1008631A1268A311B302100A0002C
:10150000AA30A1008631A1268A310A302100B50017
:101510000030B6000130B7000030B8009431E0244C
:101520008A31C6302100A000A930A1008631A12651
:101530008A310B302100B5000030B6000130B70011
:101540000030B8009431E0248A3128302100A00016
:10155000A830A1008631A1268A3102302100C900BD
:101560000030CA00883138208A31210049084A04F5
:10157000031DBE2A0B30A000AA30C22A033021006E
:10158000A000AA30A1008631A1268A311B3021009B
:10159000A000AA30A1008631A1268A310A3021009C
:1015A000B5000030B6000230B7000030B80094310A
:1015B000E0248A31C6302100A000A930A100863184
:1015C000A1268A310B302100B5000030B600023070
:1015D000B7000030B8009431E0248A31B6302100E1
:1015E000A000A830A1008631A1268A3101309A31AD
:1015F000D0228A3121003608803AD300803053024D
:10160000031D042B01303502031C0B2BDA302100A3
:10161000A000A9300F2BD1302100A000A930A100DB
:101620008631A1268A3165302100A000A830A100B2
:101630008631A12608006F308400AA308500003F63
:101640002000C400013FC5000130C6000030C700C3
:10165000943117248B316F308400AA308500003F0D
:101660002000C400013FC5000230C6000030C700A2
:10167000943117248B3101302000C4000030C500A4
:101680000130C6000030C7008B31F6238B310130AA
:101690002000C4000030C5000230C6000030C70082
:1016A0008B31F6238B3121006C082000BA00210019
:1016B0006B082000B900A631B7268B31200039080D
:1016C000C2003A08C3003B08C40063308400AA305B
:1016D0008500003FBF00013FC000023FC1008C31C8
:1016E000D4248B3120003F082100A90020004008AD
:1016F0002100AA00200041082100AB000030A60014
:101700008030A700BF30A8008D31B5258B31210076
:101710002608AF002708B0002808B1008831B120A2
:101720008B3121002F08A231EF228B3121006D096E
:10173000BD006E09BE00BD0A0319BE0A69083D0757
:101740002000B90021006A083E3D2000BA00A63101
:10175000B7268B3120003908C2003A08C3003B0885
:10176000C40066308400AA308500003FBF00013FFE
:10177000C000023FC1008C31D4248B3120003F08CF
:101780002100A900200040082100AA0020004108F3
:101790002100AB000030A6008030A700BF30A800B9
:1017A0008D31B5258B3121002608AF002708B00008
:1017B0002808B1008831B1208B3121002F08A231D7
:1017C000EA228B3103302100B6000030B7000C3024
:1017D000B8000030B9009F319D278B311E302100A9
:1017E000A000A930A1008631A126080020004603F0
:1017F000470403190A2C22004D082000CB002200C8
:101800004C082000CA0022004B082000C90022001A
:101810004A08182C220051082000CB002200500852
:101820002000CA0022004F082000C90022004E08F4
:101830002000C8004508803A2100A0008030200226
:10184000031D252C013020004402031C292C0130EB
:101850002A2C00302100A100A201A135A20DA13542
:10186000A20D20004508803A2100A3008030230209
:10187000031D3D2C013020004402031C412C01308B
:10188000422C00302100A400A501A435A50D2000A4
:101890004508803A2100A60080302602031D532C03
:1018A000013020004402031C572C0130582C00301A
:1018B0002100A700A80124082704A900250828045E
:1018C000AA0021082904AB0022082A04AC002B0836
:1018D000AD002C08AE000030AE1BFF30AF00B000F2
:1018E0002D082000C80421002E082000C904210072
:1018F0002F082000CA04210030082000CB0448082B
:101900002100A000200049082100A10020004A0871
:101910002100A20020004B082100A3001030A400E9
:10192000A337A20CA10CA00CA40B902C2108200022
:10193000BD00210020082000BC004908BF00480865
:10194000BE0003302100A50025082000C000470884
:10195000C2004608C100A431FF248B312000460399
:101960004704031DC32C4B082200D10020004A0865
:101970002200D000200049082200CF0020004808A3
:101980002200CE00080020004B082200CD002000DD
:101990004A082200CC00200049082200CB00200089
:1019A00048082200CA00080020003F08C50040087F
:1019B000C6004108C7000310460D470DC80048087F
:1019C0002100A0002008031DED2C00302000BF00E6
:1019D0000030C0000030C100080020004208C500EF
:1019E0004308C6004408C7000310460D470DC80051
:1019F00048082100A5002508031D062D0030200001
:101A0000BF000030C0000030C100080021002508E0
:101A10007B3E2000C50045082100A00720003F08AC
:101A2000C5004008C6004108C7001030C736C60CC4
:101A3000C50C890B162D4508C80048082100A500D3
:101A400020004208C5004308C6004408C700103003
:101A5000C736C60CC50C890B282D4508C800480898
:101A60002100A50680302000C50045082100A505FD
:101A70002000C017C317FF30C205FF30C305003078
:101A8000C40500302100A1000030A2000030A300F6
:101A900007302000C50045082100A40020003F1C9D
:101AA0005C2D42082100A107200043082100A23D2F
:101AB000200044082100A33D01302000C136C00CA5
:101AC000BF0C890B5D2D0130C235C30DC40D890BD0
:101AD000642D01302100A402031D4E2D0930200089
:101AE000C50045082100A40020003F1C822D4208AB
:101AF0002100A107200043082100A23D2000440846
:101B00002100A33D01302000C136C00CBF0C890B61
:101B1000832D01302100A336A20CA10C890B8A2D44
:101B20000130A402031D742D21082000B100210002
:101B300022082000B200210023082000B300210069
:101B400020082000C5004508B40021002508200019
:101B5000C6004608B50094317B2420003108BF0040
:101B60003208C0003308C100080021002608200008
:101B7000C900210027082000CA00210028082000F1
:101B8000CB0003104A0D4B0DCC004C082100AE00D9
:101B900029082000C90021002A082000CA002100CD
:101BA0002B082000CB0003104A0D4B0DCC004C0835
:101BB0002100AD002E080319EA2D2D082E0203186E
:101BC000F22D2E03FF3A2D072000C90019304902DB
:101BD000031CF22D21002908A6002A08A7002B08C3
:101BE000A800080021002D08031908002E082D0266
:101BF0000318032E2D03FF3A2E072000C9001930C9
:101C000049020318080006302000C90049082100D5
:101C1000AC00A81BAC17AB1B2C17A717FF30A605F1
:101C2000FF30A7050030A805AA17FF30A905FF302F
:101C3000AA050030AB052D082E020318432E0130F3
:101C4000A935AA0DAB0D890B202E0130AD022D0850
:101C50002E0603193E2E0130AC022C080739031959
:101C60003E2E1F2E0130A836A70CA60C890B332E52
:101C700001302000C90049082100AE072E082D06BA
:101C800003196A2E322E2E082D0203186A2E0130F7
:101C9000A635A70DA80D890B482E0130AE022D08E0
:101CA0002E060319662E0130AC022C0807390319E1
:101CB000662E472E0130AB36AA0CA90C890B5B2E81
:101CC00001302000C90049082100AD072E082D066B
:101CD000031D5A2EAC1F7C2EFF30A606FF30A70630
:101CE000FF30A8060130A607003003180130A7070F
:101CF000003003180130A8072C1F8E2EFF30A906D4
:101D0000FF30AA06FF30AB060130A90700300318E8
:101D10000130AA07003003180130AB07AC012608D8
:101D2000A9072708AA3D2808AB3DAB1FA92EFF3005
:101D3000A906FF30AA06FF30AB060130A907003024
:101D400003180130AA07003003180130AB07AC01BB
:101D5000AC0A29082000B10021002A082000B200A6
:101D600021002B082000B30021002E082000C9000C
:101D70004908B40021002C082000CA004A08B50018
:101D800094317B24200031082100A6002000320875
:101D90002100A700200033082100A8000800BB3064
:101DA0002100A000A930A1008631A1268E31220099
:101DB000410840043F043E04031DF92E2B3021004E
:101DC000A000A930A1008631A1262000D501003055
:101DD0002100E8000030E7000030E6000030E500B8
:101DE0000030E4000030E3000030E2000030E100A9
:101DF00008002200C11B842F4108031D092F400841
:101E0000031D092F3F08031D092F01303E02031C4B
:101E1000842F00302100E8000030E7000030E600A9
:101E20000030E5006008E4005F08E3005E08E200BF
:101E30005D08E100893138218E31FF302200BE0774
:101E4000FF30BF3DFF30C03DFF30C13D2100D60116
:101E5000D7015708803AC60080304602031D322F52
:101E6000183056020318080021005D08C6005E08FD
:101E7000C7005F08C8006008C9000130CA00003010
:101E8000CB000030CC000030CD00560A4B2FCA35B5
:101E9000CB0DCC0DCD0D890B472F4D084C044B04B9
:101EA0004A040319552F0130562F0030CE00CF01C0
:101EB000D001D1014E08C6054F08C7055008C80516
:101EC0005108C9055708D3005608D200D235D30DA2
:101ED000D235D30D9030D4002730D50052085407A6
:101EE00086005308553D8700460881074131470861
:101EF000813D41314808813D41314908813D0130F2
:101F0000D6070030D73D292F21006008E8005F0880
:101F1000E7005E08E6005D08E5000030E400003000
:101F2000E3000030E2000030E100893138218E31D9
:101F300001302200BE070030BF3D0030C03D003000
:101F4000C13D2100D601D7015708803AC600803034
:101F50004602031DAD2F1830560203180800210059
:101F60005D08C6005E08C7005F08C8006008C900B9
:101F70000130CA000030CB000030CC000030CD0072
:101F8000560AC62FCA35CB0DCC0DCD0D890BC22FED
:101F90004D084C044B044A040319D02F0130D12FB3
:101FA0000030CE00CF01D001D1014E08C6054F0848
:101FB000C7055008C8055108C9055708D300560879
:101FC000D200D235D30DD235D30D9030D400273086
:101FD000D5005208540786005308553D870046082F
:101FE000810241314708813B41314808813B413101
:101FF0004908813B7D310130D6070030D73DA42F01
:102000000B340034003400341034003420340034F5
:102010002E3400343C34003448340034533400341B
:102020005B34003461340034653400346634003489
:1020300065340034613400345B340034533400348C
:10204000483400343C3400342E340034203400341E
:102050001034003400340034F0340034E034003400
:10206000D2340034C4340034B8340034AD340034D5
:10207000A53400349F3400349B3400349A34003447
:102080009B3400349F340034A5340034AD34003424
:10209000B8340034C4340034D2340034E034003472
:1020A000F034003400340034103400342034003470
:1020B0002E3400343C34003448340034533400347B
:1020C0005B340034613400346534003466340034E9
:1020D00065340034613400345B34003453340034EC
:1020E000483400343C3400342E340034203400347E
:1020F0001034003400340034F0340034E034003460
:10210000D2340034C4340034B8340034AD34003434
:10211000A53400349F3400349B3400349A340034A6
:102120009B3400349F340034A5340034AD34003483
:10213000B8340034C4340034D2340034E0340034D1
:10214000F0340034003400341034003420340034CF
:102150002E3400343C3400344834003453340034DA
:102160005B34003461340034653400346634003448
:1021700065340034613400345B340034533400344B
:10218000483400343C3400342E34003420340034DD
:102190001034003400340034F0340034E0340034BF
:1021A000D2340034C4340034B8340034AD34003494
:1021B000A53400349F3400349B3400349A34003406
:1021C0009B3400349F340034A5340034AD340034E3
:1021D000B8340034C4340034D2340034E034003431
:1021E000F0340034003400340B3400340034003454
:1021F00010340034203400342E3400343C340034A5
:1022000048340034533400345B34003461340034D7
:10221000653400346634003465340034613400348D
:102220005B34003453340034483400343C340034DC
:102230002E340034203400341034003400340034A0
:10224000F0340034E0340034D2340034C434003488
:10225000B8340034AD340034A53400349F34003435
:102260009B3400349A3400349B3400349F3400345F
:10227000A5340034AD340034B8340034C4340034F0
:10228000D2340034E0340034F0340034003400340C
:1022900010340034203400342E3400343C34003404
:1022A00048340034533400345B3400346134003437
:1022B00065340034663400346534003461340034ED
:1022C0005B34003453340034483400343C3400343C
:1022D0002E34003420340034103400340034003400
:1022E000F0340034E0340034D2340034C4340034E8
:1022F000B8340034AD340034A53400349F34003495
:102300009B3400349A3400349B3400349F340034BE
:10231000A5340034AD340034B8340034C43400344F
:10232000D2340034E0340034F0340034003400346B
:1023300010340034203400342E3400343C34003463
:1023400048340034533400345B3400346134003496
:10235000653400346634003465340034613400344C
:102360005B34003453340034483400343C3400349B
:102370002E3400342034003410340034003400345F
:10238000F0340034E0340034D2340034C434003447
:10239000B8340034AD340034A53400349F340034F4
:1023A0009B3400349A3400349B3400349F3400341E
:1023B000A5340034AD340034B8340034C4340034AF
:1023C000D2340034E0340034F034003400340034CB
:1023D0000034003410340034203400342E340034FF
:1023E0003C34003448340034533400345B3400341B
:1023F00061340034653400346634003465340034AC
:10240000613400345B3400345334003448340034D5
:102410003C3400342E340034203400341034003482
:1024200000340034F0340034E0340034D23400346A
:10243000C4340034B8340034AD340034A53400342E
:102440009F3400349B3400349A3400349B3400347D
:102450009F340034A5340034AD340034B834003433
:10246000C4340034D2340034E0340034F034003466
:102470000034003410340034203400342E3400345E
:102480003C34003448340034533400345B3400347A
:10249000613400346534003466340034653400340B
:1024A000613400345B340034533400344834003435
:1024B0003C3400342E3400342034003410340034E2
:1024C00000340034F0340034E0340034D2340034CA
:1024D000C4340034B8340034AD340034A53400348E
:1024E0009F3400349B3400349A3400349B340034DD
:1024F0009F340034A5340034AD340034B834003493
:10250000C4340034D2340034E0340034F0340034C5
:102510000034003410340034203400342E340034BD
:102520003C34003448340034533400345B340034D9
:10253000613400346534003466340034653400346A
:10254000613400345B340034533400344834003494
:102550003C3400342E340034203400341034003441
:1025600000340034F0340034E0340034D234003429
:10257000C4340034B8340034AD340034A5340034ED
:102580009F3400349B3400349A3400349B3400343C
:102590009F340034A5340034AD340034B8340034F2
:1025A000C4340034D2340034E0340034F034003425
:1025B000003400340034003410340034203400344B
:1025C0002E3400343C340034483400345334003466
:1025D0005B340034613400346534003466340034D4
:1025E00065340034613400345B34003453340034D7
:1025F000483400343C3400342E3400342034003469
:102600001034003400340034F0340034E03400344A
:10261000D2340034C4340034B8340034AD3400341F
:10262000A53400349F3400349B3400349A34003491
:102630009B3400349F340034A5340034AD3400346E
:10264000B8340034C4340034D2340034E0340034BC
:10265000F0340034003400341034003420340034BA
:102660002E3400343C3400344834003453340034C5
:102670005B34003461340034653400346634003433
:1026800065340034613400345B3400345334003436
:10269000483400343C3400342E34003420340034C8
:1026A0001034003400340034F0340034E0340034AA
:1026B000D2340034C4340034B8340034AD3400347F
:1026C000A53400349F3400349B3400349A340034F1
:1026D0009B3400349F340034A5340034AD340034CE
:1026E000B8340034C4340034D2340034E03400341C
:1026F000F03400340034003410340034203400341A
:102700002E3400343C340034483400345334003424
:102710005B34003461340034653400346634003492
:1027200065340034613400345B3400345334003495
:10273000483400343C3400342E3400342034003427
:102740001034003400340034F0340034E034003409
:10275000D2340034C4340034B8340034AD340034DE
:10276000A53400349F3400349B3400349A34003450
:102770009B3400349F340034A5340034AD3400342D
:10278000B8340034C4340034D2340034E03400347B
:10279000F0340034003400342000C4004408031D29
:1027A000D52B5408C1004108C4004408031DDA2B8E
:1027B000003008004008B9003F08B80044089831CC
:1027C000F120933120003808C1004108C4074408B3
:1027D0008600013087000108031DF12BD401003071
:1027E00008004008B9003F08B80044089831C120EB
:1027F000933120003808C1003908C200440841075D
:10280000C3004308D4005408860001308700010843
:102810000319142C5408860001308700810101300F
:10282000C1004108D407152CD40144080800200039
:102830004508803AC80080304802031D212C4030F2
:102840004402031C282C3F302000C4000030C50087
:1028500020004508C9004408C800480EF039C900E6
:10286000C8014508CB004408CA000630CA35CB0D64
:10287000890B362C48084A04CC0049084B04CD008B
:1028800044084C042100A000200045084D0421000C
:10289000A100A201A11BA2032208A300200820007E
:1028A000C800210021082000C900210022082000C2
:1028B000CA00210023082000CB001030CB36CA0C00
:1028C000C90CC80C890B5E2C4908BD004808BC0027
:1028D000210021082000BF00210020082000BE00A8
:1028E0000730CC004C08C0004708C2004608C100B1
:1028F000A431FF240800200034080319842C330875
:1029000032043104031D952C0030B1000030B200B8
:102910000030B30008000130B6003608B4070130BB
:10292000B336B20CB10C890B902CFE303305031971
:10293000AE2C8B2C0130B6003608B4070130B1073D
:10294000003003180130B207003003180130B3071C
:102950000130B336B20CB10C890BA92CFF30330512
:102960000319BB2C9A2C0130B4020130B135B20DE1
:10297000B30D890BB62CB21BC12C023034020318E4
:10298000B32C3418C92CFF30B1057F30B205FF30AD
:10299000B3050310B40C3408B600B701B801103009
:1029A000B635B70DB80D890BD02C3608B1043708F1
:1029B000B2043808B304350803190800B317080037
:1029C00022008E14FF302000C700FF30C600FF3009
:1029D000C500FF30C400210038082000C9002100D4
:1029E00037082000C800A631962694310030200018
:1029F000BC00BD000030BE00BF0021003508B9009A
:102A000039082000C000210038082000C200210041
:102A100037082000C100A431FF24943122008E1019
:102A200000302100BD000030BC000030BB00003091
:102A3000BA001730BE000030BF00BF1B422D22007D
:102A40000C15003222000C1120000E1F332D5F30B8
:102A50002100A000AA30A1003F08A3003E08A20068
:102A60008631A1269431173021003E063F04031D14
:102A70003B2D22008E14FF302100BE07FF30BF3DEA
:102A8000BF1F1F2D6330A000A830A1008631A126F2
:102A90000800A431BD249531A3302100D800553061
:102AA000890B502DD80B502D8B170B177930210027
:102AB000A000A930A1008631A12695318B311B23BE
:102AC0009531692D8E31CF269531692D8031C02009
:102AD0009531200056080319952DA63135269531DC
:102AE0002100D80020005208C53E86000130870032
:102AF00021005808810020005208C53E86000130A0
:102B000087000A300106031D902D5208C53E86003D
:102B100001308700810101302200E4000030E5002F
:102B200001302000D2070030D33D22006408650444
:102B30000319AE2DB0302100D80058082000C50080
:102B4000C53085310E2595312200E401E5012000D4
:102B5000D201D301B0308331702395312000550864
:102B6000013A0319622D033A0319662D692D692D67
:102B70002000BE003E08860001308700203001069C
:102B8000031DC72D0130B9003908BE07BA2D3E0814
:102B9000860001308700093001060319C22DBC01EF
:102BA000BD01BB013E088600013087002D300106C3
:102BB000031DDF2D0130B9003908BB07E72D3E08A2
:102BC0008600013087002B300106031DEB2D0130FC
:102BD000B9003908BE073E088600013087000108A9
:102BE000A43154249531031C142E20003D08B2005A
:102BF0003C08B1000A30B3000030B400A531822592
:102C0000953120003E088600013087000108310719
:102C1000B90032080318320ABA003908D03EBC00A5
:102C2000FF303A3DBD00E72D20003B080319242E5C
:102C30003C09B9003D09BA00B90A0319BA0A3908B2
:102C4000B7003A08B80008003D08B8003C08B700D3
:102C5000080021003608803A2000C900803049026F
:102C6000031D352E18302100350203188F2E210048
:102C70003708380403195F2E01302000C9000030E6
:102C8000CA000030CB000030CC002100350A200003
:102C90004D2EC935CA0DCB0DCC0D890B492E4908D7
:102CA0002100D90420004A082100DA0420004B0842
:102CB0002100DB0420004C082100DC04852E0130BB
:102CC0002000C9000030CA000030CB000030CC002A
:102CD0002100350A2000702EC935CA0DCB0DCC0D50
:102CE000890B6C2EC909CA09CB09CC0949082100F6
:102CF000D90520004A082100DA0520004B082100F0
:102D0000DB0520004C082100DC056930A000AA305A
:102D1000A1008631A1262100B501B60108006C3062
:102D20002100A000AA30A1008631A1260130210097
:102D3000B5000030B60008002000C901CA014A08E9
:102D4000803A2100B70080303702031DAA2E1830C8
:102D5000200049020318062F21005D08B7005E0815
:102D6000B8005F08B9006008BA000130BB0000304D
:102D7000BC000030BD000030BE002000490A210028
:102D8000C52EBB35BC0DBD0DBE0D890BC12E3B083C
:102D9000B7053C08B8053D08B9053E08BA053A082C
:102DA0003904380437040319F42E20004A0821009E
:102DB000B800200049082100B700B735B80DB73575
:102DC000B80D9030B9002730BA0037083907BB007A
:102DD00038083A3DBC003B0886003C0887000030BC
:102DE000C03FC13FC23FC33F01302000C907003090
:102DF000CA3D4A08803A2100B70080303702031DDF
:102E0000042F183020004902031CAC2E6930210029
:102E1000A000AA30A1008631A1262100B501B6018B
:102E2000080021005908B9005A08BA005B08BB0025
:102E30005C08BC000130BD000030BE000030BF00A7
:102E40000030C000350A282FBD35BE0DBF0DC00DA6
:102E5000890B242F3D08B9053E08BA053F08BB057C
:102E60004008BC053C083B043A04390403197B2F95
:102E7000370838040319552F0130B9000030BA0063
:102E80000030BB000030BC00350A4A2FB935BA0DFE
:102E9000BB0DBC0D890B462F3908DD043A08DE0452
:102EA0003B08DF043C08E004712F0130B90000301A
:102EB000BA000030BB000030BC00350A632FB935C2
:102EC000BA0DBB0DBC0D890B5F2FB909BA09BB093F
:102ED000BC093908DD053A08DE053B08DF053C087A
:102EE000E0056930A000AA30A1008631A1262100AA
:102EF000B501B60108006C30A000AA30A1008631EF
:102F0000A12601302100B5000030B60008002100E4
:102F1000590861052200D60021005A0862052200E6
:102F2000D70021005B0863052200D80021005C085F
:102F300064052200D900210061092000B1002100B0
:102F400062092000B200210063092000B3002100C3
:102F500064092000B4002100590820003105220036
:102F6000DA0021005A08200032052200DB0021008F
:102F70005B08200033052200DC0021005C082000F3
:102F800034052200DD002100590865052200DE001D
:102F900021005A0866052200DF0021005B08670552
:102FA0002200E00021005C0868052200E100210009
:102FB00065092000B100210066092000B20021004F
:102FC00067092000B300210068092000B400210037
:102FD0005908200031052200D20021005A082000A3
:102FE00032052200D30021005B08200033052200B7
:102FF000D40021005C08200034052200D500080020
:1030000083318C2B8331782B8331A02B8431F32CAB
:1030100084317A2C8431972C8331B42B8331BF2BAC
:103020008331D32B8331E72B8331FB2B84310F2C5E
:103030008431232C8431402C84315D2C8431B42C98
:103040008431BF2C8431CA2C8431D52C8431E02CBE
:103050008431EB2C080024001608BF394038960054
:10306000160E890C890C01392000B100310C0800C2
:10307000220020154528A231B2220800A231812267
:1030800003300800A231B622080022003808F00000
:103090007008F0000C30203E860001308700413F70
:1030A0008A00403F0A009831013A03194228033A46
:1030B00003193B28013A03193B28073A03193E2814
:1030C000422808007E1C66289831382822002015E6
:1030D0007328A33146230800A2319C220330080044
:1030E000A3314E230800220038082000B100310827
:1030F000B1000C30203E860001308700413F8A003D
:10310000403F0A009831013A03197028033A031925
:103110006928013A03196928073A03196C287028AD
:10312000080022000D120F302000B7000030B80058
:10313000B81BBE2822000C1101302000B300003063
:10314000B400370AA528B335B40D890BA32831087C
:103150003305B50032083405B600350836040319C6
:10316000B42822000E15B62822000E110C15FF30CF
:103170002000B707FF30B83DB81F9A2822000C1175
:1031800008002000BE00BC01BD01CE280130BA00FD
:103190003A08BE070130BC070030BD3D3E0886003E
:1031A0000130870001080319EC283908B2003808FB
:1031B000B1003E088600013087000108BA00BB015B
:1031C0003A08B3003B08B400A531312598312000FE
:1031D000310832040319C6283D08B9003C08B8007C
:1031E00008002000BE00BC01BD01FE280130BA006D
:1031F0003A08BE070130BC070030BD3D3E088600DE
:1032000001308700010803191C293908B200380869
:10321000B1003E088600013087000108BA00BB01FA
:103220003A08B3003B08B400A5313125983120009D
:1032300031083204031DF6283D08B9003C08B800E7
:10324000080022008C018D018E01333021008C009A
:1032500060308D00F8308E0023008E018D018C01CE
:1032600024008D018C01C0308E0025008C018D0161
:103270008E013C002108E0390D38A1002008E0391A
:103280000E38A0002408E0391738A4003D001F08BC
:10329000E03914389F001E08E03918389E001D08D8
:1032A000E03919389D0008002000B8005F2901307E
:1032B000B5003508B8070130B3070030B43D330816
:1032C0008400340885000008A43163249931FF3A52
:1032D000013E2000B5003808860001308700010853
:1032E000A4316324993120003507B6003608B700B1
:1032F0003708031D8229380886000130870001083D
:10330000031D57293708B300B401B31BB4030800E9
:1033100022002208860023088700A2317E229931EC
:10332000810001302200A2070030A33D0130A40239
:103330000030A53B240825040319A229A231A222AA
:10334000053008002015AA29A231C2220800A231A6
:10335000BE22080022003808F0007008F0000C308F
:10336000203E860001308700413F8A00403F0A002E
:103370009931013A0319A729033A0319A429013AFB
:103380000319A429073A0319A729A729080021002E
:10339000B61B002A3608803A2000C9008030490256
:1033A000031DD5291830210035020318002A5B308F
:1033B0002100A000AA30A10036082000CA00210088
:1033C00035082000C900C935CA0DC935CA0D90306D
:1033D000CB002730CC0049084B0786004A084C3DFB
:1033E0008700403F2100A200413FA300423FA400CC
:1033F000433FA5008631A1262100B501B601080092
:1034000001302100B5000030B6000800200042085D
:10341000410440043F040319402AC801C80AC21BE2
:103420001D2A0130BF35C00DC10DC20D890B122AF6
:103430000130C7004708C8070F2A42084602031D8B
:103440002B2A41084502031D2B2A40084402031D74
:103450002B2A3F084302031C352A3F08C3024008B9
:10346000C43B4108C53B4208C63B0130C236C10CD3
:10347000C00CBF0C890B362A0130C802031D1D2A5F
:103480004608C2004508C1004408C0004308BF0008
:1034900008002100B801B901652AB801B901782AEC
:1034A0000130552A0230552A0330B8000030B900E7
:1034B000782A6C30A000AA30A1008631A126013004
:1034C0002100B5000030B60008003608003A0319A4
:1034D0006A2A592A3508003A03194D2A013A031974
:1034E000502A033A0319522A013A0319542A592A35
:1034F0003808B70037082000C9000130A731442739
:103500009A3169302100A000AA30A1008631A1269D
:103510002100B501B60108007E1C902A9931882946
:1035200022002208860023088700A23199229A31BE
:10353000810001302200A2070030A33D0130A40227
:103540000030A53B240825040319AA2AA231CA2267
:10355000053008002015B22AA33166230800A331E4
:103560005E230800220038082000B1003108B100B5
:103570000C30203E860001308700413F8A00403FEA
:103580000A009A31013A0319AF2A033A0319AC2A07
:10359000013A0319AC2A073A0319AF2AAF2A0800E7
:1035A0002000CB00CC014B30B1000030B200013024
:1035B000B3000030B400A431D2249A310030A731D6
:1035C00020279A31003A0319ED2AE6302100A000A5
:1035D000A830A1008631A1269A310830890BEE2A45
:1035E00000004C302000B1000030B2000130B300C8
:1035F0000030B400A431D2249A310130A731202701
:103600009A31003A03190B2BF8302100A000A830A2
:10361000A1008631A12620004C08C900CA01490832
:103620002100B50020004A082100B60008007303FD
:103630007404031D1E2B22000D12202B22000E10DD
:103640000F30F9000030FA00FA1B572B0C11013033
:10365000F5000030F600790A2F2BF535F60D890BB1
:103660002D2B70087505F70071087605F8007708AE
:10367000780403193D2B0E153E2B0E117208F50030
:10368000F6017A087606031D472B79087506031D97
:10369000502B73037404031D4F2B0D16502B0E1467
:1036A0000C15FF30F907FF30FA3DFA1F262B0C11DD
:1036B00073037404031D5E2B0D1208000E10080026
:1036C0002000B500B401B40A2200A01808002000B0
:1036D0003508B30033082200A1002010A014A01167
:1036E0000E302000B30033082200AA00F430A800F6
:1036F0000130A9002015FA30AC002230AD00B8012D
:10370000FA30AE002230AF00B901FA30B0002230FA
:10371000B100BA01FA30B2002230B300BB01003070
:10372000B4002330B500BC01A331D4239B31A231B6
:103730009F229B3172302000B1002230B200A331B1
:103740009A239B31B1302000B1002730B200A33161
:10375000A3232000B401080017302100B700003077
:10376000B800B81BEF2B5F30A000AA30A1005D08A5
:103770002000C90021005E082000CA0021005F0867
:103780002000CB00210060082000CC002100370A77
:103790002000CF2B0310CC0CCB0CCA0CC90CFF3E65
:1037A000031DCA2B013049052100A2000030200072
:1037B0004A052100A300003020004B052100A40091
:1037C000003020004C052100A5008631A1269B3148
:1037D000FF302100B707FF30B83DB81FB32B63306F
:1037E000A000A830A1008631A1262100B501B601B4
:1037F000080017302100B7000030B800B81B3C2C7F
:103800005F30A000AA30A10059082000C9002100A3
:103810005A082000CA0021005B082000CB002100CC
:103820005C082000CC002100370A20001C2C03106B
:10383000CC0CCB0CCA0CC90CFF3E031D172C01305D
:1038400049052100A200003020004A052100A30004
:10385000003020004B052100A400003020004C0562
:103860002100A5008631A1269B31FF302100B7073A
:10387000FF30B83DB81F002C6330A000A830A10075
:103880008631A1262100B501B6010800A4310A2421
:103890009C310318552C722CA231AA220800A231A7
:1038A000AE220800A231B622080022003B08F10037
:1038B0007108F0001230203E860001308700413F41
:1038C0008A00403F0A009C31013A0319522C033A06
:1038D00003194C2C013A03194F2C073A0319522CA7
:1038E000522C08002200A0112308F2002208F10047
:1038F000A20A0319A30A710884007208850000084F
:10390000A231E0229C3101302200A4020030A53B0C
:1039100024082504031D8E2C06308F2C0330F30061
:103920000030F400730808002000C9010B30A731F3
:1039300044279C312100BD01BE0105302000B100AB
:103940000030B20021003B082000B40021003A08FA
:103950002000B3009C31E4249C3121003E08803AD1
:10396000BC0020003208803A21003C02031DBC2C20
:103970002000310821003D020318D12C2100380815
:10398000BC003C082000C9000B30A73144279C3103
:1039900000320032000001302100BD070030BE3D82
:1039A0009D2CA43173249C310318DE2C0930210096
:1039B000A000A930A1008631A1269C312000C901B8
:1039C0000B30A731442708002000B701B21FEF2CAD
:1039D000B109B209B10A0319B20AB701B70AB41F93
:1039E000FA2CB309B409B30A0319B40A0130B500BB
:1039F0003508B706B801B901310832040319292D79
:103A0000B601B60AB21B0E2D0130B135B20D890BCD
:103A1000052D0130B5003508B607022D0130B83547
:103A2000B90D890B0F2D32083402031D192D3108F1
:103A30003302031C202D3108B3023208B43B381482
:103A40000130B236B10C890B212D0130B602031DB5
:103A50000E2D37080319312DB809B909B80A031911
:103A6000B90A3908B2003808B100080021003E0840
:103A7000EC003D08EB006C082000BA0021006B0848
:103A80002000B900A631B7269D3120003908C200B8
:103A90003A08C3003B08C40063308400AA308500A4
:103AA000003FBF00013FC000023FC1008C31D42461
:103AB0009D3120003F082100A9002000400821007E
:103AC000AA00200041082100AB000030A600803091
:103AD000A700BF30A8008D31B5259D3121002608F3
:103AE000AF002708B0002808B1008831B1209D310F
:103AF00021002F08A231EF229D3169302100A00062
:103B0000AA30A1008631A1262100BD01BE01080016
:103B100000302000BD000030BC000030BB00003091
:103B2000BA0034083304320431040319D22DBE0123
:103B3000BE0AB41BA72D0130B135B20DB30DB40DC3
:103B4000890B9C2D0130B9003908BE07992D013031
:103B5000BA35BB0DBC0DBD0D890BA82D340838023C
:103B6000031DBC2D33083702031DBC2D320836025D
:103B7000031DBC2D31083502031CC72D3108B502C9
:103B80003208B63B3308B73B3408B83B3A1401302F
:103B9000B436B30CB20CB10C890BC82D0130BE0287
:103BA000031DA72D3D08B4003C08B3003B08B2003C
:103BB0003A08B1000800200034033504031DE32D4A
:103BC00022000D12E52D22000E100F302000BA0049
:103BD0000030BB00BB1B262E22000C110130200040
:103BE000B6000030B7003A0AF72DB635B70D890B8D
:103BF000F52D31083605B80032083705B900380808
:103C000039040319062E22000E15082E22000E116B
:103C100020003308B600B7013B083706031D122EFB
:103C20003A083606031D1D2E34033504031D1B2ED2
:103C300022000D161D2E22000E1422000C15FF303E
:103C40002000BA07FF30BB3DBB1FEC2D22000C113A
:103C5000200034033504031D302E22000D1208000D
:103C600022000E1008007E1C372E9C31462C983105
:103C70002B209E310318462E642EA33136230800D4
:103C8000A3313E230800A3314E23080022003B0845
:103C90002000B2003208B1001230203E8600013010
:103CA0008700413F8A00403F0A009E31013A0319D4
:103CB000432E033A03193D2E013A0319402E073AC9
:103CC0000319432E432E08002200A01123082000D0
:103CD000B300220022082000B2002200A20A031929
:103CE000A30A200032088400330885000008A331AD
:103CF00006239E3101302200A4020030A53B240897
:103D00002504031D852E0630862E03302000B400C6
:103D10000030B5003408080000302100C200003037
:103D2000C1000030C0000030BF0022000D1217306B
:103D30002100C3000030C400C41BCC2E22000C158F
:103D400020000E0E890C890C01392100B900BA013E
:103D5000430AAC2EB935BA0D890BAA2E3908BB001F
:103D60003A08BC000030BC1BFF30BD00BE003B0861
:103D7000BF043C08C0043D08C1043E08C204220040
:103D80000C110830890BC22E0000FF302100C30740
:103D9000FF30C43DC41F9E2E22000C114B30210069
:103DA000A000A930A1004208A5004108A4004008D5
:103DB000A3003F08A2008631A12621004208B800D6
:103DC0004108B7004008B6003F08B50008002100D0
:103DD0003E08EA003D08E9006D09BF006E09C00019
:103DE000BF0A0319C00A69083F072000B900210073
:103DF0006A08403D2000BA00A631B7269E31200057
:103E00003908C2003A08C3003B08C4006630840089
:103E1000AA308500003FBF00013FC000023FC10043
:103E20008C31D4249E3120003F082100A9002000BD
:103E300040082100AA00200041082100AB0000300A
:103E4000A6008030A700BF30A8008D31B5259E3177
:103E500021002608AF002708B0002808B1008831EB
:103E6000B1209E3121002F08A231EA229E31693013
:103E70002100A000AA30A1008631A1262100BD01A9
:103E8000BE01080021003E08EE003D08ED006D096E
:103E9000BF006E09C000BF0A0319C00A69083F07C6
:103EA0002000B90021006A08403D2000BA00A63178
:103EB000B7269F3120003908C2003A08C3003B08EA
:103EC000C40066308400AA308500003FBF00013F77
:103ED000C000023FC1008C31D4249F3120003F0834
:103EE0002100A900200040082100AA00200041086C
:103EF0002100AB000030A6008030A700BF30A80032
:103F00008D31B5259F3121002608AF002708B0006C
:103F10002808B1008831B1209F3121002F08A2313B
:103F2000EA229F3169302100A000AA30A100863129
:103F3000A1262100BD01BE01080077308400AA300F
:103F400085000008A3316E239F3177308400AA30AA
:103F5000850000089B3160239F3104302100BA00A6
:103F60003D30890BB12FBA0BB12F0032A331CA23D8
:103F70009F3104302100BA003D30890BBD2FBA0BB0
:103F8000BD2F00322000C9010230A73144279F31E4
:103F900004302100BA003D30890BCC2FBA0BCC2F56
:103FA0000032210036083838BA003A082000C9002B
:103FB0000130A73144279F3104302100BA003D3041
:103FC000890BE02FBA0BE02F003221003808BA002D
:103FD0003A082000C9000230A73144279F3104303D
:103FE0002100BA003D30890BF32FBA0BF32F0032BA
:103FF0001A302100A000A930A1008631A1260800B6
:1044CE000130080020009713080020001F1108007B
:1044DE00200011110800A2316F220800240096144A
:1044EE000800240016150800240096150800240064
:1044FE0011080800200091150800200091110800F5
:10450E0020009717080020001F150800240016141D
:10451E000800240096140800240016150800240034
:10452E0096150800240011080800200091150800B7
:10453E00200091110800240096121616080024007F
:10454E00961616160800A231752201300800A23107
:10455E00752202300800A231752201300800A23106
:10456E00782200300800A231A22205300800A231C4
:10457E00A6220A300800A231A62209300800163001
:10458E002100970008002400961216160800240039
:10459E009616161608000134003400340034F0006C
:1045AE007008200095000800F000700820009D00A3
:1045BE000800F0007008240091000800220020106E
:1045CE00AB010E3008002000B10031089600080043
:1045DE002000B10031089E0008002200A011A23177
:1045EE007B22043008007E1CFE2AA231672A01308D
:1045FE0008007E1C042B80310228053008002000A4
:10460E00B10031082400910008002000B3003308E7
:10461E00A7318C270800E83403340A3400340A34F6
:10462E00003498312A2022002010AB010E300800F1
:10463E002200A0152135A231E0220330080022000D
:10464E00A0150314210DA231E0220530080032001E
:10465E0091019201930194019501960108007E1C2F
:10466E003A2BA231AA2AA2319022013008007E1CD8
:10467E00422BA231AE2AA2319022023008007E1CBB
:10468E004A2BA231B22AA2319022013008007E1CA0
:10469E00522BA231B62AA2319322003008007E1C82
:1046AE005A2BA231BA2AA231CA22053008007E1C2A
:1046BE00622BA231BE2AA231CE220A3008007E1C05
:1046CE006A2BA231C22AA231CE2209300800200064
:1046DE00B2003208B10031082200A1000800220009
:1046EE008E14A2316C22A3310030A231DB220800DD
:1046FE00200032082200ED00200031082200EC00DC
:10470E000800200032082300DA00200031082300C0
:10471E00D90008007E1C952BA231E52A220020101C
:10472E00AB010E300800200032082200EB00200002
:10473E0031082200EA000800200032082200E900B9
:10474E00200031082200E800080062303200990093
:10475E009B019D0103309F0020309E0008007E1CAF
:10476E00BA2BA231F42A2200A011A23196220430D3
:10477E0008002100110C2000B100B10C310C0139E0
:10478E00B200320C080080302100B5003508200040
:10479E00C9000230A731442708002400951A0800EA
:1047AE0094012830950096010330920008007E1C7B
:1047BE00E22BA331182B8831002022002010AB01F0
:1047CE000E3008007E1CED2BA3311F2B2200A015EE
:1047DE002135A3310623033008002000911908006B
:1047EE002000911908000830890BFB2B0000F72BD5
:1047FE002200201C08000030A331F423A331A7317E
:10480E00B127A331FF2B24001608BF39403896007C
:10481E00160E890C890C0139F000700C08007E1CF4
:10482E001A2CA331262B2200A0150314210DA3311F
:10483E000623053008006400800101310130FE02BC
:10484E000030FF3B7F087E0403190034232CFE004A
:10485E0012001E000130FE020030FF3B7F087E0476
:10486E00031900342F2C2000901222006C086D04C6
:10487E00031908006D088A006C080A00A4310800AC
:10488E0020009110230059085A04031908005A08F1
:10489E008A0059080A00A43108002000B200B101B4
:1048AE003A3032020318612C30303202031C612C74
:1048BE00B101B10A310C08002000B2007B30320287
:1048CE000318712C61303202031C712CDF30B100E1
:1048DE003108B2053208080000309A31D022A431D6
:1048EE00210035082000CD004D082100B700371CEF
:1048FE00822C03100800031408000F3020009E00C5
:10490E009D0191102100911476302000B1002330CA
:10491E00B200A33188234E3020009F0008002100F2
:10492E0036082200EF00210035082200EE00693023
:10493E002100A000AA30A1008631A1262100B501D8
:10494E00B60108005830200098006130960095019D
:10495E0090122100901601302000B1000830B200F4
:10496E00A3317F238930200097000800A3312E2326
:10497E00A43199312121A431A331AC23A431A23128
:10498E00C622A431A4318424A431A431A924A43193
:10499E00A531172508002200201D0800200032082E
:1049AE002200A300200031082200A20020003408BB
:1049BE002200A500200033082200A40020110800C8
:1049CE0020002108F1002008F000A731D727A431DC
:1049DE0020002308F1002208F0002408FB007B08C9
:1049EE00F2002608F4002508F3009B311723080077
:1049FE0020003D08B2003C08B10098319120A4314E
:104A0E0020003F08B2003E08B1004008C300430832
:104A1E00B3004208B5004108B4009D31DB25080003
:104A2E00210091121112083023009F0090309D003A
:104A3E0024309E0019309B009C01FD012000D901FD
:104A4E000830B1003108DE00D801D701D6012100AF
:104A5E0091160800200031088400320885000008F5
:104A6E003306031908003208B6003108B500B10A42
:104A7E000319B20A35088400360885001200031D9A
:104A8E00312DB101B20108002000D501D50A210057
:104A9E0035082200BE00210036082200BF00890D15
:104AAE00893B8909C000C10069302100A000AA30ED
:104ABE00A1008631A1262100B501B6010800230010
:104ACE009D1C6B2D1D121D161908F0002000580894
:104ADE00A03E860001308700700881000130F00092
:104AEE007008D807083058020318D8010130F000BA
:104AFE007008D60708002000B501B601311C8B2DB9
:104B0E003308B5073408B63D0130B335B40D890B03
:104B1E008C2D0130B236B10C890B912D3108320437
:104B2E00031D852D3608B2003508B100080002308D
:104B3E002000C9004908D500210035082000CE000C
:104B4E00210036082000CF00890D893B8909D0004D
:104B5E00D10069302100A000AA30A1008631A12623
:104B6E002100B501B6010800083020005E020318CE
:104B7E00D62D5908A83E8600013087000108230073
:104B8E009A000130F00070082000D9070830590251
:104B9E000318D9010130F0007008DE07080021006B
:104BAE0011120800210036082000C500210035082A
:104BBE002000C400210038082000C700210037085B
:104BCE002000C6008B31F623A53169302100A000EC
:104BDE00AA30A1008631A1262100B501B601080038
:104BEE00210036082000C500210035082000C40031
:104BFE00210038082000C700210037082000C60019
:104C0E0094311724A53169302100A000AA30A100EB
:104C1E008631A1262100B501B6010800A2318422F9
:104C2E00A6312200A01D252EA4310A24A631031C74
:104C3E00252E0F30F50075082200AA0022002A3515
:104C4E00203E860002308700413F8A00403F0A0026
:104C5E00A631F50075082200AA0008002000B20156
:104C6E0056080319372E5708A03E860001308700DC
:104C7E000108B1003108B2000130B1003108D70788
:104C8E00083057020318D70121009112013020007D
:104C9E00D6022100911620003208080091342334E8
:104CAE0016342434E934233433341E348C341A3419
:104CBE00B634233462341834363423343E34233439
:104CCE00463423344E342334563423345E34233462
:104CDE0066342334DE342334D334073420002708DB
:104CEE00AD002808AE002908AF002A08B000103029
:104CFE00B036AF0CAE0CAD0C890B7F2E2E08A1007A
:104D0E002D08A0002808A3002708A200A401A40AC9
:104D1E002C08A6002B08A500A431E72408002000CB
:104D2E004408CA004508CB004608CC004708CD0011
:104D3E001030CD36CC0CCB0CCA0C890BA02E4B08E8
:104D4E00BD004A08BC004508BF004408BE00C001B3
:104D5E00C00A4908C2004808C100A431FF24080057
:104D6E002000BE01BA1FC22EB909BA09B90A031929
:104D7E00BA0ABE01BE0A3908B1003A08B200B30140
:104D8E008E30BC003C08B4003E08BD003D08B500A6
:104D9E0094317B2420003108B9003208BA00330860
:104DAE00BB000800F22E75302100A000AA30A10031
:104DBE008631A126080034302100A000AA30A100BF
:104DCE008631A126080073302100A000AA30A10070
:104DDE008631A126080020005508013A0319DA2E63
:104DEE00033A0319E22EEA2E08002200A011023027
:104DFE00F0007008AB00092FA231B2220800A231D8
:104E0E00B622080022003A08F0007008F0001030B8
:104E1E00203E860001308700413F8A00403F0A0055
:104E2E00A731023A0319032F013A0319032F062F54
:104E3E0008002000B800B901B90A22002018412F3D
:104E4E0020142000B90138080319312F2200AA01BD
:104E5E00AA0A372F02302000B70037082200AA0016
:104E6E00A2318D22A731A331C023A7310318412FC0
:104E7E00A331FF232000390808002000CB004B0887
:104E8E00CA004A08CC004908CA004A08CD004C3076
:104E9E00B1000030B2000230B3000030B400A431D3
:104EAE00D224A7310030A7312027A731003A0319A9
:104EBE000800E6302100A000A830A1008631A1260E
:104ECE00080022008E1400302000BC00BD0000300F
:104EDE00BE00BF000530C9004908C00021004608C9
:104EEE002000C200210045082000C100A431FF248B
:104EFE00A7319E318C2621003808C8003708C7001C
:104F0E003608C6003508C50008002000B2005E084D
:104F1E0003198E2F2100111A992F20003208230019
:104F2E009A00AE2F111220003208B1007D08A83E63
:104F3E00860001308700310881000130B100310850
:104F4E00FD0708307D020318FD010130DE0221004D
:104F5E00111608007E1CB52FA631152EA2319F22E8
:104F6E00A7312200A01DC62F98312B20A731031C7C
:104F7E00C62F0F302000B60036082200AA002200ED
:104F8E002A35203E860002308700413F8A00403F8E
:104F9E000A00A7312000B60036082200AA00080039
:104FAE0022000D120F30F6000030F700F71BFE2F17
:104FBE000C110130F2000030F300760AE82FF235C2
:104FCE00F30D890BE62F70087205F4007108730556
:104FDE00F500740875040319F62F0E15F72F0E1130
:104FEE000C15FF30F607FF30F73DF71FDF2F0C11C2
:104FFE00080001340034003400340A340034003424
:10500E0000346434003400340034E83403340034A3
:10501E0000341034273400340034A0348634013484
:10502E000034403442340F34003480349634983493
:10503E0000340034E134F53405340034CA349A3483
:10504E003B340A34743465347334743469346E34D6
:10505E006734203462346F34743474346F346D3486
:10506E0020344C344534443420346434723469343E
:10507E007634653472342E342E342E340A340034A1
:10508E000A342D342D342D342D347334743461346C
:10509E007234743469346E346734203463346F344C
:1050AE006D346D34203474346534733474342D346B
:1050BE002D342D342D340A340A3400342D342D344D
:1050CE002D342D34663469346E3469347334683457
:1050DE0065346434203463346F346D346D3420346D
:1050EE0074346534733474342D342D342D342D349E
:1050FE000A340034643465346D346F346834653486
:10510E00613474346534723474346F346734673494
:10511E006C3465345F3474346F3470343A34203404
:10512E0025346C3475340A34003474346534733475
:10513E00743469346E346734203474346F3470349C
:10514E0020344C344534443420346434723469345D
:10515E007634653472342E342E342E3400340A34C0
:10516E00743465347334743469346E346734203473
:10517E007034693465347A346F3420346434723464
:10518E0069347634653472342E342E342E34003431
:10519E0055344E345234453443344F3447344E3400
:1051AE0049345A3445344434203443344F344D3426
:1051BE004D3441344E34443421340A340034643492
:1051CE00723476345F3477347234693474346534BF
:1051DE0020346534723472346F34723421340A34AC
:1051EE0000346434723476345F347234653461342E
:1051FE00643420346534723472346F347234213432
:10520E000A3400346634693466346F3420346E34B4
:10521E006F347434203472346534613464347934C8
:10522E0021340A34003464347234763420346934D0
:10523E006E3469347434693461346C3469347A345C
:10524E00653464340A340034723465346C343A3460
:10525E00203461346C346C342034743468346534E6
:10526E00723465340A3400346134623473343A343F
:10527E00203461346C346C342034743468346534C6
:10528E00723465340A3400347234653461346434F3
:10529E00203464346134743461343A342034253427
:1052AE006C3475340A340034F4344A34483495344A
:1052BE009534C734C134DC344534DC346D34C334F6
:1052CE00B334333440346834653461347434653403
:1052DE00723470346F3473347434743469346D349E
:1052EE00653400340A340A347334793473347434C4
:1052FE0065346D34203464346F346E3465340A345E
:10530E000034683465346134743465347234703406
:10531E0072346534743469346D34653400347434E5
:10532E006F34673467346C34653468346534613493
:10533E0074346534723400343434013448349D345A
:10534E00B03445340034DA344234003480343F34DF
:10535E007034693465347A346F346F346E34743427
:10536E0069346D346534003464346F3452346534CA
:10537E006C344D346F34763465340A3400340A3468
:10538E000A34733468346F347234743473343A3488
:10539E00203400344634413449344C34453444349A
:1053AE000A340A340034703461347334733465341F
:1053BE0064340A340A34003464347234763450342B
:1053CE00653461346B34003464347234763447346B
:1053DE00613469346E3400346C346534643467344B
:1053EE00613469346E3400346D3473347434613422
:1053FE0074347534733400344634413449344C3487
:10540E00453444340A3400347034613473347334A4
:10541E00653464340A34003464346F344D346F347C
:10542E00763465340A3400346F34703465346E3437
:10543E0073343A342034003464346F346D346F3442
:10544E007634653400346C346534643470347734B7
:10545E007234003467346534743441340034733438
:10546E0065347434413400346734653474344D34E7
:10547E0000347334653474344D340034703469340C
:10548E006E346734003463346F346D346D340034ED
:10549E00723465346C3400346134623473340034E5
:1054AE0070346F3473340034253464340A34003469
:1054BE0025346434203400340034C8343F3400348E
:1054CE00C8343D3441340A34003445340A3400348F
:1054DE003F3400347A3400344E34003452340034C5
:0254EE0059342F
:020000040001F9
:08000000FF3FFF3FFF3FFF3F00
:08000E00ECFFF3FFFFFFFFFF11
:00000001FF
