:10000000803150287F3400347E14803120007F08F6
:10001000FC002100901E13282000901E1328A331FD
:100020009D2380314B280B1F4B282100111D2228B6
:100030002000111D222822006B088A006A080A008D
:1000400080314B282100911D2F282000911D2F2841
:10005000220069088A0068080A0080314B282100C4
:10006000911C39282000911C3928A331AA23803102
:100070004B282100911E43282000911E4328A431C3
:10008000AC2480314B282100111E4B282000111E6A
:100090004B28A53101257C082000FF007E100900B7
:1000A0008031522840308400A23085005A308600CA
:1000B000003087000030FF000430A33191238031ED
:1000C00080308400A2308500E9308600003087004F
:1000D0000030FF000630A3319123803122008031AF
:1000E00002208031EE00803103208031EF009B3010
:1000F0008400A53085002030860002308700003063
:10010000FF002030A33191238031903084002730CC
:1001100085006030FE000030FF00A3318523803170
:10012000FD014E308400003085000C30FE000030B0
:10013000FF00A33185238031D93084000030850051
:100140001030FE000030FF00A331852380312030C5
:100150008400013085004C30FE000030FF00A331E8
:1001600085238031A0308400013085003930FE00C5
:100170000030FF00A33185237E10200094315B2CDA
:1001800001302100C6000030C700C801C90149087C
:10019000803A2400C00080304002031DD22818306D
:1001A000210048020318582921005D082400C000DE
:1001B00021005E082400C10021005F082400C20065
:1001C000210060082400C3000130C4000030C500D5
:1001D0000030C6000030C7002100480A2400F4287F
:1001E000C435C50DC60DC70D890BF0284408C005E0
:1001F0004508C1054608C2054708C305430842042F
:100200004104400403194629210049082400C10083
:10021000210048082400C000C035C10DC035C10D03
:100220009030C2002730C3004008420786004108D2
:10023000433D8700403FC400413FC500423FC600E8
:10024000433FC7002000510824004706031D3829FA
:100250002000500824004606031D382920004F08BE
:1002600024004506031D382920004E0824004406BA
:10027000031D3C2901303D290030C800C901480850
:100280002100C605240049082100C70501302100CE
:10029000C8070030C93D4908803A2400C0008030BA
:1002A0004002031D5629183021004802031CD4289F
:1002B000210046084704031977292030A000A930FF
:1002C000A1008E31CE262000D50100302100E800AB
:1002D0000030E7000030E6000030E5000030E400C8
:1002E0000030E3000030E2000030E1000800CC0103
:1002F000CD014D08803A2400C00080304002031D2B
:100300008429183021004C020318BA2A21005D0804
:100310002400C00021005E082400C10021005F0805
:100320002400C200210060082400C30021004D0801
:100330002400C50021004C082400C400C435C50DAC
:10034000C435C50D9030C6002730C70044084607A5
:1003500086004508473D8700403FC800413FC9002F
:10036000423FCA00433FCB0020005108803A24009E
:10037000CC004B08803A4C022000031DCF292400FA
:100380004A0820005002031DCF29240049082000FC
:100390004F02031DCF292400480820004E020318F5
:1003A000D3290130D42900302400CD00CE01210012
:1003B0004C0A2400DD29CD35CE0D890BDB294D08F3
:1003C000CF004E08D0000030D01BFF30D100D2004B
:1003D0000130D3000030D4000030D5000030D6000A
:1003E00021004C0A2400F829D335D40DD50DD60DA3
:1003F000890BF4295308CF055408D0055508D105B9
:100400005608D2054F08C0055008C1055108C2055D
:100410005208C30540082100E504240041082100DA
:10042000E604240042082100E704240043082100D8
:10043000E8045D082400C00021005E082400C1001B
:1004400021005F082400C200210060082400C300CE
:1004500021004D082400C50021004C082400C400E0
:10046000C435C50DC435C50D9030C6002730C70052
:100470004408460786004508473D8700403FC800BE
:10048000413FC900423FCA00433FCB004B08803A7E
:10049000CC0020005108803A24004C02031D602A41
:1004A0002000500824004A02031D602A20004F0843
:1004B00024004902031D602A20004E08240048023F
:1004C0000318642A0130652A0030CD00CE012100D6
:1004D0004C0A24006D2ACD35CE0D890B6B2A4D08B0
:1004E000CF004E08D0000030D01BFF30D100D2002A
:1004F0000130D3000030D4000030D5000030D600E9
:1005000021004C0A2400882AD335D40DD50DD60DF0
:10051000890B842A5308CF055408D0055508D10506
:100520005608D2054F08C0055008C1055108C2053C
:100530005208C30540082100E104240041082100BD
:10054000E204240042082100E304240043082100BF
:10055000E4040130CC070030CD3D4D08803A240042
:10056000C00080304002031DB82A183021004C0220
:10057000031C86298931192180312100CA01CB0150
:100580004B08803A2400C00080304002031DCB2A73
:10059000183021004A0203180800210065082400D1
:1005A000C000210066082400C10021006708240063
:1005B000C200210068082400C3000130C4000030DC
:1005C000C5000030C6000030C70021004A0A2400E0
:1005D000ED2AC435C50DC60DC70D890BE92A44089F
:1005E000C0054508C1054608C2054708C3054308BC
:1005F0004204410440040319FF2A0130002B00305B
:10060000C800C901C809C909C80A0319C90A2100D3
:1006100061082400CA00210062082400CB002100E8
:1006200063082400CC00210064082400CD000130C0
:10063000CE000030CF000030D0000030D1002100CB
:100640004A0A2400272BCE35CF0DD00DD10D890BB2
:10065000232B4E08CA054F08CB055008CC0551087E
:10066000CD054D084C044B044A040319392B0130C5
:100670003A2B00304807D20049080318490AD30032
:100680005208D4005308D5000030D51BFF30D600E7
:10069000D70021004B082400D90021004A0824007B
:1006A000D800D835D90DD835D90D9030DA0027309B
:1006B000DB0058085A07860059085B3D870054083C
:1006C000810741315508813D41315608813D413115
:1006D0005708813D01302100CA070030CB3DC02AB8
:1006E0002100D40001302200E6000030E7001C2D7C
:1006F0002100540A860001308700403FB500413F89
:10070000B600A4319124210036082200E700210020
:1007100035082200E60008002100540A8600013056
:100720008700403FB500413FB600A431E4242100DA
:1007300036082200E700210035082200E600080004
:100740002100540A860001308700403FB500413F38
:10075000B60099311821210036082200E700210057
:1007600035082200E60008009631232621003608CD
:100770002200E700210035082200E60008002100E1
:10078000540A860001308700403FB500413FB60063
:10079000A4310624210036082200E7002100350894
:1007A0002200E60008002100540A8600013087007C
:1007B000403FB500413FB60099319A2121003608EB
:1007C0002200E700210035082200E6000800210091
:1007D000540A860001308700403FBD00413FBE0003
:1007E0009E31832621003E082200E70021003D08BB
:1007F0002200E60008002100540A8600013087002C
:10080000403FBD00413FBE009E31DE2621003E0834
:100810002200E70021003D082200E6000800210038
:10082000540A860001308700403FBD00413FBE00B2
:100830009C31D22421003E082200E70021003D081F
:100840002200E60008002100540A860001308700DB
:10085000403FB500413FB60054080B3E86000130D2
:100860008700403FB700413FB800A5311F25210058
:1008700036082200E700210035082200E6000800C3
:100880002100540A860001308700403FB500413FF7
:10089000B60054080B3E860001308700403FB70089
:1008A000413FB800A5313D25210036082200E70070
:1008B000210035082200E60008002100540A8600C5
:1008C00001308700403FB500413FB60054080B3E61
:1008D000860001308700403FB700413FB8008831B3
:1008E0001520210036082200E700210035082200EB
:1008F000E60008002100540A860001308700403FCE
:10090000B500413FB600423FB700433FB80054082E
:100910000B3E860001308700403FB900413FBA00DE
:100920008931A221210036082200E7002100350884
:100930002200E60008002100540A860001308700EA
:10094000403FB500413FB60054080B3E86000130E1
:100950008700403FB700413FB800963198262100FC
:1009600036082200E700210035082200E6000800D2
:100970002100540A860001308700403FB500413F06
:10098000B60054080B3E860001308700403FB70098
:10099000413FB80095313B25210036082200E70091
:1009A000210035082200E60008009B314823210081
:1009B00036082200E700210035082200E600080082
:1009C0009B319523210036082200E70021003508DD
:1009D0002200E6000800A6311F262100360822006A
:1009E000E700210035082200E600080089311921BE
:1009F000210040082200E70021003F082200E60015
:100A000008008A313A22210052082200E700210022
:100A100051082200E6000800C8302100A000A830DC
:100A2000A1008E31CE260800B4302100A000A830ED
:100A3000A1008E31CE260800210054088600013026
:100A400087000108FF3E031C142D840016300402A9
:100A50000318142DA0310435003E82000800200048
:100A6000C700C801C9011130BF00AA30C000470843
:100A70009A31B12285312000C6004608CA004A08D2
:100A80000319080048084904031DA22E3F30B30093
:100A9000AA30B4004A0898316E208531200033080E
:100AA0003404031D552D0230942E4330B300AA3078
:100AB000B4004A0898316E20853120003308340490
:100AC000031D692D45088600013087008101810AD8
:100AD000C72E4730B300AA30B4004A0898316E20C0
:100AE0008531200033083404031D782D0330942E03
:100AF0004530B300AA30B4004A0898316E208531E1
:100B0000200033083404031D872D0430942E263032
:100B1000B300AA30B4004A0898316E208531200015
:100B200033083404031D962D0530942E3030B30065
:100B3000AA30B4004A0898316E208531200033086D
:100B40003404031DA52D0630942E6130B300AA3065
:100B5000B4004A0898316E208531200033083404EF
:100B6000031DB42D0730942ED330B300A930B40048
:100B70004A0898316E208531200033083404031D63
:100B8000C32D0830942EDB30B300A930B4004A08DE
:100B900098316E208531200033083404031DD22D96
:100BA0000930942E9430B300A930B4004A0898312B
:100BB0006E208531200033083404031DE12D0A30F6
:100BC000942E6D30B300A930B4004A0898316E20DD
:100BD0008531200033083404031DF02D0B30942E92
:100BE0004F30B300A930B4004A0898316E208531E7
:100BF000200033083404031DFF2D0C30942EE33005
:100C0000B300A930B4004A0898316E208531200025
:100C100033083404031D0E2E0D30942E1A30B30009
:100C2000AA30B4004A0898316E208531200033087C
:100C30003404031D1D2E0E30942E7B30B300A930DA
:100C4000B4004A0898316E208531200033083404FE
:100C5000031D2C2E0F30942EA030B300A930B40009
:100C60004A0898316E208531200033083404031D72
:100C70003B2E1030942E2130B300AA30B4004A0825
:100C800098316E208531200033083404031D4A2E2C
:100C90001130942E2B30B300AA30B4004A0898319A
:100CA0006E208531200033083404031D592E123084
:100CB000942EEB30B300A930B4004A0898316E206E
:100CC0008531200033083404031D682E1330942E20
:100CD0001330B300AA30B4004A0898316E20853131
:100CE000200033083404031D772E1430942E3A303C
:100CF000B300AA30B4004A0898316E208531200034
:100D000033083404031D862E1530942E3530B3007D
:100D1000AA30B4004A0898316E208531200033088B
:100D20003404031D9C2E1630C60045088600013091
:100D3000870046088100C72E4508860001308700DD
:100D40008101C72E48034904031DB42E4A0894317B
:100D5000CA2485312000450A860001308700370803
:100D6000C03F3808C13FC72E023048064904031D62
:100D7000C72E4A089431CA248531200045080B3E0D
:100D80008600013087003708C03F3808C13F013076
:100D9000C8070030C93D1130BF00AA30C000003084
:100DA000382D210026082000C90021002708200036
:100DB000CA00210028082000CB0003104A0D4B0D6B
:100DC000CC004C082100AE0029082000C9002100F9
:100DD0002A082000CA0021002B082000CB000310A5
:100DE0004A0D4B0DCC004C082100AD002E08031914
:100DF000062F2D082E0203180E2F2E03FF3A2D0763
:100E00002000C90019304902031C0E2F21002908B7
:100E1000A6002A08A7002B08A800080021002D081A
:100E2000031908002E082D0203181F2F2D03FF3A67
:100E30002E072000C90019304902031808000630A7
:100E40002000C90049082100AC00A81BAC17AB1B4F
:100E50002C17A717FF30A605FF30A7050030A805FF
:100E6000AA17FF30A905FF30AA050030AB052D08F1
:100E70002E0203185F2F0130A935AA0DAB0D890B87
:100E80003C2F0130AD022D082E0603195A2F0130D8
:100E9000AC022C08073903195A2F3B2F0130A83612
:100EA000A70CA60C890B4F2F01302000C900490860
:100EB0002100AE072E082D060319862F4E2F2E086F
:100EC0002D020318862F0130A635A70DA80D890B1A
:100ED000642F0130AE022D082E060319822F013037
:100EE000AC022C0807390319822F632F0130AB366F
:100EF000AA0CA90C890B772F01302000C9004908E2
:100F00002100AD072E082D06031D762FAC1F982F4C
:100F1000FF30A606FF30A706FF30A8060130A6075F
:100F2000003003180130A707003003180130A8076C
:100F30002C1FAA2FFF30A906FF30AA06FF30AB06F0
:100F40000130A907003003180130AA070030031848
:100F50000130AB07AC012608A9072708AA3D2808DD
:100F6000AB3DAB1FC52FFF30A906FF30AA06FF30EF
:100F7000AB060130A907003003180130AA07003082
:100F800003180130AB07AC01AC0A29082000B100FE
:100F900021002A082000B20021002B082000B30005
:100FA00021002E082000C9004908B40021002C08A7
:100FB0002000CA004A08B5009331F623200031080A
:100FC0002100A600200032082100A70020003308DD
:100FD0002100A80008002200201D0800200032087F
:100FE0002200A300200031082200A20020003408C3
:100FF0002200A500200033082200A40020110800D0
:10100000A2319C22883198313B208831A3311A23A8
:101010008831A23134228831A331F4238831A431BC
:1010200019248831A4315D24080022008E1021008B
:1010300037033804031D4C280130B9000030BA00D2
:101040000030BB000030BC00350A2A28B935BA0D83
:10105000BB0DBC0D890B262839082200C6062100CD
:101060003A082200C70621003B082200C8062100DA
:101070003C082200C90649082000C7002200480891
:101080002000C600220047082000C50022004608B4
:101090002000C400013081280230210037063804C6
:1010A000031D87280130B9000030BA000030BB00B2
:1010B0000030BC00350A6028B935BA0DBB0DBC0D37
:1010C000890B5C2839082200C20621003A08220058
:1010D000C30621003B082200C40621003C08220070
:1010E000C50645082000C700220044082000C600AD
:1010F000220043082000C500220042082000C4004E
:101100000230C8000030C900A531DC2588315930D3
:101110002100A000AA30A1008E31CE262100B50109
:10112000B601080021002F08B3003008B4003108D0
:10113000B5000310340D350DB6003608BC003C0870
:10114000031DAB280030B2000030B1000030B00009
:101150000030AF0008002F08B3003008B400310899
:10116000B5001730B536B40CB30C890BB228330870
:10117000B6003608B700B017FF30AF05FF30B00536
:101180000030B1052F08B8003008B9003108BA00A6
:10119000BB018E30BC02BC1FE9283C08803A8F3E60
:1011A0000318DB280030B2000030B1000030B0007E
:1011B0000030AF0008000130BB36BA0CB90CB80CD7
:1011C000890BDC280130B3003308BC07031902295E
:1011D000DB2818303C02031CFF280030B20000302E
:1011E000B1000030B0000030AF0008000130B83569
:1011F000B90DBA0DBB0D890BF7280130BC023C08B4
:10120000031DF628370803191029B809B909BA09C6
:10121000BB09B80A0319B90A0319BA0A0319BB0AA8
:101220003B08B2003A08B1003908B0003808AF00F6
:10123000080003302100A000AA30A1008E31CE2684
:10124000893197310E27893122008E1459082000E8
:10125000C700220058082000C600220057082000BE
:10126000C500220056082000C4000130C80000302C
:10127000C900A531DC25893122005D082000C700A6
:1012800022005C082000C60022005B082000C50088
:1012900022005A082000C4000230C8000030C900F3
:1012A000A531DC25893122008E102100C201C30145
:1012B0004308803AC1006E08803A4102031D62294A
:1012C0006D08420203186E295330890B652900000E
:1012D00001302100C2070030C33D5829A131F82157
:1012E0008931A131F521893122006F082100B9002F
:1012F00022006E082100B8006A08BB006908BA0025
:101300009C31302489312100C401C5014508803A4F
:10131000C1006C08803A4102031D90296B08440209
:1013200003189C295330890B9329000001302100B8
:10133000C4070030C53D862922008E142100BF015C
:10134000C001080003302100BC008A30BB005530CA
:10135000890BA829BB0BA829BC0BA82900322200A5
:101360008E10210039033A04031DC72960082000AC
:10137000C70021005F082000C60021005E08200091
:10138000C50021005D082000C4000130DD290230C5
:10139000210039063A04031DE32960082000C70034
:1013A00021005F082000C60021005E082000C50063
:1013B00021005D082000C4000230C8000030C900D0
:1013C000A531DC2589312100C001C1014008BB00E5
:1013D0004108BC000030BC1BFF30BD00BE003E0811
:1013E000803ABF003808803A3F02031D012A3708BF
:1013F0003D02031D012A36083C02031D012A35085F
:101400003B0203180D2A5330890B042A00000130D7
:101410002100C0070030C13DE62922008E140030B3
:101420002000C7000030C6000030C5000030C400F6
:101430000130C8000030C900A531DC2589310030F9
:101440002000C7000030C6000030C5000030C400D6
:101450000230C8000030C900A531DC25893159307F
:101460002100A000AA30A1008E31CE262100B501B6
:10147000B601080047302100A000A830A1008E313D
:10148000CE268A3181302100A000A830A1008E3103
:10149000CE268A3101302100C9000030CA009731C0
:1014A00087278A31210049084A04031D5B2AFB3043
:1014B000A000A9305F2AF3302100A000A930A100CC
:1014C0008E31CE268A310B302100A000AA30A10037
:1014D0008E31CE268A310A302100B5000030B600A8
:1014E0000130B7000030B8009531AE258A31B630F2
:1014F0002100A000A930A1008E31CE268A310B3008
:101500002100B5000030B6000130B7000030B8004F
:101510009531AE258A3128302100A000A830A100E5
:101520008E31CE268A3102302100C9000030CA0037
:10153000973187278A31210049084A04031DA42ACC
:10154000FB30A000A930A82AF3302100A000A93068
:10155000A1008E31CE268A310B302100A000AA30A6
:10156000A1008E31CE268A310A302100B50000302C
:10157000B6000230B7000030B8009531AE258A3190
:10158000B6302100A000A930A1008E31CE268A31CC
:101590000B302100B5000030B6000230B70000303B
:1015A000B8009531AE258A319B302100A000A830CB
:1015B000A1008E31CE268A3101309A3121228A3122
:1015C00021003608803AD30080305302031DEA2AF6
:1015D00001303502031CF12ACA302100A000A930D5
:1015E000F52AC1302100A000A930A1008E31CE26FD
:1015F0008A3165302100A000A830A1008E31CE26AE
:1016000008005F308400AA308500003F2000C4003D
:10161000013FC5000130C6000030C7009F319C2744
:101620008B315F308400AA308500003F2000C40069
:10163000013FC5000230C6000030C7009F319C2723
:101640008B3101302000C4000030C5000130C600DD
:101650000030C7008B31DE238B3101302000C40005
:101660000030C5000230C6000030C7008B31DE23D9
:101670008B3122008E1421006C082000BA0021005A
:101680006B082000B900A531FD258B3120003908F9
:10169000C2003A08C3003B08C40053308400AA309B
:1016A0008500003FBF00013FC000023FC1008C31F8
:1016B000BC248B3120003F082100A90020004008F5
:1016C0002100AA00200041082100AB000030A60044
:1016D0008030A700BF30A8008631D1268B31210091
:1016E0002608AF002708B0002808B10088319220F2
:1016F0008B3121002F08A2315D228B3121006D0931
:10170000BD006E09BE00BD0A0319BE0A69083D0787
:101710002000B90021006A083E3D2000BA00A53132
:10172000FD258B3120003908C2003A08C3003B0870
:10173000C40056308400AA308500003FBF00013F3E
:10174000C000023FC1008C31BC248B3120003F0817
:101750002100A900200040082100AA002000410823
:101760002100AB000030A6008030A700BF30A800E9
:101770008631D1268B3121002608AF002708B00022
:101780002808B100883192208B3121002F08A23126
:1017900058228B3103302100B6000030B7000C30E6
:1017A000B8000030B9009F3139278B310330210058
:1017B000A000A930A1008E31CE26080020004603EB
:1017C00047040319F22B22004D082000CB00220011
:1017D0004C082000CA0022004B082000C90022004B
:1017E0004A08002C220051082000CB00220050089B
:1017F0002000CA0022004F082000C90022004E0825
:101800002000C8004508803A2100A0008030200256
:10181000031D0D2C013020004402031C112C01304B
:10182000122C00302100A100A201A135A20DA1358A
:10183000A20D20004508803A2100A3008030230239
:10184000031D252C013020004402031C292C0130EB
:101850002A2C00302100A400A501A435A50D2000EC
:101860004508803A2100A60080302602031D3B2C4B
:10187000013020004402031C3F2C0130402C00307A
:101880002100A700A80124082704A900250828048E
:10189000AA0021082904AB0022082A04AC002B0866
:1018A000AD002C08AE000030AE1BFF30AF00B00022
:1018B0002D082000C80421002E082000C9042100A2
:1018C0002F082000CA04210030082000CB0448085B
:1018D0002100A000200049082100A10020004A08A2
:1018E0002100A20020004B082100A3001030A4001A
:1018F000A337A20CA10CA00CA40B782C210820006B
:10190000BD00210020082000BC004908BF00480895
:10191000BE0003302100A50025082000C0004708B4
:10192000C2004608C100A43145248B312000460383
:101930004704031DAB2C4B082200D10020004A08AD
:101940002200D000200049082200CF0020004808D3
:101950002200CE00080020004B082200CD0020000D
:101960004A082200CC00200049082200CB002000B9
:1019700048082200CA00080020003F08C5004008AF
:10198000C6004108C7000310460D470DC8004808AF
:101990002100A0002008031DD52C00302000BF002E
:1019A0000030C0000030C100080020004208C5001F
:1019B0004308C6004408C7000310460D470DC80081
:1019C00048082100A5002508031DEE2C003020004A
:1019D000BF000030C0000030C10008002100250811
:1019E0007B3E2000C50045082100A00720003F08DD
:1019F000C5004008C6004108C7001030C736C60CF5
:101A0000C50C890BFE2C4508C80048082100A5001C
:101A100020004208C5004308C6004408C700103033
:101A2000C736C60CC50C890B102D4508C8004808E0
:101A30002100A50680302000C50045082100A5052D
:101A40002000C017C317FF30C205FF30C3050030A8
:101A5000C40500302100A1000030A2000030A30026
:101A600007302000C50045082100A40020003F1CCD
:101A7000442D42082100A107200043082100A23D77
:101A8000200044082100A33D01302000C136C00CD5
:101A9000BF0C890B452D0130C235C30DC40D890B18
:101AA0004C2D01302100A402031D362D09302000E9
:101AB000C50045082100A40020003F1C6A2D4208F3
:101AC0002100A107200043082100A23D2000440876
:101AD0002100A33D01302000C136C00CBF0C890B92
:101AE0006B2D01302100A336A20CA10C890B722DA5
:101AF0000130A402031D5C2D21082000B10021004B
:101B000022082000B200210023082000B300210099
:101B100020082000C5004508B40021002508200049
:101B2000C6004608B5009331F62320003108BF00F7
:101B30003208C0003308C1000800AB302100A0000B
:101B4000A930A1008E31CE268D31220041084004FB
:101B50003F043E04031DC72D10302100A000A93012
:101B6000A1008E31CE262000D50100302100E800F2
:101B70000030E7000030E6000030E5000030E4000F
:101B80000030E3000030E2000030E10008002200F5
:101B9000C11B522E4108031DD72D4008031DD72D10
:101BA0003F08031DD72D01303E02031C522E00308A
:101BB0002100E8000030E7000030E6000030E500DA
:101BC0006008E4005F08E3005E08E2005D08E100F1
:101BD000893119218D31FF302200BE07FF30BF3D12
:101BE000FF30C03DFF30C13D2100D601D70157086D
:101BF000803AC60080304602031D002E183056027F
:101C00000318080021005D08C6005E08C7005F08D1
:101C1000C8006008C9000130CA000030CB000030A5
:101C2000CC000030CD00560A192ECA35CB0DCC0D94
:101C3000CD0D890B152E4D084C044B044A04031995
:101C4000232E0130242E0030CE00CF01D001D1014F
:101C50004E08C6054F08C7055008C8055108C905F4
:101C60005708D3005608D200D235D30DD235D30D44
:101C70009030D4002730D50052085407860053080E
:101C8000553D87004608810741314708813D413174
:101C90004808813D41314908813D0130D607003077
:101CA000D73DF72D21006008E8005F08E7005E08D7
:101CB000E6005D08E5000030E4000030E30000309D
:101CC000E2000030E100893119218D31013022001C
:101CD000BE070030BF3D0030C03D0030C13D210097
:101CE000D601D7015708803AC60080304602031D4E
:101CF0007B2E183056020318080021005D08C6002C
:101D00005E08C7005F08C8006008C9000130CA004B
:101D10000030CB000030CC000030CD00560A942EAD
:101D2000CA35CB0DCC0DCD0D890B902E4D084C0432
:101D30004B044A0403199E2E01309F2E0030CE0022
:101D4000CF01D001D1014E08C6054F08C705500884
:101D5000C8055108C9055708D3005608D200D23526
:101D6000D30DD235D30D9030D4002730D500520892
:101D7000540786005308553D8700460881024131CB
:101D80004708813B41314808813B41314908813B4B
:101D90007D310130D6070030D73D722EA2302100B0
:101DA000A6002608B30021002108A7002008A600ED
:101DB000A00A0319A10A2608840027088500000844
:101DC000A8002808B4003408031908002530340698
:101DD0000319EF2E3408A2317A228E31D32E21003E
:101DE000B201F62E3216F62E3217132F2108A70055
:101DF0002008A600A00A0319A10A260884002708C3
:101E000085000008B400003A0319FF2F643A031953
:101E1000132F0D3A0319132F053A0319F22E193A0D
:101E20000319F42ED32E321B4A2F321E242F3308CF
:101E300086008701403FAE00413FAF00423FB00007
:101E4000433FB1000430352F330886008701403FFF
:101E5000A600413FA7002608AE002708AF00890D65
:101E6000893B8909B000B1000230A6002608B307FB
:101E7000B11F6A2F0330A6002608B204AE09AF09CD
:101E8000B009B109AE0A0319AF0A0319B00A031960
:101E9000B10A6A2F321E592F330886008701403F4E
:101EA000AE00413FAF00423FB000433FB1000430BD
:101EB000672F330886008701403FA600413FA700F7
:101EC0002608AE002708AF00B001B1010230A6001D
:101ED0002608B307B401B40A0A30340603199D2F4B
:101EE0003408A600A701A635A70DA635A70D00301A
:101EF00026078400A830273D8500003FA800013F49
:101F0000A900023FAA00033FAB002B083102031DCA
:101F1000932F2A083002031D932F29082F02031D37
:101F2000932F28082E02031C9D2F0130A60026089F
:101F3000B4070A303406031D702F32080339031921
:101F4000A52F2D30A2317A228E3121003408AC0029
:101F5000AD01AC1BAD03FF302100AC07FF30AD3D40
:101F60002C0A03192D0A0319D32E00302000C200B9
:101F70000030C1000030C0000A30BF0021002D0831
:101F800085002C0884008435850D8435850D00304E
:101F90008407A830853D003F2000B100013FB2001A
:101FA000023FB300033FB400210031082000B80015
:101FB000210030082000B70021002F082000B600C3
:101FC00021002E082000B5009D3124258E312000EF
:101FD0003408C6003308C5003208C4003108C30005
:101FE000993157218E3120003F08303E2100A60054
:101FF0002608B4003408A2317A228E31AB2F0800B3
:102000000B340034003400341034003420340034F5
:102010002E3400343C34003448340034533400341B
:102020005B34003461340034653400346634003489
:1020300065340034613400345B340034533400348C
:10204000483400343C3400342E340034203400341E
:102050001034003400340034F0340034E034003400
:10206000D2340034C4340034B8340034AD340034D5
:10207000A53400349F3400349B3400349A34003447
:102080009B3400349F340034A5340034AD34003424
:10209000B8340034C4340034D2340034E034003472
:1020A000F034003400340034103400342034003470
:1020B0002E3400343C34003448340034533400347B
:1020C0005B340034613400346534003466340034E9
:1020D00065340034613400345B34003453340034EC
:1020E000483400343C3400342E340034203400347E
:1020F0001034003400340034F0340034E034003460
:10210000D2340034C4340034B8340034AD34003434
:10211000A53400349F3400349B3400349A340034A6
:102120009B3400349F340034A5340034AD34003483
:10213000B8340034C4340034D2340034E0340034D1
:10214000F0340034003400341034003420340034CF
:102150002E3400343C3400344834003453340034DA
:102160005B34003461340034653400346634003448
:1021700065340034613400345B340034533400344B
:10218000483400343C3400342E34003420340034DD
:102190001034003400340034F0340034E0340034BF
:1021A000D2340034C4340034B8340034AD34003494
:1021B000A53400349F3400349B3400349A34003406
:1021C0009B3400349F340034A5340034AD340034E3
:1021D000B8340034C4340034D2340034E034003431
:1021E000F0340034003400340B3400340034003454
:1021F00010340034203400342E3400343C340034A5
:1022000048340034533400345B34003461340034D7
:10221000653400346634003465340034613400348D
:102220005B34003453340034483400343C340034DC
:102230002E340034203400341034003400340034A0
:10224000F0340034E0340034D2340034C434003488
:10225000B8340034AD340034A53400349F34003435
:102260009B3400349A3400349B3400349F3400345F
:10227000A5340034AD340034B8340034C4340034F0
:10228000D2340034E0340034F0340034003400340C
:1022900010340034203400342E3400343C34003404
:1022A00048340034533400345B3400346134003437
:1022B00065340034663400346534003461340034ED
:1022C0005B34003453340034483400343C3400343C
:1022D0002E34003420340034103400340034003400
:1022E000F0340034E0340034D2340034C4340034E8
:1022F000B8340034AD340034A53400349F34003495
:102300009B3400349A3400349B3400349F340034BE
:10231000A5340034AD340034B8340034C43400344F
:10232000D2340034E0340034F0340034003400346B
:1023300010340034203400342E3400343C34003463
:1023400048340034533400345B3400346134003496
:10235000653400346634003465340034613400344C
:102360005B34003453340034483400343C3400349B
:102370002E3400342034003410340034003400345F
:10238000F0340034E0340034D2340034C434003447
:10239000B8340034AD340034A53400349F340034F4
:1023A0009B3400349A3400349B3400349F3400341E
:1023B000A5340034AD340034B8340034C4340034AF
:1023C000D2340034E0340034F034003400340034CB
:1023D0000034003410340034203400342E340034FF
:1023E0003C34003448340034533400345B3400341B
:1023F00061340034653400346634003465340034AC
:10240000613400345B3400345334003448340034D5
:102410003C3400342E340034203400341034003482
:1024200000340034F0340034E0340034D23400346A
:10243000C4340034B8340034AD340034A53400342E
:102440009F3400349B3400349A3400349B3400347D
:102450009F340034A5340034AD340034B834003433
:10246000C4340034D2340034E0340034F034003466
:102470000034003410340034203400342E3400345E
:102480003C34003448340034533400345B3400347A
:10249000613400346534003466340034653400340B
:1024A000613400345B340034533400344834003435
:1024B0003C3400342E3400342034003410340034E2
:1024C00000340034F0340034E0340034D2340034CA
:1024D000C4340034B8340034AD340034A53400348E
:1024E0009F3400349B3400349A3400349B340034DD
:1024F0009F340034A5340034AD340034B834003493
:10250000C4340034D2340034E0340034F0340034C5
:102510000034003410340034203400342E340034BD
:102520003C34003448340034533400345B340034D9
:10253000613400346534003466340034653400346A
:10254000613400345B340034533400344834003494
:102550003C3400342E340034203400341034003441
:1025600000340034F0340034E0340034D234003429
:10257000C4340034B8340034AD340034A5340034ED
:102580009F3400349B3400349A3400349B3400343C
:102590009F340034A5340034AD340034B8340034F2
:1025A000C4340034D2340034E0340034F034003425
:1025B000003400340034003410340034203400344B
:1025C0002E3400343C340034483400345334003466
:1025D0005B340034613400346534003466340034D4
:1025E00065340034613400345B34003453340034D7
:1025F000483400343C3400342E3400342034003469
:102600001034003400340034F0340034E03400344A
:10261000D2340034C4340034B8340034AD3400341F
:10262000A53400349F3400349B3400349A34003491
:102630009B3400349F340034A5340034AD3400346E
:10264000B8340034C4340034D2340034E0340034BC
:10265000F0340034003400341034003420340034BA
:102660002E3400343C3400344834003453340034C5
:102670005B34003461340034653400346634003433
:1026800065340034613400345B3400345334003436
:10269000483400343C3400342E34003420340034C8
:1026A0001034003400340034F0340034E0340034AA
:1026B000D2340034C4340034B8340034AD3400347F
:1026C000A53400349F3400349B3400349A340034F1
:1026D0009B3400349F340034A5340034AD340034CE
:1026E000B8340034C4340034D2340034E03400341C
:1026F000F03400340034003410340034203400341A
:102700002E3400343C340034483400345334003424
:102710005B34003461340034653400346634003492
:1027200065340034613400345B3400345334003495
:10273000483400343C3400342E3400342034003427
:102740001034003400340034F0340034E034003409
:10275000D2340034C4340034B8340034AD340034DE
:10276000A53400349F3400349B3400349A34003450
:102770009B3400349F340034A5340034AD3400342D
:10278000B8340034C4340034D2340034E03400347B
:10279000F03400340034003422002015D92BA2314B
:1027A00020220800A131EF2103300800A2312422A9
:1027B000080022003808F0007008F0000C30203EBD
:1027C000860001308700413F8A00403F0A00933174
:1027D000013A0319D62B033A0319CF2B013A0319F7
:1027E000CF2B073A0319D22BD62B08002000340830
:1027F0000319FF2B330832043104031D102C003061
:10280000B1000030B2000030B30008000130B60063
:102810003608B4070130B336B20CB10C890B0B2C5F
:10282000FE3033050319292C062C0130B60036087A
:10283000B4070130B107003003180130B20700308F
:1028400003180130B3070130B336B20CB10C890B59
:10285000242CFF3033050319362C152C0130B4021B
:102860000130B135B20DB30D890B312CB21B3C2CAC
:102870000230340203182E2C3418442CFF30B105DA
:102880007F30B205FF30B3050310B40C3408B60036
:10289000B701B8011030B635B70DB80D890B4B2C08
:1028A0003608B1043708B2043808B30435080319F0
:1028B0000800B3170800883100209431A3302100AC
:1028C000D8005530890B622CD80B622C8B170B1754
:1028D0005E302100A000A930A1008E31CE269431B7
:1028E0008B31012394317B2C8D319D2594317B2CB0
:1028F0008031C0209431200056080319A72CA5313F
:102900007B2594312100D80020005208C53E860066
:102910000130870021005808810020005208C53E80
:102920008600013087000A300106031DA22C5208E0
:10293000C53E860001308700810101302200E4009D
:102940000030E50001302000D2070030D33D2200E6
:10295000640865040319C02CB0302100D800580861
:102960002000C500C53085312F2594312200E401B7
:10297000E5012000D201D301B030833170239431BE
:1029800020005508013A0319742C033A0319782CD6
:102990007B2C7B2C2000BE003E0886000130870087
:1029A00020300106031DD92C0130B9003908BE07BB
:1029B000CC2C3E088600013087000930010603193F
:1029C000D42CBC01BD01BB013E088600013087004C
:1029D0002D300106031DF12C0130B9003908BB0769
:1029E000F92C3E088600013087002B300106031DBC
:1029F000FD2C0130B9003908BE073E0886000130C1
:102A000087000108A331C4239431031C262D200024
:102A10003D08B2003C08B1000A30B3000030B400F9
:102A2000A431C824943120003E088600013087007C
:102A300001083107B90032080318320ABA00390810
:102A4000D03EBC00FF303A3DBD00F92C20003B08D1
:102A50000319362D3C09B9003D09BA00B90A03191A
:102A6000BA0A3908B7003A08B80008003D08B800AB
:102A70003C08B700080021003608803A2000C90051
:102A800080304902031D472D1830210035020318FC
:102A9000A12D2100370838040319712D01302000C1
:102AA000C9000030CA000030CB000030CC0021004B
:102AB000350A20005F2DC935CA0DCB0DCC0D890B11
:102AC0005B2D49082100D90420004A082100DA04BE
:102AD00020004B082100DB0420004C082100DC040E
:102AE000972D01302000C9000030CA000030CB0013
:102AF0000030CC002100350A2000822DC935CA0DD6
:102B0000CB0DCC0D890B7E2DC909CA09CB09CC0987
:102B100049082100D90520004A082100DA052000D3
:102B20004B082100DB0520004C082100DC05593052
:102B3000A000AA30A1008E31CE262100B501B60139
:102B400008005C302100A000AA30A1008E31CE2602
:102B500001302100B5000030B600080022008E14BC
:102B6000FF302000C700FF30C600FF30C500FF3037
:102B7000C400210038082000C900210037082000C7
:102B8000C800A531DC25953100302000BC00BD0017
:102B90000030BE00BF0021003508B9003908200010
:102BA000C000210038082000C200210037082000A2
:102BB000C100A4314524953122008E101730210028
:102BC000BA000030BB00BB1B1C2E22000C150032CB
:102BD00022000C1120000E1FF92D4F302100A00003
:102BE000AA30A1003B08A3003A08A2008E31CE26ED
:102BF0009531173021003A063B04031D152E2200A3
:102C00008E1400302000C7000030C6000030C50020
:102C10000030C400210038082000C9002100370816
:102C20002000C800A531DC259531FF302100BA070E
:102C3000FF30BB3DBB1FE52D6330A000A830A100D5
:102C40008E31CE2608002000C901CA014A08803A08
:102C50002100B70080303702031D312E18302000CC
:102C6000490203188D2E21005D08B7005E08B800E8
:102C70005F08B9006008BA000130BB000030BC003A
:102C80000030BD000030BE002000490A21004C2E5B
:102C9000BB35BC0DBD0DBE0D890B482E3B08B705DD
:102CA0003C08B8053D08B9053E08BA053A0839049C
:102CB0003804370403197B2E20004A082100B8008D
:102CC000200049082100B700B735B80DB735B80D59
:102CD0009030B9002730BA0037083907BB003808F0
:102CE0003A3DBC003B0886003C0887000030C03FEE
:102CF000C13FC23FC33F01302000C9070030CA3D79
:102D00004A08803A2100B70080303702031D8B2E1D
:102D1000183020004902031C332E59302100A00036
:102D2000AA30A1008E31CE262100B501B6010800DF
:102D300021005908B9005A08BA005B08BB005C08BA
:102D4000BC000130BD000030BE000030BF000030CC
:102D5000C000350AAF2EBD35BE0DBF0DC00D890BAD
:102D6000AB2E3D08B9053E08BA053F08BB05400833
:102D7000BC053C083B043A0439040319022F370808
:102D800038040319DC2E0130B9000030BA000030DD
:102D9000BB000030BC00350AD12EB935BA0DBB0DD1
:102DA000BC0D890BCD2E3908DD043A08DE043B0842
:102DB000DF043C08E004F82E0130B9000030BA000E
:102DC0000030BB000030BC00350AEA2EB935BA0D20
:102DD000BB0DBC0D890BE62EB909BA09BB09BC09AC
:102DE0003908DD053A08DE053B08DF053C08E0054B
:102DF0005930A000AA30A1008E31CE262100B501A5
:102E0000B60108005C30A000AA30A1008E31CE26A9
:102E100001302100B5000030B6000800210059083B
:102E200061052200D60021005A0862052200D70061
:102E300021005B0863052200D80021005C086405BE
:102E40002200D900210061092000B100210062099F
:102E50002000B200210063092000B30021006409B2
:102E60002000B40021005908200031052200DA00BA
:102E700021005A08200032052200DB0021005B08F7
:102E8000200033052200DC0021005C08200034050E
:102E90002200DD002100590865052200DE00210026
:102EA0005A0866052200DF0021005B086705220042
:102EB000E00021005C0868052200E10021006509AE
:102EC0002000B100210066092000B200210067093E
:102ED0002000B300210068092000B4002100590837
:102EE000200031052200D20021005A0820003205BE
:102EF0002200D30021005B08200033052200D4000B
:102F000021005C08200034052200D50008002100C3
:102F100049034A0403199B2F22004D082100D000C9
:102F200022004C082100CF0022004B082100CE00D7
:102F300022004A08A92F220051082100D0002200B7
:102F400050082100CF0022004F082100CE002200AF
:102F50004E082100CD0001302000C4000030C50023
:102F600021004A082000C700210049082000C600AF
:102F70008B31DE23973121004A08C6004908C5007D
:102F8000A631AE26973121004608CC004508CB007B
:102F9000D01BD92F5008031DD72F4F08031DD72F43
:102FA0004E08031DD72F01304D02031CD92F0130CD
:102FB000DA2F00302000CC00CD014C08C4004D08B1
:102FC000C50021004A082000C70021004908200050
:102FD000C6008B31DE239731073021004B064C04AD
:102FE0000319F42F0130F52F00302000CC00CD0163
:102FF0004C082100C90020004D082100CA0008002B
:103000002200201C08000030A33162239831A63131
:10301000F726983100282000BE00BC01BD01182809
:103020000130BA003A08BE070130BC070030BD3D90
:103030003E08860001308700010803193628390848
:10304000B2003808B1003E08860001308700010850
:10305000BA00BB013A08B3003B08B400A43177249E
:103060009831200031083204031D10283D08B900B2
:103070003C08B800080022008C018D018E0133301D
:1030800021008C0060308D00F8308E0023008E010E
:103090008D018C0124008D018C01C0308E00250033
:1030A0008C018D018E013C002108E0390D38A10012
:1030B0002008E0390E38A0002408E0391738A400B1
:1030C0003D001F08E03914389F001E08E039183809
:1030D0009E001D08E03919389D0008002000B80046
:1030E00079280130B5003508B8070130B307003042
:1030F000B43D33088400340885000008A331D3238D
:103100009831FF3A013E2000B500380886000130B2
:1031100087000108A331D323983120003507B6007A
:103120003608B7003708031D9C2838088600013090
:1031300087000108031D71283708B300B401B31BD1
:10314000B4030800220061082000AA0022006008E1
:103150002000A90022005F082000A80022005E08CD
:103160002000A7000130AB000030AC00A531BB252A
:103170009831220055082000AA002200540820009F
:10318000A900220053082000A800220052082000B5
:10319000A7000230AB000030AC00A531BB25983150
:1031A00022008E10A131D72198310030A231442263
:1031B000080022002208860023088700A131EC21A4
:1031C0009831810001302200A2070030A33D013078
:1031D000A4020030A53B240825040319F328A231DA
:1031E0001022053008002015FB28A23130220800EB
:1031F000A2312C22080022003808F0007008F000EC
:103200000C30203E860001308700413F8A00403F5D
:103210000A009931013A0319F828033A0319F528ED
:10322000013A0319F528073A0319F828F828080085
:103230002100B61B51293608803A2000C900803091
:103240004902031D2629183021003502031851298F
:103250004B302100A000AA30A10036082000CA008F
:10326000210035082000C900C935CA0DC935CA0D6D
:103270009030CB002730CC0049084B0786004A0825
:103280004C3D8700403F2100A200413FA300423F48
:10329000A400433FA5008E31CE262100B501B60122
:1032A000080001302100B5000030B6000800200001
:1032B0004208410440043F0403199129C801C80A87
:1032C000C21B6E290130BF35C00DC10DC20D890B67
:1032D00063290130C7004708C80760294208460231
:1032E000031D7C2941084502031D7C294008440236
:1032F000031D7C293F084302031C86293F08C302A3
:103300004008C43B4108C53B4208C63B0130C236B9
:10331000C10CC00CBF0C890B87290130C802031DEA
:103320006E294608C2004508C1004408C000430891
:10333000BF0008002100B801B901B629B801B901E0
:10334000C9290130A6290230A6290330B80000306F
:10335000B900C9295C30A000AA30A1008E31CE2668
:1033600001302100B5000030B60008003608003AF0
:103370000319BB29AA293508003A03199E29013AE5
:103380000319A129033A0319A329013A0319A5290D
:10339000AA293808B70037082000C9000130A63133
:1033A0008A26993159302100A000AA30A1008E311F
:1033B000CE262100B501B60108007E1CE129983116
:1033C000D92822002208860023088700A23107227C
:1033D0009931810001302200A2070030A33D013065
:1033E000A4020030A53B240825040319FB29A231BF
:1033F0003822053008002015032AA231D422080003
:10340000A231CC220800220038082000B100310887
:10341000B1000C30203E860001308700413F8A0019
:10342000403F0A009A31013A0319002A033A03196E
:10343000FD29013A0319FD29073A0319002A002A38
:1034400008002000CB00CC014B30B1000030B200AE
:103450000130B3000030B4008731EB279A310030DF
:10346000A63166269A31003A03193E2ACB30210054
:10347000A000A830A1008E31CE269A310830890BE9
:103480003F2A00004C302000B1000030B200013073
:10349000B3000030B4008731EB279A310130A631F8
:1034A00066269A31003A03195C2ADD302100A0001B
:1034B000A830A1008E31CE2620004C08C900CA01D8
:1034C00049082100B50020004A082100B600080084
:1034D00073037404031D6F2A22000D12712A220047
:1034E0000E100F30F9000030FA00FA1BA82A0C1158
:1034F0000130F5000030F600790A802AF535F60D26
:10350000890B7E2A70087505F70071087605F800AA
:103510007708780403198E2A0E158F2A0E11720867
:10352000F500F6017A087606031D982A79087506D3
:10353000031DA12A73037404031DA02A0D16A12ADA
:103540000E140C15FF30F907FF30FA3DFA1F772AE9
:103550000C1173037404031DAF2A0D1208000E1022
:1035600008002000C4004408031DBA2A5408C10002
:103570004108C4004408031DBF2A00300800400869
:10358000B9003F08B800440898310B209A31200058
:103590003808C1004108C40744088600013087008C
:1035A0000108031DD62AD401003008004008B900E4
:1035B0003F08B8004408A731D0279A3120003808C6
:1035C000C1003908C20044084107C3004308D400C1
:1035D000540886000130870001080319F92A5408AD
:1035E00086000130870081010130C1004108D40705
:1035F000FA2AD401440808002000B500B401B40A36
:103600002200A018080020003508B300330822006B
:10361000A1002010A014A0110E302000B300330828
:103620002200AA00F430A8000130A900201568305B
:10363000AC002230AD00B8016830AE002230AF00DF
:10364000B9016830B0002230B100BA016830B20070
:103650002230B300BB016E30B4002230B500BC0193
:10366000A33142239A31A2310D229A31E030200059
:10367000B1002130B200A33108239A31F730200085
:10368000B1002630B200A33111232000B40108009C
:1036900017302100B7000030B800B81B8B2B4F301B
:1036A000A000AA30A1005D082000C90021005E082A
:1036B0002000CA0021005F082000CB002100600824
:1036C0002000CC002100370A20006B2B0310CC0C0B
:1036D000CB0CCA0CC90CFF3E031D662B01304905FB
:1036E0002100A200003020004A052100A300003084
:1036F00020004B052100A400003020004C052100D3
:10370000A5008E31CE269B31FF302100B707FF3058
:10371000B83DB81F4F2B6330A000A830A1008E31F8
:10372000CE262100B501B601080017302100B700F0
:103730000030B800B81BD82B4F30A000AA30A10031
:1037400059082000C90021005A082000CA002100A1
:103750005B082000CB0021005C082000CC00210089
:10376000370A2000B82B0310CC0CCB0CCA0CC90CA8
:10377000FF3E031DB32B013049052100A20000309C
:1037800020004A052100A300003020004B05210045
:10379000A400003020004C052100A5008E31CE266B
:1037A0009B31FF302100B707FF30B83DB81F9C2B7D
:1037B0006330A000A830A1008E31CE262100B501D3
:1037C000B6010800A3316D239B310318F12B0E2C99
:1037D000A23118220800A2311C220800A2312422A2
:1037E000080022003B08F1007108F0001230203E72
:1037F000860001308700413F8A00403F0A009B312C
:10380000013A0319EE2B033A0319E82B013A031985
:10381000EB2B073A0319EE2BEE2B08002200A01128
:103820002308F2002208F100A20A0319A30A710872
:103830008400720885000008A2314E229B310130BD
:103840002200A4020030A53B24082504031D2A2CD5
:1038500006302B2C0330F3000030F400730808000E
:103860002000C9010B30A6318A269C312100BD0100
:10387000BE0105302000B1000030B20021003B083D
:103880002000B40021003A082000B3009C318024BD
:103890009C3121003E08803ABC0020003208803A6A
:1038A00021003C02031D582C2000310821003D025C
:1038B00003186D2C21003808BC003C082000C9000A
:1038C0000B30A6318A269C310032003200000130D4
:1038D0002100BD070030BE3D392CA331E3239C31CC
:1038E00003187A2CEE302100A000A830A1008E3100
:1038F000CE269C312000C9010B30A6318A26080053
:103900002000B701B21F8B2CB109B209B10A03190B
:10391000B20AB701B70AB41F962CB309B409B30AA7
:103920000319B40A0130B5003508B706B801B9016A
:10393000310832040319C52CB601B60AB21BAA2CF1
:103940000130B135B20D890BA12C0130B50035081D
:10395000B6079E2C0130B835B90D890BAB2C320857
:103960003402031DB52C31083302031CBC2C310872
:10397000B3023208B43B38140130B236B10C890BB3
:10398000BD2C0130B602031DAA2C37080319CD2C1B
:10399000B809B909B80A0319B90A3908B2003808D0
:1039A000B100080021003E08EC003D08EB006C0867
:1039B0002000BA0021006B082000B900A531FD25C8
:1039C0009C3120003908C2003A08C3003B08C400FB
:1039D00053308400AA308500003FBF00013FC00083
:1039E000023FC1008C31BC249C3120003F082100E3
:1039F000A900200040082100AA0020004108210061
:103A0000AB000030A6008030A700BF30A800863190
:103A1000D1269C3121002608AF002708B0002808D5
:103A2000B100883192209C3121002F08A2315D2203
:103A30009C3159302100A000AA30A1008E31CE2641
:103A40002100BD01BE01080000302000BD00003093
:103A5000BC000030BB000030BA003408330432042C
:103A6000310403196E2DBE01BE0AB41B432D013073
:103A7000B135B20DB30DB40D890B382D0130B9003D
:103A80003908BE07352D0130BA35BB0DBC0DBD0D53
:103A9000890B442D34083802031D582D3308370292
:103AA000031D582D32083602031D582D31083502EA
:103AB000031C632D3108B5023208B63B3308B73B0F
:103AC0003408B83B3A140130B436B30CB20CB10C24
:103AD000890B642D0130BE02031D432D3D08B40047
:103AE0003C08B3003B08B2003A08B10008002000CF
:103AF00034033504031D7F2D22000D12812D220079
:103B00000E100F302000BA000030BB00BB1BC22DCE
:103B100022000C1101302000B6000030B7003A0A34
:103B2000932DB635B70D890B912D31083605B800A8
:103B300032083705B900380839040319A22D2200CC
:103B40000E15A42D22000E1120003308B600B70177
:103B50003B083706031DAE2D3A083606031DB92D66
:103B600034033504031DB72D22000D16B92D220094
:103B70000E1422000C15FF302000BA07FF30BB3DA9
:103B8000BB1F882D22000C11200034033504031DB7
:103B9000CC2D22000D12080022000E1008007E1C01
:103BA000D32D9B31E22BA331B7239D310318E22D96
:103BB000002EA231A4220800A231AC220800A231BA
:103BC000BC22080022003B082000B2003208B100ED
:103BD0001230203E860001308700413F8A00403F7E
:103BE0000A009D31013A0319DF2D033A0319D92D3B
:103BF000013A0319DC2D073A0319DF2DDF2D0800E8
:103C00002200A01123082000B30022002208200077
:103C1000B2002200A20A0319A30A2000320884007D
:103C2000330885000008A23174229D310130220042
:103C3000A4020030A53B24082504031D212E0630D4
:103C4000222E03302000B4000030B50034080800F4
:103C500000302100C2000030C1000030C000003040
:103C6000BF0022000D1217302100C3000030C40035
:103C7000C41B682E22000C1520000E0E890C890C26
:103C800001392100B900BA01430A482EB935BA0DED
:103C9000890B462E3908BB003A08BC000030BC1B1B
:103CA000FF30BD00BE003B08BF043C08C0043D0817
:103CB000C1043E08C20422000C110830890B5E2E9C
:103CC0000000FF302100C307FF30C43DC41F3A2E5F
:103CD00022000C1130302100A000A930A1004208C0
:103CE000A5004108A4004008A3003F08A2008E31AF
:103CF000CE2621004208B8004108B7004008B600AF
:103D00003F08B500080021003E08EA003D08E90030
:103D10006D09BF006E09C000BF0A0319C00A690817
:103D20003F072000B90021006A08403D2000BA008A
:103D3000A531FD259E3120003908C2003A08C30094
:103D40003B08C40056308400AA308500003FBF0005
:103D5000013FC000023FC1008C31BC249E312000D5
:103D60003F082100A900200040082100AA002000EF
:103D700041082100AB000030A6008030A700BF3012
:103D8000A8008631D1269E3121002608AF002708E1
:103D9000B0002808B100883192209E3121002F0800
:103DA000A23158229E3159302100A000AA30A10032
:103DB0008E31CE262100BD01BE01080021003E0843
:103DC000EE003D08ED006D09BF006E09C000BF0A9E
:103DD0000319C00A69083F072000B90021006A08DA
:103DE000403D2000BA00A531FD259E312000390854
:103DF000C2003A08C3003B08C40056308400AA3011
:103E00008500003FBF00013FC000023FC1008C3170
:103E1000BC249E3120003F082100A900200040085A
:103E20002100AA00200041082100AB000030A600BC
:103E30008030A700BF30A8008631D1269E312100F6
:103E40002608AF002708B0002808B100883192206A
:103E50009E3121002F08A23158229E315930210075
:103E6000A000AA30A1008E31CE262100BD01BE01E6
:103E7000080067308400AA3085000008A231DC22E7
:103E80009F3167308400AA30850000089A31FC22F7
:103E90009F3104302100BA003D30890B4D2FBA0B01
:103EA0004D2F0032A33138239F3104302100BA0056
:103EB0003D30890B592FBA0B592F00322000C90110
:103EC0000230A6318A269F3104302100BA003D30ED
:103ED000890B682FBA0B682F00322100360838385A
:103EE000BA003A082000C9000130A6318A269F3165
:103EF00004302100BA003D30890B7C2FBA0B7C2F97
:103F0000003221003808BA003A082000C900023007
:103F1000A6318A269F3104302100BA003D30890B3A
:103F20008F2FBA0B8F2F0032FF302100A000A83056
:103F3000A1008E31CE26080020004508803AC80036
:103F400080304802031DA62F40304402031CAD2FD1
:103F50003F302000C4000030C50020004508C900E3
:103F60004408C800480EF039C900C8014508CB0014
:103F70004408CA000630CA35CB0D890BBB2F480850
:103F80004A04CC0049084B04CD0044084C042100ED
:103F9000A000200045084D042100A100A201A11BA2
:103FA000A2032208A30020082000C8002100210845
:103FB0002000C900210022082000CA002100230897
:103FC0002000CB001030CB36CA0CC90CC80C890BB2
:103FD000E32F4908BD004808BC002100210820004B
:103FE000BF00210020082000BE000730CC004C0894
:103FF000C0004708C2004608C100A431452408009B
:1040000083318C2B8331782B8331A02B8531142D78
:1040100084319B2C8431B82C8331B42B8331BF2B5A
:104020008331D32B8331E72B8331FB2B84310F2C4E
:104030008431232C8431402C84315D2C84317A2CC2
:104040008431D52C8431E02C8431EB2C8431F62C56
:084050008531012D85310C2D95
:1043A20008000800013008000530080020009713BB
:1043B200080020001F110800200011110800A1317F
:1043C200DD210800240096140800240016150800B8
:1043D20024009615080024001108080020009115F9
:1043E2000800200091110800200097170800200003
:1043F2001F15080024001614080024009614080053
:10440200240016150800240096150800240011083F
:1044120008002000911508002000911108002400D6
:104422009612161608002400961616160800A131D8
:10443200E32101300800A131E32102300800A1315B
:10444200E32101300800A131E62100300800A23149
:10445200102205300800A23114220A300800A231CD
:1044620014220930080016302100970008002400A9
:104472009612161608002400961616160800013425
:10448200003400340034F000700820009500080069
:10449200F000700820009D000800F0007008240061
:1044A2009100080022002010AB010E30080020000D
:1044B200B1003108960008002000B10031089E00CA
:1044C20008002200A011A131E921043008007E1C5D
:1044D2006C2AA131D329013008007E1C722AA13135
:1044E200D529053008002000B100310824009100D0
:1044F20008002000B3003308A631D2260800E834B1
:1045020003340A3400340A340034A131D1212200A8
:104512002010AB010E3008002200A0152135A23177
:104522004E22033008002200A0150314210DA231EF
:104532004E2205300800320091019201930194014C
:104542009501960108007E1CA82AA231182AA131E1
:10455200FE21013008007E1CB02AA2311C2AA131A2
:10456200FE21023008007E1CB82AA231202AA13185
:10457200FE21013008007E1CC02AA231242AA23169
:104582000122003008007E1CC82AA231282AA2314A
:104592003822053008007E1CD02AA2312C2AA231F2
:1045A2003C220A3008007E1CD82AA231302AA231CD
:1045B2003C22093008002000B2003208B100310864
:1045C2002200A100080022008E14A131DA21A231BA
:1045D2000030A23149220800200032082200ED00FA
:1045E200200031082200EC000800200032082300DD
:1045F200DA00200031082300D90008007E1C032BBA
:10460200A231532A22002010AB010E3008002000F4
:1046120032082200EB00200031082200EA000800E4
:10462200200032082200E900200031082200E800C0
:1046320008006230320099009B019D0103309F0007
:1046420020309E0008007E1C282BA231622A220004
:10465200A011A2310422043008002100110C200014
:10466200B100B10C310C0139B200320C08008030BB
:104672002100B50035082000C9000230A6318A2683
:1046820008002400951A080094012830950096012C
:104692000330920008007E1C502BA231862AA131E1
:1046A200D22122002010AB010E3008007E1C5B2BB1
:1046B200A2318D2A2200A0152135A23174220330A5
:1046C2000800200091190800200091190800083004
:1046D200890B692B0000652B24001608BF3940386E
:1046E2009600160E890C890C0139F000700C080036
:1046F2007E1C7D2BA231942A2200A0150314210DC9
:10470200A2317422053008006400800101310130B9
:10471200FE020030FF3B7F087E0403190034862B23
:10472200FE0012001E000130FE020030FF3B7F0837
:104732007E0403190034922B2000901222006C0890
:104742006D04031908006D088A006C080A00A33181
:10475200080020009110230059085A040319080088
:104762005A088A0059080A00A331080024001608D2
:10477200BF3940389600160E890C890C0139200089
:10478200B100310C08002000B200B1013A3032020F
:104792000318D12B30303202031CD12BB101B10AE4
:1047A200310C08002000B2007B3032020318E12BEA
:1047B20061303202031CE12BDF30B1003108B20557
:1047C2003208080000309A312122A3312100350835
:1047D2002000CD004D082100B700371CF22B03103A
:1047E2000800031408000F3020009E009D01911064
:1047F20021009114E4302000B1002230B200A23135
:10480200F6224E3020009F000800210036082200C8
:10481200EF00210035082200EE0059302100A000EF
:10482200AA30A1008E31CE262100B501B6010800C2
:1048320058302000980061309600950190122100B6
:104842009016A2302000B1001830B200A231ED2241
:10485200893020009700080020002108F10020087C
:10486200F000A7311D27A43120002308F1002208FF
:10487200F0002408FB007B08F2002608F40025085B
:10488200F3009A316822080020003D08B2003C087B
:10489200B100A731A027A43120003F08B2003E0892
:1048A200B1004008C3004308B3004208B500410804
:1048B200B4009D31772508002100911211120830B1
:1048C20023009F0090309D0024309E0019309B00F1
:1048D2009C01FD012000D9010830B1003108DE0041
:1048E200D801D701D6012100911608002000310815
:1048F20084003208850000083306031908003208D4
:10490200B6003108B500B10A0319B20A35088400AD
:10491200360885001200031D772CB101B201080090
:104922002000D501D50A210035082200BE00210051
:1049320036082200BF00890D893B8909C000C100E9
:1049420059302100A000AA30A1008E31CE262100CC
:10495200B501B601080023009D1CB12C1D121D16C5
:104962001908F00020005808A03E86000130870098
:10497200700881000130F0007008D8070830580232
:104982000318D8010130F0007008D6070800200093
:10499200B501B601311CD12C3308B5073408B63D38
:1049A2000130B335B40D890BD22C0130B236B10CC3
:1049B200890BD72C31083204031DCB2C3608B200E8
:1049C2003508B100080002302000C9004908D500AE
:1049D200210035082000CE00210036082000CF003B
:1049E200890D893B8909D000D10059302100A000EE
:1049F200AA30A1008E31CE262100B501B6010800F1
:104A0200083020005E0203181C2D5908A83E8600BB
:104A120001308700010823009A000130F00070087D
:104A22002000D907083059020318D9010130F000DB
:104A32007008DE0708002100111208002100360864
:104A42002000C500210035082000C40021003808DC
:104A52002000C700210037082000C6008B31DE236A
:104A6200A53159302100A000AA30A1008E31CE26F6
:104A72002100B501B6010800210036082000C5005A
:104A8200210035082000C400210038082000C7009A
:104A9200210037082000C6009F319C27A5315930DC
:104AA2002100A000AA30A1008E31CE262100B5013E
:104AB200B6010800A131F221A5312200A01D6B2D03
:104AC200A3316D23A531031C6B2D0F30F500750842
:104AD2002200AA0022002A35203E860002308700EA
:104AE200413F8A00403F0A00A531F50075082200C7
:104AF200AA0008002000B201560803197D2D5708AC
:104B0200A03E8600013087000108B1003108B200E2
:104B12000130B1003108D707083057020318D70116
:104B22002100911201302000D602210091162000AE
:104B320032080800FF3422347934233457342334C2
:104B4200CF341D34DD341934243423347134273402
:104B5200A4342234AC342234B4342234BC3422346B
:104B6200C4342234CC342234D43422344C3423346A
:104B72004634273420002708AD002808AE00290853
:104B8200AF002A08B0001030B036AF0CAE0CAD0C3E
:104B9200890BC52D2E08A1002D08A0002808A3000E
:104BA2002708A200A401A40A2C08A6002B08A5002D
:104BB200A4312D24080020004408CA004508CB0077
:104BC2004608CC004708CD001030CD36CC0CCB0CBB
:104BD200CA0C890BE62D4B08BD004A08BC004508EB
:104BE200BF004408BE00C001C00A4908C20048080C
:104BF200C100A431452408002000BE01BA1F082EBE
:104C0200B909BA09B90A0319BA0ABE01BE0A3908B2
:104C1200B1003A08B200B3018E30BC003C08B400C7
:104C22003E08BD003D08B5009331F623200031084F
:104C3200B9003208BA003308BB000800382E6530CC
:104C42002100A000AA30A1008E31CE260800243017
:104C52002100A000AA30A1008E31CE2608006330C8
:104C62002100A000AA30A1008E31CE26080020002B
:104C72005508013A0319202E033A0319282E302E23
:104C820008002200A0110230F0007008AB004F2E85
:104C9200A23120220800A2312422080022003A0870
:104CA200F0007008F0001030203E860001308700CE
:104CB200413F8A00403F0A00A631023A0319492EB9
:104CC200013A0319492E4C2E08002000B800B90100
:104CD200B90A22002018872E20142000B9013808B2
:104CE2000319772E2200AA01AA0A7D2E0230200083
:104CF200B70037082200AA00A131FB21A631A33157
:104D02002E23A6310318872E98310020200039085F
:104D120008002000CB004B08CA004A08CC00490812
:104D2200CA004A08CD004C30B1000030B200023057
:104D3200B3000030B4008731EB27A6310030A63132
:104D42006626A631003A03190800CB302100A000E4
:104D5200A830A1008E31CE26080022008E14003029
:104D62002000BC00BD000030BE00BF000530C900FD
:104D72004908C000210046082000C2002100450861
:104D82002000C100A4314524A6319E3128262100ED
:104D92003808C8003708C7003608C6003508C500FD
:104DA20008002000B2005E080319D42E2100111A57
:104DB200DF2E2000320823009A00F42E1112200068
:104DC2003208B1007D08A83E860001308700310814
:104DD20081000130B1003108FD0708307D0203185F
:104DE200FD010130DE022100111608007E1CFB2E9F
:104DF200A5315B2DA2310D22A6312200A01D0C2F60
:104E0200A331B723A631031C0C2F0F302000B600AC
:104E120036082200AA0022002A35203E86000230EF
:104E22008700413F8A00403F0A00A7312000B600B8
:104E320036082200AA00080022000D120F30F600E8
:104E42000030F700F71B442F0C110130F200003044
:104E5200F300760A2E2FF235F30D890B2C2F7008F2
:104E62007205F40071087305F500740875040319DE
:104E72003C2F0E153D2F0E110C15FF30F607FF309B
:104E8200F73DF71F252F0C1108007E1C4A2FA63173
:104E9200422E2200A01102302000B100310822006F
:104EA200AB00592FA231B4220800A231BC22080063
:104EB20022003A082000B1003108B1001030203E33
:104EC200860001308700413F8A00403F0A00A73137
:104ED200023A0319532F013A0319532F562F080090
:104EE2007E1C752F9331CC2B22002015822FA231EC
:104EF200B4220800A2310A2203300800A231BC22E7
:104F02000800220038082000B1003108B1000C303E
:104F1200203E860001308700413F8A00403F0A0060
:104F2200A731013A03197F2F033A0319782F013A67
:104F32000319782F073A03197B2F7F2F08002200CD
:104F42000D120F302000B7000030B800B81BCD2F73
:104F520022000C1101302000B3000030B400370AE7
:104F6200B42FB335B40D890BB22F31083305B50018
:104F720032083405B600350836040319C32F22005F
:104F82000E15C52F22000E110C15FF302000B70799
:104F9200FF30B83DB81FA92F22000C1108002000D5
:104FA200BE00BC01BD01DD2F0130BA003A08BE07C8
:104FB2000130BC070030BD3D3E088600013087004D
:104FC20001080319FB2F3908B2003808B1003E0866
:104FD2008600013087000108BA00BB013A08B3001D
:104FE2003B08B400A4317724A731200031083204F1
:104FF2000319D52F3D08B9003C08B8000800013458
:105002000034003400340A34003400340034643490
:10501200003400340034E8340334003400341034F3
:10502200273400340034A034863401340034403450
:1050320042340F34003480349634983400340034CF
:10504200E134F53405340034CA349A343B340A343A
:10505200743465347334743469346E346734203490
:1050620062346F34743474346F346D3420344C349D
:1050720045344434203464347234693476346534CB
:1050820072342E342E342E340A3400340A342D3441
:105092002D342D342D3473347434613472347434B9
:1050A20069346E346734203463346F346D346D3454
:1050B200203474346534733474342D342D342D34E7
:1050C2002D340A340A3400342D342D342D342D3449
:1050D200663469346E3469347334683465346434E4
:1050E200203463346F346D346D3420347434653459
:1050F200733474342D342D342D342D340A34003469
:10510200743465347334743469346E3467342034DF
:1051120074346F34703420344C3445344434203485
:105122006434723469347634653472342E342E34F5
:105132002E3400340A34743465347334743469346C
:105142006E34673420347034693465347A346F34A1
:1051520020346434723469347634653472342E34D3
:105162002E342E34003455344E34523445344334C4
:105172004F3447344E3449345A344534443420345D
:1051820043344F344D344D3441344E34443421345D
:105192000A3400346434723476345F3477347234CF
:1051A20069347434653420346534723472346F3443
:1051B200723421340A3400346434723476345F3405
:1051C2007234653461346434203465347234723438
:1051D2006F34723421340A340034663469346634EC
:1051E2006F3420346E346F34743420347234653446
:1051F20061346434793421340A34003464347234CE
:105202007634203469346E346934743469346134E8
:105212006C3469347A34653464340A340034723458
:1052220065346C343A34203461346C346C34203458
:10523200743468346534723465340A340034613449
:10524200623473343A34203461346C346C34203434
:10525200743468346534723465340A340034723418
:1052620065346134643420346434613474346134B8
:105272003A34203425346C3475340A340034F4342E
:105282004A34483495349534C734C134DC34453417
:10529200DC346D34C334B33433344034683465346D
:1052A200613474346534723470346F3473347434EA
:1052B200743469346D34653400340A340A34733416
:1052C20079347334743465346D34203464346F3417
:1052D2006E3465340A3400346834653461347434AD
:1052E20065347234703472346534743469346D34B4
:1052F2006534003474346F34673467346C34653425
:10530200683465346134743465347234003434344E
:10531200013448349D34B03445340034DA344234F4
:10532200003480343F347034693465347A346F34F5
:105332006F346E34743469346D34653400347434CB
:1053420069346D3465346834653461347434653479
:105352007234003464346F34523465346C344D34F6
:105362006F34763465340A3400340A340A347334C0
:1053720068346F347234743473343A342034003401
:105382004634413449344C34453444340A340A34C2
:1053920000347034613473347334653464340A34E1
:1053A2000A340034643472347634503465346134EF
:1053B2006B34003464347234763447346134693483
:1053C2006E3400346C346534643467346134693467
:1053D2006E3400346D34733474346134743475341F
:1053E200733400344634413449344C344534443403
:1053F2000A34003470346134733473346534643481
:105402000A34003464346F344D346F347634653486
:105412000A3400346F34703465346E3473343A3481
:105422002034003464346F346D346F347634653430
:1054320000346C346534643470347734723400343C
:1054420067346534743441340034733465347434ED
:10545200413400346734653474344D340034733469
:10546200653474344D340034703469346E346734C6
:10547200003463346F346D346D3400347234653407
:105482006C340034613462347334003470346F34F9
:1054920073340034253464340A34003425346434DB
:1054A200203400340034C8343F340034C8343D342E
:1054B20041340A34003445340A3400343F34003471
:0E54C2007A3400344E340034523400345934FD
:020000040001F9
:08000000FF3FFF3FFF3FFF3F00
:08000E00ECFFF3FFFFFFFFFF11
:00000001FF
