:1000000080315028053008007E14803120007F08A0
:10001000FC002100901E13282000901E1328A131FF
:10002000442180314B280B1F4B282100111D222811
:100030002000111D2228220067088A0066080A0095
:1000400080314B282100911D2F282000911D2F2841
:10005000220065088A0064080A0080314B282100CC
:10006000911C39282000911C3928A131512180315F
:100070004B282100911E43282000911E4328A231C5
:10008000942280314B282100111E4B282000111E84
:100090004B28A231E9227C082000FF007E100900D5
:1000A00080315228A6308400AF3085005A30860057
:1000B000003087000030FF0004308731F4278031A2
:1000C000EC308400AF308500EA30860000308700D5
:1000D0000030FF0006308731F4278031E63084009D
:1000E000AF30850068308600013087000030FF00A7
:1000F00006308731F4278031A2308400A330850098
:1001000048308600023087000030FF002030873101
:10011000F427803190308400273085006030FE0065
:100120000030FF00A13138218031FD014E308400C4
:10013000003085000C30FE000030FF00A131382176
:100140008031DE308400003085000C30FE0000304D
:10015000FF00A1313821803120308400013085003A
:100160004830FE000030FF00A13138218031A0303E
:100170008400013085004130FE000030FF00A131D5
:100180003821803120308400023085002830FE0084
:100190000030FF00A13138218031A03084000230CE
:1001A00085002830FE000030FF00A13138217E108C
:1001B00020009F31922F01302100C9000030CA0079
:1001C000CB01CC014C08803A2500C80080304802A1
:1001D000031DED28183021004B020318732921005C
:1001E00062082500C800210063082500C90021001D
:1001F00064082500CA00210065082500CB000130F5
:10020000CC000030CD000030CE000030CF00210007
:100210004B0A25000F29CC35CD0DCE0DCF0D890B06
:100220000B294C08C8054D08C9054E08CA054F08DA
:10023000CB054B084A0449044804031961292100ED
:100240004C082500C90021004B082500C800C8350E
:10025000C90DC835C90D9030CA002730CB004808F9
:100260004A07860049084B3D8700403FCC00413F8C
:10027000CD00423FCE00433FCF0022004108250081
:100280004F06031D53292200400825004E06031D7A
:10029000532922003F0825004D06031D5329220043
:1002A0003E0825004C06031D57290130582900300F
:1002B000D000D10150082100C905250051082100B6
:1002C000CA0501302100CB070030CC3D4C08803AF4
:1002D0002500C80080304802031D71291830210014
:1002E0004B02031CEF28210049084A0403199329F3
:1002F000FF30A000A830A1008E31CE262000D5010D
:1003000000302100E9000030E8000030E700003054
:10031000E60000302000D1000030D0000030CF00D7
:100320000030CE0008002100CF01D0015008803AF3
:100330002500C80080304802031DA1291830210083
:100340004F020318D82A210062082500C8002100A6
:1003500063082500C900210064082500CA002100A7
:1003600065082500CB00210050082500CD002100A4
:100370004F082500CC00CC35CD0DCC35CD0D9030BF
:10038000CE002730CF004C084E0786004D084F3D69
:100390008700403FD000413FD100423FD200433F61
:1003A000D30022004108803A2500D4005308803A47
:1003B00054022200031DEC292500520822004002AD
:1003C000031DEC292500510822003F02031DEC29E2
:1003D0002500500822003E020318F0290130F129BF
:1003E00000302500D500D60121004F0A2500FA294A
:1003F000D535D60D890BF8295508D7005608D800F1
:100400000030D81BFF30D900DA000130DB000030AB
:10041000DC000030DD000030DE0021004F0A250046
:10042000152ADB35DC0DDD0DDE0D890B112A5B088D
:10043000D7055C08D8055D08D9055E08DA055708B8
:10044000C8055808C9055908CA055A08CB054808FF
:100450002100E604250049082100E70425004A0898
:100460002100E80425004B082100E904620825006A
:10047000C800210063082500C90021006408250088
:10048000CA00210065082500CB0021005008250086
:10049000CD0021004F082500CC00CC35CD0DCC354A
:1004A000CD0D9030CE002730CF004C084E0786008F
:1004B0004D084F3D8700403FD000413FD100423FB3
:1004C000D200433FD3005308803AD40022004108B1
:1004D000803A25005402031D7D2A22004008250091
:1004E0005202031D7D2A22003F0825005102031DF0
:1004F0007D2A22003E08250050020318812A01307F
:10050000822A0030D500D60121004F0A25008A2A10
:10051000D535D60D890B882A5508D7005608D8003E
:100520000030D81BFF30D900DA000130DB0000308A
:10053000DC000030DD000030DE0021004F0A250025
:10054000A52ADB35DC0DDD0DDE0D890BA12A5B084C
:10055000D7055C08D8055D08D9055E08DA05570897
:10056000C8055808C9055908CA055A08CB054808DE
:100570002000CE04250049082000CF0425004A08A9
:100580002000D00425004B082000D10401302100B8
:10059000CF070030D03D5008803A2500C800803099
:1005A0004802031DD62A183021004F02031CA3293C
:1005B0008931602180312100CD01CE014E08803A81
:1005C0002500C80080304802031DE92A18302100A8
:1005D0004D0203180800210066082500C80021000C
:1005E00067082500C900210068082500CA0021000D
:1005F00069082500CB000130CC000030CD00003070
:10060000CE000030CF0021004D0A25000B2BCC3549
:10061000CD0DCE0DCF0D890B072B4C08C8054D080D
:10062000C9054E08CA054F08CB054B084A044904C2
:10063000480403191D2B01301E2B0030D000D101BE
:10064000D009D109D00A0319D10A20004E0825008B
:10065000D20020004F082500D300200050082500BC
:10066000D400200051082500D5000130D60000300C
:10067000D7000030D8000030D90021004D0A2500F5
:10068000452BD635D70DD80DD90D890B412B5608E2
:10069000D2055708D3055808D4055908D50555087B
:1006A0005404530452040319572B0130582B0030C3
:1006B0005007DA0051080318510ADB005A08DC0021
:1006C0005B08DD000030DD1BFF30DE00DF002100B5
:1006D0004E082500E10021004D082500E000E0352E
:1006E000E10DE035E10D9030E2002730E3006008D5
:1006F000620786006108633D87005C08810741311D
:100700005D08813D41315E08813D41315F08813D99
:1007100001302100CD070030CE3DDE2A2200EE0060
:100720000130E2000030E300782D6E0A86000130CF
:100730008700403F2100B500413FB600A231792239
:10074000210036082200E300210035082200E200E3
:1007500008006E0A860001308700403F2100B50086
:10076000413FB600A231CC22210036082200E3002E
:10077000210035082200E20008006E0A86000130E0
:100780008700403F2100B500413FB600A7313E271A
:10079000210036082200E300210035082200E20093
:1007A0000800A431DC24210036082200E3002100E7
:1007B00035082200E20008009331012321003608A9
:1007C0002200E300210035082200E20008006E0A42
:1007D000860001308700403F2100DC00413FDD0002
:1007E000A331432321005D082200E30021005C08BF
:1007F0002200E20008006E0A860001308700403FB8
:100800002100B500413FB600993131212100360861
:100810002200E300210035082200E20008006E0AF1
:10082000860001308700403F2100C500413FC600DF
:100830009E316A26210046082200E3002100450877
:100840002200E20008006E0A860001308700403F67
:100850002100B500413FB600A1316B2121003608CF
:100860002200E300210035082200E20008006E0AA1
:10087000860001308700403F2100B500413FB600AF
:10088000A131AB21210036082200E3002100350808
:100890002200E20008006E0A860001308700403F17
:1008A0002100C500413FC6009B31CB2321004608F3
:1008B0002200E300210045082200E20008006E0A41
:1008C000860001308700403F2100C500413FC6003F
:1008D0009C311924210046082200E300210045082C
:1008E0002200E20008006E0A860001308700403FC7
:1008F0002100B500413FB60022006E080B3E860085
:1009000001308700403F2100B700413FB800A331CC
:100910000723210036082200E300210035082200C9
:10092000E20008006E0A860001308700403F210087
:10093000B500413FB60022006E080B3E8600013034
:100940008700403F2100B700413FB800A331252375
:10095000210036082200E300210035082200E200D1
:1009600008006E0A860001308700403F2100B50074
:10097000413FB60022006E080B3E86000130870022
:10098000403F2100B700413FB8009531CA25210002
:1009900036082200E300210035082200E2000800AA
:1009A0006E0A860001308700403F2100B500413FBC
:1009B000B600423FB700433FB80022006E080B3E2E
:1009C000860001308700403F2100B900413FBA0056
:1009D0008831AB20210036082200E30021003508D1
:1009E0002200E20008006E0A860001308700403FC6
:1009F0002100B500413FB60022006E080B3E860084
:100A000001308700403F2100B700413FB8009431DA
:100A10006124210036082200E3002100350822006D
:100A2000E20008006E0A860001308700403F210086
:100A3000B500413FB60022006E080B3E8600013033
:100A40008700403F2100B700413FB80092318E221D
:100A5000210036082200E300210035082200E200D0
:100A600008009A31E322210036082200E300210029
:100A700035082200E20008009B31302321003608AF
:100A80002200E300210035082200E2000800A43122
:100A90002624210036082200E30021003508220028
:100AA000E20008008931602121003D082200E300B6
:100AB00021003C082200E20008008A311B222100AC
:100AC00055082200E300210054082200E20008003B
:100AD000C8302100A000A830A1008E31CE26080029
:100AE000B4302100A000A830A1008E31CE2608002D
:100AF00022006E088600013087000108FF3E031CBB
:100B0000702D8400193004020318702DA0310435B3
:100B1000003E820008002000C700C801C901FC3067
:100B2000BF00A930C00047089A314C22853120000F
:100B3000C6004608CA004A080319080048084904C4
:100B4000031D2C2F1E30B300B030B4004A08A6316C
:100B50009D268531200033083404031DB12D023059
:100B60000E2F2230B300B030B4004A08A6319D26C3
:100B70008531200033083404031DC52D4508860047
:100B8000013087008101810A512F2630B300B03037
:100B9000B4004A08A6319D2685312000330834046C
:100BA000031DD42D03300E2F2430B300B030B40019
:100BB0004A08A6319D268531200033083404031DE0
:100BC000E32D04300E2F0530B300B030B4004A08D6
:100BD000A6319D268531200033083404031DF22DF3
:100BE00006300E2F0F30B300B030B4004A08A631E3
:100BF0009D268531200033083404031D012E073063
:100C00000E2F4A30B300B030B4004A08A6319D26FA
:100C10008531200033083404031D102E08300E2FB8
:100C2000C630B300A930B4004A08A6319D268531EC
:100C3000200033083404031D1F2E09300E2FCE3040
:100C4000B300A930B4004A08A6319D2685312000A2
:100C500033083404031D2E2E0A300E2F7330B300D8
:100C6000A930B4004A08A6319D26853120003308FA
:100C70003404031D3D2E0B300E2F4C30B300A93031
:100C8000B4004A08A6319D2685312000330834047B
:100C9000031D4C2E0C300E2F2E30B300A930B400A3
:100CA0004A08A6319D268531200033083404031DEF
:100CB0005B2E0D300E2F7F30B300A930B4004A08F0
:100CC000A6319D268531200033083404031D6A2E89
:100CD0000E300E2FA030B300A930B4004A08A63160
:100CE0009D268531200033083404031D792E0F30F2
:100CF0000E2FD630B300A930B4004A08A6319D2685
:100D00008531200033083404031D882E10300E2F47
:100D10000530B300AA30B4004A08A6319D268531BB
:100D2000200033083404031D972E11300E2F5A3043
:100D3000B300A930B4004A08A6319D2685312000B1
:100D400033083404031DA62E12300E2F8A30B30050
:100D5000A930B4004A08A6319D2685312000330809
:100D60003404031DB52E13300E2F0030B300B03005
:100D7000B4004A08A6319D2685312000330834048A
:100D8000031DC42E14300E2F0A30B300B030B4004F
:100D90004A08A6319D268531200033083404031DFE
:100DA000D32E15300E2FDE30B300A930B4004A0820
:100DB000A6319D268531200033083404031DE22E20
:100DC00016300E2FFE30B300A930B4004A08A63109
:100DD0009D268531200033083404031DF12E173081
:100DE0000E2F1930B300B030B4004A08A6319D264A
:100DF0008531200033083404031D002F18300E2FD6
:100E00001430B300B030B4004A08A6319D268531B5
:100E1000200033083404031D162F1930C60045087E
:100E200086000130870046088100512FAA30B300A8
:100E3000A930B4004A08A6319D2685312000330828
:100E40003404031D252F0100512F20004508860082
:100E5000013087008101512F48034904031D3E2FB3
:100E60004A0892311D2285312000450A8600013052
:100E700087003708C03F3808C13F512F023048066D
:100E80004904031D512F4A0892311D22853120004B
:100E900045080B3E8600013087003708C03F380800
:100EA000C13F01302000C8070030C93DFC30BF0001
:100EB000A930C0000030942D2000460347040319D8
:100EC000702F220049082100A300220048082100B9
:100ED000A200220047082100A100220046087E2F20
:100EE00022004D082100A30022004C082100A2008E
:100EF00022004B082100A10022004A082100A00086
:100F000020004508803AC80080304802031D8A2F1F
:100F100001304402031C962F07302100A00400304A
:100F2000A1040030A2040030A3049F2FF830210058
:100F3000A005FF30A105FF30A205FF30A305200862
:100F40002000C800210021082000C900210022083B
:100F50002000CA00210023082000CB001030CC0064
:100F6000CB37CA0CC90CC80CCC0BB02F4908BD003C
:100F70004808BC00210021082000BF0021002008F3
:100F80002000BE000330CD004D08C0004708C2005D
:100F90004608C100A23114228731200046034704CD
:100FA000031DE32F210023082200CD002100220889
:100FB0002200CC00210021082200CB0021002008C3
:100FC0002200CA000800210023082200C9002100D5
:100FD00022082200C800210021082200C7002100A9
:100FE00020082200C6000800FE0012001E0001308A
:100FF000FE020030FF3B7F087E0403190034F52F0A
:101000002000CB004B08CA004A08CC004908CA009F
:101010004A08CD004C30B1000030B2000230B300BD
:101020000030B400A131E72188310030A4316D24B3
:101030008831003A03190800CB302100A000A83005
:10104000A1008E31CE26080021003708BB003808E9
:10105000BC003908BD0003103C0D3D0DBE003E082C
:10106000C4004408031D3D280030BA000030B90018
:101070000030B8000030B70008003708BB0038085F
:10108000BC003908BD001730BD36BC0CBB0C890B49
:1010900044283B08BE003E08BF00B817FF30B70524
:1010A000FF30B8050030B9053708C0003808C10066
:1010B0003908C200C3018E30C402C41F7B28440813
:1010C000803A8F3E03186D280030BA000030B90016
:1010D0000030B8000030B70008000130C336C20C41
:1010E000C10CC00C890B6E280130BB003B08C40743
:1010F000031994286D2818304402031C91280030ED
:10110000BA000030B9000030B8000030B700080065
:101110000130C035C10DC20DC30D890B89280130C6
:10112000C4024408031D88283F080319A228C009E7
:10113000C109C209C309C00A0319C10A0319C20AB5
:101140000319C30A4308BA004208B9004108B800AD
:101150004008B700080003302100BC008A30BB0003
:101160005530890BB128BB0BB128BC0BB12800321C
:1011700022008E10210039033A04031DD02865088F
:101180002000C700210064082000C6002100630879
:101190002000C500210062082000C400013003299E
:1011A0000230210039063A040319F32803302100E4
:1011B00039063A04031D092965082000C7002100EB
:1011C00064082000C600210063082000C50021003B
:1011D00062082000C4000130C8000030C900A331FB
:1011E000E3238831210065082000C700210064083E
:1011F0002000C600210063082000C500210062080D
:101200002000C4000230C8000030C900A331E3232D
:1012100088312100C001C1014008BB004108BC0069
:101220000030BC1BFF30BD00BE003E08803ABF004E
:101230003808803A3F02031D272937083D02031D65
:10124000272936083C02031D272935083B020318CD
:1012500033295330890B2A29000001302100C007AF
:101260000030C13D0C2922008E1400302000C70040
:101270000030C6000030C5000030C4000130C80096
:101280000030C900A331E323883100302000C700BB
:101290000030C6000030C5000030C4000230C80075
:1012A0000030C900A331E32388313C302100A00085
:1012B000B030A1008E31CE262100B501B601080064
:1012C0009331EB23893122008E1455082000C7008A
:1012D000220054082000C600220053082000C50048
:1012E000220052082000C4000130C8000030C900AC
:1012F000A331E3238931220059082000C7002200CE
:1013000058082000C600220057082000C50022000F
:1013100056082000C4000230C8000030C900A331C4
:10132000E323893122008E102100C301C401440847
:10133000803ABE006D08803A3E02031DA1296C0868
:1013400043020318AD295330890BA4290000013052
:101350002100C3070030C43D9729AF315E27893192
:10136000AF315B2789310130A2312C228931210034
:101370006F08B6006E08B5006B08B8006A08B700C1
:101380009131E62189310030A2312C2289312100AE
:10139000C501C6014608803ABE0022006D08803AA9
:1013A00021003E02031DD82922006C0821004502BD
:1013B0000318E4295330890BDB2900000130210098
:1013C000C5070030C63DCA2922008E142100C7017E
:1013D000C8014708BE004808BF000030BF1BFF30EF
:1013E000C000C1004108803AC20022006B08803A68
:1013F00021004202031D0C2A22006A08210040023B
:10140000031D0C2A2200690821003F02031D0C2A3B
:101410002200680821003E020318182A5330890B65
:101420000F2A000001302100C7070030C83DE9291C
:10143000BC01BD01080047302100A000A830A10078
:101440008E31CE268A3181302100A000A830A10043
:101450008E31CE268A3101302100CA000030CB0007
:101460009431D7248A3121004A084B04031D3C2AB9
:10147000EE30A000A930402AE6302100A000A930BB
:10148000A1008E31CE268A31F6302100A000A9308D
:10149000A1008E31CE268A310A302100B5000030FD
:1014A000B6000130B7000030B80095314E258A31C2
:1014B00095302100A000A930A1008E31CE268A31BE
:1014C0000B302100B5000030B6000130B70000300D
:1014D000B80095314E258A3128302100A000A8306F
:1014E000A1008E31CE268A3102302100CA000030A0
:1014F000CB009431D7248A3121004A084B04031DC4
:10150000852AEE30A000A930892AE6302100A0000B
:10151000A930A1008E31CE268A31F6302100A000FC
:10152000A930A1008E31CE268A310A302100B500C3
:101530000030B6000230B7000030B80095314E25BB
:101540008A3195302100A000A930A1008E31CE262D
:101550008A310B302100B5000030B6000230B700F0
:101560000030B80095314E258A319B302100A00013
:10157000A830A1008E31CE268A31013099317421F4
:101580008A3121003608803AD60080305602031D89
:10159000CB2A01303502031CD22ABD302100A00025
:1015A000A930D62AB4302100A000A930A1008E3184
:1015B000CE268A3165302100A000A830A1008E31EE
:1015C000CE26080048308400B0308500003F20005F
:1015D000C400013FC5000130C6000030C7009E3185
:1015E000C9268A3148308400B0308500003F200091
:1015F000C400013FC5000230C6000030C7009E3164
:10160000C9268A3101302000C4000030C5000130F5
:10161000C6000030C70087315C278A3101302000C6
:10162000C4000030C5000230C6000030C70087315A
:101630005C278A3122008E1421006D082000C10031
:1016400021006C082000C000A43104248A3120004D
:101650004008C9004108CA004208CB003630840067
:10166000B0308500003FC600013FC700023FC80000
:101670008B31B6238A31200046082100AD002000BE
:1016800047082100AE00200048082100AF000030CC
:10169000AA008030AB00BF30AC008C319F248A316F
:1016A00021002A08B7002B08B8002C08B90088319F
:1016B00024208A3121003708AF31C3278A31210025
:1016C0006B082000C10021006A082000C000A4317E
:1016D00004248A3120004008C9004108CA00420899
:1016E000CB0039308400B0308500003FC600013F98
:1016F000C700023FC8008B31B6238A31200046085C
:101700002100AD00200047082100AE00200048085D
:101710002100AF000030AA008030AB00BF30AC0029
:101720008C319F248A3121002A08B7002B08B80089
:101730002C08B900883124208A3121003708AF31C4
:10174000BE278A3103302300E5000030E6000C306C
:10175000E7000030E800933176238A31F23021002F
:10176000A000A830A1008E31CE2608002000460837
:101770002100A000200047082100A1002000480807
:101780002100A2000310210D220DA3002308A400B4
:101790002408031DD32B00302000C6000030C700F2
:1017A0000030C8000800200049082100A0002000E7
:1017B0004A082100A10020004B082100A2000310CC
:1017C000210D220DA3002308A9002908031DF02BD9
:1017D00000302000C6000030C7000030C8000800FC
:1017E000210029087B3EA0002008A407200046080D
:1017F0002100A000200047082100A1002000480887
:101800002100A2001030A236A10CA00C890B032CE1
:101810002008A3002308A900200049082100A000F7
:1018200020004A082100A10020004B082100A2004E
:101830001030A236A10CA00C890B192C2008A30093
:101840002308A9068030A0002008A9052000C7179A
:10185000CA17FF30C905FF30CA050030CB0500307C
:101860002100A5000030A6000030A7000730A0002E
:101870002008A8002000461C482C49082100A50784
:1018800020004A082100A63D20004B082100A73D6A
:1018900001302000C836C70CC60C890B492C01301A
:1018A000C935CA0DCB0D890B502C01302100A8027F
:1018B000031D3A2C0930A0002008A8002000461C77
:1018C0006C2C49082100A50720004A082100A63DEC
:1018D00020004B082100A73D01302000C836C70C6E
:1018E000C60C890B6D2C01302100A736A60CA50C67
:1018F000890B742C0130A802031D5E2C25082000E2
:10190000B100210026082000B20021002708200095
:10191000B30021002408A00020082000B40021000A
:101920002908A10021082000B5009F312D272000A3
:101930003108C6003208C7003308C800080021007B
:101940002A08B0002B08B1002C08B2000310310D9A
:10195000320DB3003308B6002D08B0002E08B100D8
:101960002F08B2000310310D320DB3003308B5005B
:1019700036080319C72C350836020318CE2C360357
:10198000FF3A3507B00019303002031CCE2C2D0869
:10199000AA002E08AB002F08AC0008003508031978
:1019A0000800360835020318DD2C3503FF3A3607E8
:1019B000B00019303002031808000630B0003008BB
:1019C000B400AC1BB417AF1B3417AB17FF30AA051C
:1019D000FF30AB050030AC05AE17FF30AD05FF3072
:1019E000AE050030AF05350836020318192D013059
:1019F000AD35AE0DAF0D890BF82C0130B5023508B1
:101A000036060319142D0130B402340807390319BE
:101A1000142DF72C0130AC36AB0CAA0C890B0B2D16
:101A20000130B0003008B6073608350603193E2DE0
:101A30000A2D3608350203183E2D0130AA35AB0DAC
:101A4000AC0D890B1E2D0130B60235083606031980
:101A50003A2D0130B4023408073903193A2D1D2DEF
:101A60000130AF36AE0CAD0C890B312D0130B0001A
:101A70003008B50736083506031D302DB41F502D2C
:101A8000FF30AA06FF30AB06FF30AC060130AA07D4
:101A9000003003180130AB07003003180130AC07E9
:101AA000341F622DFF30AD06FF30AE06FF30AF06AB
:101AB0000130AD07003003180130AE0700300318C5
:101AC0000130AF07B4012A08AD072B08AE3D2C0842
:101AD000AF3DAF1F7D2DFF30AD06FF30AE06FF30AE
:101AE000AF060130AD07003003180130AE070030FB
:101AF00003180130AF07B401B40A2D082000B1006B
:101B000021002E082000B20021002F082000B30081
:101B100021003608B00030082000B400210034084D
:101B2000B10031082000B5009F312D272000310879
:101B30002100AA00200032082100AB002000330859
:101B40002100AC000800220045084404430442047C
:101B5000031DBF2D2000D50100302100E900003019
:101B6000E8000030E7000030E60000302000D1003F
:101B70000030D0000030CF000030CE00080022003E
:101B8000C51B512E4508031DCF2D4408031DCF2D25
:101B90004308031DCF2D01304202031C512E00309B
:101BA0002100E9000030E8000030E7000030E600E6
:101BB00065082000D100210064082000D000210029
:101BC00063082000CF00210062082000CE00893188
:101BD00060218D31FF302200C207FF30C33DFF304E
:101BE000C43DFF30C53D2100D901DA015A08803AD1
:101BF000C90080304902031DFF2D18305902031817
:101C0000080021006208C9006308CA006408CB000C
:101C10006508CC000130CD000030CE000030CF0090
:101C20000030D000590A182ECD35CE0DCF0DD00D75
:101C3000890B142E50084F044E044D040319222E14
:101C40000130232E0030D100D201D301D40151083C
:101C5000C9055208CA055308CB055408CC055A08D3
:101C6000D6005908D500D535D60DD535D60D9030CE
:101C7000D7002730D8005508570786005608583D2A
:101C800087004908810741314A08813D41314B08AD
:101C9000813D41314C08813D0130D9070030DA3DAA
:101CA000F62D21006508E9006408E8006308E700F4
:101CB0006208E60000302000D1000030D000003083
:101CC000CF000030CE00893160218D3101302200FB
:101CD000C2070030C33D0030C43D0030C53D210087
:101CE000D901DA015A08803AC90080304902031D3F
:101CF0007B2E183059020318080021006208C90021
:101D00006308CA006408CB006508CC000130CD0030
:101D10000030CE000030CF000030D000590A942EA1
:101D2000CD35CE0DCF0DD00D890B902E50084F0420
:101D30004E044D0403199E2E01309F2E0030D10019
:101D4000D201D301D4015108C9055208CA0553086C
:101D5000CB055408CC055A08D6005908D500D5350E
:101D6000D60DD535D60D9030D7002730D800550880
:101D7000570786005608583D8700490881024131BF
:101D80004A08813B41314B08813B41314C08813B42
:101D90007D310130D9070030DA3D722EA2302100AA
:101DA000A6002608B30021002108A7002008A600ED
:101DB000A00A0319A10A2608840027088500000844
:101DC000A8002808B4003408031908002530340698
:101DD0000319EF2E3408AF31E0278E31D32E2100C6
:101DE000B201F62E3216F62E3217132F2108A70055
:101DF0002008A600A00A0319A10A260884002708C3
:101E000085000008B400003A0319FF2F643A031953
:101E1000132F0D3A0319132F053A0319F22E193A0D
:101E20000319F42ED32E321B4A2F321E242F3308CF
:101E300086008701403FAE00413FAF00423FB00007
:101E4000433FB1000430352F330886008701403FFF
:101E5000A600413FA7002608AE002708AF00890D65
:101E6000893B8909B000B1000230A6002608B307FB
:101E7000B11F6A2F0330A6002608B204AE09AF09CD
:101E8000B009B109AE0A0319AF0A0319B00A031960
:101E9000B10A6A2F321E592F330886008701403F4E
:101EA000AE00413FAF00423FB000433FB1000430BD
:101EB000672F330886008701403FA600413FA700F7
:101EC0002608AE002708AF00B001B1010230A6001D
:101ED0002608B307B401B40A0A30340603199D2F4B
:101EE0003408A600A701A635A70DA635A70D00301A
:101EF00026078400A830273D8500003FA800013F49
:101F0000A900023FAA00033FAB002B083102031DCA
:101F1000932F2A083002031D932F29082F02031D37
:101F2000932F28082E02031C9D2F0130A60026089F
:101F3000B4070A303406031D702F32080339031921
:101F4000A52F2D30AF31E0278E3121003408AC00B1
:101F5000AD01AC1BAD03FF302100AC07FF30AD3D40
:101F60002C0A03192D0A0319D32E00302000C200B9
:101F70000030C1000030C0000A30BF0021002D0831
:101F800085002C0884008435850D8435850D00304E
:101F90008407A830853D003F2000B100013FB2001A
:101FA000023FB300033FB400210031082000B80015
:101FB000210030082000B70021002F082000B600C3
:101FC00021002E082000B5009D310B258E31200008
:101FD0003408C6003308C5003208C4003108C30005
:101FE000A731BD278E3120003F08303E2100A600DA
:101FF0002608B4003408AF31E0278E31AB2F08003B
:102000000034003410340034203400342E340034D2
:102010003C34003448340034533400345B340034EE
:10202000613400346534003466340034653400347F
:10203000613400345B3400345334003448340034A9
:102040003C3400342E340034203400341034003456
:1020500000340034F0340034E0340034D23400343E
:10206000C4340034B8340034AD340034A534003402
:102070009F3400349B3400349A3400349B34003451
:102080009F340034A5340034AD340034B834003407
:10209000C4340034D2340034E0340034F03400343A
:1020A0000034003410340034203400342E34003432
:1020B0003C34003448340034533400345B3400344E
:1020C00061340034653400346634003465340034DF
:1020D000613400345B340034533400344834003409
:1020E0003C3400342E3400342034003410340034B6
:1020F00000340034F0340034E0340034D23400349E
:10210000C4340034B8340034AD340034A534003461
:102110009F3400349B3400349A3400349B340034B0
:102120009F340034A5340034AD340034B834003466
:10213000C4340034D2340034E0340034F034003499
:102140000034003410340034203400342E34003491
:102150003C34003448340034533400345B340034AD
:10216000613400346534003466340034653400343E
:10217000613400345B340034533400344834003468
:102180003C3400342E340034203400341034003415
:1021900000340034F0340034E0340034D2340034FD
:1021A000C4340034B8340034AD340034A5340034C1
:1021B0009F3400349B3400349A3400349B34003410
:1021C0009F340034A5340034AD340034B8340034C6
:1021D000C4340034D2340034E0340034F0340034F9
:1021E000003400340034003410340034203400341F
:1021F0002E3400343C34003448340034533400343A
:102200005B340034613400346534003466340034A7
:1022100065340034613400345B34003453340034AA
:10222000483400343C3400342E340034203400343C
:102230001034003400340034F0340034E03400341E
:10224000D2340034C4340034B8340034AD340034F3
:10225000A53400349F3400349B3400349A34003465
:102260009B3400349F340034A5340034AD34003442
:10227000B8340034C4340034D2340034E034003490
:10228000F03400340034003410340034203400348E
:102290002E3400343C340034483400345334003499
:1022A0005B34003461340034653400346634003407
:1022B00065340034613400345B340034533400340A
:1022C000483400343C3400342E340034203400349C
:1022D0001034003400340034F0340034E03400347E
:1022E000D2340034C4340034B8340034AD34003453
:1022F000A53400349F3400349B3400349A340034C5
:102300009B3400349F340034A5340034AD340034A1
:10231000B8340034C4340034D2340034E0340034EF
:10232000F0340034003400341034003420340034ED
:102330002E3400343C3400344834003453340034F8
:102340005B34003461340034653400346634003466
:1023500065340034613400345B3400345334003469
:10236000483400343C3400342E34003420340034FB
:102370001034003400340034F0340034E0340034DD
:10238000D2340034C4340034B8340034AD340034B2
:10239000A53400349F3400349B3400349A34003424
:1023A0009B3400349F340034A5340034AD34003401
:1023B000B8340034C4340034D2340034E03400344F
:1023C000F034003400340034013008002100BA0138
:1023D000BB0105302000B7000030B80021003808EC
:1023E0002000BA00210037082000B9009C31672482
:1023F000913121003B08803AB90020003808803A2A
:1024000021003902031D082A2000370821003A0262
:102410000318080021003508B90039082000C90058
:102420000B30883100209131003200320000013041
:102430002100BA070030BB3DE9292000BE003E085C
:1024400086000130870020300106031D2C2A013050
:10245000B9003908BE071F2A3E08860001308700F0
:10246000093001060319272ABC01BD01BB013E0842
:102470008600013087002D300106031D442A0130FB
:10248000B9003908BB074C2A3E0886000130870096
:102490002B300106031D502A0130B9003908BE0750
:1024A0003E088600013087000108A1317A2192316F
:1024B000031C792A20003D08B2003C08B1000A3014
:1024C000B3000030B400A231B022923120003E08A7
:1024D00086000130870001083107B900320803186F
:1024E000320ABA003908D03EBC00FF303A3DBD0088
:1024F0004C2A20003B080319892A3C09B9003D09F0
:10250000BA00B90A0319BA0A3908B7003A08B8007C
:1025100008003D08B8003C08B70008002100360854
:10252000803A2000C90080304902031D9A2A1830E1
:10253000210035020318F42A210037083804031952
:10254000C42A01302000C9000030CA000030CB008E
:102550000030CC002100350A2000B22AC935CA0D4E
:10256000CB0DCC0D890BAE2A49082100DE042000DA
:102570004A082100DF0420004B082100E00420006D
:102580004C082100E104EA2A01302000C900003093
:10259000CA000030CB000030CC002100350A2000FA
:1025A000D52AC935CA0DCB0DCC0D890BD12AC90945
:1025B000CA09CB09CC0949082100DE0520004A08D8
:1025C0002100DF0520004B082100E00520004C0819
:1025D0002100E1053C30A000B030A1008E31CE26B4
:1025E0002100B501B60108003F302100A000B03045
:1025F000A1008E31CE2601302100B5000030B6009A
:1026000008002000C901CA014A08803A2100B70029
:1026100080303702031D0F2B1830200049020318A9
:102620006B2B21006208B7006308B8006408B9008A
:102630006508BA000130BB000030BC000030BD00AE
:102640000030BE002000490A21002A2BBB35BC0DFA
:10265000BD0DBE0D890B262B3B08B7053C08B80500
:102660003D08B9053E08BA053A083904380437046C
:102670000319592B20004A082100B80020004908FE
:102680002100B700B735B80DB735B80D9030B90097
:102690002730BA0037083907BB0038083A3DBC007C
:1026A0003B0886003C0887000030C03FC13FC23F66
:1026B000C33F01302000C9070030CA3D4A08803AB4
:1026C0002100B70080303702031D692B183020002D
:1026D0004902031C112B3C302100A000B030A100A6
:1026E0008E31CE262100B501B60108004C308400A1
:1026F000B03085000008A0317B2093314C3084003D
:10270000B030850000089A319722933104302100BF
:10271000DC003D30890B8A2BDC0B8A2B0032A03188
:10272000E020933104302100DC003D30890B962BF2
:10273000DC0B962B00322000C901023088310020CA
:10274000933104302100DC003D30890BA52BDC0BDC
:10275000A52B00322300650838382100DC005C0816
:102760002000C9000130883100209331043021005D
:10277000DC003D30890BBA2BDC0BBA2B0032230076
:1027800067082100DC005C082000C90002308831A5
:102790000020933104302100DC003D30890BCE2B2A
:1027A000DC0BCE2B003221006F08D4006E08D30062
:1027B00096314726933121006F08D4006E08D3006C
:1027C00097314D279331EE302100A000A830A100B1
:1027D0008E31CE26080021005E0820004E05220022
:1027E000D20021005F0820004F052200D300210005
:1027F0006008200050052200D4002100610820005C
:1028000051052200D50020004E09B1004F09B20049
:102810005009B3005109B40021005E0820003105C1
:102820002200D60021005F08200032052200D700D8
:1028300021006008200033052200D8002100610833
:10284000200034052200D90021005E086605220020
:10285000DA0021005F0867052200DB002100600824
:1028600068052200DC002100610869052200DD0006
:10287000210066092000B100210067092000B20094
:10288000210068092000B300210069092000B4007C
:1028900021005E08200031052200CE0021005F08E3
:1028A000200032052200CF002100600820003305FF
:1028B0002200D00021006108200034052200D10050
:1028C000080021005E08B9005F08BA006008BB007C
:1028D0006108BC000130BD000030BE000030BF0008
:1028E0000030C000350A782CBD35BE0DBF0DC00DBF
:1028F000890B742C3D08B9053E08BA053F08BB0595
:102900004008BC053C083B043A0439040319CB2CAD
:10291000370838040319A52C0130B9000030BA007B
:102920000030BB000030BC00350A9A2CB935BA0D16
:10293000BB0DBC0D890B962C3908E2043A08E30460
:102940003B08E4043C08E504C12C0130B900003028
:10295000BA000030BB000030BC00350AB32CB935DA
:10296000BA0DBB0DBC0D890BAF2CB909BA09BB0957
:10297000BC093908E2053A08E3053B08E4053C08D0
:10298000E5053C30A000B030A1008E31CE262100FC
:10299000B501B60108003F30A000B030A1008E3173
:1029A000CE2601302100B5000030B600080021001D
:1029B0004A034B040319EB2C220049082100D300E1
:1029C000220048082100D200220047082100D1003F
:1029D00022004608F92C22004D082100D3002200D5
:1029E0004C082100D20022004B082100D100220017
:1029F0004A082100D00001302000C4000030C5008A
:102A000021004B082000C70021004A082000C60012
:102A100087315C27943121004B08C7004A08C60063
:102A2000A5312D25943121004708CF004608CE005E
:102A3000D31B292D5308031D272D5208031D272DB5
:102A40005108031D272D01305002031C292D013090
:102A50002A2D0030CC00CD014C082000C4002100FC
:102A60004D082000C50021004B082000C7002100B0
:102A70004A082000C60087315C27943107302100C6
:102A80004E064F040319462D0130472D0030CC006F
:102A9000CD014C08CA004D08CB00080022008E145E
:102AA000FF302000C700FF30C600FF30C500FF30F8
:102AB000C400210038082000C90021003708200088
:102AC000C800A331E323953100302000BC00BD00D5
:102AD0000030BE00BF0021003508B90039082000D1
:102AE000C000210038082000C20021003708200063
:102AF000C100A2311422953122008E10173021001E
:102B0000BA000030BB00BB1BC32D22000C150032E5
:102B100022000C11210037033804031DA02D2000D2
:102B20000E1B942D8E1DA02D32302100A000B03040
:102B3000A1003B08A3003A08A2008E31CE269531B1
:102B4000173021003A063B04031DBC2D22008E14D1
:102B500000302000C7000030C6000030C500003043
:102B6000C400210038082000C900210037082000D7
:102B7000C800A331E3239531FF302100BA07FF30AD
:102B8000BB3DBB1F852D6330A000A830A1008E3156
:102B9000CE26080022008E10210037033804031DC2
:102BA000012E0130B9000030BA000030BB00003007
:102BB000BC00350ADF2DB935BA0DBB0DBC0D890B34
:102BC000DB2D39082300B40621003A082300B5069E
:102BD00021003B082300B60621003C082300B7066D
:102BE00037082000C700230036082000C600230055
:102BF00035082000C500230034082000C40001303F
:102C0000362E0230210037063804031D3C2E0130D9
:102C1000B9000030BA000030BB000030BC00350AFB
:102C2000152EB935BA0DBB0DBC0D890B112E390807
:102C30002300B00621003A082300B10621003B081A
:102C40002300B20621003C082300B306330820000D
:102C5000C700230032082000C600230031082000EE
:102C6000C500230030082000C4000230C800003036
:102C7000C900A331E32395313C302100A000B030DE
:102C8000A1008E31CE262100B501B60108000B301F
:102C90002100D50055082400A00001302100DA00F1
:102CA0000030DB005B08803AD50080305502031D00
:102CB0005B2E28305A020318080021005408200017
:102CC000B400210053082000B30021005B0820005D
:102CD000B20021005A082000B100A231B022963182
:102CE00020003208BA003108B9002830B70000309F
:102CF000B8009C316724963120003808C10037089D
:102D0000C000A43104249631200040082100CD00E9
:102D1000200041082100CE00200042082100CF0001
:102D20009E310F26963121004D08D7004E08D8005D
:102D30004F08D9005708B7005808B8005908B9001B
:102D400088312420963121003708D5005A08203ECA
:102D5000860002308700550881002A30A000B0307C
:102D6000A1005A08203E8600023087000108D500E5
:102D7000D6015508A2005608A3008E31CE26963102
:102D800001302100DA070030DB3D522E00302100F7
:102D9000C3000030C2000030C1000030C000350365
:102DA0003604031DD62E22000D12D82E22000E103E
:102DB00017302100C4000030C500C51B322F22008F
:102DC0000C15210035033604031D052F20000E0EBF
:102DD000890C890C01392100B900BA01440AF22E8C
:102DE000B935BA0D890BF02E3908BB003A08BC0082
:102DF0000030BC1BFF30BD00BE003B08C0043C08D7
:102E0000C1043D08C2043E08242F20000E0C2100FE
:102E1000B900B90C390C0139BA00BB01440A122FB0
:102E2000BA35BB0D890B102F3A08BC003B08BD001A
:102E30000030BD1BFF30BE00BF003C08C0043D0891
:102E4000C1043E08C2043F08C30422000C1108302C
:102E5000890B282F0000FF302100C407FF30C53D3B
:102E6000C51FDF2E22000C110F302100A000A93059
:102E7000A1004308A5004208A4004108A30040089F
:102E8000A2008E31CE2621004308B8004208B700C8
:102E90004108B6004008B50008000B302100D500FD
:102EA00055082500A00001302100DA000030DB00C9
:102EB0005B08803AD50080305502031D612F283011
:102EC0005A0203180800210054082000B400210011
:102ED00053082000B30021005B082000B20021004D
:102EE0005A082000B100A231B022973120003208E8
:102EF000BA003108B9002830B7000030B8009C3162
:102F00006724973120003808C1003708C000A43179
:102F100004249731200040082100CD002000410802
:102F20002100CE00200042082100CF009E310F2654
:102F3000973121004D08D7004E08D8004F08D9001E
:102F400054082000C100210053082000C000A43113
:102F500004249731200040082100AD0020004108E2
:102F60002100AE00200042082100AF0057082000D9
:102F7000C100210058082000C2002100590820008B
:102F8000C300A031A7209731200041082100AA00EA
:102F9000200042082100AB00200043082100AC00C3
:102FA0008C319F24973121002A08B7002B08B800E4
:102FB0002C08B90088312420973121003708D5002A
:102FC0005A08A03E860002308700550881002A304A
:102FD000A000B030A1005A08A03E86000230870051
:102FE0000108D500D6015508A2005608A3008E316D
:102FF000CE26973101302100DA070030DB3D582F13
:103000000B340034103420342E343C3448345334E0
:103010005B34613465346634653461345B34533415
:1030200048343C342E34203410340034F034E0344E
:10303000D234C434B834AD34A5349F349B349A347C
:103040009B349F34A534AD34B834C434D234E03426
:10305000F0340034103420342E343C3448345334AB
:103060005B34613465346634653461345B345334C5
:1030700048343C342E34203410340034F034E034FE
:10308000D234C434B834AD34A5349F349B349A342C
:103090009B349F34A534AD34B834C434D234E034D6
:1030A000F0340034103420342E343C34483453345B
:1030B0005B34613465346634653461345B34533475
:1030C00048343C342E34203410340034F034E034AE
:1030D000D234C434B834AD34A5349F349B349A34DC
:1030E0009B349F34A534AD34B834C434D234E03486
:1030F000F03400340B340034103420342E343C349B
:10310000483453345B346134653466346534613437
:103110005B34533448343C342E342034103400347F
:10312000F034E034D234C434B834AD34A5349F34F0
:103130009B349A349B349F34A534AD34B834C434B2
:10314000D234E034F0340034103420342E343C34A3
:10315000483453345B3461346534663465346134E7
:103160005B34533448343C342E342034103400342F
:10317000F034E034D234C434B834AD34A5349F34A0
:103180009B349A349B349F34A534AD34B834C43462
:10319000D234E034F0340034103420342E343C3453
:1031A000483453345B346134653466346534613497
:1031B0005B34533448343C342E34203410340034DF
:1031C000F034E034D234C434B834AD34A5349F3450
:1031D0009B349A349B349F34A534AD34B834C43412
:1031E000D234E034F03400342000C0018E30BD0011
:1031F0003D08BF00BC1F0929B909BA09BB09BC09B0
:10320000B90A0319BA0A0319BB0A0319BC0AC00197
:10321000C00AFF303C05031919290130BC36BB0C2C
:10322000BA0CB90C890B0E290130BD003D08BF074F
:1032300009293908B1003A08B2003B08B3003F0839
:10324000BD003D08B4004008BE003E08B5009F31F7
:103250002D2720003108B9003208BA003308BB001E
:1032600008002100B801B9014D29B801B901602950
:1032700001303D2902303D290330B8000030B9004B
:1032800060293F30A000B030A1008E31CE26013041
:103290002100B5000030B60008003608003A0319D6
:1032A000522941293508003A03193529013A0319F1
:1032B0003829033A03193A29013A03193C294129CB
:1032C0003808B70037082000C900013088310020D5
:1032D00099313C302100A000B030A1008E31CE26C3
:1032E0002100B501B60108002000CB00CC014B3015
:1032F000B1000030B2000130B3000030B400A131A1
:10330000E72199310030A4316D249931003A031935
:103310009129CB302100A000A830A1008E31CE260B
:1033200099310830890B922900004C302000B100FF
:103330000030B2000130B3000030B400A131E72109
:1033400099310130A4316D249931003A0319AF2924
:10335000DD302100A000A830A1008E31CE26200053
:103360004C08C900CA0149082100B50020004A08DC
:103370002100B60008007E1CBF29A7317D2FAF3188
:103380006D2799312000B100220022088600230811
:10339000870020003108810001302200A2070030A0
:1033A000A33D0130A4020030A53B240825040319E5
:1033B000DD29AF319E27053008002015E529A03111
:1033C00073200800A0316B2008002200380820007C
:1033D000B1003108B1000C30203E8600013087007A
:1033E000413F8A00403F0A009931013A0319E2291E
:1033F000033A0319DF29013A0319DF29073A0319B0
:10340000E229E229080073037404031D0A2A22003A
:103410000D120C2A22000E100F30F9000030FA00B5
:10342000FA1B432A0C110130F5000030F600790A2E
:103430001B2AF535F60D890B192A70087505F7005A
:1034400071087605F800770878040319292A0E1503
:103450002A2A0E117208F500F6017A087606031D75
:10346000332A79087506031D3C2A73037404031D6F
:103470003B2A0D163C2A0E140C15FF30F907FF30BD
:10348000FA3DFA1F122A0C1173037404031D4A2A11
:103490000D1208000E1008002000C4004408031D8F
:1034A000552A5408C1004108C4004408031D5A2A83
:1034B000003008004008B9003F08B8004408A631B1
:1034C0003A269A3120003808C1004108C407440850
:1034D0008600013087000108031D712AD4010030E5
:1034E00008004008B9003F08B8004408A6310A2681
:1034F0009A3120003808C1003908C2004408410749
:10350000C3004308D4005408860001308700010836
:103510000319942A54088600013087008101013084
:10352000C1004108D407952AD401440808002000AE
:10353000B500B401B40A2200A01808002000350824
:10354000B30033082200A1002010A014A0110E30F7
:103550002000B30033082200AA00F430A800013094
:10356000A9002015CE30AC002F30AD00B801CE3010
:10357000AE002F30AF00B901CE30B0002F30B10017
:10358000BA01CE30B2002F30B300BB01D430B4004A
:103590002F30B500BC01A031EA209A31AF3173273A
:1035A0009A3146302000B1002F30B200A031B02057
:1035B0009A31B6302000B1002430B200A031B920D9
:1035C0002000B401080017302100B7000030B80017
:1035D000B81B262B3230A000B030A10062082000BA
:1035E000C900210063082000CA00210064082000EF
:1035F000CB00210065082000CC002100370A200004
:10360000062B0310CC0CCB0CCA0CC90CFF3E031DBF
:10361000012B013049052100A200003020004A059D
:103620002100A300003020004B052100A400003041
:1036300020004C052100A5008E31CE269A31FF30A6
:103640002100B707FF30B83DB81FEA2A6330A00059
:10365000A830A1008E31CE262100B501B6010800A8
:1036600017302100B7000030B800B81B732B323080
:10367000A000B030A1005E082000C90021005F0852
:103680002000CA00210060082000CB002100610852
:103690002000CC002100370A2000532B0310CC0C53
:1036A000CB0CCA0CC90CFF3E031D4E2B0130490543
:1036B0002100A200003020004A052100A3000030B4
:1036C00020004B052100A400003020004C05210003
:1036D000A5008E31CE269B31FF302100B707FF3089
:1036E000B83DB81F372B6330A000A830A1008E3141
:1036F000CE262100B501B6010800A13120219B3161
:1037000003188C2BA92BAF317E270800AF318227FD
:103710000800AF318A27080022003B08F100710839
:10372000F0001230203E860001308700413F8A00C1
:10373000403F0A009B31013A0319892B033A0319D0
:10374000832B013A0319862B073A0319892B892BFE
:1037500008002200A0112308F2002208F100A20AAA
:103760000319A30A71088600720887000108AF31A7
:10377000B4279B3101302200A4020030A53B24086D
:103780002504031DC52B0630C62B0330F300003083
:10379000F40073080800210046082000C100210041
:1037A00045082000C000A43104249B3120004008BB
:1037B000C9004108CA004208CB0036308400B0304E
:1037C0008500003FC600013FC700023FC8008B31A3
:1037D000B6239B31200046082100AD002000470899
:1037E0002100AE00200048082100AF000030AA00F0
:1037F0008030AB00BF30AC008C319F249B31210066
:103800002A08B7002B08B8002C08B90088312420FA
:103810009B3121003708AF31C3279B313C30210059
:10382000A000B030A1008E31CE262100C501C60116
:103830000800210046082000C100210045082000A2
:10384000C000A43104249C3120004008C900410874
:10385000CA004208CB0039308400B0308500003FF8
:10386000C600013FC700023FC8008B31B6239C3120
:10387000200046082100AD00200047082100AE00CE
:10388000200048082100AF000030AA008030AB00C3
:10389000BF30AC008C319F249C3121002A08B70036
:1038A0002B08B8002C08B900883124209C31210055
:1038B0003708AF31BE279C313C302100A000B0302A
:1038C000A1008E31CE262100C501C60108002000CE
:1038D000BD01B81F722CB709B809B70A0319B80A95
:1038E000BD01BD0ABA1F7D2CB909BA09B90A03196D
:1038F000BA0A0130BB003B08BD06BE01BF01370854
:1039000038040319AC2CBC01BC0AB81B912C013043
:10391000B735B80D890B882C0130BB003B08BC07BC
:10392000852C0130BE35BF0D890B922C38083A0228
:10393000031D9C2C37083902031CA32C3708B9023D
:103940003808BA3B3E140130B836B70C890BA42CAA
:103950000130BC02031D912C3D080319B42CBE0993
:10396000BF09BE0A0319BF0A3F08B8003E08B700E6
:103970000800210045082000B10021004608200071
:10398000B200210047082000B300CB30CC004C0827
:10399000B400A631D1269C312100CC1FD62C00309A
:1039A000C5000030C6000030C700080000304C02DF
:1039B000153003194B02031808004508B7004608E4
:1039C000B8004708B900883124209C3121003A080A
:1039D0002000BC00210039082000BB00210038086D
:1039E0002000BA00210037082000B9009831F420E7
:1039F000200039082100C80020003A082100C90031
:103A000020003B082100CA004808C5004908C6003C
:103A10004A08C700080000302000BD000030BC008C
:103A20000030BB000030BA003408330432043104E3
:103A30000319552DBE01BE0AB41B2A2D0130B13524
:103A4000B20DB30DB40D890B1F2D0130B90039082B
:103A5000BE071C2D0130BA35BB0DBC0DBD0D890B49
:103A60002B2D34083802031D3F2D33083702031D68
:103A70003F2D32083602031D3F2D31083502031C4D
:103A80004A2D3108B5023208B63B3308B73B34083B
:103A9000B83B3A140130B436B30CB20CB10C890BFC
:103AA0004B2D0130BE02031D2A2D3D08B4003C08F9
:103AB000B3003B08B2003A08B1000800200034030C
:103AC0003504031D662D22000D12682D22000E10F4
:103AD0000F302000BA000030BB00BB1BA92D220014
:103AE0000C1101302000B6000030B7003A0A7A2DE0
:103AF000B635B70D890B782D31083605B800320878
:103B00003705B900380839040319892D22000E152C
:103B10008B2D22000E1120003308B600B7013B08A0
:103B20003706031D952D3A083606031DA02D3403D4
:103B30003504031D9E2D22000D16A02D22000E140B
:103B400022000C15FF302000BA07FF30BB3DBB1F21
:103B50006F2D22000C11200034033504031DB32DFA
:103B600022000D12080022000E1008007E1CBA2D43
:103B70009B317D2BA1315E219D310318C92DE72D8D
:103B8000A03143200800A0314B200800A0315B2069
:103B9000080022003B082000B2003208B1001230B9
:103BA000203E860001308700413F8A00403F0A00E6
:103BB0009D31013A0319C62D033A0319C02D013A6C
:103BC0000319C32D073A0319C62DC62D080022007C
:103BD000A01123082000B300220022082000B20018
:103BE0002200A20A0319A30A200032088600330823
:103BF00087000108AF31DA279D3101302200A4028D
:103C00000030A53B24082504031D082E0630092E8C
:103C100003302000B4000030B50034080800210053
:103C20004D08AA004E08AB004F08AC004D08C50077
:103C30004E08C6004F08C7009C31B9249E312100B0
:103C400045082000C100210046082000C2002100D4
:103C500047082000C300A031A7209E312000410862
:103C60002100AD00200042082100AE0020004308E2
:103C70002100AF008C319F249E3121002A08D00002
:103C80002B08D1002C08D2005008AA005108AB0024
:103C90005208AC004D08AD004E08AE004F08AF0012
:103CA0008C319F249E3121002A08CD002B08CE00A4
:103CB0002C08CF004D08C5004E08C6004F08C700AD
:103CC0009C31B92421004508CD004608CE004708A4
:103CD000CF00080021004608EB004508EA006C0907
:103CE0002000CC0021006D092000CD00CC0A031972
:103CF000CD0A21006A0820004C07C00021006B0893
:103D000020004D3DC100A43104249E312000400814
:103D1000C9004108CA004208CB0039308400B030E5
:103D20008500003FC600013FC700023FC8008B313D
:103D3000B6239E31200046082100AD002000470830
:103D40002100AE00200048082100AF000030AA008A
:103D50008030AB00BF30AC008C319F249E312100FD
:103D60002A08B7002B08B8002C08B9008831242095
:103D70009E3121003708AF31BE279E313C302100F3
:103D8000A000B030A1008E31CE262100C501C601B1
:103D9000080020004508803AC80080304802031D12
:103DA000D32E40304402031CDA2E3F302000C400E2
:103DB0000030C50020004508C9004408C800480E6E
:103DC000F039C900C8014508CB004408CA000630D4
:103DD000CA35CB0D890BE82E48084A04CC004908A7
:103DE0004B04CD0044084C042100A00020004508ED
:103DF0004D042100A100A201A11BA2032208A300DF
:103E000020082000C800210021082000C90021004E
:103E100022082000CA00210023082000CB00103017
:103E2000CB36CA0CC90CC80C890B102F4908BD0031
:103E30004808BC00210021082000BF002100200804
:103E40002000BE000730CC004C08C0004708C2006C
:103E50004608C100A23114220800200034080319CA
:103E6000362F330832043104031D472F0030B100D0
:103E70000030B2000030B30008000130B600360850
:103E8000B4070130B336B20CB10C890B422FFE30AF
:103E900033050319602F3D2F0130B6003608B407F3
:103EA0000130B107003003180130B20700300318A9
:103EB0000130B3070130B336B20CB10C890B5B2F64
:103EC000FF30330503196D2F4C2F0130B402013040
:103ED000B135B20DB30D890B682FB21B732F0230B1
:103EE00034020318652F34187B2FFF30B1057F3063
:103EF000B205FF30B3050310B40C3408B600B701A7
:103F0000B8011030B635B70DB80D890B822F3608C1
:103F1000B1043708B2043808B3043508031908009F
:103F2000B3170800A131D2219F31A3302200EF0046
:103F30005530890B992FEF0B992F8B170B173D30AD
:103F40002100A000A930A1008E31CE269F318A31F8
:103F5000E2229F31B22F8D31A3259F31B22F8031C4
:103F6000DB209F31200056080319DE2FA331822366
:103F70009F312200EF0020005208CD3E8600013024
:103F8000870022006F08810020005208CD3E860085
:103F9000013087000A300106031DD92F5208CD3E9B
:103FA000860001308700810101302200E0000030EE
:103FB000E10001302000D2070030D33D220060082C
:103FC00061040319F62FB830EF006F082000C50018
:103FD000CD3085318B259F312200E001E1012000A9
:103FE000D201D301B83083318E239F312000550890
:103FF000013A0319AB2F033A0319AF2FB22FB22F97
:104000008331A92B8331952B8331BD2B8331D12B68
:104010008531702D8431F32C8531122D8331DC2BC9
:104020008331E72B8331FB2B84310F2C8431232CFC
:104030008431372C84314B2C84315F2C8431732CA8
:104040008431922C8431B12C8431D02C8531312DA6
:1040500085313C2D8531472D8531522D85315D2DA2
:104060008531682D08002200A0150314210DAF3101
:10407000B4270530080032009101920193019401A8
:104080009501960108007E1C4728AF317E2FAF3185
:104090006427013008007E1C4F28AF31822FAF31DA
:1040A0006427023008007E1C5728AF31862FAF31BD
:1040B0006427013008007E1C5F28AF318A2FAF31A2
:1040C0006727003008007E1C6728AF318E2FAF3184
:1040D0009E27053008007E1C6F28AF31922FAF312C
:1040E000A2270A3008007E1C7728AF31962FAF3107
:1040F000A227093008002000B2003208B1003108C0
:104100002200A100080022008E14AF314027A03108
:104110000030AF31AF270800200032082300E40050
:10412000200031082300E3000800200032082300AB
:10413000E200200031082300E10008007E1CA228D4
:10414000AF31B92F22002010AB010E300800200043
:10415000430842044104031908008030C3060800E4
:10416000200032082200E700200031082200E6008B
:104170000800200032082200E5002000310822005B
:10418000E40008006230320099009B019D01033079
:104190009F0020309E0008007E1CD028AF31C82F21
:1041A0002200A011AF316A27043008002100110C51
:1041B0002000B100B10C310C0139B200320C080002
:1041C00080302100B50035082000C9000230883158
:1041D000002008002400951A08009401283095005A
:1041E00096010330920008007E1CF828AF31F22FB0
:1041F000A031322022002010AB010E3008007E1CBE
:104200000329AF31F92F2200A0152135AF31DA276C
:1042100003300800200091190800200091190800BF
:104220000830890B112900000D292200201C0800EC
:104230000030A1310A21A131A431B624A1311529C0
:1042400024001608BF3940389600160E890C890CD8
:104250000139F000700C08007E1C3029A031332891
:104260002200A0150314210DAF31DA270530080014
:104270006400800101310130FE020030FF3B7F0805
:104280007E040319003439292000901223006308AA
:1042900064040319080064088A0063080A00A13155
:1042A000080020009110230061086204031908002F
:1042B00062088A0061080A00A1310800240016087B
:1042C000BF3940389600160E890C890C0139200040
:1042D000B100310C080021003608ED003508EC0073
:1042E0003C30A000B030A1008E31CE262100B501B7
:1042F000B60108002000B200B1013A3032020318C2
:10430000872930303202031C8729B101B10A310CF0
:1043100008002000B2007B30320203189729613078
:104320003202031C9729DF30B1003108B205320890
:1043300008000F3020009E009D0191102100911473
:1043400083302000B1002030B200A03195204E30E3
:1043500020009F000800210036082200ED00210007
:1043600035082200EC003C302100A000B030A10054
:104370008E31CE262100B501B6010800583020004C
:104380009800613096009501901221009016073038
:104390002000B1002730B200A0318C2089302000ED
:1043A00097000800A0313B20A131A6316A26A13137
:1043B000A031C220A131AF319A27A131A131992179
:1043C000A131A131BE21A131A23145220800220034
:1043D000201D0800200032082200A3002000310820
:1043E0002200A200200034082200A500200033088B
:1043F0002200A4002011080020002108F10020085C
:10440000F000A5310425A13120002308F100220885
:10441000F0002408FB007B08F2002608F4002508C1
:10442000F3009A310322080020003D08B2003C0846
:10443000B100A531DA25A23120003F08B2003E08C4
:10444000B1004008C3004308B3004208B50041086A
:10445000B4009D315E2508002000BA003A08031917
:10446000352A2030B1000230392AA0302000B100B6
:104470000230B2002830B3000030B400A131E7218F
:10448000A2310030A4316D240800210091121112D4
:10449000083023009F0090309D0024309E0019308A
:1044A0009B009C01FD012000D9010830B1003108BA
:1044B000DE00D801D701D6012100911608002000A6
:1044C000310884003208850000083306031908000B
:1044D0003208B6003108B500B10A0319B20A35082E
:1044E0008400360885001200031D5F2AB101B20165
:1044F00008002000D501D50A210035082200C2009D
:10450000210036082200C300890D893B8909C400B7
:10451000C5003C302100A000B030A1008E31CE2675
:104520002100B501B601080023009D1C992A1D1227
:104530001D161908F00020005808A03E8600013022
:104540008700700881000130F0007008D80708303B
:1045500058020318D8010130F0007008D60708008F
:104560002000B501B601311CB92A3308B50734085B
:10457000B63D0130B335B40D890BBA2A0130B236DD
:10458000B10C890BBF2A31083204031DB32A360847
:10459000B2003508B100080002302000C900490807
:1045A000D500210035082200BE0021003608220077
:1045B000BF00890D893B8909C000C1003C30210042
:1045C000A000B030A1008E31CE262100B501B60189
:1045D0000800083020005E020318042B5908A83E8A
:1045E000860001308700010823009A000130F000A6
:1045F00070082000D907083059020318D90101308A
:10460000F0007008DE0708002100111208002100E8
:1046100036082000C500210035082000C400210014
:1046200038082000C700210037082000C600873165
:104630005C27A3313C302100A000B030A1008E31B6
:10464000CE262100B501B601080021003608200061
:10465000C500210035082000C400210038082000D2
:10466000C700210037082000C6009E31C926A331AB
:104670003C302100A000B030A1008E31CE262100B8
:10468000B501B601080021005D08EF005C08EE00EE
:104690006F08D4006E08D30096314726A33121005D
:1046A0006F08D4006E08D30097314D27A3313C30FA
:1046B0002100A000B030A1008E31CE262100DC0107
:1046C000DD010800AF315827A3312200A01D722B55
:1046D000A1312021A331031C722B0F30F500750886
:1046E0002200AA0022002A35483E860002308700B8
:1046F000413F8A00403F0A00A331F50075082200BF
:10470000AA0008002000B20156080319842B57089C
:10471000A03E8600013087000108B1003108B200D8
:104720000130B1003108D707083057020318D7010C
:104730002100911201302000D602210091162000A4
:10474000320808009E3420342C342134FF342034C5
:10475000B6341D34BB341934CC342034AB34253456
:10476000433420344B342034533420345B342034ED
:10477000633420346B34203473342034F4342034E4
:104780008034253420002708AD002808AE00290811
:10479000AF002A08B0001030B036AF0CAE0CAD0C34
:1047A000890BCC2B2E08A1002D08A0002808A300FF
:1047B0002708A200A401A40A2C08A6002B08A50023
:1047C000A131FC21080020004408CA004508CB00A4
:1047D0004608CC004708CD001030CD36CC0CCB0CB1
:1047E000CA0C890BED2B4B08BD004A08BC004508DC
:1047F000BF004408BE00C001C00A4908C200480802
:10480000C100A231142208002000C501C11F0F2CD5
:10481000C009C109C00A0319C10AC501C50A400877
:10482000B1004108B200B3018E30C3004308B400A8
:104830004508C4004408B5009F312D2720003108E9
:10484000C0003208C1003308C20008003F2C4530C8
:104850002100A000B030A1008E31CE2608003C30EF
:104860002100A000B030A1008E31CE2608004230D9
:104870002100A000B030A1008E31CE26080020001B
:104880005508013A0319272C033A03192F2C372C0A
:1048900008002200A0110230F0007008AB00562C76
:1048A000AF3186270800AF318A27080022003A0876
:1048B000F0007008F0001030203E860001308700C4
:1048C000413F8A00403F0A00A431023A0319502CAC
:1048D000013A0319502C532C08002000B800B901EC
:1048E000B90A220020188E2C20142000B9013808A3
:1048F00003197E2C2200AA01AA0A842C023020006F
:10490000B70037082200AA00AF316127A431A031D7
:10491000D620A43103188E2CA1311521200039088E
:1049200008002000B2005E080319932C2100111A20
:104930009E2C2000320823009A00B32C1112200074
:104940003208B1007D08A83E86000130870031089A
:1049500081000130B1003108FD0708307D020318E5
:10496000FD010130DE022100111608007E1CBA2C68
:10497000A331622BAF317327A4312200A01DCB2CB1
:10498000A1315E21A431031CCB2C0F302000B600D6
:1049900036082200AA0022002A35483E860002304E
:1049A0008700413F8A00403F0A00A4312000B60042
:1049B00036082200AA0008002000D501003021009E
:1049C000E9000030E8000030E7000030E600003089
:1049D0002000D1000030D0000030CF000030CE00E9
:1049E00000302200C5000030C4000030C300003099
:1049F000C2003C302100A000B030A1008E31CE2694
:104A00002100B501B601080022000D120F30F6009A
:104A10000030F700F71B2B2D0C110130F200003095
:104A2000F300760A152DF235F30D890B132D70085E
:104A30007205F40071087305F50074087504031914
:104A4000232D0E15242D0E110C15FF30F607FF3007
:104A5000F73DF71F0C2D0C11080022008E140030BA
:104A60002000BC00BD000030BE00BF000530C90002
:104A70004908C000210047082000C2002100460864
:104A80002000C100A2311422A53121004708B60040
:104A90004608B5009631C62621003808C9003708F7
:104AA000C8003608C7003508C600080022002015D7
:104AB000632DAF3186270800AF315527033008003A
:104AC000AF318A27080022003808F0007008F00093
:104AD0000C30203E860001308700413F8A00403F75
:104AE0000A00A531013A0319602D033A0319592D23
:104AF000013A0319592D073A03195C2D602D08005E
:104B00007E1C842DA431492C2200A01102302000EB
:104B1000B10031082200AB00932DA03153200800D2
:104B2000A0315B20080022003A082000B1003108C3
:104B3000B1001030203E860001308700413F8A00DE
:104B4000403F0A00A531023A03198D2D013A03199D
:104B50008D2D902D08007E1CAF2DA531562D2200E5
:104B60002015BC2DA03153200800AF317027033031
:104B70000800A0315B200800220038082000B100A6
:104B80003108B1000C30203E860001308700413FE3
:104B90008A00403F0A00A531013A0319B92D033AB2
:104BA0000319B22D013A0319B22D073A0319B52D95
:104BB000B92D080022000D120F302000B700003080
:104BC000B800B81B072E22000C1101302000B300E2
:104BD0000030B400370AEE2DB335B40D890BEC2D3F
:104BE00031083305B50032083405B60035083604FF
:104BF0000319FD2D22000E15FF2D22000E110C159C
:104C0000FF302000B707FF30B83DB81FE32D22006A
:104C10000C1108002000BE00BC01BD01172E0130A0
:104C2000BA003A08BE070130BC070030BD3D3E085F
:104C300086000130870001080319352E3908B200BB
:104C40003808B1003E088600013087000108BA002C
:104C5000BB013A08B3003B08B400A2315F22A63181
:104C600020003108320403190F2E3D08B9003C081A
:104C7000B80008002000BE00BC01BD01472E013075
:104C8000BA003A08BE070130BC070030BD3D3E08FF
:104C900086000130870001080319652E3908B2002B
:104CA0003808B1003E088600013087000108BA00CC
:104CB000BB013A08B3003B08B400A2315F22A63121
:104CC000200031083204031D3F2E3D08B9003C0886
:104CD000B800080022008C018D018E0133302100C4
:104CE0008C0060308D00F8308E0023008E018D0125
:104CF0008C0124008D018C01C8308E0025008C01B0
:104D00008D018E013C002108E0390D38A1002008FA
:104D1000E0390E38A0002408E0391738A4003D001F
:104D20001F08E03914389F001E08E03918389E002B
:104D30001D08E03919389D0008002000B800A82E91
:104D40000130B5003508B8070130B3070030B43D75
:104D500033088400340885000008A1318921A63178
:104D6000FF3A013E2000B500380886000130870078
:104D70000108A1318921A63120003507B600360887
:104D8000B7003708031DCB2E380886000130870096
:104D90000108031DA02E3708B300B401B31BB403F0
:104DA00008002000330832043104031DDE2E3408CD
:104DB000860087010030C03FC13F080033087F39BB
:104DC000B500B601B535B60D340886008701350843
:104DD000C03F3608C13F320D320D0139B500B60172
:104DE0003408860087013508810441313608810482
:104DF000340886008701823081074131FF30813DD0
:104E00007F31330880393F38B300B21308002200E5
:104E10005D082000AA0022005C082000A9002200F2
:104E20005B082000A80022005A082000A7000130DB
:104E3000AB000030AC00A331C223A73122005108DF
:104E40002000AA00220050082000A90022004F08DC
:104E50002000A80022004E082000A7000230AB006E
:104E60000030AC00A331C223A73122008E10AF3135
:104E70003D27A7310030AF31AA2708002100B61B1B
:104E8000772F3608803A2000C90080304902031D80
:104E90004C2F1830210035020318772F2E302100B7
:104EA000A000B030A10036082000CA00210035085B
:104EB0002000C900C935CA0DC935CA0D9030CB00D4
:104EC0002730CC0049084B0786004A084C3D870034
:104ED000403F2100A200413FA300423FA400433FC6
:104EE000A5008E31CE262100B501B60108000130A3
:104EF0002100B5000030B6000800AF315227A731BD
:104F0000F000220022088600230887007008810034
:104F10000130A2070030A33D0130A4020030A53BC0
:104F2000240825040319982FAF317627053008008F
:104F30002015A02FAF3196270800AF319227080027
:104F400022003808F0007008F0000C30203E860087
:104F500001308700413F8A00403F0A00A731013AF3
:104F600003199D2F033A03199A2F013A03199A2F17
:104F7000073A03199D2F9D2F080020004208410485
:104F800040043F040319F72FC801C80AC21BD42FDD
:104F90000130BF35C00DC10DC20D890BC92F0130C5
:104FA000C7004708C807C62F42084602031DE22F64
:104FB00041084502031DE22F40084402031DE22F71
:104FC0003F084302031CEC2F3F08C3024008C43BC8
:104FD0004108C53B4208C63B0130C236C10CC00C7B
:104FE000BF0C890BED2F0130C802031DD42F4608DA
:104FF000C2004508C1004408C0004308BF000800C3
:1050000001340034003400340A34003400340034F5
:105010006434003400340034E834033400340034A1
:105020001034273400340034A03486340134003482
:10503000403442340F340034803496349834003491
:105040000034E134F53405340034CA349A343B3446
:105050000A34743465347334743469346E346734A8
:10506000203462346F34743474346F346D342034CB
:105070004C344534443420346434723469347634E6
:10508000653472342E342E342E340A3400340A340B
:105090002D342D342D342D34733474346134723402
:1050A000743469346E346734203463346F346D344F
:1050B0006D34203474346534733474342D342D34A9
:1050C0002D342D340A340A3400342D342D342D344B
:1050D0002D34663469346E3469347334683465341D
:1050E0006434203463346F346D346D34203474345C
:1050F0006534733474342D342D342D342D340A3406
:105100000034743465347334743469346E34673401
:10511000203474346F34703420344C344534443487
:1051200020346434723469347634653472342E3405
:105130002E342E3400340A347434653473347434A9
:1051400069346E34673420347034693465347A34A9
:105150006F34203464347234693476346534723494
:105160002E342E342E34003455344E3452344534DB
:1051700043344F3447344E3449345A34453444343C
:10518000203443344F344D344D3441344E34443460
:1051900021340A3400346434723476345F34773422
:1051A0007234693474346534203465347234723442
:1051B0006F34723421340A340034643472347634F7
:1051C0005F3472346534613464342034653472344D
:1051D00072346F34723421340A34003464347234DB
:1051E0007634203469346E3469347434693461340B
:1051F0006C3469347A34653464340A34003461348C
:10520000623473343A34203461346C346C34203476
:10521000743468346534723465340A34003472345A
:1052200065346134643420346434613474346134FA
:105230003A34203425346C3475340A340034F43470
:105240004A34483495349534C734C134DC34453459
:10525000DC346D34C334B3343334403468346534AF
:10526000613474346534723470346F34733474342C
:10527000743469346D34653400340A340A34733458
:1052800079347334743465346D34203464346F3459
:105290006E3465340A3400346834653461347434EF
:1052A00065347234703472346534743469346D34F6
:1052B0006534003474346F34673467346C34653467
:1052C0006834653461347434653472340034343491
:1052D000013448349D34B03445340034DA34423437
:1052E000003480343F347034693465347A346F3438
:1052F0006F346E34743469346D346534003468341A
:105300006534613474346534723431346F346634E6
:1053100066340034743469346D346534683465340B
:10532000613474346534723400340A340A347334AA
:1053300068346F347234743473343A342034003443
:1053400068346534613474346534723432346F34A3
:105350006E34003473346F346634743472346534AC
:1053600073346534743400344634413449344C3435
:10537000453444340A340A340034703461347334AC
:105380007334653464340A340A3400346434723457
:1053900076345034653461346B34003464347234A0
:1053A00076344734613469346E3400346C34653497
:1053B00064346734613469346E3400346D3473346A
:1053C0007434613474347534733400344634413485
:1053D00049344C34453444340A3400347034613434
:1053E00073347334653464340A3400346F34703485
:1053F00065346E3473343A342034003464346F349A
:105400006D346F347634653400346C346534643410
:0854100070347734723400346B
:105E7800080020009713080020001F1108002000C8
:105E880011110800AF3143270800240096140800B8
:105E9800240016150800240096150800240011088F
:105EA800080020009115080020009111080020002A
:105EB8009717080020001F15080024001614080072
:105EC80024009614080024001615080024009615CE
:105ED800080024001108080020009115080020007F
:105EE8009111080024009612161608002400961630
:105EF80016160800AF31492701300800AF3149278D
:105F080002300800AF31492701300800AF314C2773
:105F180000300800AF31762705300800AF317A2706
:105F28000A300800AF317A270930080016302100FE
:105F380097000800240096121616080024009616EA
:105F4800161608000134003400340034F0007008DC
:105F5800200095000800F000700820009D0008004F
:105F6800F000700824009100080022002010AB0106
:105F78000E3008002000B10031089600080020000B
:105F8800B10031089E0008002200A011AF314F2750
:105F9800043008007E1CD22F9131E429013008001A
:105FA8007E1CD82F80310228053008002000B1005F
:105FB80031082400910008002000B3003308A43100
:105FC80091240800E83403340034003428340034C1
:105FD800C03403341E3400347F340034AF313C27DE
:105FE80022002010AB010E3008002200A015213538
:105FF800AF31B42703300800673465347434413452
:10600800003473346534743441340034673465348F
:1060180074344D3400347334653474344D3400347E
:10602800703469346E346734003463346F346D34DB
:106038006D340034723465346C3400346134623445
:106048007334003470346F34733400342534693455
:106058000A340034253464340A3400342534643472
:10606800203400340034C8343F340034C8343D345C
:1060780041340A34003445340A3400344E340A3486
:10608800003452340A3400343F3400347A34003453
:02609800593479
:020000040001F9
:08000E00ECFFF3FFFFFFFFFF11
:00000001FF
